:020000040800F2
:100000000000022081210008D9200008DB20000820
:10001000DD200008DF200008E120000800000000CB
:10002000000000000000000000000000E3200008C5
:10003000E520000800000000E7200008E920000893
:10004000D1210008D1210008D1210008D1210008C8
:10005000D1210008D1210008D1210008D1210008B8
:10006000D1210008D1210008D1210008D1210008A8
:10007000D1210008D1210008D1210008D121000898
:10008000D1210008D1210008D1210008F520000865
:10009000052100081521000825210008D1210008AC
:1000A000D1210008D1210008D1210008D121000868
:1000B000D1210008D1210008D1210008D121000858
:1000C000D1210008D1210008D1210008D121000848
:1000D000D1210008D1210008D1210008D121000838
:1000E000D1210008D1210008D1210008D121000828
:1000F000D1210008D1210008D1210008D121000818
:10010000D1210008D1210008D1210008D121000807
:10011000D1210008D1210008D1210008D1210008F7
:10012000D1210008D1210008D1210008D1210008E7
:10013000D12100080000000000000000D1210008CB
:10014000D1210008D1210008D1210008D1210008C7
:10015000D1210008D1210008D1210008D1210008B7
:10016000D1210008D1210008D1210008D1210008A7
:10017000D1210008D1210008D12100080000000091
:1001800000000000D1210008000000000000000075
:10019000D12100080000000000000000D12100086B
:1001A000000000000000000000000000D121000855
:1001B000D1210008D1210008D1210008D121000857
:0401C000D121000841
:1001D00010B5054C237833B9044B13B10448AFF381
:1001E00000800123237010BD70000020000000007B
:1001F000402A000808B5034B1BB103490348AFF37D
:10020000008008BD0000000074000020402A0008A3
:1002100053B94AB9002908BF00281CBF4FF0FF316D
:100220004FF0FF3000F072B9ADF1080C6DE904CE6B
:1002300000F006F8DDF804E0DDE9022304B07047C1
:100240002DE9F047089E04468846002B4BD18A4290
:10025000154667D9B2FA82F24AB1C2F1200701FA13
:1002600002F320FA07F7954047EA030894404FEA63
:10027000154E230CB8FBFEF71FFA85FC0EFB178802
:1002800043EA084307FB0CF1994209D9EB1807F13F
:10029000FF3080F01B81994240F21881023F2B44CD
:1002A0005B1AA4B2B3FBFEF00EFB103344EA034426
:1002B00000FB0CFCA44509D92C1900F1FF3380F098
:1002C0000781A44540F2048102382C4440EA0740EB
:1002D000A4EB0C0400271EB1D4400023C6E9004360
:1002E0003946BDE8F0878B4209D9002E00F0EB803B
:1002F0000027C6E9000138463946BDE8F087B3FA61
:1003000083F7002F47D18B4202D3824200F2FA805A
:10031000841A61EB030301209846002EE0D0C6E961
:100320000048DDE702B9FFDEB2FA82F2002A40F0AF
:100330008F80491B4FEA154E1FFA85F80127B1FB44
:10034000FEFC230C0EFB1C1143EA014308FB0CF1DD
:10035000994207D9EB180CF1FF3002D2994200F212
:10036000CD808446591AA3B2B1FBFEF00EFB1014E7
:1003700043EA044408FB00F8A04507D92C1900F112
:10038000FF3302D2A04500F2B6801846A4EB080461
:1003900040EA0C409FE7C7F1200CBB4022FA0CFE5C
:1003A0004EEA030E01FA07F420FA0CF521FA0CF3D9
:1003B0004FEA1E482543B3FBF8F92C0C08FB193310
:1003C0001FFA8EFA44EA034309FB0AF49C4202FA3C
:1003D00007F200FA07F10BD91EEB030309F1FF3016
:1003E00080F087809C4240F28480A9F10209734426
:1003F0001B1BADB2B3FBF8F008FB103345EA034416
:1004000000FB0AFAA24508D91EEB040400F1FF33F1
:100410006BD2A24569D90238744440EA0940A0FB76
:100420000289A4EB0A044C45C2464B4654D351D032
:10043000002E69D0B1EB0A0564EB030404FA0CFC4E
:10044000FD40FC404CEA0505C6E90054002747E79B
:10045000C2F1200320FA03F7954001FA02F021FAD5
:1004600003F34FEA154E3843010CB3FBFEF71FFAB6
:1004700085F80EFB173341EA034107FB08F38B4273
:1004800004FA02F407D9691807F1FF3C2FD28B4216
:100490002DD9023F2944CB1A81B2B3FBFEF00EFBEB
:1004A000103341EA034100FB08F38B4207D9691876
:1004B00000F1FF3C17D28B4215D902382944C91AE2
:1004C00040EA07473BE73746304609E70746E7E695
:1004D0001846FBE64145ABD2B8EB020A69EB0E02C7
:1004E00001381346A4E76046E9E7184695E76746F2
:1004F000D1E781467CE702382C4447E7ACF1020C97
:100500002B442FE7384608E73746E9E6704700BF37
:10051000034613F8012B002AFBD1181A0138704743
:1005200001F0FF01102A2BDB10F0070F08D010F8A4
:10053000013B013A8B422DD010F0070F42B3F6D1A8
:10054000F0B441EA012141EA014122F007047FF0C1
:1005500000070023F0E80256083C85EA010586EA18
:10056000010685FA47F5A3FA87F586FA47F6A5FA54
:1005700087F68EB9EED1F0BC01F0FF0102F0070260
:1005800032B110F8013B013A83EA010313B1F8D10B
:100590000020704701387047002D06BF35460338EC
:1005A000073815F0010F07D1013015F4807F02BF25
:1005B000013015F4C03F0130F0BC0138704700BF76
:1005C00010B504460E4B18784FF47A73B3FBF0F372
:1005D0000C4A1068B0FBF3F000F018FC68B90F2C5F
:1005E00001D901200AE0002221464FF0FF3000F03F
:1005F000CDFB034B5C60002000E0012010BD00BF7C
:10060000000000200800002008B50B4B1A6842F4D7
:1006100000721A601A6842F480621A601A6842F422
:1006200080721A60032000F09FFB0020FFF7C8FFD4
:1006300001F082FC002008BD003C0240034A116822
:10064000034B1B780B441360704700BF98000020D9
:1006500000000020014B1868704700BF9800002080
:1006600038B50446FFF7F6FF0546B4F1FF3F02D068
:10067000044B1B781C44FFF7EDFF401BA042FAD34C
:1006800038BD00BF00000020002800F0A18038B570
:10069000044690F82030D3B12268136823F0020397
:1006A0001360FFF7D7FF054623685A6812F0020F60
:1006B00010D0FFF7CFFF401B0A28F5D9636A43F437
:1006C00000336362052384F82030012038BD01F037
:1006D0007DFCE1E71A6842F001021A60FFF7BAFFF9
:1006E000054623685A6812F0010F0DD1FFF7B2FFDB
:1006F000401B0A28F5D9636A43F40033636205237B
:1007000084F820300120E1E7227E012A3DD01A68DA
:1007100022F080021A60637E012B3BD022681368AE
:1007200023F040031360A37E012B39D022681368A5
:1007300023F020031360E37E012B37D02268136877
:1007400043F010031360237F012B35D02268136818
:1007500023F008031360637F012B33D022681368F2
:1007600023F004031360A368E26813432269134370
:10077000626913436268013A21681343CB61002028
:100780006062012384F82030A0E71A6842F08002FA
:100790001A60C0E72268136843F040031360C2E7A1
:1007A0002268136843F020031360C4E722681368CB
:1007B00023F010031360C6E72268136843F00803B0
:1007C0001360C8E72268136843F004031360CAE7A4
:1007D0000120704790F82030DBB2012B0AD090F84E
:1007E0002030DBB2022B05D0436A43F480234362FE
:1007F0000120704770B4424BD3F8002242F001024E
:10080000C3F80022D3F8002222F47C52C3F800225D
:10081000D3F80022486A42EA0022C3F800224A695B
:10082000012000FA02F2D3F81C42D0430440C3F87E
:100830001C42CB69B3B9324BD3F80C420440C3F825
:100840000C42CE688D884C6945EA0645483443F829
:1008500034508E680C884D6944EA0644483503EBF1
:10086000C5035C60CB69012B1DD08B69002B32D195
:10087000234CD4F804320340C4F804320B698BBB18
:100880001F4BD3F814422040C3F814020B6A012B0B
:100890002FD01B4AD2F8003223F00103C2F80032F5
:1008A000002070BC7047164BD3F80C421443C3F8B9
:1008B0000C420E688D884C6945EA0645483443F879
:1008C00034508E688C894D6944EA0644483503EB00
:1008D000C5035C60C9E70A4CD4F804321343C4F87A
:1008E0000432CBE70648D0F814321343C0F8143270
:1008F000CCE70349D1F81C321A43C1F81C22C8E7DF
:100900000064004038B590F82030DBB2012B05D0F0
:10091000436A43F400234362012038BD04460223A6
:1009200080F820300268136823F001031360FFF79A
:1009300091FE054623685B6813F0010F0DD0FFF7A9
:1009400089FE401B0A28F5D9636A43F400336362C9
:10095000052384F820300120DFE700206062DCE717
:1009600030B490F82040E4B2012C0BD090F8204035
:10097000E4B2022C06D0436A43F480234362012090
:1009800030BC704751B90468E46814F0030F07D114
:10099000436A43F4001343620120F1E701295DD06B
:1009A000056801F11B0424012C5904F0040494602F
:1009B000002C5ED1056801F11B0424012C59640D43
:1009C0001460056801F11B0424012D59C5F340058D
:1009D000D560056825446D6805F00F05156105684B
:1009E00025446D68C5F30725956105682C44646846
:1009F000240C546104680A011444D4F8B8411C70F2
:100A000004681444D4F8B841240A5C70046814449F
:100A1000D4F8B841240C9C7004681444D4F8B8414C
:100A2000240EDC7004681444D4F8BC411C710468C2
:100A30001444D4F8BC41240A5C7104681444D4F80A
:100A4000BC41240C9C7104682244D2F8BC21120ED3
:100A5000DA71B1B101291BD0002091E70468246943
:100A600014F0030F9CD1436A43F400134362012046
:100A700086E7056801F11B0424012C59E408546041
:100A80009FE70268D36843F02003D360002077E734
:100A90000268136943F020031361002070E790F8A7
:100AA0002030DBB2012B06D090F82030DBB2022BD5
:100AB00001D00020704721B10368186900F00300DD
:100AC00070470368D86800F00300704790F8203042
:100AD000DBB2012B0AD090F82030DBB2022B05D01C
:100AE000436A43F4802343620120704702685369DC
:100AF0001943516100207047704770477047704735
:100B0000704770477047704770477047704770472D
:100B10002DE9F84F054603685C695F689E68D3F865
:100B20000C90D3F81080D3F818A014F0010F5AD00D
:100B300016F0010F17D001229A6016F0020F08D1AB
:100B400016F0040F30D116F0080F07D04FF4805B79
:100B50000BE0FFF7D1FF4FF0000B06E0FFF7CFFFF0
:100B60004FF0000B01E04FF0000B16F4807F0BD02C
:100B70002B684FF480729A6016F4007F17D116F438
:100B8000806F18D04BF4005B16F4803F2DD02B689B
:100B90004FF480329A6016F4003F16D116F4802F7D
:100BA00017D04BF4004B20E04FF4006BDDE72846F4
:100BB000FFF7A3FFE8E716F4006F02D04BF4804B79
:100BC000E2E72846FFF79CFFDEE72846FFF796FF9F
:100BD0000BE016F4002F02D04BF4803B05E02846D2
:100BE000FFF78FFF01E04FF0000B14F0080F07D064
:100BF00019F0100F04D04BF4007B2B681022DA6040
:100C000014F0040F02D019F0080F60D114F0020F95
:100C100004D02B68DB6813F0030F5FD114F0400F92
:100C200007D018F0100F04D04BF4806B2B68102203
:100C30001A6114F0200F02D018F0080F52D114F0EE
:100C4000100F04D02B681B6913F0030F51D114F45B
:100C5000003F02D017F0100F4FD114F4803F02D0A4
:100C600017F0080F50D114F4004F67D017F0040F9D
:100C700061D014F4807F04D01AF0010F01D04BF042
:100C8000010B14F4007F04D01AF0020F01D04BF0D6
:100C9000020B14F4806F04D01AF0040F01D04BF053
:100CA000040B14F4006F46D01AF0700A43D0BAF166
:100CB000300F48D02FD9BAF1500F47D0BAF1600F9A
:100CC00047D0BAF1400F31D14BF0400B2EE02B68EA
:100CD0000822DA60284601F001F897E72846FFF776
:100CE00011FF9BE72B6808221A612846FFF70CFFCB
:100CF000A5E72846FFF707FFA9E72B6810225A60EF
:100D00002846FFF702FFA8E72B6808225A6028460A
:100D1000FFF7FCFEA7E7BAF1100F05D0BAF1200FDC
:100D200004D14BF0100B01E04BF0080B2A689369DB
:100D300023F0700393612B6804225A60BBF1000F0B
:100D40000AD1BDE8F88F4BF0200BEFE74BF0800B9A
:100D5000ECE74BF4807BE9E76B6A43EA0B036B62D9
:100D60002846FFF7D4FEECE7074AD36823F4E06394
:100D70001B041B0C000200F4E060184340F0BF604D
:100D800040F40030D060704700ED00E030B4174B05
:100D9000DB68C3F30223C3F10704042C28BF042437
:100DA0001D1D062D18D9033B4FF0FF3505FA04F43D
:100DB00021EA0401994005FA03F322EA03031943E7
:100DC00000280BDB0901C9B200F1604000F5614069
:100DD00080F8001330BC70470023E5E700F00F00F7
:100DE0000901C9B2024B1954F4E700BF00ED00E05D
:100DF00014ED00E000F01F02400901239340024A75
:100E000042F82030704700BF00E100E00138B0F147
:100E1000807F0AD2064B5860064AF02182F82310E0
:100E20000020986007221A6070470120704700BFB9
:100E300010E000E000ED00E0042805D0054A13684A
:100E400023F0040313607047024A136843F004035D
:100E50001360704710E000E0704708B5FFF7FCFF33
:100E600008BD000000230F2B00F2D180F0B482B047
:100E700039E0062200E00022B2403A430234644ED8
:100E800046F82420634A1468EA4302EA04064F68DD
:100E900017F4803F01D045EA04065E4C2660646882
:100EA00002EA04064F6817F4003F01D045EA040641
:100EB000584C6660A46802EA04064F6817F4801F65
:100EC00001D045EA0406534CA660E46822404E680F
:100ED00016F4001F01D045EA04024E4CE2600133D3
:100EE0000F2B00F2918001229A400C6804EA02055F
:100EF000AA42F4D14C68022C01D0122C10D1DE0889
:100F0000083650F826C003F00704A7000F24BC40A1
:100F10002CEA040C0C69BC4044EA0C0440F826405E
:100F200004685F000326BE40F64306EA040C4C68E2
:100F300004F00304BC4044EA0C0404604C6804F16F
:100F4000FF3CBCF1010F03D9112C01D0122C10D1A0
:100F5000846806EA040CCC68BC4044EA0C04846053
:100F6000446824EA02024C68C4F300149C40144311
:100F70004460C26816408A68BA403243C2604A6818
:100F800012F0805FABD000220192234A546C44F4EB
:100F900080445464526C02F480420192019A9C088D
:100FA000A61C1B4A52F8267003F0030296000F227B
:100FB000B24027EA0207194A90423FF45CAF02F5BB
:100FC0008062904216D002F58062904214D002F501
:100FD0008062904212D002F58062904210D002F5F9
:100FE000806290420ED002F5806290423FF441AFA1
:100FF000072241E701223FE702223DE703223BE7C8
:10100000042239E7052237E702B0F0BC7047704789
:1010100000380140003C014000380240000002401E
:1010200012B9090481617047816170474369594071
:1010300041617047002800F09D8070B504464F4B19
:101040001B6803F00F038B4209D2CBB24B4A1370DB
:10105000136803F00F038B4201D0012070BD236899
:1010600013F0020F17D013F0040F04D0444A936812
:1010700043F4E0539360236813F0080F04D0404A10
:10108000936843F4604393603D4A936823F0F00310
:10109000A068034393600D46236813F0010F32D01C
:1010A0006368012B21D09A1E012A25D9344A12687F
:1010B00012F0020F60D032498A6822F00302134313
:1010C0008B60FFF7C7FA06462D4B9B6803F00C03B5
:1010D0006268B3EB820F16D0FFF7BCFA801B41F2B7
:1010E00088339842F0D90320B8E7254A126812F4F1
:1010F000003FE0D10120B1E7214A126812F0007FE1
:10110000D9D10120AAE71D4B1B6803F00F03AB42A6
:1011100009D9EAB2194B1A701B6803F00F03AB42EE
:1011200001D001209AE7236813F0040F06D0144A77
:10113000936823F4E053E1680B439360236813F052
:10114000080F07D00E4A936823F46043216943EAED
:10115000C103936000F040F8094B9B68C3F303138D
:10116000084AD35CD840084B18600020FFF728FAE3
:10117000002073E70120704701206FE7003C024028
:1011800000380240582A000808000020014B186867
:10119000704700BF0800002008B5FFF7F7FF044BB9
:1011A0009B68C3F38223034AD35CD84008BD00BFC9
:1011B00000380240682A000808B5FFF7E7FF044B33
:1011C0009B68C3F34233034AD35CD84008BD00BFD9
:1011D00000380240682A00082DE9F04B5C4B9B6800
:1011E00003F00C03082B07D00C2B5BD0042B00F072
:1011F000AD805848BDE8F08B554B5A6802F03F026D
:101200005B6813F4800F2AD0514B5B68C3F38813DB
:101210001E4600275C010025E41A65EB0705A901BD
:1012200041EA9461A001001B61EB0501CB0043EA98
:101230005073C400A01943EB07014B0243EAD0539B
:101240004402204619460023FEF7E2FF404B5B684C
:10125000C3F3014301335B00B0FBF3F0CAE73C4B3F
:101260005B68C3F388131E4600275C010025E41A5F
:1012700065EB0705A90141EA9461A001001B61EB40
:101280000501CB0043EA5073C400A01943EB0701EA
:101290008B0243EA90538402204619460023FEF74E
:1012A000B7FFD3E72A4B5A6802F03F025B6813F49A
:1012B000800F28D0264B5B68C3F388131E46002797
:1012C0005C010025E41A65EB0705A90141EA946178
:1012D000A001001B61EB0501CB0043EA5073C40081
:1012E000A01943EB07014B0243EAD05344022046C6
:1012F00019460023FEF78CFF154B5B68C3F302739E
:10130000B0FBF3F076E7124B5B68C3F388131E461D
:1013100000275C010025E41A65EB0705A90141EAF5
:101320009461A001001B61EB0501CB0043EA5073FF
:10133000C400A01943EB07018B0243EA90538402D7
:10134000204619460023FEF763FFD5E7024851E720
:10135000003802400024F40000127A0070B582B018
:101360000446036813F0010F41D0A64B9B6803F0BD
:101370000C03042B32D0A34B9B6803F00C03082B07
:1013800027D0A04B9B6803F00C030C2B59D063684B
:10139000B3F5803F5BD0B3F5A02F5ED0994B1A68B0
:1013A00022F480321A601A6822F480221A6063687C
:1013B000002B5CD0FFF74EF90546924B1B6813F4E7
:1013C000003F14D1FFF746F9401B6428F5D90320EC
:1013D0009DE18C4B5B6813F4800FD2D0894B1B6866
:1013E00013F4003F03D06368002B00F08D81236865
:1013F00013F0020F67D0834B9B6813F00C0F4AD099
:10140000804B9B6803F00C03082B3FD07D4B9B68FF
:1014100003F00C030C2B48D0E368002B74D07A4BFC
:1014200001221A60FFF716F90546764B1B6813F088
:10143000020F60D1FFF70EF9401B0228F5D90320F7
:1014400065E1704B5B6813F4800FA0D0C6E76D4A6E
:10145000136843F480331360A9E76A4B1A6842F4B7
:1014600080221A601A6842F480321A609FE7FFF700
:10147000F1F80546634B1B6813F4003FB7D0FFF744
:10148000E9F8401B6428F5D9032040E15D4B5B6817
:1014900013F4800FBAD15B4B1B6813F0020F0AD014
:1014A000E368012B07D0012031E1564B5B6813F450
:1014B000800FB1D1EFE7534A136823F0F803216995
:1014C00043EAC1031360236813F0080F40D0636937
:1014D00063B34E4B01221A60FFF7BCF80546494B37
:1014E0005B6F13F0020F33D1FFF7B4F8401B0228F3
:1014F000F5D903200BE1434A136823F0F80321696F
:1015000043EAC1031360DEE73F4B00221A60FFF796
:10151000A1F805463B4B1B6813F0020FD3D0FFF731
:1015200099F8401B0228F5D90320F0E0374B002240
:101530001A60FFF78FF80546324B5B6F13F0020F0E
:1015400006D0FFF787F8401B0228F5D90320DEE01C
:10155000236813F0040F79D02A4B1B6C13F0805FC3
:1015600033D100230193274B1A6C42F080521A6446
:101570001B6C03F080530193019B0125244B1B68D6
:1015800013F4807F23D0A368012B34D0052B41D0E6
:101590001C4B1A6F22F001021A671A6F22F0040224
:1015A0001A67A368002B3FD0FFF754F80646154B87
:1015B0001B6F13F0020F48D1FFF74CF8801B41F26C
:1015C00088339842F3D90320A1E00025D6E7104ADA
:1015D000136843F480731360FFF73CF806460C4B26
:1015E0001B6813F4807FCED1FFF734F8801B0228EC
:1015F000F5D903208BE0034A136F43F0010313670F
:10160000CFE700BF0038024000004742800E47424B
:1016100000700040404B1A6F42F004021A671A6FC4
:1016200042F001021A67BCE7FFF714F806463A4B8E
:101630001B6F13F0020F08D0FFF70CF8801B41F26C
:1016400088339842F3D9032061E0E5B9A369002B00
:101650005CD0314A926802F00C02082A59D0022B61
:1016600017D02E4B00221A60FEF7F4FF04462A4BD7
:101670001B6813F0007F45D0FEF7ECFF001B02282B
:10168000F5D9032043E0244A136C23F080531364FC
:10169000DCE7224B00221A60FEF7DCFF05461E4BFA
:1016A0001B6813F0007F06D0FEF7D4FF401B022812
:1016B000F5D903202BE0E369226A1343626A43EA07
:1016C0008213A26A5208013A43EA0243E26A43EAF9
:1016D0000263226B43EA02730F4A53600F4B0122ED
:1016E0001A60FEF7B7FF04460B4B1B6813F0007F30
:1016F00006D1FEF7AFFF001B0228F5D9032006E054
:10170000002004E0002002E0012000E0002002B000
:1017100070BD0120FBE700BF003802406000474277
:101720002DE9F843044601680A6922F44052C3686F
:1017300013430B610168CA6822F4164222F00C02BE
:1017400083680069034360690343E069034313430B
:10175000CB6021684A6922F44072A36913434B614C
:10176000E369B3F5004F60D02368B84A934200F0B4
:10177000148102F58062934200F00F81FFF70CFDA7
:1017800000EB800000EB80006568AD00B0FBF5F574
:10179000AF4FA7FB05356D092E01FFF7FDFC00EBF0
:1017A000800000EB80006568AD00B0FBF5F9FFF745
:1017B000F3FC00EB800000EB80006568AD00B0FB3F
:1017C000F5F5A7FB05356D094FF0640808FB159585
:1017D0002D013235A7FB05356D0905F0F0053544BF
:1017E000FFF7DAFC00EB800000EB80006668B600D3
:1017F000B0FBF6F6FFF7D0FC00EB800000EB8000BA
:1018000063689B00B0FBF3F0A7FB0030400908FBC6
:1018100010684FEA081808F13208A7FB0837C7F329
:10182000431723682F449F600DE12368874A934242
:101830005BD002F58062934257D0FFF7ADFC00EB1E
:10184000800000EB800065686D00B0FBF5F5804F0F
:10185000A7FB05356D092E01FFF79EFC00EB80000C
:1018600000EB800065686D00B0FBF5F9FFF794FCB4
:1018700000EB800000EB800065686D00B0FBF5F5C3
:10188000A7FB05356D094FF0640808FB1595ED00C1
:101890003235A7FB05356D096D0005F4F875354443
:1018A000FFF77AFC00EB800000EB800066687600B2
:1018B000B0FBF6F6FFF770FC00EB800000EB800059
:1018C00063685B00B0FBF3F3A7FB03235B0908FB32
:1018D00013684FEAC80808F13208A7FB0837C7F3B6
:1018E000421723682F449F60ADE0FFF765FC00EBD3
:1018F000800000EB800065686D00B0FBF5F5544F8B
:10190000A7FB05356D092E01FFF756FC00EB8000A3
:1019100000EB800065686D00B0FBF5F9FFF74CFC4B
:1019200000EB800000EB800065686D00B0FBF5F512
:10193000A7FB05356D094FF0640808FB1595ED0010
:101940003235A7FB05356D096D0005F4F875354492
:10195000FFF732FC00EB800000EB80006668760049
:10196000B0FBF6F6FFF728FC00EB800000EB8000F0
:1019700063685B00B0FBF3F3A7FB03235B0908FB81
:1019800013684FEAC80808F13208A7FB0837C7F305
:10199000421723682F449F6055E0FFF70DFC00EBD2
:1019A000800000EB80006568AD00B0FBF5F5284FC6
:1019B000A7FB05356D092E01FFF7FEFB00EB80004C
:1019C00000EB80006568AD00B0FBF5F9FFF7F4FBB4
:1019D00000EB800000EB80006568AD00B0FBF5F522
:1019E000A7FB05356D094FF0640808FB15952D011F
:1019F0003235A7FB05356D0905F0F0053544FFF7D5
:101A0000DBFB00EB800000EB80006668B600B0FBFB
:101A1000F6F6FFF7D1FB00EB800000EB8000636877
:101A20009B00B0FBF3F0A7FB0030400908FB1068F7
:101A30004FEA081808F13208A7FB0837C7F3431725
:101A400023682F449F60BDE8F88300BF0010014069
:101A50001F85EB512DE9F04105460F461646984685
:101A6000069C2B681B6837EA03030CBF0123002385
:101A7000B3421DD1B4F1FF3FF3D02CB1FEF7EAFD24
:101A8000A0EB0800A042ECD92A68D36823F4D073F5
:101A9000D3602A68536923F001035361202385F83A
:101AA000393085F83A30002385F83830032000E0DB
:101AB0000020BDE8F08158B310B5044690F83930E5
:101AC0000BB3242384F839302268D36823F40053FD
:101AD000D3602046FFF724FE2268136923F4904365
:101AE00013612268536923F02A0353612268D36883
:101AF00043F40053D3600020E063202384F839309E
:101B000084F83A3010BD80F8383000F099FAD8E700
:101B1000012070472DE9F04182B01E4690F839301F
:101B2000DBB2202B55D104460D469046002955D0F6
:101B3000002A55D090F83830012B53D0012380F87B
:101B400038300023C363212380F83930FEF782FD4B
:101B50000746A4F82480A4F8268010E000963B46AF
:101B6000002280212046FFF775FF00283CD12B88FA
:101B70002268C3F3080353602369C3B90235E38CB9
:101B80009BB2B3B1E38C013B9BB2E384A368B3F592
:101B9000805FE3D000963B46002280212046FFF77D
:101BA00059FF18BB2A7823685A600135E7E70135E9
:101BB000E5E700963B46002240212046FFF74AFF1A
:101BC0000346A8B9202284F83920002284F838205E
:101BD00000E00223184602B0BDE8F0810123F9E7D6
:101BE0000123F7E70223F5E70323F3E70323F1E7F4
:101BF0000323EFE730B589B000240194124B1A6B30
:101C000042F080021A631A6B02F080020192019A7C
:101C100002941A6B42F001021A631B6B03F001037A
:101C20000293029B094D224620212846FFF7F8F92E
:101C300020230393012304930594069403A92846C3
:101C4000FFF710F909B030BD003802400000024033
:101C500008B5002211461420FFF798F81420FFF76A
:101C6000C9F8002211461520FFF790F81520FFF75C
:101C7000C1F8002211461620FFF788F81620FFF75A
:101C8000B9F8002211461320FFF780F81320FFF760
:101C9000B1F808BD10B5044600210748FEF7FFFE65
:101CA00010B9064B186810BD2346044A00210248AB
:101CB000FEF756FEF5E700BFB4010020DC0100206E
:101CC00010B50446FEF724FC0A2382B221460248DE
:101CD000FFF720FF10BD00BF74010020F0B589B0F0
:101CE00020211348FFF7A2F9124C08212046FFF7E4
:101CF000D1FF23786278A178E5782679677994F81E
:101D000006C094F807E00C4CCDF818E0CDF814C0EC
:101D100004970396029501910092024607492046D6
:101D200000F07CFA2046FFF7CBFF09B0F0BD00BF02
:101D3000000002406C0100209C000020702A000876
:101D4000FEE7000008B50F480F4B03600223436015
:101D500000238360C3604FF4302202614FF480029D
:101D600042610376437601228276C3760377437716
:101D7000FEF78AFC00B908BD4FF482710348FFF7F3
:101D8000DFFF00BFB401002000640040902A00087B
:101D900008B50B480B4B03604FF4E133436000235D
:101DA0008360C36003610C2242618361C361FFF7FA
:101DB00082FE00B908BD4FF495710348FFF7C0FFDC
:101DC0007401002000440040902A000808B50B4828
:101DD0000B4B03604FF4E133436000238360C36027
:101DE00003610C2242618361C361FFF764FE00B9A5
:101DF00008BD40F217110348FFF7A2FF2C01002095
:101E000000100140902A000800B595B00021009113
:101E10002B4B1A6C42F080521A641B6C03F08053F7
:101E20000093009B0191274B1A6842F440421A60CC
:101E30001B6803F440430193019B012307934FF474
:101E4000A023089302230D934FF480020E920822E0
:101E50000F924FF49072109211931293139307A85C
:101E6000FFF77CFA20BB0F23029302230393002386
:101E700004934FF4A05305934FF480530693042129
:101E800002A8FFF7D7F8B8B9FFF780F90E4BA3FB0C
:101E900000308009FEF7BAFF0420FEF7CDFF0022D4
:101EA00011464FF0FF30FEF771FF15B05DF804FBEF
:101EB000BE210648FFF744FFCC210448FFF740FF4E
:101EC0000038024000700040D34D6210902A000894
:101ED00008B5FEF799FBFFF797FFFFF78BFEFFF7BB
:101EE00031FFFFF755FFFFF771FFFFF7B1FE0F4915
:101EF00000238B614B600B608B60CB600B614B618F
:101F0000CB6101230B620A4C2046FEF763FC20469E
:101F1000FEF7F8FC14212046FEF7D8FD15212046D7
:101F2000FEF7D4FD0348FEF79BFBFBE7040100200E
:101F3000B4010020A086010010B582B000240094F6
:101F4000214B5A6C42F480425A645A6C02F480422B
:101F50000092009A01941A6C42F080521A641B6C31
:101F600003F080530193019B0320FEF7FDFE224600
:101F700021466FF00B00FEF709FF224621466FF065
:101F80000A00FEF703FF224621466FF00900FEF724
:101F9000FDFE224621466FF00400FEF7F7FE2246C2
:101FA00021466FF00300FEF7F1FE224621466FF056
:101FB0000100FEF7EBFE224621464FF0FF30FEF710
:101FC000E5FE02B010BD00BF0038024002681A4BA7
:101FD0009A4200D070472DE9F04186B00026009665
:101FE00003F5EA331A6C42F000721A641B6C03F0BA
:101FF00000730093009B4FF4006301934FF00208BD
:10200000CDF808800123039303270497092505953C
:102010000A4C01A92046FEF725FF4FF48053019397
:10202000CDF8088003960497059501A92046FEF790
:1020300019FF06B0BDE8F0810064004000000240D6
:1020400000B589B00368204A934205D01F4A9342E5
:102050001ED009B05DF804FB002301931C4B5A6CA1
:1020600042F010025A645B6C03F010030193019B71
:102070004FF4C063039302230493012305930323C6
:1020800006930723079303A91248FEF7EBFEE0E748
:10209000002302930E4B1A6C42F400321A641B6C3C
:1020A00003F400330293029B0C2303930223049353
:1020B00001230593032306930723079303A90548E8
:1020C000FEF7D0FEC5E700BF00100140004400400D
:1020D00000380240000002407047FEE7FEE7FEE7DE
:1020E000FEE770477047704708B5FEF7A7FAFEF79E
:1020F000B4FE08BD08B50248FEF70AFD08BD00BFE2
:10210000B401002008B50248FEF702FD08BD00BF7B
:10211000B401002008B50248FEF7FAFC08BD00BF74
:10212000B401002008B50248FEF7F2FC08BD00BF6C
:10213000B40100200F49D1F8883043F47003C1F88E
:1021400088300D4B1A6842F001021A600020986036
:102150001A6822F0847222F480321A60074A5A60A8
:102160001A6822F480221A60D8604FF000638B60F6
:10217000704700BF00ED00E000380240103000243E
:10218000DFF834D0002103E00C4B5B58435004319E
:102190000B480C4B42189A42F6D30B4A02E000233C
:1021A00042F8043B094B9A42F9D3FFF7C3FF00F012
:1021B00011F8FFF78DFE704700000220E42A0008A6
:1021C000000000207000002070000020FC010020B2
:1021D000FEE7000070B50D4E0D4CA41BA4100025A9
:1021E000A54209D10B4E0C4C00F02AFCA41BA410F4
:1021F0000025A54205D170BD56F825309847013518
:10220000EEE756F8253098470135F2E7DC2A00085A
:10221000DC2A0008DC2A0008E02A00080EB400B519
:102220009CB01DAB029006906FF0004109480791E9
:102230000491094953F8042B05910068019302A900
:1022400000F066F8029B00221A701CB05DF804EBE7
:1022500003B070470C0000200802FFFF2DE9F04793
:102260008E689E4282460C469046994637D88A89A7
:1022700012F4906F31D0256809696F1A65690223DD
:1022800005EB450595FBF3F509F101033B449D4240
:1022900038BF1D46530530D5294600F029FB0646B8
:1022A00050B90C23CAF80030A38943F04003A3813E
:1022B0004FF0FF30BDE8F0873A46216900F0A6FAFA
:1022C000A38923F4906343F08003A38126616561B1
:1022D0003E44ED1B2660A5604E464E4500D94E4655
:1022E00032464146206800F09CFAA3689B1BA3601D
:1022F00023681E4426600020DCE72A4600F052FBDB
:1023000006460028E2D12169504600F0A3FAC8E74A
:102310002DE9F04F9DB0804603938B891D060C4636
:1023200016460FD50B696BB9402100F0E1FA206029
:10233000206128B90C23C8F800304FF0FF30C7E007
:10234000402363610023099320238DF82930302333
:102350008DF82A304FF0010B37463D4615F8013B0A
:102360000BB1252B3ED1B7EB060A0BD053463246B4
:1023700021464046FFF772FF013000F0A480099B20
:10238000534409933B78002B00F09D8000234FF0CD
:10239000FF32CDE90523049307938DF853301A9348
:1023A0002F46052217F8011B4F48FEF7B9F8049B8A
:1023B000D0B9D90644BF20228DF853201A0744BF54
:1023C0002B228DF853202A782A2A15D0079A2F46D7
:1023D00000200A25394611F8013B303B092B4DD925
:1023E000B8B10FE02F46B8E73F4A801A0BFA00F069
:1023F000184304903D46D3E7039A111D12680391D8
:10240000002A01DB079204E0524243F002030792E4
:1024100004933B782E2B0CD17B782A2B33D1039B52
:102420001A1D1B680392002BB8BF4FF0FF33023711
:1024300005932E4D397803222846FEF771F838B1FE
:102440004023401B03FA00F0049B0343013704932D
:10245000397827488DF8281006227E1CFEF760F890
:10246000002838D0234B13BB039B073323F007030B
:1024700008330393099B4B4409936DE705FB023234
:1024800001200F46A6E700230137059319460A25C8
:10249000384610F8012B303A092A03D9002BC8D04E
:1024A0000591C6E705FB012101230746F0E703ABD1
:1024B00000932246104B04A94046AFF30080B0F1D0
:1024C000FF3F8146D6D1A3895B063FF536AF099819
:1024D0001DB0BDE8F08F03AB00932246064B04A964
:1024E000404600F081F8EAE7A02A0008A62A000882
:1024F000AA2A0008000000005D2200082DE9F0472C
:1025000091461F468A680B69DDF820809342B8BF68
:102510001346C9F8003091F8432006460C4612B124
:102520000133C9F800302368990642BFD9F800305A
:102530000233C9F80030256815F0060507D104F10B
:10254000190AE368D9F800209B1AAB4228DC94F8FA
:1025500043302268003318BF012392062DD404F1C2
:10256000430239463046C047013020D02368E56831
:10257000D9F8002003F00603042B08BFAD1AA368A6
:1025800022690CBF25EAE57500259342C4BF9B1A5A
:10259000ED184FF000091A344D451AD1002008E01B
:1025A0000123524639463046C047013003D14FF02F
:1025B000FF30BDE8F0870135C3E7E1185A1C302031
:1025C00081F84300224494F8451082F84310023306
:1025D000C5E70123224639463046C0470130E6D0E0
:1025E00009F10109D8E700002DE9F04301F1430C9E
:1025F0000C46097E85B06E291746064698460C9A09
:1026000000F0B38022D8632936D00AD8002900F020
:10261000B980582900F0838004F1420584F8421003
:1026200032E0642901D06929F6D1206813680506D3
:1026300003F104012AD51B681160002B03DA2D2257
:102640005B4284F843206F480A2239E0732900F086
:102650009D8008D86F2920D07029DDD1236843F0F0
:102660002003236003E0752917D07829D4D178237B
:1026700084F84530644855E01368191D1B681160E3
:1026800004F1420584F8423001238CE01B6811609C
:1026900010F0400F18BF1BB2CFE713682568181D54
:1026A0001060280601D51B6802E06806FBD51B8870
:1026B00054486F2914BF0A220822002184F84310CD
:1026C0006568A560002DC0F29580216821F00401A5
:1026D0002160002B3DD1002D40F08E806546082AF8
:1026E0000BD12368DB0708D5236962689A42DEBFF5
:1026F000302305F8013C05F1FF35ACEB0503236100
:10270000CDF800803B4603AA21463046FFF7F6FE8F
:1027100001304DD14FF0FF3005B0BDE8F0833948AE
:1027200084F84510136821681D1D1B6815600A0692
:102730000BD5CA0744BF41F0200121601BB92268B4
:1027400022F0200222601022B7E74D0648BF9BB25C
:10275000EFE76546B3FBF2F102FB1133C35C05F80A
:10276000013D0B460029F5D1B9E713682568616979
:10277000181D106028061B6801D5196002E06A0662
:10278000FBD51980002323616546B9E71368191D3D
:1027900011601D68626800212846FDF7C1FE08B17E
:1027A000401B606063682361002384F84330A7E71F
:1027B00023692A4639463046C0470130AAD02368EB
:1027C0009B0713D4E068039B9842B8BF1846A3E761
:1027D00001234A4639463046C04701309AD0013578
:1027E000E368039A9B1AAB42F2DCEBE7002504F1A5
:1027F0001909F5E7002BACD1037884F8423004F1D5
:1028000042056CE7B12A0008C22A000810B5431E31
:102810000A44914200D110BD11F8014B03F8014F59
:10282000F7E7884210B501EB020307D8421E994230
:102830000AD011F8014B02F8014FF8E78342F5D9AD
:102840008118D21AD34200D110BD13F8014D01F8FE
:10285000014DF7E738B50546002945D051F8043C4D
:102860000C1F002BB8BFE41800F0D2F81F4A136801
:10287000104633B9636014602846BDE8384000F064
:10288000C8B8A3420CD921686218934204BF1A68E1
:102890005B68636004BF521822600460ECE7134673
:1028A0005A680AB1A242FAD919685818A0420BD145
:1028B00020680144581882421960DDD110685268BE
:1028C0005A6001441960D7E702D90C232B60D3E783
:1028D000206821188A4204BF11685268626004BFF0
:1028E000091821605C60C7E738BD00BF8C0000207C
:1028F00070B5CD1C25F0030508350C2D38BF0C250F
:10290000002D064601DBA94203D90C2333600020C9
:1029100070BD00F07DF8214A1468214691B9204C21
:1029200023681BB9304600F063F820602946304622
:1029300000F05EF8431C24D10C233360304600F0D5
:1029400068F8E4E70B685B1B18D40B2B0FD90B60FE
:10295000CD50CC18304600F05CF804F10B00231D7C
:1029600020F00700C31AD3D05A42E250D0E78C427D
:102970004B6816BF636013600C46EBE70C46496872
:10298000CCE7C41C24F00304A04205D0211A304631
:1029900000F02EF80130CFD02560DBE78C0000205E
:1029A00090000020F8B5074614460E4621B911469E
:1029B000BDE8F840FFF79CBF22B9FFF74BFF254663
:1029C0002846F8BD00F026F8A0420FD2214638462E
:1029D000FFF78EFF05460028F2D031462246FFF76A
:1029E00015FF31463846FFF735FFE9E73546E7E79B
:1029F00038B5064C002305460846236000F012F85F
:102A0000431C02D1236803B12B6038BDF8010020BC
:102A10007047704751F8043C181F002BBCBF0B587F
:102A2000C0187047044A05491368002B08BF0B46BD
:102A300018441060184670479400002000020020DF
:102A4000F8B500BFF8BC08BC9E467047F8B500BF9B
:082A5000F8BC08BC9E4670476B
:102A58000000000000000000010203040607080946
:102A68000000000001020304256420256420256479
:102A780020256420256420256420256420256420E1
:102A88002564200D0A0000002E2E2F5372632F6D2F
:102A980061696E2E63000000232D302B2000686CC6
:102AA8004C00656667454647003031323334353669
:102AB80037383941424344454600303132333435A2
:0C2AC800363738396162636465660000CF
:082AD4006CD7FF7F0100000038
:042ADC00F5010008F8
:042AE000D101000818
:102AE40001000000100000000024F4001000002089
:102AF40000000000000000000000000000000000D2
:102B040000000000000000000000000000000000C1
:102B140000000000000000000000000000000000B1
:102B240000000000000000000000000000000000A1
:102B34000000000000000000000000000000000091
:102B44000000000000000000000000000000000081
:04000005080021814D
:00000001FF
