:020000040800F2
:1000000000000220352200089D2100089F210008E1
:10001000A1210008A3210008A5210008000000007C
:10002000000000000000000000000000A721000800
:10003000A921000800000000AB210008AD21000844
:1000400085220008852200088522000885220008F4
:1000500085220008852200088522000885220008E4
:1000600085220008852200088522000885220008D4
:1000700085220008852200088522000885220008C4
:1000800085220008852200088522000885220008B4
:1000900085220008852200088522000885220008A4
:1000A0008522000885220008852200088522000894
:1000B0008522000885220008852200088522000884
:1000C0008522000885220008852200088522000874
:1000D00085220008B9210008C9210008D92100089B
:1000E0008522000885220008852200088522000854
:1000F0008522000885220008852200088522000844
:100100008522000885220008852200088522000833
:100110008522000885220008852200088522000823
:100120008522000885220008852200088522000813
:100130008522000800000000000000008522000861
:1001400085220008852200088522000885220008F3
:1001500085220008852200088522000885220008E3
:1001600085220008852200088522000885220008D3
:100170008522000885220008852200080000000072
:1001800000000000852200080000000000000000C0
:100190008522000800000000000000008522000801
:1001A00000000000000000000000000085220008A0
:1001B0008522000885220008852200088522000883
:0401C000852200088C
:1001D00010B5054C237833B9044B13B10448AFF381
:1001E00000800123237010BD70000020000000007B
:1001F000242B000808B5034B1BB103490348AFF398
:10020000008008BD0000000074000020242B0008BE
:1002100053B94AB9002908BF00281CBF4FF0FF316D
:100220004FF0FF3000F072B9ADF1080C6DE904CE6B
:1002300000F006F8DDF804E0DDE9022304B07047C1
:100240002DE9F047089E04468846002B4BD18A4290
:10025000154667D9B2FA82F24AB1C2F1200701FA13
:1002600002F320FA07F7954047EA030894404FEA63
:10027000154E230CB8FBFEF71FFA85FC0EFB178802
:1002800043EA084307FB0CF1994209D9EB1807F13F
:10029000FF3080F01B81994240F21881023F2B44CD
:1002A0005B1AA4B2B3FBFEF00EFB103344EA034426
:1002B00000FB0CFCA44509D92C1900F1FF3380F098
:1002C0000781A44540F2048102382C4440EA0740EB
:1002D000A4EB0C0400271EB1D4400023C6E9004360
:1002E0003946BDE8F0878B4209D9002E00F0EB803B
:1002F0000027C6E9000138463946BDE8F087B3FA61
:1003000083F7002F47D18B4202D3824200F2FA805A
:10031000841A61EB030301209846002EE0D0C6E961
:100320000048DDE702B9FFDEB2FA82F2002A40F0AF
:100330008F80491B4FEA154E1FFA85F80127B1FB44
:10034000FEFC230C0EFB1C1143EA014308FB0CF1DD
:10035000994207D9EB180CF1FF3002D2994200F212
:10036000CD808446591AA3B2B1FBFEF00EFB1014E7
:1003700043EA044408FB00F8A04507D92C1900F112
:10038000FF3302D2A04500F2B6801846A4EB080461
:1003900040EA0C409FE7C7F1200CBB4022FA0CFE5C
:1003A0004EEA030E01FA07F420FA0CF521FA0CF3D9
:1003B0004FEA1E482543B3FBF8F92C0C08FB193310
:1003C0001FFA8EFA44EA034309FB0AF49C4202FA3C
:1003D00007F200FA07F10BD91EEB030309F1FF3016
:1003E00080F087809C4240F28480A9F10209734426
:1003F0001B1BADB2B3FBF8F008FB103345EA034416
:1004000000FB0AFAA24508D91EEB040400F1FF33F1
:100410006BD2A24569D90238744440EA0940A0FB76
:100420000289A4EB0A044C45C2464B4654D351D032
:10043000002E69D0B1EB0A0564EB030404FA0CFC4E
:10044000FD40FC404CEA0505C6E90054002747E79B
:10045000C2F1200320FA03F7954001FA02F021FAD5
:1004600003F34FEA154E3843010CB3FBFEF71FFAB6
:1004700085F80EFB173341EA034107FB08F38B4273
:1004800004FA02F407D9691807F1FF3C2FD28B4216
:100490002DD9023F2944CB1A81B2B3FBFEF00EFBEB
:1004A000103341EA034100FB08F38B4207D9691876
:1004B00000F1FF3C17D28B4215D902382944C91AE2
:1004C00040EA07473BE73746304609E70746E7E695
:1004D0001846FBE64145ABD2B8EB020A69EB0E02C7
:1004E00001381346A4E76046E9E7184695E76746F2
:1004F000D1E781467CE702382C4447E7ACF1020C97
:100500002B442FE7384608E73746E9E6704700BF37
:10051000034613F8012B002AFBD1181A0138704743
:1005200001F0FF01102A2BDB10F0070F08D010F8A4
:10053000013B013A8B422DD010F0070F42B3F6D1A8
:10054000F0B441EA012141EA014122F007047FF0C1
:1005500000070023F0E80256083C85EA010586EA18
:10056000010685FA47F5A3FA87F586FA47F6A5FA54
:1005700087F68EB9EED1F0BC01F0FF0102F0070260
:1005800032B110F8013B013A83EA010313B1F8D10B
:100590000020704701387047002D06BF35460338EC
:1005A000073815F0010F07D1013015F4807F02BF25
:1005B000013015F4C03F0130F0BC0138704700BF76
:1005C00010B504460E4B18784FF47A73B3FBF0F372
:1005D0000C4A1068B0FBF3F000F0A8F868B90F2CD3
:1005E00001D901200AE0002221464FF0FF3000F03F
:1005F0005DF8034B5C60002000E0012010BD00BFEF
:10060000000000200800002008B50B4B1A6842F4D7
:1006100000721A601A6842F480621A601A6842F422
:1006200080721A60032000F02FF80020FFF7C8FF47
:1006300001F0F0FC002008BD003C0240034A1168B4
:10064000034B1B780B441360704700BF80010020F0
:1006500000000020014B1868704700BF8001002097
:1006600038B50446FFF7F6FF0546B4F1FF3F02D068
:10067000044B1B781C44FFF7EDFF401BA042FAD34C
:1006800038BD00BF00000020074AD36823F4E063B0
:100690001B041B0C000200F4E060184340F0BF6034
:1006A00040F40030D060704700ED00E030B4174BEC
:1006B000DB68C3F30223C3F10704042C28BF04241E
:1006C0001D1D062D18D9033B4FF0FF3505FA04F424
:1006D00021EA0401994005FA03F322EA03031943CE
:1006E00000280BDB0901C9B200F1604000F5614050
:1006F00080F8001330BC70470023E5E700F00F00DE
:100700000901C9B2024B1954F4E700BF00ED00E043
:1007100014ED00E000F01F02400901239340024A5B
:1007200042F82030704700BF00E100E00138B0F12E
:10073000807F0AD2064B5860064AF02182F82310C7
:100740000020986007221A6070470120704700BFA0
:1007500010E000E000ED00E0042805D0054A136831
:1007600023F0040313607047024A136843F0040344
:100770001360704710E000E0704708B5FFF7FCFF1A
:1007800008BD90F83530DBB2022B03D080234365DF
:1007900001207047052380F835300268136823F084
:1007A000010313600020704700230F2B00F2D1805B
:1007B000F0B482B039E0062200E00022B2403A43B1
:1007C0000234644E46F82420634A1468EA4302EA7D
:1007D00004064F6817F4803F01D045EA04065E4CDA
:1007E0002660646802EA04064F6817F4003F01D0EF
:1007F00045EA0406584C6660A46802EA04064F689D
:1008000017F4801F01D045EA0406534CA660E46843
:1008100022404E6816F4001F01D045EA04024E4CF7
:10082000E26001330F2B00F2918001229A400C68A4
:1008300004EA0205AA42F4D14C68022C01D0122C21
:1008400010D1DE08083650F826C003F00704A700D0
:100850000F24BC402CEA040C0C69BC4044EA0C0494
:1008600040F8264004685F000326BE40F64306EACF
:10087000040C4C6804F00304BC4044EA0C0404601B
:100880004C6804F1FF3CBCF1010F03D9112C01D0DD
:10089000122C10D1846806EA040CCC68BC4044EAEF
:1008A0000C048460446824EA02024C68C4F3001417
:1008B0009C4014434460C26816408A68BA40324380
:1008C000C2604A6812F0805FABD000220192234AD6
:1008D000546C44F480445464526C02F4804201929B
:1008E000019A9C08A61C1B4A52F8267003F00302CA
:1008F00096000F22B24027EA0207194A90423FF4BD
:100900005CAF02F58062904216D002F580629042A0
:1009100014D002F58062904212D002F580629042BB
:1009200010D002F5806290420ED002F580629042B3
:100930003FF441AF072241E701223FE702223DE7B2
:1009400003223BE7042239E7052237E702B0F0BC77
:100950007047704700380140003C014000380240B9
:100960000000024012B9090481617047816170473B
:10097000002800F09D8070B504464F4B1B6803F0C3
:100980000F038B4209D2CBB24B4A1370136803F0AA
:100990000F038B4201D0012070BD236813F0020FBA
:1009A00017D013F0040F04D0444A936843F4E05383
:1009B0009360236813F0080F04D0404A936843F40F
:1009C000604393603D4A936823F0F003A0680343BB
:1009D00093600D46236813F0010F32D06368012B3A
:1009E00021D09A1E012A25D9344A126812F0020F2A
:1009F00060D032498A6822F0030213438B60FFF70C
:100A000029FE06462D4B9B6803F00C036268B3EB8E
:100A1000820F16D0FFF71EFE801B41F288339842EA
:100A2000F0D90320B8E7254A126812F4003FE0D15C
:100A30000120B1E7214A126812F0007FD9D10120CC
:100A4000AAE71D4B1B6803F00F03AB4209D9EAB2BA
:100A5000194B1A701B6803F00F03AB4201D0012041
:100A60009AE7236813F0040F06D0144A936823F41E
:100A7000E053E1680B439360236813F0080F07D03D
:100A80000E4A936823F46043216943EAC1039360EB
:100A900000F040F8094B9B68C3F30313084AD35C8A
:100AA000D840084B18600020FFF78AFD002073E74C
:100AB0000120704701206FE7003C024000380240EF
:100AC0003C2B000808000020014B1868704700BF4D
:100AD0000800002008B5FFF7F7FF044B9B68C3F33D
:100AE0008223034AD35CD84008BD00BF00380240CF
:100AF0004C2B000808B5FFF7E7FF044B9B68C3F3D6
:100B00004233034AD35CD84008BD00BF00380240DE
:100B10004C2B00082DE9F04B5C4B9B6803F00C0359
:100B2000082B07D00C2B5BD0042B00F0AD8058486D
:100B3000BDE8F08B554B5A6802F03F025B6813F436
:100B4000800F2AD0514B5B68C3F388131E460027E1
:100B50005C010025E41A65EB0705A90141EA9461EF
:100B6000A001001B61EB0501CB0043EA5073C400F8
:100B7000A01943EB07014B0243EAD053440220463D
:100B800019460023FFF744FB404B5B68C3F3014366
:100B900001335B00B0FBF3F0CAE73C4B5B68C3F387
:100BA00088131E4600275C010025E41A65EB070543
:100BB000A90141EA9461A001001B61EB0501CB0092
:100BC00043EA5073C400A01943EB07018B0243EAC8
:100BD00090538402204619460023FFF719FBD3E700
:100BE0002A4B5A6802F03F025B6813F4800F28D04A
:100BF000264B5B68C3F388131E4600275C01002563
:100C0000E41A65EB0705A90141EA9461A001001B04
:100C100061EB0501CB0043EA5073C400A01943EB1C
:100C200007014B0243EAD0534402204619460023F1
:100C3000FFF7EEFA154B5B68C3F30273B0FBF3F0FA
:100C400076E7124B5B68C3F388131E4600275C01EE
:100C50000025E41A65EB0705A90141EA9461A001AA
:100C6000001B61EB0501CB0043EA5073C400A019DF
:100C700043EB07018B0243EA905384022046194656
:100C80000023FFF7C5FAD5E7024851E700380240D4
:100C90000024F40000127A0070B582B004460368A4
:100CA00013F0010F41D0A64B9B6803F00C03042BFB
:100CB00032D0A34B9B6803F00C03082B27D0A04B2A
:100CC0009B6803F00C030C2B59D06368B3F5803F8D
:100CD0005BD0B3F5A02F5ED0994B1A6822F4803216
:100CE0001A601A6822F480221A606368002B5CD0B4
:100CF000FFF7B0FC0546924B1B6813F4003F14D17C
:100D0000FFF7A8FC401B6428F5D903209DE18C4B1C
:100D10005B6813F4800FD2D0894B1B6813F4003F3B
:100D200003D06368002B00F08D81236813F0020F5D
:100D300067D0834B9B6813F00C0F4AD0804B9B68A5
:100D400003F00C03082B3FD07D4B9B6803F00C0392
:100D50000C2B48D0E368002B74D07A4B01221A6028
:100D6000FFF778FC0546764B1B6813F0020F60D145
:100D7000FFF770FC401B0228F5D9032065E1704B9A
:100D80005B6813F4800FA0D0C6E76D4A136843F484
:100D900080331360A9E76A4B1A6842F480221A6014
:100DA0001A6842F480321A609FE7FFF753FC054649
:100DB000634B1B6813F4003FB7D0FFF74BFC401B9D
:100DC0006428F5D9032040E15D4B5B6813F4800F84
:100DD000BAD15B4B1B6813F0020F0AD0E368012BFA
:100DE00007D0012031E1564B5B6813F4800FB1D17D
:100DF000EFE7534A136823F0F803216943EAC1037C
:100E00001360236813F0080F40D0636963B34E4B3F
:100E100001221A60FFF71EFC0546494B5B6F13F079
:100E2000020F33D1FFF716FC401B0228F5D903202F
:100E30000BE1434A136823F0F803216943EAC10335
:100E40001360DEE73F4B00221A60FFF703FC054604
:100E50003B4B1B6813F0020FD3D0FFF7FBFB401B8B
:100E60000228F5D90320F0E0374B00221A60FFF783
:100E7000F1FB0546324B5B6F13F0020F06D0FFF714
:100E8000E9FB401B0228F5D90320DEE0236813F0BC
:100E9000040F79D02A4B1B6C13F0805F33D10023F1
:100EA0000193274B1A6C42F080521A641B6C03F0BA
:100EB00080530193019B0125244B1B6813F4807F11
:100EC00023D0A368012B34D0052B41D01C4B1A6FC3
:100ED00022F001021A671A6F22F004021A67A3684F
:100EE000002B3FD0FFF7B6FB0646154B1B6F13F0E8
:100EF000020F48D1FFF7AEFB801B41F288339842C6
:100F0000F3D90320A1E00025D6E7104A136843F483
:100F100080731360FFF79EFB06460C4B1B6813F4AF
:100F2000807FCED1FFF796FB801B0228F5D90320E6
:100F30008BE0034A136F43F001031367CFE700BF51
:100F40000038024000004742800E474200700040D7
:100F5000404B1A6F42F004021A671A6F42F0010206
:100F60001A67BCE7FFF776FB06463A4B1B6F13F098
:100F7000020F08D0FFF76EFB801B41F288339842C6
:100F8000F3D9032061E0E5B9A369002B5CD0314AB5
:100F9000926802F00C02082A59D0022B17D02E4B6F
:100FA00000221A60FFF756FB04462A4B1B6813F019
:100FB000007F45D0FFF74EFB001B0228F5D9032028
:100FC00043E0244A136C23F080531364DCE7224B84
:100FD00000221A60FFF73EFB05461E4B1B6813F00C
:100FE000007F06D0FFF736FB401B0228F5D903200F
:100FF0002BE0E369226A1343626A43EA8213A26A1E
:101000005208013A43EA0243E26A43EA0263226B6E
:1010100043EA02730F4A53600F4B01221A60FFF735
:1010200019FB04460B4B1B6813F0007F06D1FFF73A
:1010300011FB001B0228F5D9032006E0002004E084
:10104000002002E0012000E0002002B070BD01207D
:10105000FBE700BF00380240600047420268D368E7
:1010600023F49073D3600268536923F00103536142
:10107000202380F83A30704790F83930DBB2212BCA
:101080002AD18368B3F5805F16D0036A5A1C0262C6
:101090001A7803685A60C38C013B9BB2C384EBB9D6
:1010A0000268D36823F08003D3600268D36843F0FA
:1010B0004003D36000207047036A1B880268C3F3B3
:1010C0000803536003691BB9036A02330362E2E752
:1010D000036A01330362DEE7022070470020704795
:1010E0002DE9F843044601680A6922F44052C368B6
:1010F00013430B610168CA6822F4164222F00C0205
:1011000083680069034360690343E0690343134351
:10111000CB6021684A6922F44072A36913434B6192
:10112000E369B3F5004F60D02368B84A934200F0FA
:10113000148102F58062934200F00F81FFF7CAFC30
:1011400000EB800000EB80006568AD00B0FBF5F5BA
:10115000AF4FA7FB05356D092E01FFF7BBFC00EB78
:10116000800000EB80006568AD00B0FBF5F9FFF78B
:10117000B1FC00EB800000EB80006568AD00B0FBC7
:10118000F5F5A7FB05356D094FF0640808FB1595CB
:101190002D013235A7FB05356D0905F0F005354405
:1011A000FFF798FC00EB800000EB80006668B6005B
:1011B000B0FBF6F6FFF78EFC00EB800000EB800042
:1011C00063689B00B0FBF3F0A7FB0030400908FB0D
:1011D00010684FEA081808F13208A7FB0837C7F370
:1011E000431723682F449F600DE12368874A934289
:1011F0005BD002F58062934257D0FFF76BFC00EBA7
:10120000800000EB800065686D00B0FBF5F5804F55
:10121000A7FB05356D092E01FFF75CFC00EB800094
:1012200000EB800065686D00B0FBF5F9FFF752FC3C
:1012300000EB800000EB800065686D00B0FBF5F509
:10124000A7FB05356D094FF0640808FB1595ED0007
:101250003235A7FB05356D096D0005F4F875354489
:10126000FFF738FC00EB800000EB8000666876003A
:10127000B0FBF6F6FFF72EFC00EB800000EB8000E1
:1012800063685B00B0FBF3F3A7FB03235B0908FB78
:1012900013684FEAC80808F13208A7FB0837C7F3FC
:1012A000421723682F449F60ADE0FFF723FC00EB5B
:1012B000800000EB800065686D00B0FBF5F5544FD1
:1012C000A7FB05356D092E01FFF714FC00EB80002C
:1012D00000EB800065686D00B0FBF5F9FFF70AFCD4
:1012E00000EB800000EB800065686D00B0FBF5F559
:1012F000A7FB05356D094FF0640808FB1595ED0057
:101300003235A7FB05356D096D0005F4F8753544D8
:10131000FFF7F0FB00EB800000EB800066687600D2
:10132000B0FBF6F6FFF7E6FB00EB800000EB800079
:1013300063685B00B0FBF3F3A7FB03235B0908FBC7
:1013400013684FEAC80808F13208A7FB0837C7F34B
:10135000421723682F449F6055E0FFF7CBFB00EB5B
:10136000800000EB80006568AD00B0FBF5F5284F0C
:10137000A7FB05356D092E01FFF7BCFB00EB8000D4
:1013800000EB80006568AD00B0FBF5F9FFF7B2FB3C
:1013900000EB800000EB80006568AD00B0FBF5F568
:1013A000A7FB05356D094FF0640808FB15952D0165
:1013B0003235A7FB05356D0905F0F0053544FFF71B
:1013C00099FB00EB800000EB80006668B600B0FB84
:1013D000F6F6FFF78FFB00EB800000EB8000636800
:1013E0009B00B0FBF3F0A7FB0030400908FB10683E
:1013F0004FEA081808F13208A7FB0837C7F343176C
:1014000023682F449F60BDE8F88300BF00100140AF
:101410001F85EB512DE9F04105460F4616469846CB
:10142000069C2B681B6837EA03030CBF01230023CB
:10143000B3421DD1B4F1FF3FF3D02CB1FFF70AF94D
:10144000A0EB0800A042ECD92A68D36823F4D0733B
:10145000D3602A68536923F001035361202385F880
:10146000393085F83A30002385F83830032000E021
:101470000020BDE8F08158B310B5044690F839302B
:101480000BB3242384F839302268D36823F4005343
:10149000D3602046FFF724FE2268136923F49043AB
:1014A00013612268536923F02A0353612268D368C9
:1014B00043F40053D3600020E063202384F83930E4
:1014C00084F83A3010BD80F8383000F0EDFDD8E7F0
:1014D000012070472DE9F04182B01E4690F8393066
:1014E000DBB2202B55D104460D469046002955D03D
:1014F000002A55D090F83830012B53D0012380F8C2
:1015000038300023C363212380F83930FFF7A2F875
:101510000746A4F82480A4F8268010E000963B46F5
:10152000002280212046FFF775FF00283CD12B8840
:101530002268C3F3080353602369C3B90235E38CFF
:101540009BB2B3B1E38C013B9BB2E384A368B3F5D8
:10155000805FE3D000963B46002280212046FFF7C3
:1015600059FF18BB2A7823685A600135E7E701352F
:10157000E5E700963B46002240212046FFF74AFF60
:101580000346A8B9202284F83920002284F83820A4
:1015900000E00223184602B0BDE8F0810123F9E71C
:1015A0000123F7E70223F5E70323F3E70323F1E73A
:1015B0000323EFE790F83930DBB2202B16D1B9B115
:1015C000C2B190F83830012B16D001628284C284F7
:1015D0000023C363212280F8392080F83830016865
:1015E000CA6842F08002CA601846704702207047FD
:1015F00001207047012070470220704790F83A3070
:10160000DBB2202B1BD1E1B1EAB190F83830012BCD
:101610001BD081628285C2850023C363222280F8A9
:101620003A2080F8383001684A6942F001024A6184
:101630000168CA6842F49072CA6018467047022076
:10164000704701207047012070470220704708B59D
:101650000168CB6823F04003CB60202380F8393049
:1016600000F056FB002008BD08B590F83A30DBB218
:10167000222B40D18368B3F5805F0ED0036903BB92
:1016800003685A68836A591C81621A70C38D013BD2
:101690009BB2C385F3B100202EE0826A036943B98F
:1016A00003685B68C3F308031380836A02338362B1
:1016B000ECE703685B68DBB21380836A0133836203
:1016C000E4E703685B68826A511C816203F07F0370
:1016D0001370DBE70268D36823F49073D360026869
:1016E000536923F001035361202380F83A3000F05E
:1016F00007FB002000E0022008BD000010B50446F2
:1017000002681368D168526913F00F0005D113F015
:10171000200F02D011F0200F53D1002867D012F013
:10172000010202D111F4907F61D013F0010F06D0B5
:1017300011F4807F03D0E06B40F00100E06313F010
:10174000040F04D01AB1E06B40F00200E06313F024
:10175000020F04D01AB1E06B40F00400E06313F014
:10176000080F04D01AB1E26B42F00802E263E26BA8
:10177000002A48D013F0200F02D011F0200F24D1FE
:1017800023685B6903F04003E26B12F0080F00D19D
:101790003BB32046FFF762FC23685A6912F0400F02
:1017A0001BD05A6922F040025A61636B8BB11A4A0E
:1017B0001A65606BFEF7E5FF28B3606B036D984711
:1017C00021E02046FFF750FF1DE02046FFF74CFFC9
:1017D000D6E7204600F092FA15E0204600F08EFA97
:1017E00011E0204600F08AFA0023E3630BE013F0D7
:1017F000800F02D011F0800F06D113F0400F02D0FD
:1018000011F0400F04D110BD2046FFF735FCFAE778
:101810002046FFF71CFFF6E71D18000808B5806B8F
:101820000023C385C38400F069FA08BD10B50446DF
:10183000FEF76EFE052382B221460248FFF74AFEFC
:1018400010BD00BF4003002038B505460C460846D1
:10185000FEF75EFE82B221462846FFF7ABFE10B9C6
:101860000123184638BD0449204600F08EFB03468C
:101870000028F6D00123F4E78C00002010B58EB0CC
:101880000446084901A800F0A1FB012801D00EB0D0
:1018900010BD01A8FEF73CFE82B201A92046FFF769
:1018A00089FEF4E78C00002030B583B000231C468D
:1018B0008B4202DAC25C2A2A3CD1184443788DF864
:1018C000043083788DF8053022462549684600F0BB
:1018D000C7FD102C06DC9DF800308DF80130302358
:1018E0008DF800300023012B27DD9DF800209DF8A6
:1018F00004309A4205D19DF801209DF805309A42A6
:101900002BD0184D184C29462046FFF79DFF6946FD
:101910002046FFF799FF15492046FFF795FF01A9DB
:101920002046FFF791FF29462046FFF78DFF002054
:1019300003B030BD54400133BAE702AA1A4412F88A
:10194000082CA2F16101C9B2052904D8203A02A9E4
:10195000194401F8082C0133C5E70120E8E700BF6E
:10196000542B0008582B0008400300205C2B000873
:1019700070B50C463D4D28604FF416524260FFF79B
:101980007AFD3B4EC823142231462868FFF7A2FD9A
:101990004FF4FA70FEF764FE28684FF46143436029
:1019A000FFF769FDC823142231462868FFF792FD2E
:1019B0004FF4FA70FEF754FE28684FF4E1334360A9
:1019C000FFF759FDC823142231462868FFF782FD2E
:1019D0004FF4FA70FEF744FEC82311222549286807
:1019E000FFF778FD4FF4FA70FEF73AFEC823332272
:1019F00021492868FFF76EFD4FF4FA70FEF730FEBC
:101A00001E4B186820609A889B79A280A3711C4B9A
:101A100003CBE06021611B88A3821A4B1B88E38201
:101A2000194B03CB6062A16219889B78A18584F869
:101A30002E30164B1B88A4F82F30154B18682064E5
:101A400099889B79A4F8441084F84630114B1868A3
:101A5000E06499889B79A4F8501084F852300122F0
:101A60000D492868FFF7CAFD012070BD98010020CC
:101A7000602B0008782B00088C2B0008C02B000876
:101A8000C82B0008D42B0008D82B0008E42B000832
:101A9000E82B0008F02B000894010020F8B5604BFB
:101AA0001B68834201D00020F8BD0D465D4C012229
:101AB00021461846FFF7A2FD23785B4A13705B4A64
:101AC0001268012A04D0242B00F0A3800020EBE749
:101AD000242BF8D0564A146856490B55611C1160E6
:101AE0000D2B03D00A2B01D00020DDE7504B1C60EA
:101AF000504B00221A554D490A609E78472E03D05C
:101B0000562E10D00020CFE7DB78472BF8D1494B79
:101B10001B79412BF4D1474905F1570000F0C0FC77
:101B2000C5F8BC40ECE7434BDB78542B01D00020D8
:101B3000BAE7404B1B79472B01D00020B4E7D5F81A
:101B4000BC1005F15700FFF7AFFE012839D0384B24
:101B500019683848FFF7A8FE012839D00020A3E70C
:101B6000013301306328F2DC291891F857102C2931
:101B7000F6D0012B0DD0022B11D0032B15D0042B46
:101B800015D0092B19D105EB070C8CF84010013743
:101B9000E7E705EB020C8CF84C100132E1E705EBAE
:101BA000040C8CF80C100134DBE7A975D9E705EBC0
:101BB000060C8CF824100136D3E70A2BD1D164200F
:101BC000CFE7052000221746164614461346C9E7FC
:101BD0000023194A1360052204E0174C21680131E3
:101BE000216001321249096891420EDD114CA65C58
:101BF0002C2EF2D0104C2468072C03D0082CF0D1E6
:101C00000A46EEE7EE540133EBE70C4B01221A6073
:101C10004AE7064B01221A600020054B186043E793
:101C20009801002094010020900100206C01002008
:101C3000880100209C0100208C0100207001002000
:101C400030B58BB0002401941D4B1A6B42F080021A
:101C50001A631A6B02F080020192019A02941A6BC5
:101C600042F001021A631A6B02F001020292029A18
:101C700003941A6B42F004021A631A6B02F0040216
:101C80000392039A04941A6B42F002021A631B6BCC
:101C900003F002030493049B0A4D22464FF4807123
:101CA0002846FEF75FFE4FF48073059301230693E9
:101CB0000794089405A92846FEF776FD0BB030BDC1
:101CC000003802400000024008B5002211462520DD
:101CD000FEF7ECFC2520FEF71DFD00221146262014
:101CE000FEF7E4FC2620FEF715FD00221146272012
:101CF000FEF7DCFC2720FEF70DFD08BD7047000055
:101D000008B50249FFF7CAFE08BD00BF4002002027
:101D100008B5FFF7B3FD08BDFEE7000008B50B48A6
:101D20000B4B03604FF41653436000238360C36082
:101D300003610C2242618361C361FFF79CFB00B920
:101D400008BDF2210348FFF7E7FF00BF00030020B2
:101D500000100140F82B000808B50B480B4B03603E
:101D60004FF4E133436000238360C36003610C22BE
:101D700042618361C361FFF77EFB00B908BD40F299
:101D800005110348FFF7C8FF40030020004400404E
:101D9000F82B000808B50B480B4B03604FF41653A3
:101DA000436000238360C36003610C22426183614E
:101DB000C361FFF760FB00B908BD4FF48C710348A5
:101DC000FFF7AAFF0002002000480040F82B00089F
:101DD00000B595B0002100912A4B1A6C42F0805258
:101DE0001A641B6C03F080530093009B0191264BF7
:101DF0001A6842F440421A601B6803F4404301939E
:101E0000019B012307934FF4A023089302230D9312
:101E10004FF480020E9208220F924FF490721092AB
:101E200011931293139307A8FEF736FF10BB0F23ED
:101E3000029302230393002304934FF4A0530593CA
:101E40000693042102A8FEF793FDB8B9FEF73CFE05
:101E50000E4BA3FB00308009FEF768FC0420FEF760
:101E60007BFC002211464FF0FF30FEF71FFC15B03F
:101E70005DF804FBB6210648FFF74EFFC421044875
:101E8000FFF74AFF0038024000700040D34D621057
:101E9000F82B000808B5FEF7B7FBFFF799FFFFF72F
:101EA000CFFEFFF73BFFFFF757FFFFF773FFFFF78B
:101EB0000BFF2148FFF7BAFC4FF47A70FEF7D0FB16
:101EC0001E491F48FFF754FD1E4B1B68012BFBD119
:101ED0001D4D1E4C29462046FFF7B6FC1C4E3146D0
:101EE0002046FFF7B1FCA5F140012046FFF7ACFC0E
:101EF00031462046FFF7A8FCA5F128012046FFF750
:101F0000A3FC31462046FFF79FFCA5F10C012046BB
:101F1000FFF79AFC31462046FFF796FCA5F14C01ED
:101F20002046FFF791FC0B492046FFF78DFC054B3F
:101F300000221A60C8E700BF082C000840020020F9
:101F400000030020700100208C02002040030020CC
:101F50005C2B0008582B0008013090FBF1F301FBCB
:101F60001300704742680068824214BF00200120BD
:101F7000704710B5044681684068FFF7EDFF23689D
:101F8000984214BF0020012010BD70B506460C46D3
:101F90000846FFF7EEFF08B1002070BD3046FEF79F
:101FA000B7FA656800F094F9023504EB85056860BE
:101FB000314600F075FA6368272B03D00133636064
:101FC0000120EAE7002363600120E6E738B5054613
:101FD0000C460846FFF7C6FF08B1002038BD23684D
:101FE000023304EB83035968284600F059FA23684A
:101FF000023304EB8303586800F072F92368272B3F
:1020000003D0013323600120E8E70023236001208F
:10201000E4E7000010B582B000240094214B5A6C14
:1020200042F480425A645A6C02F480420092009A50
:1020300001941A6C42F080521A641B6C03F08053B6
:102040000193019B0320FEF71FFB224621466FF000
:102050000B00FEF72BFB224621466FF00A00FEF72D
:1020600025FB224621466FF00900FEF71FFB2246A2
:1020700021466FF00400FEF719FB224621466FF05F
:102080000300FEF713FB224621466FF00100FEF726
:102090000DFB224621464FF0FF30FEF707FB02B052
:1020A00010BD00BF00380240F0B589B00368344A63
:1020B000934207D0334A934220D0334A934238D0D8
:1020C00009B0F0BD00230093304B5A6C42F010026F
:1020D0005A645B6C03F010030093009B4FF4C063E1
:1020E00003930223049301230593032306930723F9
:1020F000079303A92648FEF757FBE1E70023019366
:10210000224B1A6C42F400321A641B6C03F4003345
:102110000193019B0C230393022304930123059352
:10212000032306930723079303A91948FEF73CFBF3
:10213000C6E700230293154B1A6C42F480221A64FE
:102140001B6C03F480230293029B2023039302273A
:10215000049701260596032506950724079403A9ED
:102160000C48FEF721FB4FF4806303930497059618
:102170000695079403A90848FEF716FBA0E700BFE1
:102180000010014000440040004800400038024078
:102190000000024000080240000402407047FEE7D1
:1021A000FEE7FEE7FEE770477047704708B5FEF7A9
:1021B00045FAFEF7E2FA08BD08B50248FFF79EFAB5
:1021C00008BD00BF0003002008B50248FFF796FADB
:1021D00008BD00BF4003002008B50248FFF78EFA93
:1021E00008BD00BF000200200F49D1F8883043F439
:1021F0007003C1F888300D4B1A6842F001021A6072
:10220000002098601A6822F0847222F480321A60EA
:10221000074A5A601A6822F480221A60D8604FF088
:1022200000638B60704700BF00ED00E000380240A3
:1022300010300024DFF834D0002103E00C4B5B5851
:10224000435004310B480C4B42189A42F6D30B4AC8
:1022500002E0002342F8043B094B9A42F9D3FFF70E
:10226000C3FF00F011F8FFF715FE704700000220D1
:102270006C2C00080000002070000020700000207E
:1022800084030020FEE7000070B50D4E0D4CA41B2A
:10229000A4100025A54209D10B4E0C4C00F042FCC5
:1022A000A41BA4100025A54205D170BD56F8253009
:1022B00098470135EEE756F8253098470135F2E7A3
:1022C000642C0008642C0008642C0008682C0008AA
:1022D000024B0146186800F059B800BF0C000020FE
:1022E000024B0146186800F003B800BF0C00002044
:1022F00038B50546002945D051F8043C0C1F002B89
:10230000B8BFE41800F0D4F81F4A1368104633B978
:10231000636014602846BDE8384000F0CAB8A342A4
:102320000CD921686218934204BF1A685B68636025
:1023300004BF521822600460ECE713465A680AB1E1
:10234000A242FAD919685818A0420BD1206801445A
:10235000581882421960DDD1106852685A600144F1
:102360001960D7E702D90C232B60D3E72068211826
:102370008A4204BF11685268626004BF0918216074
:102380005C60C7E738BD00BF7401002070B5CD1C8C
:1023900025F0030508350C2D38BF0C25002D064609
:1023A00001DBA94203D90C233360002070BD00F08B
:1023B0007FF8214A1468214691B9204C23681BB943
:1023C000304600F03DF820602946304600F038F8ED
:1023D000431C24D10C233360304600F06AF8E4E754
:1023E0000B685B1B18D40B2B0FD90B60CD50CC188E
:1023F000304600F05EF804F10B00231D20F00700CA
:10240000C31AD3D05A42E250D0E78C424B6816BF71
:10241000636013600C46EBE70C464968CCE7C41CCC
:1024200024F00304A04205D0211A304600F008F839
:102430000130CFD02560DBE7740100207801002057
:1024400038B5064C002305460846236000F05CFBC7
:10245000431C02D1236803B12B6038BD80030020E8
:102460000EB400B59CB01DAB029006906FF0004119
:10247000094807910491094953F8042B0591006814
:10248000019302A900F070F8029B00221A701CB0A0
:102490005DF804EB03B070470C0000200802FFFF5A
:1024A000034611F8012B03F8012B002AF9D17047DC
:1024B000704770472DE9F0478E689E4282460C4671
:1024C0009046994637D88A8912F4906F31D02568A2
:1024D00009696F1A6569022305EB450595FBF3F55C
:1024E00009F101033B449D4238BF1D46530530D5D9
:1024F0002946FFF74BFF064650B90C23CAF80030B7
:10250000A38943F04003A3814FF0FF30BDE8F0877B
:102510003A46216900F0A6FAA38923F4906343F0B8
:102520008003A381266165613E44ED1B2660A560A2
:102530004E464E4500D94E4632464146206800F090
:102540009CFAA3689B1BA36023681E44266000209E
:10255000DCE72A4600F0AAFA06460028E2D1216903
:102560005046FFF7C5FEC8E72DE9F04F9DB0804605
:1025700003938B891D060C4616460FD50B696BB964
:102580004021FFF703FF2060206128B90C23C8F821
:1025900000304FF0FF30C7E0402363610023099310
:1025A00020238DF8293030238DF82A304FF0010B8D
:1025B00037463D4615F8013B0BB1252B3ED1B7EB15
:1025C000060A0BD05346324621464046FFF772FFBB
:1025D000013000F0A480099B534409933B78002B01
:1025E00000F09D8000234FF0FF32CDE905230493D6
:1025F00007938DF853301A932F46052217F8011BC5
:102600004F48FDF78DFF049BD0B9D90644BF202267
:102610008DF853201A0744BF2B228DF853202A78B7
:102620002A2A15D0079A2F4600200A25394611F884
:10263000013B303B092B4DD9B8B10FE02F46B8E72D
:102640003F4A801A0BFA00F0184304903D46D3E746
:10265000039A111D12680391002A01DB079204E01E
:10266000524243F00203079204933B782E2B0CD185
:102670007B782A2B33D1039B1A1D1B680392002BF6
:10268000B8BF4FF0FF33023705932E4D3978032240
:102690002846FDF745FF38B14023401B03FA00F000
:1026A000049B034301370493397827488DF8281099
:1026B00006227E1CFDF734FF002838D0234B13BBC5
:1026C000039B073323F0070308330393099B4B4411
:1026D00009936DE705FB023201200F46A6E70023B0
:1026E0000137059319460A25384610F8012B303A70
:1026F000092A03D9002BC8D00591C6E705FB0121A3
:1027000001230746F0E703AB00932246104B04A9D0
:102710004046AFF30080B0F1FF3F8146D6D1A38998
:102720005B063FF536AF09981DB0BDE8F08F03ABEF
:1027300000932246064B04A9404600F081F8EAE7E0
:10274000282C00082E2C0008322C00080000000065
:10275000B52400082DE9F04791461F468A680B69A9
:10276000DDF820809342B8BF1346C9F8003091F8D5
:10277000432006460C4612B10133C9F800302368E5
:10278000990642BFD9F800300233C9F800302568F5
:1027900015F0060507D104F1190AE368D9F80020FD
:1027A0009B1AAB4228DC94F843302268003318BFF0
:1027B000012392062DD404F1430239463046C04726
:1027C000013020D02368E568D9F8002003F0060323
:1027D000042B08BFAD1AA36822690CBF25EAE57572
:1027E00000259342C4BF9B1AED184FF000091A341C
:1027F0004D451AD1002008E00123524639463046A3
:10280000C047013003D14FF0FF30BDE8F0870135FC
:10281000C3E7E1185A1C302081F84300224494F8A1
:10282000451082F843100233C5E70123224639469A
:102830003046C0470130E6D009F10109D8E7000071
:102840002DE9F04301F1430C0C46097E85B06E2959
:102850001746064698460C9A00F0B38022D86329A2
:1028600036D00AD8002900F0B980582900F08380BA
:1028700004F1420584F8421032E0642901D069294C
:10288000F6D120681368050603F104012AD51B68F8
:102890001160002B03DA2D225B4284F843206F483D
:1028A0000A2239E0732900F09D8008D86F2920D0D2
:1028B0007029DDD1236843F02003236003E07529EC
:1028C00017D07829D4D1782384F84530644855E06E
:1028D0001368191D1B68116004F1420584F8423029
:1028E00001238CE01B68116010F0400F18BF1BB271
:1028F000CFE713682568181D1060280601D51B68EE
:1029000002E06806FBD51B8854486F2914BF0A22D1
:102910000822002184F843106568A560002DC0F2EC
:102920009580216821F004012160002B3DD1002D0C
:1029300040F08E806546082A0BD12368DB0708D556
:10294000236962689A42DEBF302305F8013C05F135
:10295000FF35ACEB05032361CDF800803B4603AAAD
:1029600021463046FFF7F6FE01304DD14FF0FF30E3
:1029700005B0BDE8F083394884F845101368216834
:102980001D1D1B6815600A060BD5CA0744BF41F020
:10299000200121601BB9226822F02002226010224F
:1029A000B7E74D0648BF9BB2EFE76546B3FBF2F1D0
:1029B00002FB1133C35C05F8013D0B460029F5D13C
:1029C000B9E7136825686169181D106028061B683F
:1029D00001D5196002E06A06FBD519800023236146
:1029E0006546B9E71368191D11601D68626800210A
:1029F0002846FDF795FD08B1401B606063682361C0
:102A0000002384F84330A7E723692A463946304635
:102A1000C0470130AAD023689B0713D4E068039B0A
:102A20009842B8BF1846A3E701234A4639463046C4
:102A3000C04701309AD00135E368039A9B1AAB4234
:102A4000F2DCEBE7002504F11909F5E7002BACD126
:102A5000037884F8423004F142056CE7392C000811
:102A60004A2C000810B5431E0A44914200D110BD03
:102A700011F8014B03F8014FF7E7884210B501EB5D
:102A8000020307D8421E99420AD011F8014B02F8FE
:102A9000014FF8E78342F5D98118D21AD34200D109
:102AA00010BD13F8014D01F8014DF7E7F8B50746E1
:102AB00014460E4621B91146BDE8F840FFF766BC42
:102AC00022B9FFF715FC25462846F8BD00F014F89A
:102AD000A0420FD221463846FFF758FC0546002891
:102AE000F2D031462246FFF7BDFF31463846FFF7A8
:102AF000FFFBE9E73546E7E751F8043C181F002BD8
:102B0000BCBF0B58C0187047044A05491368002B16
:102B100008BF0B4618441060184670477C0100201F
:102B200088030020F8B500BFF8BC08BC9E4670477B
:0C2B3000F8B500BFF8BC08BC9E4670471A
:102B3C000000000000000000010203040607080961
:102B4C000000000001020304257800000D0A0000BB
:102B5C002000000024504D544B3235312C3131358E
:102B6C003230302A31460D0A0000000024504D54FA
:102B7C004B3232302C3130302A32460D0A000000F4
:102B8C0024504D544B3331342C302C302C312C31CF
:102B9C002C302C302C302C302C302C302C302C3049
:102BAC002C302C302C302C302C302C302C302A3239
:102BBC00380D0A003030302E3030000030303030DC
:102BCC002E303030300000004E00000030303030FD
:102BDC00302E3030303000005700000030303030B4
:102BEC002E30000030303030303000002E2E2F537D
:102BFC0072632F6D61696E2E63000000696C20702A
:102C0C00726F6772616D6D612073746120696E699A
:102C1C007A69616E646F2E2E2E000000232D302BEE
:102C2C002000686C4C0065666745464700303132C1
:102C3C003334353637383941424344454600303118
:102C4C003233343536373839616263646566000077
:082C5C00E4D5FF7F0100000038
:042C6400F50100086E
:042C6800D10100088E
:102C6C0001000000100000000024F40010000020FF
:102C7C000000000000000000000000000000000048
:102C8C000000000000000000000000000000000038
:102C9C000000000000000000000000000000000028
:102CAC000000000000000000000000000000000018
:102CBC000000000000000000000000000000000008
:102CCC0000000000000000000000000000000000F8
:040000050800223598
:00000001FF
