:020000040800F2
:100000000000022085320008A9310008AD31000847
:10001000B1310008B5310008B93100080000000016
:10002000000000000000000000000000BD310008DA
:10003000C131000800000000C5310008C9310008C6
:10004000D5320008D5320008D5320008D532000874
:10005000D5320008D5320008D5320008D532000864
:10006000D5320008D5320008D5320008D532000854
:10007000D5320008D5320008D5320008D532000844
:10008000D5320008D5320008D9310008E531000822
:10009000F1310008F5310008F9310008D5320008C7
:1000A000D5320008D5320008D5320008D532000814
:1000B000FD3100080932000815320008D532000869
:1000C000D5320008D5320008D5320008D5320008F4
:1000D000D5320008D5320008D5320008D5320008E4
:1000E00021320008D5320008D5320008D532000888
:1000F000D5320008D5320008D5320008D5320008C4
:10010000D5320008D5320008D5320008D5320008B3
:10011000D5320008D5320008D5320008D5320008A3
:1001200029320008D5320008D5320008D53200083F
:10013000D53200080000000000000000D5320008A1
:10014000D5320008D5320008D5320008D532000873
:10015000D5320008D5320008D5320008D532000863
:10016000D5320008D5320008D5320008D532000853
:10017000D5320008D5320008D53200080000000052
:1001800000000000D5320008000000000000000060
:10019000D53200080000000000000000D532000841
:1001A000000000000000000000000000D532000840
:1001B000D5320008D5320008D5320008D532000803
:0401C000D53200082C
:1001C40010B5054C237833B9044B13B10448AFF38D
:1001D40000800123237010BD0C00002000000000EB
:1001E4002033000808B5034B1BB103490348AFF3A0
:1001F400008008BD0000000010000020203300082B
:1002040053B94AB9002908BF00281CBF4FF0FF3179
:100214004FF0FF3000F072B9ADF1080C6DE904CE77
:1002240000F006F8DDF804E0DDE9022304B07047CD
:100234002DE9F047089E04468846002B4BD18A429C
:10024400154667D9B2FA82F24AB1C2F1200701FA1F
:1002540002F320FA07F7954047EA030894404FEA6F
:10026400154E230CB8FBFEF71FFA85FC0EFB17880E
:1002740043EA084307FB0CF1994209D9EB1807F14B
:10028400FF3080F01B81994240F21881023F2B44D9
:100294005B1AA4B2B3FBFEF00EFB103344EA034432
:1002A40000FB0CFCA44509D92C1900F1FF3380F0A4
:1002B4000781A44540F2048102382C4440EA0740F7
:1002C400A4EB0C0400271EB1D4400023C6E900436C
:1002D4003946BDE8F0878B4209D9002E00F0EB8047
:1002E4000027C6E9000138463946BDE8F087B3FA6D
:1002F40083F7002F47D18B4202D3824200F2FA8067
:10030400841A61EB030301209846002EE0D0C6E96D
:100314000048DDE702B9FFDEB2FA82F2002A40F0BB
:100324008F80491B4FEA154E1FFA85F80127B1FB50
:10033400FEFC230C0EFB1C1143EA014308FB0CF1E9
:10034400994207D9EB180CF1FF3002D2994200F21E
:10035400CD808446591AA3B2B1FBFEF00EFB1014F3
:1003640043EA044408FB00F8A04507D92C1900F11E
:10037400FF3302D2A04500F2B6801846A4EB08046D
:1003840040EA0C409FE7C7F1200CBB4022FA0CFE68
:100394004EEA030E01FA07F420FA0CF521FA0CF3E5
:1003A4004FEA1E482543B3FBF8F92C0C08FB19331C
:1003B4001FFA8EFA44EA034309FB0AF49C4202FA48
:1003C40007F200FA07F10BD91EEB030309F1FF3022
:1003D40080F087809C4240F28480A9F10209734432
:1003E4001B1BADB2B3FBF8F008FB103345EA034422
:1003F40000FB0AFAA24508D91EEB040400F1FF33FE
:100404006BD2A24569D90238744440EA0940A0FB82
:100414000289A4EB0A044C45C2464B4654D351D03E
:10042400002E69D0B1EB0A0564EB030404FA0CFC5A
:10043400FD40FC404CEA0505C6E90054002747E7A7
:10044400C2F1200320FA03F7954001FA02F021FAE1
:1004540003F34FEA154E3843010CB3FBFEF71FFAC2
:1004640085F80EFB173341EA034107FB08F38B427F
:1004740004FA02F407D9691807F1FF3C2FD28B4222
:100484002DD9023F2944CB1A81B2B3FBFEF00EFBF7
:10049400103341EA034100FB08F38B4207D9691882
:1004A40000F1FF3C17D28B4215D902382944C91AEE
:1004B40040EA07473BE73746304609E70746E7E6A1
:1004C4001846FBE64145ABD2B8EB020A69EB0E02D3
:1004D40001381346A4E76046E9E7184695E76746FE
:1004E400D1E781467CE702382C4447E7ACF1020CA3
:1004F4002B442FE7384608E73746E9E6704700BF44
:1005040070B50E4B0E4D1B682A7806464FF47A7070
:10051400B0FBF2F0B3FBF0F000F0F0FE08B90F2EE0
:1005240001D9012070BD0446024631464FF0FF3028
:1005340000F0A2FE6E60204670BD00BF08000020DF
:100544000000002008B50B4B1A6842F400721A60D0
:100554001A6842F480621A601A6842F480721A605F
:10056400032000F077FE0020FFF7CAFF02F0ECFC46
:10057400002008BD003C0240034A044B11681B786C
:100584000B441360704700BF2800002000000020C7
:10059400014B1868704700BF28000020002800F0B5
:1005A4008E80F8B5036C0446002B7ED0236CDB06EA
:1005B40004D50023012084F83C30F8BD226C4C495A
:1005C40023684C4D22F4885222F0020242F00202C7
:1005D40022644A6822F440324A604A6860680243EE
:1005E4004A6058682169A768E66820F480705860FA
:1005F4005A6842EA01225A60586820F040705860F4
:100604005968A06A39435960996821F40061996076
:100614009A68A84242EA06029A6052D09968E56A4A
:1006240021F0706199609A6810439860996821F08C
:10063400405199609A682A439A609968A569206A2A
:1006440021F0020199609A6842EA45029A605A6868
:1006540000283FD122F400625A60DA6AE569276B08
:10066400666922F47002DA62D86A013D40EA0550F4
:10067400D862986820F400709860996841EA47212C
:100684009960996821F4806199609A68002042EA2F
:1006940086229A606064236C23F0030343F0010311
:1006A4002364002384F83C30F8BD436480F83C3074
:1006B40002F094FC236CDB063FF57BAF7EE7012060
:1006C40070479A6822F070629A609A6822F04052E9
:1006D4009A60B2E742F40062616A5A605A6822F48E
:1006E40060425A605A68013942EA41325A60B4E7BA
:1006F400002301400100000FF0B590F83C3083B0B6
:100704000024012B019469D00568AB680124DE073D
:1007140080F83C4014D4334B334E1C68AB68A6FBC2
:100724000464A40C43F0010304EB4404AB6001949F
:10073400019B2BB1019C013C0194019C002CF9D13B
:10074400AB68DC073DD5046C24F4E06424F00104B8
:1007540044F4807404646B685B0505D5036C23F46E
:10076400405343F480530364036C204E13F48053CA
:100774001CBF436C23F0060343640446806B13469A
:1007840000271B4A84F83C70C6630264194EC66491
:100794006FF022022A606E6846F080666E60AE6872
:1007A40046F480760A46AE6005F14C0100F06CFE1A
:1007B400114B5B6813F01F0F236805D00F4A934257
:1007C40002D0002003B0F0BD986810F04050F8D17A
:1007D4009A6842F080429A6003B0F0BD022003B0F0
:1007E400F0BD00BF0800002083DE1B43050800089D
:1007F40065080008A5090008002301400020014005
:10080400836B1A6C12F0500F02D09B6BDB6C184791
:100814001A6C196842F4007210B51A648A6812F0EE
:10082400405F17D19A69AAB9CA6A12F4700F02D04C
:100834008A6850050ED44A6822F020024A601A6C75
:1008440022F480721A641A6CD20403D41A6C42F033
:1008540001021A64184601F00FFF10BD704700BF73
:1008640008B5806BFFF7FAFF08BD00BF704700BFF3
:10087400704700BF38B503681A6859680446900782
:1008840001D58A0653D41A685968520701D50D0652
:100894001BD41A685968D00701D54A0606D41A68C9
:1008A4005968900601D54A0169D438BD1A68D5073C
:1008B400F5D5236C43F4803323642046FFF7D6FF39
:1008C40023686FF001021A60E9E7226CD00603D4B2
:1008D400226C42F4005222649A6812F4401F1ED122
:1008E4009A6B12F4401F02D09A68510517D45A68C3
:1008F400520514D49A6812F0405F10D1A26972B9FB
:100904005A6822F080025A60236C23F480532364D3
:10091400236CDD0503D4236C43F0010323642046D8
:1009240000F0F6F823686FF00C021A60B1E7226C4D
:10093400D50603D4226C42F4007222649A6812F041
:10094400405F14D1A26992B9DA6A12F4700F23D10C
:100954005A6822F020025A60236C23F480732364C3
:10096400236CD90403D4236C43F00103236420468D
:1009740001F082FE23686FF012021A6083E7626C52
:100984006FF0200542F00202626420461D60FFF70A
:100994006FFF23681D6038BD9A685005E7D4D7E718
:1009A400806B08B540230364436C43F00403436441
:1009B400FFF75EFF08BD00BFF0B490F83C3082B092
:1009C4000022012B019200F08D800D688A68036873
:1009D4000124092DAFB280F83C4029D81C6905EBED
:1009E40045064FF0070C0CFA06FC24EA0C041C61C3
:1009F4001C6902FA06F626431E614E68062E06EBB3
:100A040086022AD8596B053A1F24944021EA04012E
:100A14005963596B07FA02F20A435A63374A9342FD
:100A24002DD0002380F83C30184602B0F0BC70474B
:100A340007EB4706DC681E3E4FF0070C0CFA06FC79
:100A440024EA0C04DC60DC6802FA06F62643DE6065
:100A54004E68062E06EB8602D4D90C2E2DD8A2F1B0
:100A640023041F211A6BA14022EA01021A63196BA5
:100A740007FA04F20A431A63204A9342D1D1122D91
:100A840029D01F4B9D4231D11E491F4B4A681F4C30
:100A940042F400024A601B68A4FB03239B0C03EB93
:100AA40083035B000193019B002BBAD0019B013BA4
:100AB4000193019B002BF9D1B3E7A2F141011F245B
:100AC400DA6A8C4022EA0402DA62DC6A07FA01F28A
:100AD4002243DA62A2E7D2F8043343F48003C2F873
:100AE40004339EE7022002B0F0BC7047112D98D168
:100AF400044A536843F40003536092E70020014022
:100B040012000010002301400800002083DE1B4374
:100B1400704700BF00287CD038B590F820300446D8
:100B2400002B73D02268136823F002031360FFF7CD
:100B34002FFD054604E0FFF72BFD401B0A285CD877
:100B440023685A689107F6D41A6842F001021A60C1
:100B5400FFF71EFD054604E0FFF71AFD401B0A28B7
:100B64004BD823685A68D207F6D5227E012A1A6820
:100B74000CBF42F0800222F080021A60627E012AD9
:100B84001A680CBF42F0400222F040021A60A27EB2
:100B9400012A1A680CBF42F0200222F020021A60D7
:100BA400E27E012A1A680CBF22F0100242F0100201
:100BB4001A60227F012A1A680CBF42F0080222F050
:100BC40008021A60627F012A1A680CBF42F004020C
:100BD40022F004021A60D4E90221D4E904500A4341
:100BE40061682A43024301390A4301250021DA617D
:100BF4000846616284F8205038BD636A052243F4D4
:100C040000336362012084F8202038BD02F030FAFA
:100C140088E70120704700BF90F82030012B09D0ED
:100C240090F82030022B05D0436A43F480234362BA
:100C3400012070473B4BD3F8002242F00102F0B48C
:100C4400C3F80022D3F8002222F47C52C3F8002215
:100C5400D3F80022486A42EA0022C3F800224A6913
:100C6400D3F81C5201209040C4432540C3F81C52C1
:100C7400CD69002D39D1D3F80C522540C3F80C525C
:100C8400D200CF688D888E680B8802F1804202F50D
:100C9400C84245EA074543EA0643C2F84052C2F84F
:100CA40044328B691F4A002B35D1D2F804322340D9
:100CB400C2F804320B693BBB1A4BD3F8142214401C
:100CC400C3F814420B6A012B05D1164AD2F81C3220
:100CD4001843C2F81C02134AD2F8003223F001036D
:100CE4000020C2F80032F0BC7047012DD9D1D3F8EE
:100CF4000C520543C3F80C52D20002F180420F6833
:100D04008D888E688B89C2E7064AD2F81432034371
:100D1400C2F81432D6E7D2F804320343C2F80432DC
:100D2400C8E700BF0064004038B590F82030012BBC
:100D340005D0436A43F400234362012038BD0268AE
:100D4400022380F82030136823F001031360044663
:100D5400FFF71EFC054604E0FFF71AFC401B0A28B7
:100D640007D823685B6813F00103F5D16362184662
:100D740038BD636A052243F400336362012084F8BA
:100D8400202038BD70B490F82040012C0AD090F88F
:100D94002040022C06D0436A43F48023436201209E
:100DA40070BC70470468A5686D012DD5A068012545
:100DB400C0F3016085401D608B688BBB0E68CD68F5
:100DC40000F118031B0145EA4655E5500D7D0969FC
:100DD40000012318012DC3F8841105D1D3F884111F
:100DE40041F48071C3F8841104445168C4F88C112F
:100DF4001268C4F88821D3F8802142F0010200204F
:100E0400C3F8802170BC7047A5682E01CED4A568B4
:100E1400ED00CBD4436A43F4001343620120BFE7DF
:100E2400CD684E682B4300F118052D0143EAC60333
:100E34006351CBE790F82030012B05D090F8203097
:100E4400022B01D000207047036898689A689B6859
:100E54001201C0F3806048BF0130DB00F3D50130DC
:100E6400704700BF90F82030012B05D090F8203057
:100E7400022B01D00020704703689B68890631EA81
:100E8400030314BF01200020704700BF2DE9F04187
:100E9400044690F8200001280AD094F82000022883
:100EA40006D0636A43F4802363620120BDE8F081C5
:100EB4002668002956D1F068850763D008013518E3
:100EC400D5F8B07107F004079760002F55D0D5F816
:100ED400B071FF085760D5F8B0E1D5F8B4C1D5F8C2
:100EE400B471D5F8B4510644CEF3400ED6F8B881A7
:100EF400C7F307270CF00F062D0CC2E903E6C2E97D
:100F0400055783F8008022680244D2F8B821120AF7
:100F14005A7022680244D2F8B821120C9A702268DE
:100F24000244D2F8B821120EDA7022680244D2F8D0
:100F3400BC211A7122680244D2F8BC21120A5A71E7
:100F440022680244D2F8BC21120C9A71226810441F
:100F5400D0F8BC21120EDA71D9B1012921D00020B8
:100F6400BDE8F0810129A9D130698007A6D1636A5F
:100F740043F400130846636298E7D5F8B0717F0D17
:100F84001760A8E7636A43F4001363620120BDE8B5
:100F9400F0812268D36843F020030846D360BDE89B
:100FA400F0812268136943F02003136100207DE778
:100FB40090F82030012B05D090F82030022B01D07E
:100FC40000207047036819B1186900F003007047E6
:100FD400D86800F00300704790F82030012B09D046
:100FE40090F82030022B05D0436A43F480234362F7
:100FF400012070470268536919435161002070470A
:10100400704700BF704700BF704700BF704700BF04
:10101400704700BF704700BF704700BF704700BFF4
:10102400704700BF704700BF704700BF704700BFE4
:101034002DE9F84F03685C69D3F804809F68D3F8FE
:101044000CB0D3F81090D3F818A014F0010605469C
:1010540020D017F001060DD00122B9079A6000F1E3
:10106400C7807A0700F1C88017F0080600F0DE8018
:101074004FF48056FB050BD52B684FF48072B805EE
:101084009A6000F1B180790540F1BE8046F40056C3
:10109400FB0376D4230702D51BF0100F6BD167072F
:1010A40003D51BF0080F40F09480A00703D52B68EC
:1010B400DB68990777D1620602D519F0100F54D175
:1010C400A30602D519F0080F66D1E70603D52B68ED
:1010D4001B6998076BD1A10302D518F0100F6AD1D0
:1010E400E20302D518F0080F6CD1230434D518F0AC
:1010F400040F2B682ED0E70504D51AF0010F18BF92
:1011040046F00106A00504D51AF0020F18BF46F0F8
:101114000206610504D51AF0040F18BF46F0040650
:10112400220517D51AF0700A14D0BAF1300F00F066
:1011340087806ED9BAF1500F7FD0BAF1600F00F0FA
:101144008280BAF1400F01D146F040069A6922F03C
:1011540070029A6104225A602EB16B6A1E436E6259
:101164002846FFF763FFBDE8F88F2B68102246F48A
:1011740080661A61A4E72B68102246F40076DA60D0
:101184008DE72B684FF48032B8039A6028D4790332
:1011940035D546F400467DE72B6808221A612846B7
:1011A400FFF73EFF91E72846FFF736FF83E728461F
:1011B400FFF734FF8FE72B6810225A602846FFF7A9
:1011C40031FF8DE72B6808225A602846FFF72CFF71
:1011D4008BE72B680822DA60284601F0F7FD64E704
:1011E4002846FFF711FF55E72846FFF70BFF4FE7A7
:1011F400FFF706FF00263DE74FF400663AE73A039F
:1012040010D546F4803645E73A0512D546F48046B3
:101214003EE7BAF1100F19D0BAF1200F96D146F07B
:10122400100693E72846FFF7F5FE33E7FFF7EEFED7
:1012340020E72846FFF7ECFE2AE746F0800685E71C
:1012440046F0200682E746F480767FE746F00806FB
:101254007CE700BF074AD3684FF6FF010B4000024A
:1012640043F0BF6300F4E06043F400330343D3600E
:10127400704700BF00ED00E0184BDB68C3F30223A6
:1012840030B4C3F10705042D03F1040428BF042579
:10129400062C19D9033B4FF0FF349C4022EA040486
:1012A4004FF0FF32AA4021EA020101FA03F222437D
:1012B40012010028D2B20ADB00F1604000F561405F
:1012C40080F8002330BC704700242346E8E7044B31
:1012D40000F00F0003441A7630BC704700ED00E0C4
:1012E400FCEC00E000F01F0101234009024A8B409E
:1012F40042F82030704700BF00E100E00138B0F14F
:10130400807F0ED2084B10B4084C5860F02084F84B
:1013140023000022072110469A6019605DF8044BEF
:1013240070470120704700BF10E000E000ED00E0CE
:10133400044A136804280CBF43F0040323F0040395
:101344001360704710E000E0704700BF08B5FFF776
:10135400FBFF08BDF8B50446FFF71AF9002C54D07A
:101364000222236884F835201A68002122F0010241
:1013740084F8341005461A6005E0FFF709F9401BAC
:1013840005283BD823681A68D107F6D4D4E9012686
:10139400D4E90351324360691F682A43D4E90665DE
:1013A4000A430243216A354832432A430A43616AA5
:1013B4003840042942EA000229D01A605A6922F00E
:1013C40007021143DAB22E485961103AA0FB021207
:1013D40012092C4923F47F73895CE16523F003032C
:1013E400032A88BF04333F228A4001250021A365D4
:1013F40008469A60616584F83550F8BD03232022BD
:101404006265184684F83530F8BD0120F8BDD4E98A
:101414000B0101430A43A56A1A605A6945F00401A5
:1014240022F0070211430028CCD07EB1B6F5005F4C
:1014340016D0022D03D9032DC4D1C201C2D5012374
:1014440040226265184684F83530F8BD012D03D07A
:10145400F3D3022DB6D1F0E7B0F1C07FB2D1EEE7FD
:10146400032DAFD801A252F825F000BF43140008A1
:101474003F140008431400085D1400083F8010F076
:10148400ABAAAAAA38330008F0B490F83440012C6F
:1014940039D090F83540866D0125AC4280F834503F
:1014A4002BD104680227002580F83570456525682E
:1014B400876825F48025402F256063600ABFA260F9
:1014C400A160E160C16D18BFE2603F238B40026CF4
:1014D400B360236843F016032360636943F0800319
:1014E40063611AB1236843F008032360236843F05F
:1014F400010323600020F0BC7047002380F83430DF
:10150400F0BC022070470220F0BC7047F0B583B0F5
:101514000023876D0193C36D3D68654908229A4095
:101524002A4204460E6803D001680868400759D46B
:1015340001229A402A4203D021684969080674D4DA
:1015440004229A402A4203D021680968890766D494
:1015540010229A402A4203D02168086800074BD41D
:1015640020229A402A4214D021680868C00610D567
:10157400BA6094F83520052A63D00B6813F4802FE1
:101584000B687ED0190340F18980E36B0BB12046D0
:101594009847636D23B3636DDA071AD50523226870
:1015A40084F835301368434923F00103A1FB061680
:1015B4001360B60A02E01368DB0704D5019B01330C
:1015C400B3420193F7D90022012384F8342084F82C
:1015D4003530E36C23B1204603B0BDE8F040184732
:1015E40003B0F0BD086820F004000860BA60626DC2
:1015F40042F0010262659BE7BA600A6812F4802F28
:101604000A6818D1D20503D40A6822F008020A60D5
:10161400226C002AA4D020469047E36DA0E7BA606C
:10162400626D42F00402626592E7BA60626D42F054
:101634000202626584E71103EAD5A26C002AEAD1AA
:101644008EE70A68206C22F016020A604A6922F0CA
:1016540080024A6138B30A6822F008020A603F2215
:10166400216D02FA03F300200122BB6084F83400E8
:1016740084F835200029B3D0204603B0BDE8F040FB
:10168400084713F4807380D10A68012022F0100205
:101694000A6084F8343084F8350076E7636C002BF4
:1016A4007FF475AF75E7A26C002AD4D1D7E700BFE9
:1016B40008000020B5814E1B2DE9F04FDFF814C25D
:1016C400DFF81482D1F800E083B0002503E001358F
:1016D400102D00F094800123AB400EEA0304A342D2
:1016E400F5D14E6826F0100ABAF1020F00F08A8094
:1016F4004FEA45090322D0F800B002FA09F2D243B6
:1017040006F0030702EA0B0B07FA09F70AF1FF3A9E
:1017140047EA0B07BAF1010F076040F29980C768E6
:101724008B683A4003FA09F31343C360F300CED540
:1017340000230193D8F8443043F48043C8F844307C
:10174400D8F8443025F0030202F1804203F48043C8
:1017540002F59C32019305F00307019BD2F808902F
:10176400BF000F23BB4029EA030A544B98421ED002
:1017740003F5806398427ED0514B984200F08280FA
:10178400504B984200F085804F4B984200F088807F
:101794004E4B984200F08B804D4B98420CBF4FF05B
:1017A40006094FF0070909FA07F74AEA070AC2F8D7
:1017B40008A0DCF80030E243F70354BF134023438E
:1017C400CCF80030DCF80430B70354BF1340234393
:1017D400CCF80430DCF80830F70254BF134023433C
:1017E400CCF80830DCF80C30B60205F1010554BF22
:1017F40013402343102DCCF80C307FF46CAF03B0AE
:10180400BDE8F08F4FEAD50900EB890905F0070719
:10181400D9F82020BF004FF00F0B0BFA07FB22EA88
:101824000B0A0A69BA4042EA0A02C9F820204FEAC0
:1018340045090322D0F800A002FA09F2D24306F0C7
:10184400030702EA0A0A07FA09F747EA0A070760E0
:10185400876807EA020ACF6807FA09F747EA0A071E
:101864008760D0F804A0C6F300172AEA0303AF4048
:101874001F43476053E74FF0010909FA07F74AEAA3
:10188400070A94E74FF0020909FA07F74AEA070A38
:101894008DE74FF0030909FA07F74AEA070A86E7D2
:1018A4004FF0040909FA07F74AEA070A7FE74FF0FD
:1018B400050909FA07F74AEA070A78E7000002402F
:1018C40000080240000C02400010024000140240D4
:1018D40000180240003C01400038024003691942EC
:1018E40014BF01200020704702B9090481617047C8
:1018F400704700BF044A5169014200D1704708B5DE
:101904005061FFF7F5FF08BD003C014060B1484A53
:10191400136803F00F038B4208D2CBB21370136821
:1019240003F00F038B4201D00120704703682DE9B7
:10193400F0419D0714D55C0704D53E4CA26842F4DF
:10194400E052A2601A0704D53A4CA26842F46042FD
:10195400A260384C8568A26822F0F0022A43A26093
:10196400DF0704460D4622D54268012A56D0931E4D
:10197400012B304B1B6858D9990725D52D4EB368D8
:1019840023F003031343B360FEF702FE41F28837EA
:10199400804605E0FEF7FCFDA0EB0800B84242D803
:1019A400B368626803F00C03B3EB820FF2D1204AF0
:1019B400136803F00F03AB4209D9EBB21370136839
:1019C40003F00F03AB4202D00120BDE8F08123688D
:1019D4005A0706D51749E0688A6822F4E0520243A0
:1019E4008A601B0711D400F051F8124B12499B680E
:1019F400124AC3F30313CB5C20FA03F300201360F1
:101A0400FEF77EFD0020BDE8F0810A4A2169936853
:101A140023F4604343EAC1039360E4E7054B1B6886
:101A24009E03ABD4D0E70320EDE79801A6D4CBE71F
:101A3400003C024000380240403300080800002007
:101A4400014B1868704700BF08000020044B054A8A
:101A54009B680549C3F382230868D35CD840704768
:101A6400003802405033000808000020044B054AA7
:101A74009B680549C3F342330868D35CD840704778
:101A8400003802405033000808000020284908B5F7
:101A94008B6803F00C03082B07D00C2B1DD0254AB0
:101AA4002548042B18BF104608BD4A684B6813F438
:101AB400800302F03F0230D149681E48C1F3881107
:101AC400A1FB0001FEF79CFB194B5B68C3F30143C8
:101AD40001335B00B0FBF3F008BD4A684B6813F4B4
:101AE400800302F03F020ED149681248C1F3881105
:101AF400A1FB0001FEF784FB0D4B5B68C3F302738B
:101B0400B0FBF3F008BD4B680B48C3F38813A3FB89
:101B140000010023FEF774FBEEE74B680648C3F3AD
:101B24008813A3FB00010023FEF76AFBCCE700BF88
:101B3400003802400024F40000127A002DE9F0413C
:101B44000368DA0782B0044636D5AE498A6802F0E3
:101B54000C02042A00F0D2808A6802F00C02082ADF
:101B640000F0C880A7498A6802F00C020C2A00F031
:101B740004816368B3F5803F00F00481B3F5A02FBE
:101B840000F060819F4D2A6822F480322A602A681E
:101B940022F480222A60002B40F0F980FEF7F8FC42
:101BA400064605E0FEF7F4FC801B642800F20D8174
:101BB4002B689903F6D423689A072FD5914A916824
:101BC40011F00C0F00F0AB80916801F00C010829B2
:101BD40000F0A1808B498A6802F00C020C2A00F004
:101BE4002C81E368002B00F01781874B854D01227F
:101BF4001A60FEF7CDFC064605E0FEF7C9FC801B23
:101C0400022800F2E2802B689807F6D52B68226937
:101C140023F0F80343EAC2032B6023681A0715D59F
:101C24006369002B00F08D80784B764D01221A6099
:101C3400FEF7AEFC064605E0FEF7AAFC801B022870
:101C440000F2C3806B6F9B07F6D52368580731D524
:101C54006C4A136C13F0805300F0838000266C4DA3
:101C64002A68D10540F1A180A368012B00F0B1805E
:101C7400052B00F0F780634D2A6F22F001022A67DA
:101C84002A6F22F004022A67002B40F0A780FEF797
:101C94007FFC41F28837804606E0FEF779FCA0EB32
:101CA4000800B84200F291802B6F9807F5D4002EFB
:101CB40040F0D280A269CAB1524DA96801F00C016A
:101CC400082924D0022A534A4FF00001116000F081
:101CD400D380FEF75DFC2C46054604E0FEF758FC75
:101CE400401B022871D823689B01F7D4002002B05E
:101CF400BDE8F0814A6857027FF534AF414A126863
:101D040095037FF559AF6268002A7FF455AF01202F
:101D140002B0BDE8F081526857023FF55BAF394A23
:101D24001268950702D5E268012AF0D13549206985
:101D34000A6822F0F80242EAC0020A601A0785D54E
:101D44006EE7324A2F4D1360FEF722FC064604E08C
:101D5400FEF71EFC801B022837D86B6F9F07F7D451
:101D640073E70193136C43F080531364136C03F013
:101D740080530193019B012671E74A6856027FF55F
:101D8400F8AEBBE71F4A136843F480331360FEF7D1
:101D9400FFFB1C4D064604E0FEF7FAFB801B64289B
:101DA40013D82B689803F7D505E72A6842F48072A4
:101DB4002A60FEF7EDFB07462B68DA053FF554AFC2
:101DC400FEF7E6FBC01B0228F6D9032002B0BDE8EB
:101DD400F0810C4A136F43F001031367FEF7D8FB3D
:101DE400084D804641F2883705E0FEF7D1FBA0EBB1
:101DF4000800B842E9D82B6F9B07F6D5002E3FF4B4
:101E040059AF29E00038024000004742800E4742A3
:101E140000700040600047422F4A304D1360FEF7C7
:101E2400B7FB064604E0FEF7B3FB801B0228CCD8C0
:101E34002B689907F7D42368F0E64A6856023FF501
:101E4400D0AE6CE7254B1A6842F480221A601A68F7
:101E540042F480321A609AE7204A136C23F08053CC
:101E6400136427E71D4B1A6F42F004021A671A6FB6
:101E740042F001021A67B1E7FEF78AFB064604E066
:101E8400FEF786FB801B02289FD82B689901F7D4A4
:101E9400D4E90732666AE06A216B1343A26A0F4CE5
:101EA40043EA861343EA0063520843EA0173013AA2
:101EB4000B4943EA024301226B600A60FEF768FBA8
:101EC400054605E0FEF764FB401B02283FF67DAFA4
:101ED40023689A01F6D509E700004742003802401A
:101EE400600047420168022210B480F839200A6871
:101EF4000124034622430A60002083F839405DF838
:101F0400044B70470368DA6842F00102DA601A6829
:101F140042F001021A600020704700BF90F8383088
:101F2400012B67D002220368F0B480F839209A6844
:101F34000C6822F47F4222F077020125402C80F8BD
:101F440038509A6000F0938018D9702C7FD02BD928
:101F5400B4F5805F76D0B4F5005F1CD1D1E90152AD
:101F6400CC6899682A4342EA042221F47F410A4357
:101F74009A609A6842F480429A600CE0102C42D035
:101F84002FD9202C38D0302C05D19A6822F0700239
:101F940042F037029A600023012280F8392080F849
:101FA4003830F0BC18467047502C33D0602CF2D136
:101FB4001C6A4D68CE6824F010041C6299691A6A80
:101FC40021F4704122F0A00242EA051241EA0631EE
:101FD40099611A629A6822F0700242F067029A606C
:101FE400D9E7002CD7D19A6822F0700242F0070298
:101FF4009A60D0E7022070479A6822F0700242F09B
:1020040027029A60C7E79A6822F0700242F017022A
:102014009A60C0E71D6A1E6A4C68CF6826F0010604
:102024001E629A6925F00A0122F0F00242EA0712C0
:1020340021439A6119629A6822F0700242F05702B1
:102044009A60A8E79A6822F007029A60A3E7D1E9A8
:102054000152CC6899682A4342EA042221F47F4160
:102064000A439A609A6842F077029A6093E71D6A7D
:102074001E6A4C68CF6826F001061E629A6925F034
:102084000A0122F0F00242EA071221439A6119621E
:102094009A6822F0700242F047029A607BE700BF20
:1020A400704700BF704700BF704700BF704700BF54
:1020B40003681A69910710B5044602D5DA689207D5
:1020C4005FD41A69500702D5DA68510746D41A69F1
:1020D400120702D5DA6810072ED41A69D20602D57F
:1020E400DA68D00618D41A69D10702D5DA68D2079B
:1020F4005DD41A69100602D5DA6811065FD41A692C
:10210400520602D5DA68500661D41A69910602D5DE
:10211400DA68920643D410BD6FF010021A61DB69CD
:10212400082213F4407F2276204664D0FFF7BAFFDA
:10213400002223682276D6E76FF008021A61DB6971
:10214400042299072276204652D1FFF7A9FF2046A0
:10215400FFF7AAFF002223682276BEE76FF004028D
:102164001A619B69022213F4407F227620463CD1F7
:10217400FFF796FF2046FFF797FF00222368227699
:10218400A5E76FF002021A619B6901229B070276A0
:1021940025D0FFF787FF00222368227691E76FF0AE
:1021A400200220461A61BDE8104000F0D5B86FF057
:1021B40001021A61204600F077FE236899E76FF068
:1021C40080021A61204600F0C9F8236897E76FF08F
:1021D40040021A612046FFF769FF236895E7FFF77D
:1021E4005FFF2046FFF760FFD5E7FFF75BFFC4E71B
:1021F400FFF758FFAEE7FFF753FF2046FFF754FF02
:1022040096E700BF70B4314D03688C680A68A84231
:102214004FD0B0F1804F29D0A5F57C45A84234D0E9
:1022240005F58065A84230D005F58065A8422CD01C
:1022340005F57845A84228D005F57055A84213D075
:1022440005F58065A8420FD005F58065A8420BD03E
:10225400A5F59835A84207D005F58065A84203D0B6
:1022640005F58065A84209D1C96804E04D68C968CC
:1022740023F070032B4323F440730B430360C462C5
:1022840082620123436170BC70474D68CE6823F0BD
:1022940070032B430E4D23F440733343A842036071
:1022A400C4628262EDD10B6903630123436170BC94
:1022B40070474E68CD6823F07003334323F44073B2
:1022C4002B430360C4628262EDE700BF000001405B
:1022D40000040140B8B190F8393010B503F0FF02A2
:1022E40004465BB1022384F839302068211DFFF7CE
:1022F40089FF012384F83930002010BD80F838208C
:1023040000F0EAFEEEE70120704700BF90F8383095
:10231400012B1ED002460220136870B482F83900E3
:102324005C6824F07004D1E900565C605868284366
:102334005860986820F0800098609968002401250E
:1023440031439960204682F8395082F8384070BC95
:1023540070470220704700BF704700BF704700BF3E
:10236400026811692DE9F843C568836821F4405176
:102374000446294300691161D16865690343E06932
:1023840021F416412B4321F00C0103430B43D3608A
:102394005369A16923F440730B43B0F5004F5361B3
:1023A4009B4B00F09A809A4259D003F580639A427D
:1023B40055D0FFF74BFB974F636800EB800000EBB1
:1023C40080009B00B0FBF3F3A7FB03235B091D0113
:1023D400FFF73CFB666800EB800000EB8000B60072
:1023E400B0FBF6F6FFF732FB636800EB800000EB0E
:1023F40080009B00B0FBF3F3A7FB03235B094FF0C2
:10240400640909FB13631B013233A7FB03235B0934
:1024140003F0F006FFF71AFB626800EB800000EBA4
:1024240080009300B0FBF3F8FFF710FBD4E900231E
:1024340000EB80009B0000EB8000B0FBF3F0A7FBF7
:102444000030400909FB10831B013233A7FB03133F
:10245400C3F3431333432B449360BDE8F883FFF77E
:1024640005FB6C4F636800EB800000EB80009B0071
:10247400B0FBF3F3A7FB03235B091D01FFF7F6FA97
:10248400666800EB800000EB8000B600B0FBF6F657
:10249400FFF7ECFA636800EB800000EB80009B0020
:1024A400B0FBF3F3A7FB03234FF064095B0909FBBB
:1024B40013631B013233A7FB03235B0903F0F0060C
:1024C400FFF7D4FA626800EB8000930000EB800011
:1024D400B0FBF3F8FFF7CAFAA8E79A4259D003F51C
:1024E40080639A4255D0FFF7B1FA4A4F636800EB14
:1024F400800000EB80005B00B0FBF3F3A7FB032339
:102504005B091E01FFF7A2FA656800EB800000EB8F
:1025140080006D00B0FBF5F5FFF798FA636800EBF7
:10252400800000EB80005B00B0FBF3F3A7FB032308
:102534005B094FF0640909FB1353DB003233A7FB3B
:1025440003231B0903F4F875FFF780FA626800EBB4
:10255400800000EB80005300B0FBF3F8FFF776FA3D
:10256400D4E9002300EB800000EB80005B00B0FBAB
:10257400F3F3A7FB03135B0909FB1383DB0032337B
:10258400A7FB0313C3F3421333442B449360BDE806
:10259400F883FFF76BFA1F4F636800EB800000EBD2
:1025A40080005B00B0FBF3F3A7FB03235B091E0170
:1025B400FFF75CFA656800EB800000EB80006D00BB
:1025C400B0FBF5F5FFF752FA636800EB800000EB0F
:1025D40080005B00B0FBF3F3A7FB03234FF0640917
:1025E4005B0909FB1353DB003233A7FB03231B09ED
:1025F40003F4F875FFF73AFA626800EB80005300C1
:1026040000EB8000B0FBF3F8FFF730FAA8E700BF57
:10261400001001401F85EB5160B338B590F8393094
:10262400044603F0FF0203B32268242384F83930FC
:10263400D36823F40053D3602046FFF791FE236848
:102644001A6922F490421A615A6922F02A025A61E4
:10265400DA680025202142F40052DA602846E56356
:1026640084F8391084F83A1038BD80F8382000F026
:1026740071FDD9E701207047044A054BD2E90001F6
:1026840092689A60C3E90001704700BF1C050020EE
:10269400B402002070B594B00020284A0090116C58
:1026A400274B41F080511164126C02F08052009269
:1026B400009A01901A6842F440421A601B68012093
:1026C40003F44043022401934FF4A0254FF4800106
:1026D40008224FF49073079007A8019E08950D9463
:1026E400CDE911441394CDE90E121093FFF726FAA5
:1026F40000B1FEE702464FF4A0530F25042102A8BF
:10270400CDE903420295CDE90533FFF7FFF804460E
:1027140000B1FEE7FFF794F94FF47A73B0FBF3F0DE
:10272400FEF7ECFD0420FEF703FE224621464FF09F
:10273400FF30FEF7A1FD14B070BD00BF00380240A9
:1027440000700040A04ADFF8D8C2A04BA04940F670
:1027540059502DE9F04F10609E4A9F4D9F4CDFF871
:10276400C4929F4E7B20106040F6DE479D4A2F6046
:1027740040F6311515609C4A70208FB010609B4A5A
:10278400002540F6A117CCF800500D6055601D706F
:102794005D709D70DD702760C9F80050FDF7D2FEB2
:1027A400FFF778FF0395336B914843F004033363D9
:1027B400336B03F004030393039B0495336B43F0DF
:1027C40080033363336B03F080030493049B059508
:1027D400336B43F001033363336B03F0010305935D
:1027E400059B0695336B43F002033363336B03F0AD
:1027F400020306932A460121069BFFF775F82A4631
:102804004FF480717B48FFF76FF87B4B78480B954A
:102814004FF4005209A9CDE909230124FEF74CFF26
:1028240009A97348CDE90B55CDE90944FEF744FFE6
:10283400402309A96E480993CDE90A54FEF73CFFE9
:102844004FF4807309A96B480993CDE90A450C95A7
:10285400FEF732FF2A4629462820FEF70DFD2820E0
:10286400FEF740FD0295336B43F480033363336B0F
:1028740003F480032A46294602933820029BFEF77C
:10288400FBFC3820FEF72EFD5C4BA6F5FA364FF420
:10289400E1310C2218469D60C3E90355C3E906558E
:1028A400C3E900615A61FFF7B7FE00B1FEE7544F78
:1028B4005449554A7860034603263846BB603C6158
:1028C400BC613B62FB62FB603C637C613960BA6261
:1028D400FE61FDF763FE00B1FEE70723099009A935
:1028E4003846CDE90A43FEF767F800B1FEE7022552
:1028F40009A93846CDE90945FEF75EF800B1FEE7BF
:102904000423384609A90A960993FEF755F800B13D
:10291400FEE73E4E3E4BB06030614AF2AA6233603D
:1029240030464FF47A737260F360FFF7D3FC00B162
:10293400FEE74FF4805309A930460993FFF7EEFAF6
:10294400034600B1FEE7304607A9CDE90733FFF798
:10295400DDFC00B1FEE72F4B2F4E18764FF43021EB
:10296400C3E9020058764FF48002D8761877587776
:1029740018465D609C761E60C3E90412FEF7CAF82F
:1029840000B1FEE7254B4FF08042986018614FF488
:1029940061611A60184664225960DA60FFF79AFC94
:1029A40000B1FEE74FF4805409A91C480994FFF7CD
:1029B400B5FA034600B1FEE707A91848CDE9073385
:1029C400FFF7A4FC80B3FEE7C402002050040020FB
:1029D400B00200204C040020AC000020F8010020CC
:1029E40000380240A4000020F4010020B4020020BA
:1029F4000008024000040240000011109804002066
:102A040064020020002001400100000FFC010020AE
:102A140000040040D8040020006400405C0400204E
:102A24003804002044040020DFF828A36423CAF8F3
:102A340008004FF46162CAF81000CAF80C3050461E
:102A4400AD4BCAF80420CAF80030FFF743FC00B1CC
:102A5400FEE709A950460994FFF760FA034600B15E
:102A6400FEE707A95046CDE90733FFF74FFC0746B9
:102A740000B1FEE7024601461220FEF7FDFB1220DC
:102A8400FEF730FC3A4639461320FEF7F5FB1320D7
:102A9400FEF728FC3A4639461420FEF7EDFB1420D5
:102AA400FEF720FC3A4639461520FEF7E5FB1520D3
:102AB400FEF718FC3A4639461620FEF7DDFB1620D1
:102AC400FEF710FC3A4639461D20FEF7D5FB1D20C3
:102AD400FEF708FC3A4639461E20FEF7CDFB1E20C1
:102AE400FEF700FC3A4639461C20FEF7C5FB1C20C5
:102AF400FEF7F8FB8148824C824E834DDFF8588202
:102B0400DFF858B2FFF7EEF9804A81489761012354
:102B14001146C2E90773C2E90077C2E90277C2E944
:102B240004770193FEF778F87948FEF7FDF814214D
:102B34007748FEF751FA15217548FEF74DFA7548A6
:102B4400FFF7D0F95046FFF7CDF94FF08042019BD3
:102B54005362694B6F485F62FFF7D4F95046FFF741
:102B6400D1F96D4F6D496E4800233B606D4F236072
:102B740003223B60FDF7C0FD40216B48FEF7AEFE2B
:102B84006A4B6B491860012884BF01232360694B99
:102B94000968D9F80070D3F804C001970246186890
:102BA400654F431A002B4FF0640AB8BF5B4201998A
:102BB4003F680AFB03F3B3FBF7F3AAEB030346F8FE
:102BC40021305E4F336871683F681944B3688E469C
:102BD400ACEB07079E44F3680199002FB8BF7F420E
:102BE4009E4433690AFB07FA554F73444FF0050EB0
:102BF40093FBFEF3C3F1640E524B3F68BAFBF7F745
:102C04000329C7F1640743F82170C5F800E0C8F848
:102C140000E00B463EDD0023C9F80030B0F5805FCC
:102C240024BF01232360BCF5805F24BF01232360FC
:102C3400002856D101232360BCF1640F56D9012A20
:102C44004AD0002A48D02B68632B40DD64232B60D4
:102C5400D8F80030632B34DD6423C8F800302B68C7
:102C6400D8F8001022685B1A002BB8BF5B42092B0E
:102C7400354B1CDD35495B6A09685B1A642B0ED938
:102C84000123CBF80030324A00232B60C8F800300F
:102C9400136066E701990131C9F80010BEE7002A04
:102CA400F1D1DBF80030002B3FF45BAFEBE72749B1
:102CB4005B6A0B600023CBF80030002A3FF451AF6D
:102CC400E1E7052BDCBF0023C8F80030C7E7052B7C
:102CD400DCBF00232B60BBE701211348FEF704FE91
:102CE400B1E7BCF1000F04D16428A3D90123236008
:102CF400A5E764289ED99FE700080040FC01002056
:102D04004005002028050020A80000203C020020E7
:102D1400D80400205C0400203C0500201C05002091
:102D24006402002040040020000802403003002018
:102D3400C4020020B40200204C040020A40000209F
:102D4400F40100202C000020000400402C0300208B
:102D5400B0000020B4000020C00200203403002092
:102D640010B588B0002302900D4806920C46CDE9B8
:102D740004338DF81C30FEF75DF810B9002008B05C
:102D840010BD01210648FEF76DF80028F6D1224651
:102D940001AB02A90248FDF7F5FF012008B010BD00
:102DA400D804002010B5002104460648FEF700F9B7
:102DB40028B12346044A03480021FEF767F8024B72
:102DC400186810BDD8040020000500202DE9F0414A
:102DD4002C4C82B008212046FFF7E4FFBB2802D028
:102DE40002B0BDE8F081237843B96378EBB1264E95
:102DF400264D012B2FD0264F264C03E0224E234D87
:102E0400234F244C3A68366823682C6822482349A7
:102E1400921B1B1B002AB8BF5242002BB8BF5B4257
:102E240002600B6002B0BDE8F0811D4A164E174DDA
:102E34000093D2E90007694608223060BC20019360
:102E44002F60FFF78DFF174A237801211160002BB3
:102E5400D1D16378CDE7124B0D4F0E4CD3E900204E
:102E64004FF000084FF480733A60206008226946EE
:102E7400BC20CDE90038FFF773FF0A4BC3F800808C
:102E8400C0E700BF54040020C4020020A4000020B6
:102E9400AC000020F80100204C040020F4010020C4
:102EA400B4020020B0020020204B834200D07047BF
:102EB40070B51F4B1F4D1A682B78012A82B017D1A9
:102EC4006C461D4A8DF8063013688DF80130214692
:102ED400002302240822B0208DF80040ADF802300F
:102EE400ADF804308DF80730FFF73AFF02B070BD3B
:102EF400124A134912680E688DF8063001206C4698
:102F040000238DF802208DF8000021460822B0200D
:102F14008DF803308DF804308DF805308DF80730C6
:102F24008DF80160FFF71CFF2B78CAE75C040020D2
:102F3400B00200203C05002030030020C002002025
:102F4400A8000020FEE700BF10B582B00024224B89
:102F540000945A6C42F480425A645A6C02F48042DF
:102F64000092009A01941A6C42F080521A641B6C0D
:102F740003F0805301930320019BFEF76BF9224673
:102F840021466FF00B00FEF777F9224621466FF0D9
:102F94000A00FEF771F9224621466FF00900FEF798
:102FA4006BF9224621466FF00400FEF765F92246CC
:102FB40021466FF00300FEF75FF9224621466FF0C9
:102FC4000100FEF759F9224621464FF0FF3002B0C6
:102FD400BDE81040FEF750B9003802401F4B0268AC
:102FE4009A4200D0704770B586B0002603F58C3342
:102FF40000965A6C1A4C42F480725A645B6C0396C5
:1030040003F480730093132203230099019201A90E
:10301400054614480293FEF74FFB134B23604FF40D
:1030240080604FF480514FF480424FF480732061EC
:1030340020466660C4E90266C4E90866C4E905126C
:10304400E361FEF787F918B9AC63A56306B070BDF8
:1030540077210648FFF776FFF6E700BF002001401E
:10306400C8020020000002401064024058330008E7
:103074000268174B9A4200D07047F0B587B000271A
:1030840003F5EA3300971A6C124842F000721A648E
:103094001B6C03F0007300934FF4006201A9022635
:1030A40001230325009C01920924CDE90263CDE9A3
:1030B4000454FEF701FB4FF4805301A90548019322
:1030C400CDE90267CDE90454FEF7F6FA07B0F0BD86
:1030D40000640040000002400368B3F1804F84B0F4
:1030E40007D0194A934221D0184A934210D004B011
:1030F400704703F50E33002201921A6C42F001026C
:103104001A641B6C03F001030193019B04B0704724
:103114000F4B002203921A6C42F004021A641B6CD7
:1031240003F004030393039B04B07047084B00228D
:1031340002921A6C42F002021A641B6C03F002033E
:103144000293029B04B07047000400400008004052
:10315400003802400268114B9A4200D0704770B5A3
:1031640086B003F5FA33002200921A6C0C4842F43C
:1031740000321A641B6C0C2103F400330093032205
:10318400072301910225012401A9009ECDE90254DF
:10319400CDE90423FEF790FA06B070BD0044004068
:1031A40000000240704700BFFEE700BFFEE700BF1B
:1031B400FEE700BFFEE700BF704700BF704700BFD7
:1031C400704700BF08B5FDF7D7F9BDE80840FEF722
:1031D400BDB800BF0148FDF74DBB00BF640200202D
:1031E4000148FDF725BF00BFD8040020FFF7F8BF52
:1031F400FFF7F6BFFFF7F4BF0148FEF759BF00BF62
:103204005C0400200148FEF753BF00BFFC0100200E
:103214000148FEF74DBF00BFB40000204FF400503A
:10322400FEF768BB0148FEF771B900BFC802002071
:103234001049114BD1F8882042F4700210B4C1F83F
:1032440088201A680D4C002042F001021A60986030
:103254001A6822F0847222F480321A605C601A6860
:103264004FF0006422F480221A60D8608C605DF80C
:10327400044B704700ED00E0003802401030002499
:10328400DFF834D0002103E00C4B5B584350043189
:103294000B480C4B42189A42F6D30B4A02E0002327
:1032A40042F8043B094B9A42F9D3FFF7C1FF00F0FF
:1032B40011F8FFF747FA7047000002208433000832
:1032C400000000200C0000200C0000204405002019
:1032D400FEE7000070B50D4E0D4CA41BA410002594
:1032E400A54209D10B4E0C4C00F018F8A41BA410F5
:1032F4000025A54205D170BD56F825309847013503
:10330400EEE756F8253098470135F2E77C3300089C
:103314007C3300087C33000880330008F8B500BF14
:10332400F8BC08BC9E467047F8B500BFF8BC08BCA2
:043334009E467047FA
:10333800000610160006101600000000000000002D
:103348000102030406070809000000000102030443
:103358002E2E2F5372632F73746D33326634787840
:0C3368005F68616C5F6D73702E63000085
:08337400C0CEFF7F0100000044
:04337C00E90100085B
:04338000C50100087B
:0C33840001000000100000000024F40014
:040000050800328538
:00000001FF
