:020000040800F2
:1000000000000220756300084D620008516200087C
:1000100055620008596200085D6200080000000097
:100020000000000000000000000000006162000805
:100030006562000800000000696200086D62000847
:10004000C5630008C5630008C5630008C5630008F0
:10005000C5630008C5630008C5630008C5630008E0
:10006000C5630008C5630008C5630008C5630008D0
:10007000C5630008C5630008C5630008C5630008C0
:10008000C5630008C56300087D6200088962000836
:1000900095620008A1620008AD620008C56300080F
:1000A000C5630008B9620008C5630008C56300089D
:1000B000C5620008C5630008D1620008C563000876
:1000C000C5630008C5630008C5630008C563000870
:1000D000C5630008DD620008E9620008C563000826
:1000E000C5630008C5630008C5630008C563000850
:1000F000C5630008C5630008C5630008C563000840
:10010000C5630008C5630008F5620008C563000800
:10011000C5630008C5630008016300080D6300089B
:1001200019630008C5630008C5630008C5630008BB
:10013000C56300080000000000000000C56300085F
:10014000C5630008C5630008C5630008C5630008EF
:10015000C5630008C5630008C5630008C5630008DF
:10016000C5630008C5630008C5630008C5630008CF
:10017000C5630008C5630008C563000800000000EF
:1001800000000000C563000800000000000000003F
:10019000C56300080000000000000000C5630008FF
:1001A000000000000000000000000000C56300081F
:1001B000C5630008C5630008C5630008C56300087F
:0401C000C56300080B
:1001D00010B5054C237833B9044B13B10448AFF381
:1001E00000800123237010BDB00300200000000038
:1001F000849A000808B5034B1BB103490348AFF3C9
:10020000008008BD00000000B4030020849A0008AC
:1002100081F0004102E000BF83F0004330B54FEAB7
:1002200041044FEA430594EA050F08BF90EA020F24
:100230001FBF54EA000C55EA020C7FEA645C7FEAB7
:10024000655C00F0E2804FEA5454D4EB5555B8BFDA
:100250006D420CDD2C4480EA020281EA030382EA4B
:10026000000083EA010180EA020281EA0303362DDD
:1002700088BF30BD11F0004F4FEA01314FF4801CB0
:100280004CEA113102D0404261EB410113F0004FC2
:100290004FEA03334CEA133302D0524263EB430379
:1002A00094EA050F00F0A780A4F10104D5F1200E17
:1002B0000DDB02FA0EFC22FA05F2801841F1000172
:1002C00003FA0EF2801843FA05F359410EE0A5F146
:1002D00020050EF1200E012A03FA0EFC28BF4CF077
:1002E000020C43FA05F3C01851EBE37101F000452D
:1002F00007D54FF0000EDCF1000C7EEB00006EEB3A
:100300000101B1F5801F1BD3B1F5001F0CD34908C3
:100310005FEA30004FEA3C0C04F101044FEA44521A
:1003200012F5800F80F09A80BCF1004F08BF5FEAA1
:10033000500C50F1000041EB045141EA050130BD81
:100340005FEA4C0C404141EB010111F4801FA4F124
:100350000104E9D191F0000F04BF01460020B1FA79
:1003600081F308BF2033A3F10B03B3F120020CDAB1
:100370000C3208DD02F1140CC2F10C0201FA0CF08F
:1003800021FA02F10CE002F11402D8BFC2F1200CF4
:1003900001FA02F120FA0CFCDCBF41EA0C019040AA
:1003A000E41AA2BF01EB0451294330BD6FEA0404F3
:1003B0001F3C1CDA0C340EDC04F11404C4F12002DE
:1003C00020FA04F001FA02F340EA030021FA04F3F0
:1003D00045EA030130BDC4F10C04C4F1200220FA47
:1003E00002F001FA04F340EA0300294630BD21FA85
:1003F00004F0294630BD94F0000F83F4801306BF4B
:1004000081F480110134013D4EE77FEA645C18BF3E
:100410007FEA655C29D094EA050F08BF90EA020FD5
:1004200005D054EA000C04BF1946104630BD91EACD
:10043000030F1EBF0021002030BD5FEA545C05D1D0
:100440004000494128BF41F0004130BD14F580040F
:100450003CBF01F5801130BD01F0004545F0FE4183
:1004600041F470014FF0000030BD7FEA645C1ABFB8
:10047000194610467FEA655C1CBF0B46024650EAEF
:10048000013406BF52EA033591EA030F41F400211B
:1004900030BD00BF90F0000F04BF0021704730B5A1
:1004A0004FF4806404F132044FF000054FF0000176
:1004B00050E700BF90F0000F04BF0021704730B537
:1004C0004FF4806404F1320410F0004548BF40420C
:1004D0004FF000013EE700BF42004FEAE2014FEA61
:1004E00031014FEA02701FBF12F07F4393F07F4F3C
:1004F00081F06051704732F07F4208BF704793F03F
:100500007F4F04BF41F40021704730B54FF4607451
:1005100001F0004521F000411CE700BF50EA010254
:1005200008BF704730B54FF000050AE050EA0102FD
:1005300008BF704730B511F0004502D5404261EB6D
:1005400041014FF4806404F132045FEA915C3FF4AE
:10055000D8AE4FF003025FEADC0C18BF03325FEA4B
:10056000DC0C18BF033202EBDC02C2F1200300FAFC
:1005700003FC20FA02F001FA03FE40EA0E0021FA21
:1005800002F11444BDE600BF70B54FF0FF0C4CF40F
:10059000E06C1CEA11541DBF1CEA135594EA0C0FC1
:1005A00095EA0C0F00F0DEF82C4481EA030621EAFC
:1005B0004C5123EA4C5350EA013518BF52EA033537
:1005C00041F4801143F4801338D0A0FB02CE4FF0E9
:1005D0000005E1FB02E506F00042E0FB03E54FF019
:1005E0000006E1FB03569CF0000F18BF4EF0010E11
:1005F000A4F1FF04B6F5007F64F5407404D25FEA0D
:100600004E0E6D4146EB060642EAC62141EA5551BF
:100610004FEAC52040EA5E504FEACE2EB4F1FD0C01
:1006200088BFBCF5E06F1ED8BEF1004F08BF5FEA7F
:10063000500E50F1000041EB045170BD06F0004631
:1006400046EA010140EA020081EA0301B4EB5C04DE
:10065000C2BFD4EB0C0541EA045170BD41F48011D6
:100660004FF0000E013C00F3AB8014F1360FDEBFFB
:10067000002001F0004170BDC4F10004203C35DAD7
:100680000C341BDC04F11404C4F1200500FA05F35A
:1006900020FA04F001FA05F240EA020001F00042FB
:1006A00021F0004110EBD37021FA04F642EB060171
:1006B0005EEA430E08BF20EAD37070BDC4F10C049B
:1006C000C4F1200500FA04F320FA05F001FA04F25F
:1006D00040EA020001F0004110EBD37041F100014B
:1006E0005EEA430E08BF20EAD37070BDC4F1200556
:1006F00000FA05F24EEA020E20FA04F301FA05F2BE
:1007000043EA020321FA04F001F0004121FA04F265
:1007100020EA020000EBD3705EEA430E08BF20EA35
:10072000D37070BD94F0000F0FD101F0004640006F
:1007300041EB010111F4801F08BF013CF7D041EAF1
:10074000060195F0000F18BF704703F000465200F5
:1007500043EB030313F4801F08BF013DF7D043EAC6
:100760000603704794EA0C0F0CEA135518BF95EA7C
:100770000C0F0CD050EA410618BF52EA4306D1D103
:1007800081EA030101F000414FF0000070BD50EA22
:10079000410606BF1046194652EA430619D094EAAC
:1007A0000C0F02D150EA013613D195EA0C0F05D196
:1007B00052EA03361CBF104619460AD181EA0301EA
:1007C00001F0004141F0FE4141F470014FF00000A2
:1007D00070BD41F0FE4141F4780170BD70B54FF03D
:1007E000FF0C4CF4E06C1CEA11541DBF1CEA1355BD
:1007F00094EA0C0F95EA0C0F00F0A7F8A4EB05049F
:1008000081EA030E52EA03354FEA013100F0888095
:100810004FEA03334FF0805545EA131343EA12635E
:100820004FEA022245EA111545EA10654FEA002613
:100830000EF000419D4208BF964244F1FD0404F5CC
:10084000407402D25B084FEA3202B61A65EB030528
:100850005B084FEA32024FF480104FF4002CB6EBE5
:10086000020E75EB030E22BFB61A754640EA0C0065
:100870005B084FEA3202B6EB020E75EB030E22BFA5
:10088000B61A754640EA5C005B084FEA3202B6EBE6
:10089000020E75EB030E22BFB61A754640EA9C00A5
:1008A0005B084FEA3202B6EB020E75EB030E22BF75
:1008B000B61A754640EADC0055EA060E18D04FEA33
:1008C000051545EA16754FEA06164FEAC30343EAD3
:1008D00052734FEAC2025FEA1C1CC0D111F4801FA0
:1008E0000BD141EA00014FF000004FF0004CB6E799
:1008F00011F4801F04BF01430020B4F1FD0C88BF38
:10090000BCF5E06F3FF6AFAEB5EB030C04BFB6EB42
:10091000020C5FEA500C50F1000041EB045170BD35
:100920000EF0004E4EEA113114EB5C04C2BFD4EB62
:100930000C0541EA045170BD41F480114FF0000EE6
:10094000013C90E645EA060E8DE60CEA135594EA62
:100950000C0F08BF95EA0C0F3FF43BAF94EA0C0F65
:100960000AD150EA01347FF434AF95EA0C0F7FF4DA
:1009700025AF104619462CE795EA0C0F06D152EA2E
:1009800003353FF4FDAE1046194622E750EA410612
:1009900018BF52EA43067FF4C5AE50EA41047FF423
:1009A0000DAF52EA43057FF4EBAE12E74FF0FF3C88
:1009B00006E000BF4FF0010C02E000BF4FF0010C59
:1009C0004DF804CD4FEA410C7FEA6C5C4FEA430CD2
:1009D00018BF7FEA6C5C1BD001B050EA410C0CBF21
:1009E00052EA430C91EA030F02BF90EA020F002083
:1009F000704710F1000F91EA030F58BF994208BFEA
:100A000090422CBFD8176FEAE37040F001007047A6
:100A10004FEA410C7FEA6C5C02D150EA013C07D1FD
:100A20004FEA430C7FEA6C5CD6D152EA033CD3D048
:100A30005DF8040B704700BF8446104662468C4642
:100A40001946634600E000BF01B5FFF7B7FF002875
:100A500048BF10F1000F01BD4DF808EDFFF7F4FF9E
:100A60000CBF012000205DF808FB00BF4DF808ED29
:100A7000FFF7EAFF34BF012000205DF808FB00BF4C
:100A80004DF808EDFFF7E0FF94BF012000205DF86E
:100A900008FB00BF4DF808EDFFF7CEFF94BF012023
:100AA00000205DF808FB00BF4DF808EDFFF7C4FF1C
:100AB00034BF012000205DF808FB00BF4FEA41026F
:100AC00012F5001215D211D56FF47873B3EB6252A0
:100AD00012D94FEAC12343F0004343EA505311F0C7
:100AE000004F23FA02F018BF404270474FF0000059
:100AF000704750EA013005D111F0004008BF6FF097
:100B0000004070474FF00000704700BF4A0011D20C
:100B100012F5001211D20DD56FF47873B3EB625257
:100B20000ED44FEAC12343F0004343EA505323FA63
:100B300002F070474FF00000704750EA013002D1D8
:100B40004FF0FF3070474FF0000070474FEA41020E
:100B5000B2F1E04324BFB3F5001CDCF1FE5C0DD91B
:100B600001F0004C4FEAC0024CEA5070B2F1004F65
:100B700040EB830008BF20F00100704711F0804F68
:100B800021D113F13872BCBF01F00040704741F42D
:100B900080114FEA5252C2F11802C2F1200C10FA31
:100BA0000CF320FA02F018BF40F001004FEAC12315
:100BB0004FEAD32303FA0CFC40EA0C0023FA02F3B9
:100BC0004FEA4303CCE77FEA625307D150EA01338F
:100BD0001EBF4FF0FE4040F44000704701F000405F
:100BE00040F0FE4040F40000704700BF53B94AB9DE
:100BF000002908BF00281CBF4FF0FF314FF0FF3025
:100C000000F072B9ADF1080C6DE904CE00F006F801
:100C1000DDF804E0DDE9022304B070472DE9F04778
:100C2000089E04468846002B4BD18A42154667D958
:100C3000B2FA82F24AB1C2F1200701FA02F320FAB5
:100C400007F7954047EA030894404FEA154E230CF6
:100C5000B8FBFEF71FFA85FC0EFB178843EA084332
:100C600007FB0CF1994209D9EB1807F1FF3080F02E
:100C70001B81994240F21881023F2B445B1AA4B2B7
:100C8000B3FBFEF00EFB103344EA034400FB0CFC04
:100C9000A44509D92C1900F1FF3380F00781A44540
:100CA00040F2048102382C4440EA0740A4EB0C04D3
:100CB00000271EB1D4400023C6E900433946BDE8F1
:100CC000F0878B4209D9002E00F0EB800027C6E99F
:100CD000000138463946BDE8F087B3FA83F7002FA4
:100CE00047D18B4202D3824200F2FA80841A61EB30
:100CF000030301209846002EE0D0C6E90048DDE756
:100D000002B9FFDEB2FA82F2002A40F08F80491B5E
:100D10004FEA154E1FFA85F80127B1FBFEFC230CA4
:100D20000EFB1C1143EA014308FB0CF1994207D961
:100D3000EB180CF1FF3002D2994200F2CD808446CC
:100D4000591AA3B2B1FBFEF00EFB101443EA04449F
:100D500008FB00F8A04507D92C1900F1FF3302D297
:100D6000A04500F2B6801846A4EB080440EA0C4007
:100D70009FE7C7F1200CBB4022FA0CFE4EEA030E9F
:100D800001FA07F420FA0CF521FA0CF34FEA1E4899
:100D90002543B3FBF8F92C0C08FB19331FFA8EFA24
:100DA00044EA034309FB0AF49C4202FA07F200FA00
:100DB00007F10BD91EEB030309F1FF3080F08780A8
:100DC0009C4240F28480A9F1020973441B1BADB21E
:100DD000B3FBF8F008FB103345EA034400FB0AFAC2
:100DE000A24508D91EEB040400F1FF336BD2A245E3
:100DF00069D90238744440EA0940A0FB0289A4EB97
:100E00000A044C45C2464B4654D351D0002E69D0FB
:100E1000B1EB0A0564EB030404FA0CFCFD40FC4052
:100E20004CEA0505C6E90054002747E7C2F1200354
:100E300020FA03F7954001FA02F021FA03F34FEA92
:100E4000154E3843010CB3FBFEF71FFA85F80EFB75
:100E5000173341EA034107FB08F38B4204FA02F41B
:100E600007D9691807F1FF3C2FD28B422DD9023FD9
:100E70002944CB1A81B2B3FBFEF00EFB103341EADA
:100E8000034100FB08F38B4207D9691800F1FF3CCE
:100E900017D28B4215D902382944C91A40EA0747AC
:100EA0003BE73746304609E70746E7E61846FBE6E4
:100EB0004145ABD2B8EB020A69EB0E02013813468A
:100EC000A4E76046E9E7184695E76746D1E781461B
:100ED0007CE702382C4447E7ACF1020C2B442FE7A7
:100EE000384608E73746E9E6704700BF034613F87F
:100EF000012B002AFBD1181A0138704700000000AE
:100F000001F0FF01102A2BDB10F0070F08D010F8BA
:100F1000013B013A8B422DD010F0070F42B3F6D1BE
:100F2000F0B441EA012141EA014122F007047FF0D7
:100F300000070023F0E80256083C85EA010586EA2E
:100F4000010685FA47F5A3FA87F586FA47F6A5FA6A
:100F500087F68EB9EED1F0BC01F0FF0102F0070276
:100F600032B110F8013B013A83EA010313B1F8D121
:100F70000020704701387047002D06BF3546033802
:100F8000073815F0010F07D1013015F4807F02BF3B
:100F9000013015F4C03F0130F0BC0138704700BF8C
:100FA0004FEA410C7FEA6C5C02D150EA013C0AD165
:100FB0004FEA430C7FEA6C5C02D152EA033C02D157
:100FC0004FF0000070474FF00100704770B50E4BB6
:100FD0000E4D1B682A7806464FF47A70B0FBF2F08B
:100FE000B3FBF0F000F018FF08B90F2E01D9012073
:100FF00070BD0446024631464FF0FF3000F0CAFE95
:101000006E60204670BD00BFDC01002000000020A3
:1010100008B50B4B1A6842F400721A601A6842F461
:1010200080621A601A6842F480721A60032000F02D
:101030009FFE0020FFF7CAFF04F034FF002008BD28
:10104000003C0240034A044B11681B780B441360B8
:10105000704700BFD004002000000020014B18683A
:10106000704700BFD004002038B50446FFF7F6FFF4
:10107000631C054602D0044B1B781C44FFF7EEFFAF
:10108000401BA042FAD338BD00000020002800F029
:101090008E80F8B5036C0446002B7ED0236CDB06F3
:1010A00004D50023012084F83C30F8BD226C4C4963
:1010B00023684C4D22F4885222F0020242F00202D0
:1010C00022644A6822F440324A604A6860680243F7
:1010D0004A6058682169A768E66820F48070586003
:1010E0005A6842EA01225A60586820F040705860FD
:1010F0005968A06A39435960996821F40061996080
:101100009A68A84242EA06029A6052D09968E56A53
:1011100021F0706199609A6810439860996821F095
:10112000405199609A682A439A609968A569206A33
:1011300021F0020199609A6842EA45029A605A6871
:1011400000283FD122F400625A60DA6AE569276B11
:10115000666922F47002DA62D86A013D40EA0550FD
:10116000D862986820F400709860996841EA472135
:101170009960996821F4806199609A68002042EA38
:1011800086229A606064236C23F0030343F001031A
:101190002364002384F83C30F8BD436480F83C307D
:1011A00004F0CAFE236CDB063FF57BAF7EE701202F
:1011B00070479A6822F070629A609A6822F04052F2
:1011C0009A60B2E742F40062616A5A605A6822F497
:1011D00060425A605A68013942EA41325A60B4E7C3
:1011E000002301400100000FF0B590F83C3083B0BF
:1011F0000024012B019469D00568AB680124DE0747
:1012000080F83C4014D4334B334E1C68AB68A6FBCB
:101210000464A40C43F0010304EB4404AB600194A8
:10122000019B2BB1019C013C0194019C002CF9D144
:10123000AB68DC073DD5046C24F4E06424F00104C1
:1012400044F4807404646B685B0505D5036C23F477
:10125000405343F480530364036C204E13F48053D3
:101260001CBF436C23F0060343640446806B1346A3
:1012700000271B4A84F83C70C6630264194EC6649A
:101280006FF022022A606E6846F080666E60AE687B
:1012900046F480760A46AE6005F14C0100F082FE0D
:1012A000114B5B6813F01F0F236805D00F4A934260
:1012B00002D0002003B0F0BD986810F04050F8D183
:1012C0009A6842F080429A6003B0F0BD022003B0F9
:1012D000F0BD00BFDC01002083DE1B43F1120008DB
:1012E0005113000891140008002301400020014020
:1012F000836B1A6C12F0500F02D09B6BDB6C18479B
:101300001A6C196842F4007210B51A648A6812F0F7
:10131000405F17D19A69AAB9CA6A12F4700F02D055
:101320008A6850050ED44A6822F020024A601A6C7E
:1013300022F480721A641A6CD20403D41A6C42F03C
:1013400001021A64184603F0CDFF10BD704700BFBC
:1013500008B5806BFFF7FAFF08BD00BF704700BFFC
:10136000704700BF38B503681A685968044690078B
:1013700001D58A0653D41A685968520701D50D065B
:101380001BD41A685968D00701D54A0606D41A68D2
:101390005968900601D54A0169D438BD1A68D50745
:1013A000F5D5236C43F4803323642046FFF7D6FF42
:1013B00023686FF001021A60E9E7226CD00603D4BB
:1013C000226C42F4005222649A6812F4401F1ED12B
:1013D0009A6B12F4401F02D09A68510517D45A68CC
:1013E000520514D49A6812F0405F10D1A26972B904
:1013F0005A6822F080025A60236C23F480532364DD
:10140000236CDD0503D4236C43F0010323642046E1
:1014100000F0F6F823686FF00C021A60B1E7226C56
:10142000D50603D4226C42F4007222649A6812F04A
:10143000405F14D1A26992B9DA6A12F4700F23D115
:101440005A6822F020025A60236C23F480732364CC
:10145000236CD90403D4236C43F001032364204696
:1014600003F040FF23686FF012021A6083E7626C9A
:101470006FF0200542F00202626420461D60FFF713
:101480006FFF23681D6038BD9A685005E7D4D7E721
:10149000806B08B540230364436C43F0040343644A
:1014A000FFF75EFF08BD00BFF0B490F83C3082B09B
:1014B0000022012B019200F08D800D688A6803687C
:1014C0000124092DAFB280F83C4029D81C6905EBF6
:1014D00045064FF0070C0CFA06FC24EA0C041C61CC
:1014E0001C6902FA06F626431E614E68062E06EBBC
:1014F00086022AD8596B053A1F24944021EA040138
:101500005963596B07FA02F20A435A63374A934206
:101510002DD0002380F83C30184602B0F0BC704754
:1015200007EB4706DC681E3E4FF0070C0CFA06FC82
:1015300024EA0C04DC60DC6802FA06F62643DE606E
:101540004E68062E06EB8602D4D90C2E2DD8A2F1B9
:1015500023041F211A6BA14022EA01021A63196BAE
:1015600007FA04F20A431A63204A9342D1D1122D9A
:1015700029D01F4B9D4231D11E491F4B4A681F4C39
:1015800042F400024A601B68A4FB03239B0C03EB9C
:1015900083035B000193019B002BBAD0019B013BAD
:1015A0000193019B002BF9D1B3E7A2F141011F2464
:1015B000DA6A8C4022EA0402DA62DC6A07FA01F293
:1015C0002243DA62A2E7D2F8043343F48003C2F87C
:1015D00004339EE7022002B0F0BC7047112D98D171
:1015E000044A536843F40003536092E7002001402B
:1015F0001200001000230140DC01002083DE1B43A9
:10160000704700BF00287CD038B590F820300446E1
:10161000002B73D02268136823F002031360FFF7D6
:101620001DFD054604E0FFF719FD401B0A285CD8A4
:1016300023685A689107F6D41A6842F001021A60CA
:10164000FFF70CFD054604E0FFF708FD401B0A28E4
:101650004BD823685A68D207F6D5227E012A1A6829
:101660000CBF42F0800222F080021A60627E012AE2
:101670001A680CBF42F0400222F040021A60A27EBB
:10168000012A1A680CBF42F0200222F020021A60E0
:10169000E27E012A1A680CBF22F0100242F010020A
:1016A0001A60227F012A1A680CBF42F0080222F059
:1016B00008021A60627F012A1A680CBF42F0040215
:1016C00022F004021A60D4E90221D4E904500A434A
:1016D00061682A43024301390A4301250021DA6186
:1016E0000846616284F8205038BD636A052243F4DD
:1016F00000336362012084F8202038BD04F064FCCC
:1017000088E70120704700BF90F82030012B09D0F6
:1017100090F82030022B05D0436A43F480234362C3
:10172000012070473B4BD3F8002242F00102F0B495
:10173000C3F80022D3F8002222F47C52C3F800221E
:10174000D3F80022486A42EA0022C3F800224A691C
:10175000D3F81C5201209040C4432540C3F81C52CA
:10176000CD69002D39D1D3F80C522540C3F80C5265
:10177000D200CF688D888E680B8802F1804202F516
:10178000C84245EA074543EA0643C2F84052C2F858
:1017900044328B691F4A002B35D1D2F804322340E2
:1017A000C2F804320B693BBB1A4BD3F81422144025
:1017B000C3F814420B6A012B05D1164AD2F81C3229
:1017C0001843C2F81C02134AD2F8003223F0010376
:1017D0000020C2F80032F0BC7047012DD9D1D3F8F7
:1017E0000C520543C3F80C52D20002F180420F683C
:1017F0008D888E688B89C2E7064AD2F8143203437B
:10180000C2F81432D6E7D2F804320343C2F80432E5
:10181000C8E700BF0064004038B590F82030012BC5
:1018200005D0436A43F400234362012038BD0268B7
:10183000022380F82030136823F00103136004466C
:10184000FFF70CFC054604E0FFF708FC401B0A28E4
:1018500007D823685B6813F00103F5D1636218466B
:1018600038BD636A052243F400336362012084F8C3
:10187000202038BD70B490F82040012C0AD090F898
:101880002040022C06D0436A43F4802343620120A7
:1018900070BC70470468A5686D012DD5A06801254E
:1018A000C0F3016085401D608B688BBB0E68CD68FE
:1018B00000F118031B0145EA4655E5500D7D096905
:1018C00000012318012DC3F8841105D1D3F8841128
:1018D00041F48071C3F8841104445168C4F88C1138
:1018E0001268C4F88821D3F8802142F00102002058
:1018F000C3F8802170BC7047A5682E01CED4A568BE
:10190000ED00CBD4436A43F4001343620120BFE7E8
:10191000CD684E682B4300F118052D0143EAC6033C
:101920006351CBE790F82030012B05D090F82030A0
:10193000022B01D000207047036898689A689B6862
:101940001201C0F3806048BF0130DB00F3D50130E5
:10195000704700BF90F82030012B05D090F8203060
:10196000022B01D00020704703689B68890631EA8A
:10197000030314BF01200020704700BF2DE9F04190
:10198000044690F8200001280AD094F8200002288C
:1019900006D0636A43F4802363620120BDE8F081CE
:1019A0002668002956D1F068850763D008013518EC
:1019B000D5F8B07107F004079760002F55D0D5F81F
:1019C000B071FF085760D5F8B0E1D5F8B4C1D5F8CB
:1019D000B471D5F8B4510644CEF3400ED6F8B881B0
:1019E000C7F307270CF00F062D0CC2E903E6C2E986
:1019F000055783F8008022680244D2F8B821120A01
:101A00005A7022680244D2F8B821120C9A702268E7
:101A10000244D2F8B821120EDA7022680244D2F8D9
:101A2000BC211A7122680244D2F8BC21120A5A71F0
:101A300022680244D2F8BC21120C9A712268104428
:101A4000D0F8BC21120EDA71D9B1012921D00020C1
:101A5000BDE8F0810129A9D130698007A6D1636A68
:101A600043F400130846636298E7D5F8B0717F0D20
:101A70001760A8E7636A43F4001363620120BDE8BE
:101A8000F0812268D36843F020030846D360BDE8A4
:101A9000F0812268136943F02003136100207DE781
:101AA00090F82030012B05D090F82030022B01D087
:101AB00000207047036819B1186900F003007047EF
:101AC000D86800F00300704790F82030012B09D04F
:101AD00090F82030022B05D0436A43F48023436200
:101AE0000120704702685369194351610020704713
:101AF000704700BF704700BF704700BF704700BF0E
:101B0000704700BF704700BF704700BF704700BFFD
:101B1000704700BF704700BF704700BF704700BFED
:101B20002DE9F84F03685C69D3F804809F68D3F807
:101B30000CB0D3F81090D3F818A014F001060546A5
:101B400025D017F0010640F09C804FF400524FF46E
:101B50008041F8050DD52B684FF480709860BB0567
:101B600000F1C780780500F1D7803A0540F1E880A0
:101B70000E46FB030BD52B684FF48032B8039A60F6
:101B800000F1B380790340F1C98046F40046230791
:101B900002D51BF0100F6ED1670702D51BF0080F9E
:101BA0007FD1A00704D52B68DB68990740F08E80B1
:101BB000620602D519F0100F57D1A30603D519F00C
:101BC000080F40F08780E70604D52B681B6998074B
:101BD00040F08780A10302D518F0100F68D1E2030E
:101BE00002D518F0080F6AD1230435D518F0040F78
:101BF0002B682FD0E70504D51AF0010F18BF46F067
:101C00000106A00504D51AF0020F18BF46F002061F
:101C1000610504D51AF0040F18BF46F0040622052A
:101C200018D51AF0700A15D0BAF1300F00F096806E
:101C300079D9BAF1500F00F08E80BAF1600F00F040
:101C40009080BAF1400F01D146F040069A6922F027
:101C500070029A6104225A602EB16B6A1E436E6252
:101C60002846FFF75BFFBDE8F88F2B68102246F48B
:101C700080661A61A1E72B68102246F40076DA60CC
:101C80008AE701229A60BB0737D47E073DD417F05C
:101C9000080659D04FF440524FF4A0414FF48056FB
:101CA00057E72B680822DA60284604F009F878E73D
:101CB0002B6810225A602846FFF72CFF8FE72B680D
:101CC00008225A602846FFF727FF8DE72846FFF7CE
:101CD0001BFF6DE72B6808221A612846FFF718FFE3
:101CE00071E72846FFF712FF74E72846FFF704FF65
:101CF0004DE72846FFF7FEFE3BE7FFF7F9FE00261B
:101D00004FF400524FF4804123E74FF420524FF438
:101D100090414FF400661CE716462AE73A030BD5BC
:101D200046F4803633E7BAF1100F1DD0BAF1200F18
:101D30008CD146F0100689E72846FFF7E3FE26E738
:101D40002846FFF7DDFE14E7FFF7D8FE4FF40052F8
:101D50004FF48041FDE646F0800677E746F0200626
:101D600074E746F4807671E746F008066EE700BF38
:101D7000074AD3684FF6FF010B40000243F0BF63F0
:101D800000F4E06043F400330343D360704700BFC6
:101D900000ED00E0184BDB68C3F3022330B4C3F15D
:101DA0000705042D03F1040428BF0425062C19D9C6
:101DB000033B4FF0FF349C4022EA04044FF0FF3213
:101DC000AA4021EA020101FA03F22243120100288B
:101DD000D2B20ADB00F1604000F5614080F80023D8
:101DE00030BC704700242346E8E7044B00F00F00A6
:101DF00003441A7630BC704700ED00E0FCEC00E0D4
:101E000000F01F0101234009024A8B4042F82030B4
:101E1000704700BF00E100E00138B0F1807F0ED2D2
:101E2000084B10B4084C5860F02084F823000022BE
:101E3000072110469A6019605DF8044B7047012035
:101E4000704700BF10E000E000ED00E0044A1368B6
:101E500004280CBF43F0040323F00403136070470D
:101E600010E000E0704700BF08B5FFF7FBFF08BDBA
:101E7000F8B50446FFF7F2F8002C54D0022223688C
:101E800084F835201A68002122F0010284F8341009
:101E900005461A6005E0FFF7E1F8401B05283BD82E
:101EA00023681A68D107F6D4D4E90126D4E903518E
:101EB000324360691F682A43D4E906650A43024336
:101EC000216A354832432A430A43616A384004296B
:101ED00042EA000229D01A605A6922F0070211432F
:101EE000DAB22E485961103AA0FB021212092C49AD
:101EF00023F47F73895CE16523F00303032A88BF21
:101F000004333F228A4001250021A36508469A60D8
:101F1000616584F83550F8BD0323202262651846B8
:101F200084F83530F8BD0120F8BDD4E90B01014338
:101F30000A43A56A1A605A6945F0040122F00702B3
:101F400011430028CCD07EB1B6F5005F16D0022D2B
:101F500003D9032DC4D1C201C2D501234022626539
:101F6000184684F83530F8BD012D03D0F3D3022D87
:101F7000B6D1F0E7B0F1C07FB2D1EEE7032DAFD814
:101F800001A252F825F000BF5B1F0008571F000890
:101F90005B1F0008751F00083F8010F0ABAAAAAABB
:101FA000A09A0008F0B490F83440012C39D090F891
:101FB0003540866D0125AC4280F834502BD1046841
:101FC0000227002580F8357045652568876825F467
:101FD0008025402F256063600ABFA260A160E16098
:101FE000C16D18BFE2603F238B40026CB360236871
:101FF00043F016032360636943F0800363611AB101
:10200000236843F008032360236843F0010323603F
:102010000020F0BC7047002380F83430F0BC022070
:1020200070470220F0BC704790F83530022B03D087
:1020300080234365012070470268052380F835300E
:10204000136823F00103136000207047F0B583B0DC
:102050000023876D0193C36D3D68654908229A404E
:102060002A4204460E6803D001680868400759D424
:1020700001229A402A4203D021684969080674D493
:1020800004229A402A4203D021680968890766D44D
:1020900010229A402A4203D02168086800074BD4D6
:1020A00020229A402A4214D021680868C00610D520
:1020B000BA6094F83520052A63D00B6813F4802F9A
:1020C0000B687ED0190340F18980E36B0BB1204689
:1020D0009847636D23B3636DDA071AD50523226829
:1020E00084F835301368434923F00103A1FB061639
:1020F0001360B60A02E01368DB0704D5019B0133C5
:10210000B3420193F7D90022012384F8342084F8E4
:102110003530E36C23B1204603B0BDE8F0401847EA
:1021200003B0F0BD086820F004000860BA60626D7A
:1021300042F0010262659BE7BA600A6812F4802FE0
:102140000A6818D1D20503D40A6822F008020A608E
:10215000226C002AA4D020469047E36DA0E7BA6025
:10216000626D42F00402626592E7BA60626D42F00D
:102170000202626584E71103EAD5A26C002AEAD163
:102180008EE70A68206C22F016020A604A6922F083
:1021900080024A6138B30A6822F008020A603F22CE
:1021A000216D02FA03F300200122BB6084F83400A1
:1021B00084F835200029B3D0204603B0BDE8F040B4
:1021C000084713F4807380D10A68012022F01002BE
:1021D0000A6084F8343084F8350076E7636C002BAD
:1021E0007FF475AF75E7A26C002AD4D1D7E700BFA2
:1021F000DC010020B5814E1B2DE9F04FDFF814C241
:10220000DFF81482D1F800E083B0002503E0013547
:10221000102D00F094800123AB400EEA0304A3428A
:10222000F5D14E6826F0100ABAF1020F00F08A804C
:102230004FEA45090322D0F800B002FA09F2D2436E
:1022400006F0030702EA0B0B07FA09F70AF1FF3A57
:1022500047EA0B07BAF1010F076040F29980C7689F
:102260008B683A4003FA09F31343C360F300CED5F9
:1022700000230193D8F8443043F48043C8F8443035
:10228000D8F8443025F0030202F1804203F4804381
:1022900002F59C32019305F00307019BD2F80890E8
:1022A000BF000F23BB4029EA030A544B98421ED0BB
:1022B00003F5806398427ED0514B984200F08280B3
:1022C000504B984200F085804F4B984200F0888038
:1022D0004E4B984200F08B804D4B98420CBF4FF014
:1022E00006094FF0070909FA07F74AEA070AC2F890
:1022F00008A0DCF80030E243F70354BF1340234347
:10230000CCF80030DCF80430B70354BF134023434B
:10231000CCF80430DCF80830F70254BF13402343F4
:10232000CCF80830DCF80C30B60205F1010554BFDA
:1023300013402343102DCCF80C307FF46CAF03B066
:10234000BDE8F08F4FEAD50900EB890905F00707D2
:10235000D9F82020BF004FF00F0B0BFA07FB22EA41
:102360000B0A0A69BA4042EA0A02C9F820204FEA79
:1023700045090322D0F800A002FA09F2D24306F080
:10238000030702EA0A0A07FA09F747EA0A07076099
:10239000876807EA020ACF6807FA09F747EA0A07D7
:1023A0008760D0F804A0C6F300172AEA0303AF4001
:1023B0001F43476053E74FF0010909FA07F74AEA5C
:1023C000070A94E74FF0020909FA07F74AEA070AF1
:1023D0008DE74FF0030909FA07F74AEA070A86E78B
:1023E0004FF0040909FA07F74AEA070A7FE74FF0B6
:1023F000050909FA07F74AEA070A78E700000240E8
:1024000000080240000C024000100240001402408C
:1024100000180240003C01400038024003691942A4
:1024200014BF01200020704702B909048161704780
:1024300060B1484A136803F00F038B4208D2CBB255
:102440001370136803F00F038B4201D00120704713
:1024500003682DE9F0419D0714D55C0704D53E4C77
:10246000A26842F4E052A2601A0704D53A4CA2686E
:1024700042F46042A260384C8568A26822F0F00203
:102480002A43A260DF0704460D4622D54268012A8E
:1024900056D0931E012B304B1B6858D9990725D570
:1024A0002D4EB36823F003031343B360FEF7D6FD4C
:1024B00041F28837804605E0FEF7D0FDA0EB08002A
:1024C000B84242D8B368626803F00C03B3EB820FE2
:1024D000F2D1204A136803F00F03AB4209D9EBB2E3
:1024E0001370136803F00F03AB4202D00120BDE864
:1024F000F08123685A0706D51749E0688A6822F4F4
:10250000E05202438A601B0711D400F051F8124BCD
:1025100012499B68124AC3F30313CB5C20FA03F3FE
:1025200000201360FEF752FD0020BDE8F0810A4A4A
:102530002169936823F4604343EAC1039360E4E7AD
:10254000054B1B689E03ABD4D0E70320EDE7980151
:10255000A6D4CBE7003C024000380240A89A00080D
:10256000DC010020014B1868704700BFDC0100202F
:10257000044B054A9B680549C3F382230868D35C72
:10258000D840704700380240B89A0008DC010020AB
:10259000044B054A9B680549C3F342330868D35C82
:1025A000D840704700380240B89A0008DC0100208B
:1025B000284908B58B6803F00C03082B07D00C2BB7
:1025C0001DD0254A2548042B18BF104608BD4A686F
:1025D0004B6813F4800302F03F0230D149681E4873
:1025E000C1F38811A1FB0001FEF700FB194B5B68EA
:1025F000C3F3014301335B00B0FBF3F008BD4A684D
:102600004B6813F4800302F03F020ED14968124870
:10261000C1F38811A1FB0001FEF7E8FA0D4B5B68DE
:10262000C3F30273B0FBF3F008BD4B680B48C3F370
:102630008813A3FB00010023FEF7D8FAEEE74B68EE
:102640000648C3F38813A3FB00010023FEF7CEFA6C
:10265000CCE700BF003802400024F40000127A00EA
:102660002DE9F0410368DA0782B0044636D5AE4959
:102670008A6802F00C02042A00F0D2808A6802F014
:102680000C02082A00F0C880A7498A6802F00C02F0
:102690000C2A00F004816368B3F5803F00F00481E8
:1026A000B3F5A02F00F060819F4D2A6822F480329C
:1026B0002A602A6822F480222A60002B40F0F980E8
:1026C000FEF7CCFC064605E0FEF7C8FC801B64283C
:1026D00000F20D812B689903F6D423689A072FD551
:1026E000914A916811F00C0F00F0AB80916801F0F5
:1026F0000C01082900F0A1808B498A6802F00C02C5
:102700000C2A00F02C81E368002B00F01781874B26
:10271000854D01221A60FEF7A1FC064605E0FEF792
:102720009DFC801B022800F2E2802B689807F6D5FA
:102730002B68226923F0F80343EAC2032B60236865
:102740001A0715D56369002B00F08D80784B764D04
:1027500001221A60FEF782FC064605E0FEF77EFCC9
:10276000801B022800F2C3806B6F9B07F6D523689D
:10277000580731D56C4A136C13F0805300F08380F6
:1027800000266C4D2A68D10540F1A180A368012B79
:1027900000F0B180052B00F0F780634D2A6F22F026
:1027A00001022A672A6F22F004022A67002B40F0F8
:1027B000A780FEF753FC41F28837804606E0FEF71B
:1027C0004DFCA0EB0800B84200F291802B6F9807F7
:1027D000F5D4002E40F0D280A269CAB1524DA9684A
:1027E00001F00C01082924D0022A534A4FF00001BD
:1027F000116000F0D380FEF731FC2C46054604E062
:10280000FEF72CFC401B022871D823689B01F7D4EB
:10281000002002B0BDE8F0814A6857027FF534AF6E
:10282000414A126895037FF559AF6268002A7FF428
:1028300055AF012002B0BDE8F081526857023FF564
:102840005BAF394A1268950702D5E268012AF0D1D8
:10285000354920690A6822F0F80242EAC0020A609B
:102860001A0785D56EE7324A2F4D1360FEF7F6FB47
:10287000064604E0FEF7F2FB801B022837D86B6F98
:102880009F07F7D473E70193136C43F080531364ED
:10289000136C03F080530193019B012671E74A6892
:1028A00056027FF5F8AEBBE71F4A136843F4803346
:1028B0001360FEF7D3FB1C4D064604E0FEF7CEFB8B
:1028C000801B642813D82B689803F7D505E72A687E
:1028D00042F480722A60FEF7C1FB07462B68DA05D6
:1028E0003FF554AFFEF7BAFBC01B0228F6D9032010
:1028F00002B0BDE8F0810C4A136F43F00103136787
:10290000FEF7ACFB084D804641F2883705E0FEF744
:10291000A5FBA0EB0800B842E9D82B6F9B07F6D5C2
:10292000002E3FF459AF29E0003802400000474232
:10293000800E474200700040600047422F4A304DF1
:102940001360FEF78BFB064604E0FEF787FB801B57
:102950000228CCD82B689907F7D42368F0E64A6898
:1029600056023FF5D0AE6CE7254B1A6842F4802240
:102970001A601A6842F480321A609AE7204A136C8F
:1029800023F08053136427E71D4B1A6F42F00402B3
:102990001A671A6F42F001021A67B1E7FEF75EFB91
:1029A000064604E0FEF75AFB801B02289FD82B68DE
:1029B0009901F7D4D4E90732666AE06A216B1343C0
:1029C000A26A0F4C43EA861343EA0063520843EAC3
:1029D0000173013A0B4943EA024301226B600A602A
:1029E000FEF73CFB054605E0FEF738FB401B0228DE
:1029F0003FF67DAF23689A01F6D509E7000047420C
:102A0000003802406000474200283BD090F8512037
:102A1000002370B502F0FF010446836262B31846DA
:102A2000D4E90135D4E903212B4313436269E569F5
:102A3000266A0B431343A26921682B43022584F8BD
:102A40005150334302F400750E682B43120C656A33
:102A500002F0040203432A4326F040060E600B6096
:102A60004A60CB69002223F400630125CB61104644
:102A7000626584F8515070BD80F8501003F0D8FAA8
:102A8000A06ACDE7012070472DE9F0410D4690F88E
:102A90005010012982B072D01E46012380F85030B8
:102AA00004461746FEF7DAFA804694F85100C0B2A1
:102AB000012809D002200122002384F8512084F843
:102AC000503002B0BDE8F081002DF4D0002FF2D0DC
:102AD000A36820682563032284F85120B3F5004FD2
:102AE0004FF000026265A263A287C4E91022E78664
:102AF000A786E287024603D1036843F4804303605C
:102B0000036859063FD5E3686168B3F5006F00F0CC
:102B1000B080002951D115F8013B0373E38E206882
:102B2000013B9BB2E3860246711C31D0002E52D08D
:102B3000E38E9BB273B183689A0755D4FEF78EFA81
:102B4000A0EB080086424DD9E38E20689BB2024676
:102B5000002BF0D1771C51D183689D07FCD5836889
:102B60001A06FCD4A3682BB90193C3680193836848
:102B70000193019B606D003018BF01209BE702208C
:102B800002B0BDE8F081036843F040030360BAE798
:102B9000E38E9BB2002BDDD083689B07F8D515F838
:102BA000013B0373E38E2068013B9BB2E386E38E17
:102BB0009BB20246002BEFD1CCE7E38E9BB2012BF8
:102BC000B2D1A8E715F8013B0373E38E2068013BFF
:102BD0009BB2E3860246E38E9BB2002BBAD0836899
:102BE0009F07EFD4032066E715F8013B0373E38EDC
:102BF0002068013B9BB2E386024699E78368990708
:102C000013D4002E00F08A80FEF728FAA0EB08000B
:102C1000864240F28280206802469BE7FEF71EFA59
:102C2000A0EB08008642206804D983681B0699D56A
:102C3000002EF3D14368626823F0E003B2F5827F8F
:102C4000436000F09080A36AB3F5005F08D1036889
:102C50004DF6FF7213400360036843F400530360B2
:102C6000012084F85100636D20221343636562657F
:102C700021E7002949D0E38E9BB2012B45D0771C78
:102C800016D0002E2FD0E38E9BB2002B3FF462AF04
:102C90008368990731D4FEF7E1F9A0EB080086427A
:102CA000A0D9E38E20689BB20246002BF0D151E7F9
:102CB000E38E9BB2002B3FF44DAF83689B07F7D5A3
:102CC00035F8023BC360E38E013B9BB2E386E38EA3
:102CD0009BB2002BF1D13DE735F8023BC360E38E98
:102CE000013B9BB2E386E38E9BB2002B3FF432AFF5
:102CF00083689B077FF576AFEEE735F8023BC3604C
:102D0000E38E013B9BB2E386BDE735F8023BC3602F
:102D1000E38E013B9BB2E386B1E7226853686168AA
:102D200023F0E003B1F5827F536010D0A36AB3F5BE
:102D3000005F08D113684DF6FF710B4013601368F4
:102D400043F400531360012384F851304AE7A36829
:102D5000B3F5004F02D0B3F5806FE7D1136823F0CD
:102D600040031360E2E7A368B3F5004F03D0B3F567
:102D7000806F7FF468AF036823F04003036062E76D
:102D80002DE9F04304464068B0F5827F0D4683B0DC
:102D900094F8501016461F4618D0012900F08D8077
:102DA000012384F85030FEF759F9804694F8510019
:102DB000C0B2012800F0858002200122002384F89F
:102DC000512084F8503003B0BDE8F083A368002B95
:102DD000E3D10423012984F851306ED0012384F813
:102DE0005030FEF73BF994F851306268DBB2012BAA
:102DF000804607D0B2F5827FDED1A1680029DBD101
:102E0000042BD9D1002D00F02881002E00F025815F
:102E100094F85130012B04BF052384F85130002170
:102E200023686165E687E6861868A563C4E9101122
:102E30004106A6872563A68603D4196841F04001A0
:102E40001960E168B1F5006F2E4600F06D81002A2F
:102E500000F06281E28E92B2012A00F05D817B1C5B
:102E600040F0CB8023680121E28E92B222B9E28F3A
:102E700092B2002A00F0CE8071B1E28E92B25AB1C5
:102E80009A68900708D532781A73E28E2368013A5F
:102E900092B20136E2860021E28F92B2002AE3D09C
:102EA0009A68D207E0D5DB682B70E28F2368013A7D
:102EB00092B20135E2870121D6E7022003B0BDE8D6
:102EC000F083002D3FF479AF002E3FF476AFA16878
:102ED000A563042384F85130B1F5004F4FF000038F
:102EE0006365A687E6872363A386C4E91033E38678
:102EF00022685ED01368580603D4136843F0400379
:102F00001360E368A3B97E1C3FD0002F5DD0E38F30
:102F10009BB2002B30D023689A68D00700F18D80D7
:102F2000FEF79CF8A0EB08008742F0D8032044E7A6
:102F3000791C10D0002F58D0E38F9BB2E3B12368E7
:102F40009A68D20700F18180FEF788F8A0EB0800AC
:102F50008742F1D8EAE7E38F9BB26BB19368DF0752
:102F6000F9D5D36825F8023BE38F013B9BB2E38799
:102F7000E38F9BB2002BF1D16368B3F5827F6ED0F3
:102F8000606D003018BF012017E7E38F9BB2002B64
:102F9000F2D023689A68D107F7D51B7B05F8013B6F
:102FA000E38F013B9BB2E387E38F9BB2002BF0D111
:102FB000E2E7136823F4804313609BE71B7B05F86B
:102FC000013BE38F013B9BB2E387E38F9BB2002B76
:102FD000D2D023689A68D207A8D5EFE7D36825F83E
:102FE000023BE38F013B9BB2E387E38F9BB2002B55
:102FF000C2D09368DB0799D5F0E74FF00109E38E63
:103000009BB2002B40F0C080E38F9BB2002B40F0BE
:10301000BB802368781C2FD19A689107FCD59A68E9
:103020001606FCD4A068002840F015810190DA68EB
:1030300001929B680193019BBFE61B7B05F8013B56
:10304000E38F013B9BB2E38761E7DB6825F8023B36
:10305000E38F013B9BB2E3876EE70120ADE6A368F7
:10306000B3F5004F02D0B3F5806F89D122681368A1
:1030700023F04003136083E79A68920728D437B19E
:10308000FDF7ECFFA0EB080087422368C2D85A681E
:10309000616822F0E002B1F5827F5A6000F0DD80C5
:1030A000A26AB2F5005F08D11A684DF6FF710A40B6
:1030B0001A601A6842F400521A60012384F85130F1
:1030C00034E7FDF7CBFFA0EB08008742236804D963
:1030D0009A681506A6D5002FF3D15A68616822F0C8
:1030E000E002B1F5827F5A6000F0C480A26AB2F5B6
:1030F000005F08D11A684DF6FF710A401A601A681D
:1031000042F400521A60012084F85100636D2022BD
:1031100013436365626550E616F8012B1A73E38E5C
:10312000013B9BB2E3869AE6002A58D0E28E92B227
:10313000012A54D0791C5AD10121E28E92B222B9CF
:10314000E28F92B2002A3FF465AF69B1E28E92B28B
:1031500052B19A68920707D536F8022BDA60E28EF0
:10316000013A92B2E2860021E28F92B2002AE4D0C4
:103170009A68D007E1D5DA6825F8022BE28F013A88
:1031800092B2E2870121D8E7B9F1000F0FD0E38EA8
:103190009BB263B123689A68910708D532781A7395
:1031A000E38E013B9BB20136E3864FF00009E38FCB
:1031B0009BB263B123689A68D20708D5DB682B708D
:1031C000E38F013B9BB20135E3874FF00109FDF727
:1031D00045FFA0EB080087423FF611AFA6E636F8A0
:1031E000022BDA60E28E013A92B2E286A2E74FF059
:1031F0000109E38E9BB223B9E38F9BB2002B3FF40E
:1032000008AFB9F1000F0FD0E38E9BB263B1236812
:103210009A68920708D536F8022BDA60E38E013BF4
:103220009BB2E3864FF00009E38F9BB263B1236842
:103230009A68D00708D5DB6825F8023BE38F013B8D
:103240009BB2E3874FF00109FDF708FFA0EB0800F0
:103250008742CED86AE60020AFE5A268B2F5004FFB
:1032600003D0B2F5806F7FF41BAF1A6822F04002E2
:103270001A6015E7A268B2F5004F03D0B2F5806F6F
:103280007FF434AF1A6822F040021A602EE700BFC4
:10329000002858D090F8393070B503F0FF0204468A
:1032A000B3B32368354DE0686168022284F83920A1
:1032B000AB421A6849D0B3F1804F52D0A5F57C4596
:1032C000AB422AD005F58065AB4226D005F5806576
:1032D000AB4222D005F57845AB421ED005F57055BE
:1032E000AB4213D005F58065AB420FD005F5806584
:1032F000AB420BD0A5F59835AB4207D005F58065FC
:10330000AB4203D005F58065AB4232D125692DE093
:1033100080F8382002F0B4FEC3E7A568266922F0E1
:1033200070022A43164D22F440723243AB421A60B7
:10333000D862996201D162691A6301225A61002040
:1033400084F8392070BD01207047A668256922F0F5
:103350007002324322F440722A431A60D8629962A2
:10336000E9E7A668256922F07002324322F4407230
:103370002A431A60D8629962DFE700BF000001406B
:10338000000401400168022210B480F839200A6864
:103390000124034622430A60002083F839405DF887
:1033A000044B70470368DA6842F00102DA601A6879
:1033B00042F001021A600020704700BF90F83830D8
:1033C000012B67D002220368F0B480F839209A6894
:1033D0000C6822F47F4222F077020125402C80F80D
:1033E00038509A6000F0938018D9702C7FD02BD978
:1033F000B4F5805F76D0B4F5005F1CD1D1E90152FD
:10340000CC6899682A4342EA042221F47F410A43A6
:103410009A609A6842F480429A600CE0102C42D084
:103420002FD9202C38D0302C05D19A6822F0700288
:1034300042F037029A600023012280F8392080F898
:103440003830F0BC18467047502C33D0602CF2D185
:103450001C6A4D68CE6824F010041C6299691A6ACF
:1034600021F4704122F0A00242EA051241EA06313D
:1034700099611A629A6822F0700242F067029A60BB
:10348000D9E7002CD7D19A6822F0700242F00702E7
:103490009A60D0E7022070479A6822F0700242F0EA
:1034A00027029A60C7E79A6822F0700242F017027A
:1034B0009A60C0E71D6A1E6A4C68CF6826F0010654
:1034C0001E629A6925F00A0122F0F00242EA071210
:1034D00021439A6119629A6822F0700242F0570201
:1034E0009A60A8E79A6822F007029A60A3E7D1E9F8
:1034F0000152CC6899682A4342EA042221F47F41B0
:103500000A439A609A6842F077029A6093E71D6ACC
:103510001E6A4C68CF6826F001061E629A6925F083
:103520000A0122F0F00242EA071221439A6119626D
:103530009A6822F0700242F047029A607BE700BF6F
:1035400090F83830012B45D002220368F0B480F89F
:103550003920D1E900459A6822F070022A4322F00E
:1035600007022243502D4FF0010480F838409A6042
:1035700046D01FD9602D30D0702D0AD1D1E902522A
:103580000C6999682A4342EA042221F47F410A43E4
:103590009A60DA6822F04002DA60DA6801240021D9
:1035A00022F48042DA6080F8394080F83810F0BCAC
:1035B00008467047402DECD11D6A1C6A0E6924F044
:1035C00001041C629A6922F0F00242EA06129A6132
:1035D0001D62DEE70223184670471C6A8D680E697B
:1035E00024F010041C6299691A6A21F4704122F0D7
:1035F000A00241EA063142EA051299611A62C8E75F
:103600001D6A1E6A8C680F6926F001061E629A699F
:1036100025F00A0122F0F002214342EA07129A61E2
:103620001962B6E7704700BF704700BF704700BF20
:10363000704700BF03681A69910710B5044602D5A8
:10364000DA6892075FD41A69500702D5DA68510721
:1036500046D41A69120702D5DA6810072ED41A69FF
:10366000D20602D5DA68D00618D41A69D10702D575
:10367000DA68D2075DD41A69100602D5DA68110635
:103680005FD41A69520602D5DA68500661D41A6905
:10369000910602D5DA68920643D410BD6FF010028D
:1036A0001A61DB69082213F4407F2276204664D039
:1036B000FFF7BAFF002223682276D6E76FF00802F0
:1036C0001A61DB69042299072276204652D1FFF75E
:1036D000A9FF2046FFF7AAFF002223682276BEE753
:1036E0006FF004021A619B69022213F4407F227674
:1036F00020463CD1FFF796FF2046FFF797FF0022B8
:1037000023682276A5E76FF002021A619B69012205
:103710009B07027625D0FFF787FF002223682276D9
:1037200091E76FF0200220461A61BDE8104000F0DA
:1037300051B86FF001021A61204602F045FB236880
:1037400099E76FF080021A61204600F045F823687F
:1037500097E76FF040021A612046FFF769FF236880
:1037600095E7FFF75FFF2046FFF760FFD5E7FFF71C
:103770005BFFC4E7FFF758FFAEE7FFF753FF2046B4
:10378000FFF754FF96E700BF90F83830012B1ED0AA
:1037900002460220136870B482F839005C6824F095
:1037A0007004D1E900565C605868284358609868F6
:1037B00020F08000986099680024012531439960C9
:1037C000204682F8395082F8384070BC7047022099
:1037D000704700BF704700BF704700BF002800F06F
:1037E00004812DE9F84390F83930044603F0FF02D4
:1037F000002B00F0F58023682669242284F8392004
:10380000D86820F40050D4E90225D8601969E0692D
:1038100021F4405129431961D9686569324321F483
:1038200016412A4321F00C0102430A43DA605A6927
:10383000A16922F440720A43B0F5004F5A61AA4AC6
:1038400071D0934200F0D38002F58062934200F081
:10385000CE80FEF78DFEA54F636800EB800000EB85
:1038600080009B00B0FBF3F3A7FB03235B091D0162
:10387000FEF77EFE666800EB800000EB8000B6007D
:10388000B0FBF6F6FEF774FE636800EB800000EB19
:1038900080009B00B0FBF3F3A7FB03235B094FF011
:1038A000640909FB13631B013233A7FB03235B0984
:1038B00003F0F006FEF75CFE626800EB800000EBB0
:1038C00080009300B0FBF3F8FEF752FED4E900212C
:1038D00000EB80008B0000EB8000B0FBF3F3A7FB54
:1038E00003135B0909FB13831B013233A7FB03138B
:1038F000C3F3431333432B449360136923F490437E
:103900001361536923F02A035361D36800252021F2
:1039100043F40053D3602846E56384F8391084F8F3
:103920003A10BDE8F883934200F09F8002F5806270
:10393000934200F09A80FEF71BFE6C4F636800EB29
:10394000800000EB80005B00B0FBF3F3A7FB0323D8
:103950005B091E01FEF70CFE656800EB800000EBC2
:1039600080006D00B0FBF5F5FEF702FE636800EB2A
:10397000800000EB80005B00B0FBF3F3A7FB0323A8
:103980005B094FF0640909FB1353DB003233A7FBDB
:1039900003231B0903F4F875FEF7EAFD626800EBE8
:1039A000800000EB80005300B0FBF3F8FEF7E0FD71
:1039B000D4E9002100EB80004B0000EB8000B0FB5D
:1039C000F3F3A7FB03135B0909FB1383DB0032331B
:1039D000A7FB0313C3F3421333442B4493608CE7D8
:1039E00080F8382002F0DEFB05E701207047FEF783
:1039F000CFFD3E4F636800EB800000EB80009B0032
:103A0000B0FBF3F3A7FB03235B091D01FEF7C0FD29
:103A1000666800EB800000EB8000B600B0FBF6F6B5
:103A2000FEF7B6FD636800EB800000EB80009B00B2
:103A3000B0FBF3F3A7FB03234FF064095B0909FB19
:103A400013631B013233A7FB03235B0903F0F0066A
:103A5000FEF79EFD626800EB8000930000EB8000A3
:103A6000B0FBF3F8FEF794FD30E7FEF791FD1F4F32
:103A7000636800EB800000EB80005B00B0FBF3F3B9
:103A8000A7FB03235B091E01FEF782FD656800EBBF
:103A9000800000EB80006D00B0FBF5F5FEF778FDCF
:103AA000636800EB800000EB80005B00B0FBF3F389
:103AB000A7FB03234FF064095B0909FB1353DB00E9
:103AC0003233A7FB03231B0903F4F875FEF760FDEF
:103AD000626800EB8000530000EB8000B0FBF3F85D
:103AE000FEF756FD64E700BF001001401F85EB5153
:103AF000F0B50E4690F83910202983B02DD1002E54
:103B00002ED0019262B31F4690F83830012B044644
:103B100023D00023C3630121212380F8381080F8CB
:103B20003930FDF79BFA019AA284E28422680546A7
:103B3000E38C9BB2002B39D0E08CA168013880B2B5
:103B4000B1F5805FE08419D0781C3BD11068010684
:103B5000FCD5337853600136EAE7022003B0F0BDAC
:103B6000012003B0F0BD13681B060CD4002F33D026
:103B7000FDF774FA401B874222682DD3781CF2D1DE
:103B800010680106FCD533882169C3F3080353602C
:103B90000029E0D10236CBE713685B060BD4DFB116
:103BA000FDF75CFA401B8742226815D3781CF3D1DD
:103BB00013685906FCD52023002084F8393084F896
:103BC0003800CBE713681B06C3D42FB1FDF746FAC4
:103BD000401B87422268B7D2D36823F4D073D360E6
:103BE0005369202123F0010300250320536184F849
:103BF000391084F8385084F83A1003B0F0BD00BF93
:103C000090F83930202B18D1C9B1C2B190F83830B2
:103C1000012B12D030B400230568C2842124C36371
:103C200080F83940EC68016244F08004828480F8B6
:103C300038301846EC6030BC7047022070470120D5
:103C4000704700BF90F83A30202B1CD1E9B1E2B1A7
:103C500090F83830012B16D030B400230468C285A8
:103C60002225C36380F83A506569828545F00105D5
:103C7000816280F838306561E26842F490721846DB
:103C8000E26030BC7047022070470120704700BFDF
:103C9000704700BF03681A6870B516070446D868F5
:103CA000596973D011F0010179D0D60705D5C50542
:103CB00003D5E56B45F00105E563560702F0020503
:103CC00040F19F8069B1E16B41F00201E16302F0D4
:103CD0000806002D40F09B801EB1E16B41F0080109
:103CE000E163E16B002959D0950628D5800626D5D9
:103CF00094F83A20222A22D1A1682069A26AB1F55B
:103D0000805F00F0D580511C5B68A16208B103F0B0
:103D10007F0313702368E28D013A92B2E28572B993
:103D2000DA6822F49072DA605A69202122F00102E6
:103D30005A61204684F83A1001F0AEFF23685D69AD
:103D4000E16B090703D415F0400500F09380DA68B1
:103D500022F49072DA605A69202122F001025A613D
:103D600084F83A105A6952065DD55A69606B22F0A0
:103D700040025A61002856D0544B0365FEF754F9AF
:103D800060B1606BBDE87040036D1847950609D5BA
:103D9000810607D594F83A20222A48D070BD10F445
:103DA000907F82D116060ED45106F7D54206F5D57E
:103DB000DA68202122F04002DA60204684F83910C7
:103DC00001F076FF70BD0506EED594F83920212A62
:103DD000E4D1A168226AB1F5805F50D0511C216204
:103DE00012785A60E28C013A92B2E284002AD5D16C
:103DF000DA6822F08002DA60DA6842F04002DA60C3
:103E000070BD4DB100293FF46CAF02F00806E16BC4
:103E100041F00401E1635FE716077FF562AF002917
:103E20007FF45BAF5DE72046FFF732FF70BDA1680E
:103E30002069A26AB1F5805F2AD0511C5B68A1623B
:103E400008B103F07F031370E38D013B9BB2E38560
:103E5000002BA3D12368DA6822F49072DA605A69E1
:103E6000202122F001025A61204684F83A1001F024
:103E700013FF70BD2046FFF70BFFE56370BD11888F
:103E80002069C1F30801596050B902322262A9E7E2
:103E90005B6840B9C3F3080322F8023BA262D3E790
:103EA000013222629EE7DBB222F8013BA262CBE73D
:103EB000596828B9C1F3080122F8021BA2622AE757
:103EC000C9B222F8011BA26225E700BFD13E00085B
:103ED00008B5836B0022DA851846DA84FFF7D8FE2E
:103EE00008BD00BF70B500231D4982B01C46834247
:103EF00005DA5A5C2A2A02D054400133F7E7194DFB
:103F00001949EE5C0135224601A8ED5C03F01CF86E
:103F1000102C06DC9DF804308DF8053030238DF828
:103F200004309DF80430A3F16102052A9CBF203BB8
:103F30008DF804309DF80530A3F16102052A9CBF7D
:103F4000203B8DF805309DF80430B34205D19DF833
:103F50000500431B5842584100E0002002B070BDEC
:103F6000580D0020590D0020C09A000870B501229C
:103F700004464FF480719648964DFEF755FA01229B
:103F80004FF400719448FEF74FFA0022B4F814146D
:103F9000D4F81004FEF748FA2A6800235362536AE3
:103FA000142BFCD90A2301228C49D4F82004FEF7F3
:103FB0006BFD0A2301228A49D4F82004FEF764FD30
:103FC0002A6800235362536A142BFCD90122B4F8E7
:103FD0001414D4F81004FEF727FA0022B4F81414CD
:103FE000D4F81004FEF720FA2A6800235362536ABB
:103FF000142BFCD90A2301227A49D4F82004FEF7B5
:1040000043FD0A2301227849D4F82004FEF73CFD41
:104010002A6800235362536A142BFCD90122B4F896
:104020001414D4F81004FEF7FFF90022B4F81414A5
:10403000D4F81004FEF7F8F92A6800235362536A93
:10404000142BFCD90A2301226849D4F82004FEF776
:104050001BFD0A2301226649D4F82004FEF714FD53
:104060002A6800235362536A142BFCD90122B4F846
:104070001414D4F81004FEF7D7F90022B4F814147D
:10408000D4F81004FEF7D0F92A6800235362536A6B
:10409000142BFCD90A2301225649D4F82004FEF738
:1040A000F3FC0A2301225449D4F82004FEF7ECFC67
:1040B0002A6800235362536A142BFCD90122B4F8F6
:1040C0001414D4F81004FEF7AFF90022B4F8141455
:1040D000D4F81004FEF7A8F92A6800235362536A43
:1040E000142BFCD90A2301224449D4F82004FEF7FA
:1040F000CBFC0A2301224249D4F82004FEF7C4FC79
:104100002A6800235362536A142BFCD90122B4F8A5
:104110001414D4F81004FEF787F90022B4F814142C
:10412000D4F81004FEF780F92A6800235362536A1A
:10413000142BFCD90A2301223249D4F82004FEF7BB
:10414000A3FC0A2301223049D4F82004FEF79CFC8A
:104150002A6800235362536A142BFCD90122B4F855
:104160001414D4F81004FEF75FF90022B4F8141404
:10417000D4F81004FEF758F92A6800235362536AF2
:10418000142BFCD90A2301222049D4F82004FEF77D
:104190007BFC0A2301221E49D4F82004FEF774FC9C
:1041A0002A6800235362536A142BFCD9B4F8141400
:1041B000D4F810040122FEF737F90120FCF754FF70
:1041C0000A231A2213491448BDE87040FFF790BC37
:1041D00000000240341100200008024008000020C6
:1041E000090000200A0000200B0000200C00002025
:1041F0000D0000200E0000200F0000201000002005
:1042000011000020120000201300002014000020E4
:10421000CC030020C49A00087011002030B5314D45
:10422000B0F81414002283B00446D0F81004FEF74E
:10423000FBF82A6800235362536A142BFCD90A2323
:10424000012204F21E41D4F82004FEF71DFC0A23CB
:1042500001220DF10601D4F82004FEF791FD2A6831
:1042600000235362536A142BFCD90122B4F81414AE
:10427000D4F81004FEF7D8F82A6800235362536A72
:10428000142BFCD90022B4F81414D4F81004FEF74F
:10429000CBF80A23012204F21F41D4F82004FEF7D0
:1042A000F3FB0A2301220DF10701D4F82004FEF7E5
:1042B00067FD2A6800235362536A142BFCD901223C
:1042C000B4F81414D4F81004FEF7AEF89DF80720E3
:1042D0009DF8063043EA022300EE103AB8EEC00A19
:1042E00003B030BD3411002038B52C4C00220546F7
:1042F0004FF400712A48FEF797F8226800235362B2
:10430000536A142BFCD90A2301222649D5F820042C
:10431000FEF7BAFB0A2301222349D5F82004FEF751
:104320002FFD226800235362536A142BFCD901220B
:104330004FF400711A48FEF777F800224FF48071AD
:104340001A48FEF771F8226800235362536A142B4F
:10435000FCD90A2301221649D5F82004FEF794FB64
:104360000A230122D5F820041249FEF709FD22682C
:1043700000235362536A142BFCD901224FF480713D
:104380000A48FEF751F80B4A074B10781B78D428DF
:1043900008BF492B0CBF0120002038BD341100207C
:1043A000000802401500002018090020000002400B
:1043B00016000020500D0020F0B500F20C412DED4C
:1043C000028B964D964F0F60EA7B2B7C954EC0F882
:1043D00010644FF4807183B0A0F8141480F81F2487
:1043E00080F81E340446FFF719FF84ED000A6A7C4A
:1043F000AB7C84F81F2484F81E342046FFF70EFFA0
:10440000EA7C2B7D84F81F2484F81E34204684ED3A
:10441000010AFFF703FF844B844A1B781278206857
:104420008DED010AD42B08BF492A0CBF01230023BC
:1044300083F00103C4F80834FCF74EF8482206461E
:104440000F4604F5047004F5067102F047F8C4E95C
:1044500096676068FCF740F8482206460F4604F568
:104460002C7004F52E7102F039F8C4E9BE6704F52A
:104470005671482204F5547002F030F89DED010A9F
:1044800010EE100AFCF728F806460F460022D4E981
:1044900084010023C4E9E667FBF7C0FED4E9862364
:1044A000FBF7BCFED4E98823FBF7B8FED4E98A23E6
:1044B000FBF7B4FED4E98C23FBF7B0FED4E98E23DE
:1044C000FBF7ACFED4E99023FBF7A8FED4E99223D6
:1044D000FBF7A4FED4E99423FBF7A0FED4E99623CE
:1044E000FBF79CFE0022524BFCF778F9FCF72EFB01
:1044F000002208EE900A20600023D4E9AC01FBF70B
:104500008DFED4E9AE23FBF789FED4E9B023FBF797
:1045100085FED4E9B223FBF781FED4E9B423FBF78F
:104520007DFED4E9B623FBF779FED4E9B823FBF787
:1045300075FED4E9BA23FBF771FED4E9BC23FBF77F
:104540006DFED4E9BE23FBF769FE0022384BFCF771
:1045500045F9FCF7FBFA002208EE100A6060002320
:10456000D4E9D401FBF75AFED4E9D623FBF756FE73
:10457000D4E9D823FBF752FED4E9DA23FBF74EFE49
:10458000D4E9DC23FBF74AFED4E9DE23FBF746FE41
:10459000D4E9E023FBF742FED4E9E223FBF73EFE39
:1045A000D4E9E423FBF73AFE32463B46FBF736FEFE
:1045B0001F4B0022FCF712F9FCF7C8FAF5EEC08A8F
:1045C000F1EE10FA07EE900AB5EEC08ABBBFF1EE2D
:1045D000688A01230023C4ED008AF1EE10FAB8BF07
:1045E000B1EE488AF5EEC07AC4F8FC33BABF84ED68
:1045F000018A01230023F1EE10FAC4F80034BABF97
:10460000F1EE677A01230023A060C4F80434B8BF38
:10461000C4ED027A03B0BDEC028BF0BD08000020AF
:10462000295C8F3C00000240500D0020180900203A
:104630000000244038B500F20C42164D1649174BC5
:1046400011604FF400716A7DC0F81034AB7DA0F8A2
:10465000141480F81F2480F81E340446FFF7DEFD92
:10466000EA7D2B7E84F81F2484F81E34204684EDD6
:10467000060AFFF7D3FD6A7EAB7E84ED070A84F855
:104680001F2484F81E342046FFF7C8FD84ED080A75
:1046900038BD00BF080000202B009D3A00080240F2
:1046A00010B5D0E9001288B0002304468069029159
:1046B0000692CDE904338DF81C30FDF733F910B9BB
:1046C000002008B010BD0121A069FDF743F90028C2
:1046D000F6D101AB04F10802A06902A9FDF7CAF8FE
:1046E000012008B010BD00BF10B5002188B00446FD
:1046F0008069FDF7D5F930B104F11003A06901AA72
:104700000021FDF73BF9019808B010BD70B5104CC1
:10471000D4E9013293428EB018D004EB83030546EE
:104720001E6901A8314602F02FFC304601F0CEFE92
:104730006368272B14BF0133002301A86360FCF7D3
:10474000D5FB01A982B22846FFF75AFA0EB070BD18
:10475000CC030020F8B54FF41652404D404E426055
:104760000C462860FFF73AF831461422C82328681F
:10477000FFF7BEF94FF4FA70FCF776FC28684FF4A7
:1047800061434360FFF72AF831461422C8232868A2
:10479000FFF7AEF94FF4FA70FCF766FC28684FF4A7
:1047A000E1334360FFF71AF83146C8231422286822
:1047B0002C4EFFF79DF94FF4FA70FCF755FC2A498F
:1047C0002868C8231122FFF793F94FF4FA70FCF719
:1047D0004BFC26492868C8233322FFF789F94FF498
:1047E000FA70FCF741FC224B224A1868206003CA89
:1047F000B3F804C09F79204BDFF888E0E0602161C6
:104800001288A28203CBBEF80020A4F804C0A283C1
:10481000DFF874C0194AE0622163306819889B7818
:10482000A77184F83630B788BCF80030E064B679F8
:104830001068A387A065A186A4F8507084F8526020
:1048400091889279A4F85C1084F85E2028680C495D
:104850000122FFF7F7F90120F8BD00BF540D002039
:10486000E49A00086C9B0008FC9A0008109B000862
:10487000449B00084C9B00085C9B0008749B00084C
:10488000340D0020589B0008689B000800000000C1
:10489000F0B5BD4B1B68834283B003D00024204693
:1048A00003B0F0BDB94CBA4E01220D462146FFF7C8
:1048B000C9F9D6F8E420B74923780B70012A08D04B
:1048C000242BEBD1B44A002401231460C6F8E43051
:1048D000E5E7242BF6D0B04AB04F10680D2B3B54BF
:1048E00004D00A2B02D001301060D7E700233B54DC
:1048F000B978C6F8E43047292BD05629CED1F978BB
:104900005429CBD139794729C8D1CDE90032FFF7F5
:10491000E9FA01280446DDE90032BFD11668DFF864
:1049200098C2052ECCF800304BDD194618460522FA
:1049300007E007293ED0082908BF32460132B242BB
:104940003CDA17F802E0BEF12C0FF2D1013101235D
:10495000F4E7FA78472AA1D13A79412A9ED1009307
:10496000FFF7C0FA0128009B98D18D481F461E46CC
:104970001C461A4600F15F0E16E0012A57D0022AA3
:1049800068D0032A00F0AE80042A00F0A280052A35
:1049900000F0A580062A00F0EA80092A00F0E180F4
:1049A0000A2A5DD070455BD010F8011F2C29E4D194
:1049B0000132F7E705F800E00130BFE70BB1CCF8B2
:1049C000001095F86330302B37D10023AB60D5E968
:1049D00009124842734BC0B2CEB258BF4642504251
:1049E0009E72C0B24FF007061E72D6B258BF464242
:1049F0001E7305F11C064FF480705E7391FBF0F19D
:104A000092FBF0F25972DA72AA6892FBF0F150420E
:104A1000C0B2D2B24FF0D00658BF42420825184665
:104A20009973DA73C3E90065FFF73AFE37E705EBE0
:104A3000030C01338CF85810B4E7284601F016FD3A
:104A40000022594B51EC100BFBF79EFDFCF736F89A
:104A5000A860BCE705EB040C01348CF80C10A1E74E
:104A600095F86330302B3FD10023C5E90933C5E900
:104A700011336B65D5E911406342DBB2E6B258BF32
:104A80005E424142474B6A6D9E72C9B2C7B258BF7F
:104A90004F421F73574205F13C01FFB24FF480763D
:104AA000597394FBF6F490FBF6F04FF008015C723A
:104AB000D872D4B2184658BF7C42D02792FBF6F287
:104AC000DC739A731F60197259600024FFF7E8FDC8
:104AD000E5E605EB060C01368CF82C1062E785F84C
:104AE0003C105FE729775DE705F10C0001F0BEFCA3
:104AF00021A3D3E9002351EC100BFBF745FDFBF795
:104B0000DDFF286205F12C0001F0B0FC1CA3D3E905
:104B1000002351EC100BFBF737FDFBF7CFFF2864A8
:104B200005F14C0001F0A2FC00221F4B51EC100BD0
:104B3000FBF72AFDFBF7C2FF2E6A1C4B2C6C1C49AD
:104B4000686542F2107296FBF2F203FB0266194BA3
:104B500094FBF3F301FB0341C5E90926C5E91131D3
:104B600088E705EB070C01378CF84C101AE785F83D
:104B7000631017E7AFF30080000000000088C34017
:104B800000000000006AF840540D0020340D0020A1
:104B9000CC030020140D002034090020580D002003
:104BA0005C0D0020180D002000005940F0D8FFFFD8
:104BB0006079FEFFA0860100100D002000000000BB
:104BC0002DE9F0470223044603610022402182B010
:104BD0005D48FDF729FCD4F8D03321691A68002319
:104BE0005362536A8B42FCD9012240215648FDF79B
:104BF0001BFCD4F8D03321691A6800235362536A2E
:104C00008B42FCD9002240214F48FDF70DFCD4F81F
:104C1000D03321691A6800235362536A8B42FCD94E
:104C20006368002B2BDD0025474EA84604F11007D2
:104C3000012240213046FDF7F7FBD4F8D03321693B
:104C40001A68C2F82480536A8B42FCD94FF48071F1
:104C50003046FDF7E3FB002247F8040F40213046C1
:104C6000FDF7E2FBD4F8D03321691A68C2F824803A
:104C7000536A8B42FCD963680135AB42D8DC012210
:104C800040213148FDF7D0FBD4F8D03321691A68B0
:104C900000235362536A8B42FCD94FF480712A4837
:104CA000FDF7BCFB6568A060002D3DDDDFF89C9042
:104CB0004FF0000804F110074FF0000A57F8043FC6
:104CC000012B11D0013D002DF8D15046FBF7F2FB2E
:104CD00019A3D3E90023FBF781FD41EC100B84ED10
:104CE000F20B02B0BDE8F087012D42464B4619D0C9
:104CF000013D002610461946FBF790FA0136AE42F8
:104D000002460B46F6D15046CDE90023FBF7D2FB15
:104D1000DDE90023FBF782FAFBF7D0FE8246002D87
:104D2000CCD1D2E70025EEE79FED050B84EDF20B29
:104D300002B0BDE8F08700BF62105839B4C04640E9
:104D40000000000000000000000802400000F03FEA
:104D50002DE9F0472DED028B824684B00068FBF709
:104D6000A9FB0022B84B80468946DAE92001FBF70F
:104D70000BFCB54B04460D460022DAE92201FBF795
:104D800003FCDAF86830012B06460F4600F0338149
:104D900002460B4620462946FBF73EFACDE90201C2
:104DA000DAF87800FBF798FB0022CDE90001A74B69
:104DB000DDE90201FBF712FD93A3D3E90023FBF722
:104DC000E3FBDDE90023FBF7DFFB91A3D3E900233D
:104DD000FBF7DAFB42464B46FBF700FD8EA3D3E917
:104DE0000023FBF7D1FB41EC100B01F0EDFA20465C
:104DF00029460022944BB0EE408AF0EE608AFBF721
:104E0000EDFC04460D4600228F4B30463946CAE978
:104E10002045FBF7E3FCDAE9F06780468946CAE9FA
:104E20002289304639460022894BFBF71FFE0028B5
:104E30004AD1304639460022864BFBF735FE002822
:104E400042D10022844B20462946FBF70FFE38B1A1
:104E500073A3D3E9002340464946FBF725FE70BB08
:104E60004046494600227C4BFBF700FE002840F0FC
:104E7000B3800AF1A0044FF4C4720AF1A8012046DD
:104E800001F02CFB68A3D3E9002351EC180BFBF7CE
:104E9000A5FCCAE98A01002600270AF50C75F4E88A
:104EA000022330463946FBF7B9F9AC4206460F46B5
:104EB000F5D10022694BFBF791FCCAE9F00104B07F
:104EC000BDEC028BBDE8F087DAE9246758A3D3E98B
:104ED000002330463946FBF7D3FD002835D056A3D2
:104EE000D3E9002330463946FBF7DEFD68B30022E4
:104EF0005B4B20462946FBF7CDFD30B30022594BD2
:104F000020462946FBF7B2FDF8B1DAF86C300133E0
:104F1000CAF86C30DDE9000149A3D3E90023FBF7AF
:104F200033FB0022484BFBF759FCCDE90201DAF8CC
:104F30007000FBF7D1FA02460B46DDE90201FBF7F0
:104F40006DF9FBF703FECAF870000022444B3046AF
:104F50003946FBF79FFD00283FF473AF30463946D2
:104F60000022404BFBF782FD00283FF46AAF30A3DC
:104F7000D3E9002320462946FBF782FD00283FF4B1
:104F800060AF2DA3D3E9002320462946FBF78CFD13
:104F900000283FF456AFDAF86C300133CAF86C30B1
:104FA000DDE9000126A3D3E90023FBF7EDFA002297
:104FB000254BFBF713FC0646DAF870000F46FBF7AB
:104FC0008BFA02460B4630463946FBF727F9FBF7CA
:104FD000BDFDCAF8700034E72046294610A3D3E986
:104FE0000023FBF761FD00283FF443AF04B0BDECA4
:104FF000028BBDE8F08722462B46FBF70DF9CDE981
:105000000201CDE6AFF300806F1283C0CA210940D0
:10501000CDCCCCCCCCCC0C40000000000088C340F0
:10502000000000000030764000000000006AF840F8
:1050300000000000009076400000000000E0754095
:105040001F85EB51B81E094000408F40008076401C
:105050000000E0BF0000E03F0000104000004940B9
:105060000000F0BF000024402DE9F047C56882B081
:1050700004466DB1012D00F0CF80022D00F0B88004
:10508000012DD4BF01350025E56002B0BDE8F087F1
:10509000D0E920010223C4E9240123612A464021EA
:1050A0006D48FDF7C1F9D4F8D03321691A6855620B
:1050B000536A8B42FCD9012240216748FDF7B4F9BD
:1050C000D4F8D03321691A6800235362536A8B42A3
:1050D000FCD9002240216048FDF7A6F9D4F8D0336E
:1050E00021691A6800235362536A8B42FCD96368B2
:1050F000002B2BDD0025584EA84604F11007012295
:1051000040213046FDF790F9D4F8D03321691A6870
:10511000C2F82480536A8B42FCD94FF48071304628
:10512000FDF77CF9002247F8040F40213046FDF7D7
:105130007BF9D4F8D03321691A68C2F82480536A05
:105140008B42FCD9636801359D42D8DB01224021A6
:105150004148FDF769F9D4F8D03321691A68002372
:105160005362536A8B42FCD94FF480713A48FDF781
:1051700055F96568A060002D5ADDDFF8E4904FF026
:10518000000804F110074FF0000A57F8043F012B04
:1051900010D0013D002DF8D15046FBF78BF92CA320
:1051A000D3E90023FBF71AFBC4E9F201C4E92001AB
:1051B000E56865E7012D42464B4637D0013D0026A4
:1051C00010461946FBF72AF80136B54202460B464F
:1051D000F6D15046CDE90023FBF76CF9DDE9002359
:1051E000FBF71CF8FBF76AFC8246002DCDD1D3E714
:1051F000FFF7AEFD0022194BD4E9F001FBF7C4F92B
:1052000006460F4600220023C4E9F067FBF72EFC98
:1052100088B9E568606733E7D0E92223C0E926232F
:10522000FFF7CEFCE56884ED220B29E70025D0E7E7
:1052300000200021B8E707F100420123C4F8C06351
:10524000C4F8C4236367E5681AE700BFAFF30080C2
:1052500062105839B4C046400008024000002440A3
:105260000000F03F026981688A420FDD511A6FF039
:10527000630303FB01F3C16893FBF1F36433036041
:1052800043689A42A4BF002303607047642303600D
:10529000F6E700BF03694360704700BF036983609E
:1052A000704700BF08B50C4E0C4C054631460A232A
:1052B0000F222046FEF71CFC2846FBF717FE294666
:1052C00082B20A232046FEF713FC0A230222044975
:1052D0002046FEF70DFCE9E77C9B000870110020DA
:1052E000E09A000830B4064B064C0749074AD3E958
:1052F00000509B6825610861136130BC704700BF96
:10530000D8110020380D0020D80400201C090020EE
:1053100070B594B00020284A0090116C274B41F0E2
:1053200080511164126C02F080520092009A019038
:105330001A6842F440421A601B68012003F440439B
:10534000022401934FF4A0254FF4800108224FF46A
:105350009073079007A8019E08950D94CDE911441C
:105360001394CDE90E121093FDF77AF908BB0346AA
:105370004FF4A0520F25042102A8CDE90343029562
:10538000CDE90522FDF754F8044690B9FDF7EAF897
:105390000B4BA3FB00308009FCF73EFD0420FCF71B
:1053A00055FD224621464FF0FF30FCF7F3FC14B0C8
:1053B00070BD0448FFF776FF0038024000700040DF
:1053C000D34D62108C9B00082DE98048AFB00024BB
:1053D000C14DFBF71DFEFFF79BFF05942B6BBF48EC
:1053E00043F080032B632B6B03F080030593059B35
:1053F00006942B6B43F001032B632B6B03F001032B
:105400000693069B07942B6B43F002032B632B6BD5
:1054100003F002030793079B08942B6B43F00403EC
:105420002B632B6B03F00403089301224021089B9C
:10543000FCF7FAFF22464FF40071A848FCF7F4FF8E
:1054400022464FF48071A648FCF7EEFF4FF00108AA
:105450004022032329A9A1482C93CDE929284FF400
:1054600080762B94FCF7C8FE29A99C482996CDE9A3
:105470002A444FF4007AFCF7BFFE29A997482C94E0
:10548000CDE92A84CDF8A4A0FCF7B6FE29A994485A
:10549000CDE92968CDE92B44FCF7AEFE29A9914856
:1054A0002B94CDE92964FCF7A7FE04942B6B43F4FD
:1054B00080032B632B6B03F4800322460493214665
:1054C0003820049BFCF766FC3820FCF799FC864BDF
:1054D000864A9C604FF4E1390C251846C3E9034421
:1054E000C3E90644C3E900295D61FEF777F90028A6
:1054F00040F0CB837E4F7F4A3A6002234FF4800214
:105500007B604FF48033B860F860387778774FF479
:1055100030213846C7E905233961FCF773F80028C4
:1055200040F0B383744E7549C6F818A0C6E902006E
:10553000C6E904004FF48272C6E90700C6E9090013
:105540000A23304631607260F362FDF75DFA00288D
:1055500040F09B836A4C6B4B6B4A2062C4E90100AC
:10556000E062E0602046A362C4F81080C4F81880AE
:10557000C4F81C80C4F83080C4F814802260FBF7A3
:1055800085FD0346002840F080830822204625A997
:105590002592CDF898802793FBF786FF02460028D6
:1055A00040F07383594B5A49C3F804901846C3E935
:1055B0000222C3E90425C3E906221960FEF70EF9A9
:1055C000002840F06283534C4FF08043A06020617C
:1055D0002422236020464FF47A736260E360FDF773
:1055E00057FE002840F051832EA94FF4805341F814
:1055F000343D2046FDF7E2FE0346002840F0458397
:1056000029A92046CDE92933FDF79AFF0346002852
:1056100040F03B83204613A9CDE91333FEF7B4F8DD
:10562000002840F03283DFF804B13B4BCBF8003068
:1056300012234FF6DC72CBF8043058460023CBE936
:105640000232CBF81030FDF723FE002840F01D8316
:105650002EA94FF4805941F8449D5846FDF7AEFEFF
:105660000346002840F0118311A95846CDE91133B3
:10567000FEF78AF80346002840F00783274C284AA3
:10568000A0604FF461684FF4FA6520462361C4E9D5
:105690000028E560FDF7FCFD002840F0F6822EA909
:1056A000204641F8549DFDF789FE0346002840F04E
:1056B000EC8220460FA9CDE90F33FEF765F80028EC
:1056C00040F0E382174C184A2061C4E90205242304
:1056D0002046226063602BE0003802400008024050
:1056E000000002400004024070110020004400400D
:1056F000B011002000640040DC10002000300140A8
:10570000A00F00200100000F00200140F40F002036
:10571000001001403411002000040040240E00203D
:1057200000080040000F0020000C00403C0F00204B
:10573000FDF7AEFD002840F0A8822EA9204641F8D2
:10574000649DFDF73BFE0346002840F09E82204604
:105750000DA9CDE90D33FEF717F80246002840F0F9
:105760009482D54BD549C3F804801846C3E9022575
:105770001960FDF78DFD002840F0878200230BA9FA
:10578000CD48CDE90B33FDF7FFFF002840F07D82C7
:10579000CB4ACC4B906010461360242242604FF4F9
:1057A0001672C260FDF774FD0346002840F06D825A
:1057B00009A9C348CDE90933FDF7E6FF002840F009
:1057C0006482C14BC14C98604FF4B47118611846A3
:1057D0001C605960DD600393FDF75AFD0446002804
:1057E00040F05382024601461320FCF7D3FA1320FF
:1057F000FCF706FB224621461420FCF7CBFA1420C6
:10580000FCF7FEFA224621461520FCF7C3FA1520C4
:10581000FCF7F6FA224621461620FCF7BBFA1620C2
:10582000FCF7EEFA224621461220FCF7B3FA1220CA
:10583000FCF7E6FA224621463720FCF7ABFA372080
:10584000FCF7DEFA224621463620FCF7A3FA362082
:10585000FCF7D6FA224621463220FCF79BFA32208A
:10586000FCF7CEFA224621461C20FCF793FA1C20B6
:10587000FCF7C6FA224621461920FCF78BFA1920BC
:10588000FCF7BEFA224621462520FCF783FA2520A4
:10589000FCF7B6FA8E4ADFF87C82946111464FF02D
:1058A000010A3846C2E9074AC2E90044C2E9024493
:1058B000C2E90444FBF728FF3846FBF7ADFF14218B
:1058C0003846FCF701F9834DDFF84C921521384634
:1058D000FCF7FAF8804B8148C8F820644FF48071D7
:1058E00052464FF40076C8F81034C8F81804A8F8E7
:1058F0001464A8F81C14AF61FCF796FD52463146BB
:105900007548774EDFF814A2764FFCF78DFD764A86
:10591000764977480192FEF71DFFDBF80C10DFF89F
:1059200000C2DBF80400DFF8FCE1DFED727A019AD7
:10593000C9ED1C7A8CFB013C8C444FEAE17B9FED66
:105940005C6BCBEB6C1B24236B49B3FBF0F04FF487
:1059500016730BF1280BC9F80030C9F87810674BA3
:10596000C9F810000E2140F6DC7CC9F80410CEF80E
:1059700000B040F62E1140F2AE6E6148C3F80CE064
:10598000C3E901C189EDF06BC9F8D0230292C9F8CF
:105990006840C9F80C40C9F86C40C9F864B0FDF71C
:1059A000F1FC5848FDF7EEFC4548FDF7EBFC039B86
:1059B00001931846FDF7E6FC5148FDF7F3FC51480A
:1059C000FDF7F0FC3E48FDF7EDFC019B1846FDF7A6
:1059D000E9FC029AD06BD2F800C0916FD2F8B430D3
:1059E0004462CCF8244040464C625C62FEF7BEFA4A
:1059F0004046FEF779FC032251464348FBF7F4FB8F
:105A00003368002B4ED1FBF729FBA7FB0023DB08F3
:105A100003EB830303EB8303B0EB030B044600F0BB
:105A200015813A4BA3FB04239B094FF47A7202FBC6
:105A30001343002B00F0EE80354B621DA3FB0213D5
:105A4000DB0803EB8303B2EB430300F0B48004F103
:105A50000A02A7FB0213DB0803EB830303EB8303B8
:105A6000B2EB030B60D00F34A7FB0423DB0803EB7E
:105A7000830303EB83039C42BDD17368002BBAD12F
:105A80001E4A6B811468AB814FF0020CC0210822C2
:105A9000EB81104885F808C06C72C5E90012FEF76A
:105AA000FFFDA8E70120FBF7DFFA00233360A2E740
:105AB00000000000000000009810002000100040CE
:105AC000E811002000140040C40E002000440140F2
:105AD000780F0020180D002000080240000002404E
