:020000040800F2
:100000000000022001340008393300083D330008A5
:100010004133000845330008493300080000000060
:100020000000000000000000000000004D33000848
:100030005133000800000000553300085933000810
:10004000513400085134000851340008513400087C
:10005000513400085134000851340008513400086C
:10006000513400085134000851340008513400085C
:10007000513400085134000851340008513400084C
:100080005134000851340008693300087533000802
:10009000813300088D33000899330008513400087B
:1000A000513400085134000851340008513400081C
:1000B000513400085134000851340008513400080C
:1000C00051340008513400085134000851340008FC
:1000D00051340008513400085134000851340008EC
:1000E00051340008513400085134000851340008DC
:1000F00051340008513400085134000851340008CC
:1001000051340008513400085134000851340008BB
:1001100051340008513400085134000851340008AB
:10012000A533000851340008513400085134000848
:1001300051340008000000000000000051340008A5
:10014000513400085134000851340008513400087B
:10015000513400085134000851340008513400086B
:10016000513400085134000851340008513400085B
:1001700051340008513400085134000800000000D8
:1001800000000000513400080000000000000000E2
:100190005134000800000000000000005134000845
:1001A00000000000000000000000000051340008C2
:1001B000513400085134000851340008513400080B
:0401C00051340008AE
:1001C80010B5054C237833B9044B13B10448AFF389
:1001D80000800123237010BDE00100200000000012
:1001E800144F000808B5034B1BB103490348AFF38C
:1001F800008008BD00000000E4010020144F000842
:1002080081F0004102E000BF83F0004330B54FEABF
:1002180041044FEA430594EA050F08BF90EA020F2C
:100228001FBF54EA000C55EA020C7FEA645C7FEABF
:10023800655C00F0E2804FEA5454D4EB5555B8BFE2
:100248006D420CDD2C4480EA020281EA030382EA53
:10025800000083EA010180EA020281EA0303362DE5
:1002680088BF30BD11F0004F4FEA01314FF4801CB8
:100278004CEA113102D0404261EB410113F0004FCA
:100288004FEA03334CEA133302D0524263EB430381
:1002980094EA050F00F0A780A4F10104D5F1200E1F
:1002A8000DDB02FA0EFC22FA05F2801841F100017A
:1002B80003FA0EF2801843FA05F359410EE0A5F14E
:1002C80020050EF1200E012A03FA0EFC28BF4CF07F
:1002D800020C43FA05F3C01851EBE37101F0004535
:1002E80007D54FF0000EDCF1000C7EEB00006EEB42
:1002F8000101B1F5801F1BD3B1F5001F0CD34908CC
:100308005FEA30004FEA3C0C04F101044FEA445222
:1003180012F5800F80F09A80BCF1004F08BF5FEAA9
:10032800500C50F1000041EB045141EA050130BD89
:100338005FEA4C0C404141EB010111F4801FA4F12C
:100348000104E9D191F0000F04BF01460020B1FA81
:1003580081F308BF2033A3F10B03B3F120020CDAB9
:100368000C3208DD02F1140CC2F10C0201FA0CF097
:1003780021FA02F10CE002F11402D8BFC2F1200CFC
:1003880001FA02F120FA0CFCDCBF41EA0C019040B2
:10039800E41AA2BF01EB0451294330BD6FEA0404FB
:1003A8001F3C1CDA0C340EDC04F11404C4F12002E6
:1003B80020FA04F001FA02F340EA030021FA04F3F8
:1003C80045EA030130BDC4F10C04C4F1200220FA4F
:1003D80002F001FA04F340EA0300294630BD21FA8D
:1003E80004F0294630BD94F0000F83F4801306BF53
:1003F80081F480110134013D4EE77FEA645C18BF47
:100408007FEA655C29D094EA050F08BF90EA020FDD
:1004180005D054EA000C04BF1946104630BD91EAD5
:10042800030F1EBF0021002030BD5FEA545C05D1D8
:100438004000494128BF41F0004130BD14F5800417
:100448003CBF01F5801130BD01F0004545F0FE418B
:1004580041F470014FF0000030BD7FEA645C1ABFC0
:10046800194610467FEA655C1CBF0B46024650EAF7
:10047800013406BF52EA033591EA030F41F4002123
:1004880030BD00BF90F0000F04BF0021704730B5A9
:100498004FF4806404F132044FF000054FF000017E
:1004A80050E700BF90F0000F04BF0021704730B53F
:1004B8004FF4806404F1320410F0004548BF404214
:1004C8004FF000013EE700BF42004FEAE2014FEA69
:1004D80031014FEA02701FBF12F07F4393F07F4F44
:1004E80081F06051704732F07F4208BF704793F047
:1004F8007F4F04BF41F40021704730B54FF460745A
:1005080001F0004521F000411CE700BF50EA01025C
:1005180008BF704730B54FF000050AE050EA010205
:1005280008BF704730B511F0004502D5404261EB75
:1005380041014FF4806404F132045FEA915C3FF4B6
:10054800D8AE4FF003025FEADC0C18BF03325FEA53
:10055800DC0C18BF033202EBDC02C2F1200300FA04
:1005680003FC20FA02F001FA03FE40EA0E0021FA29
:1005780002F11444BDE600BF70B54FF0FF0C4CF417
:10058800E06C1CEA11541DBF1CEA135594EA0C0FC9
:1005980095EA0C0F00F0DEF82C4481EA030621EA04
:1005A8004C5123EA4C5350EA013518BF52EA03353F
:1005B80041F4801143F4801338D0A0FB02CE4FF0F1
:1005C8000005E1FB02E506F00042E0FB03E54FF021
:1005D8000006E1FB03569CF0000F18BF4EF0010E19
:1005E800A4F1FF04B6F5007F64F5407404D25FEA15
:1005F8004E0E6D4146EB060642EAC62141EA5551C8
:100608004FEAC52040EA5E504FEACE2EB4F1FD0C09
:1006180088BFBCF5E06F1ED8BEF1004F08BF5FEA87
:10062800500E50F1000041EB045170BD06F0004639
:1006380046EA010140EA020081EA0301B4EB5C04E6
:10064800C2BFD4EB0C0541EA045170BD41F48011DE
:100658004FF0000E013C00F3AB8014F1360FDEBF03
:10066800002001F0004170BDC4F10004203C35DADF
:100678000C341BDC04F11404C4F1200500FA05F362
:1006880020FA04F001FA05F240EA020001F0004203
:1006980021F0004110EBD37021FA04F642EB060179
:1006A8005EEA430E08BF20EAD37070BDC4F10C04A3
:1006B800C4F1200500FA04F320FA05F001FA04F267
:1006C80040EA020001F0004110EBD37041F1000153
:1006D8005EEA430E08BF20EAD37070BDC4F120055E
:1006E80000FA05F24EEA020E20FA04F301FA05F2C6
:1006F80043EA020321FA04F001F0004121FA04F26E
:1007080020EA020000EBD3705EEA430E08BF20EA3D
:10071800D37070BD94F0000F0FD101F00046400077
:1007280041EB010111F4801F08BF013CF7D041EAF9
:10073800060195F0000F18BF704703F000465200FD
:1007480043EB030313F4801F08BF013DF7D043EACE
:100758000603704794EA0C0F0CEA135518BF95EA84
:100768000C0F0CD050EA410618BF52EA4306D1D10B
:1007780081EA030101F000414FF0000070BD50EA2A
:10078800410606BF1046194652EA430619D094EAB4
:100798000C0F02D150EA013613D195EA0C0F05D19E
:1007A80052EA03361CBF104619460AD181EA0301F2
:1007B80001F0004141F0FE4141F470014FF00000AA
:1007C80070BD41F0FE4141F4780170BD70B54FF045
:1007D800FF0C4CF4E06C1CEA11541DBF1CEA1355C5
:1007E80094EA0C0F95EA0C0F00F0A7F8A4EB0504A7
:1007F80081EA030E52EA03354FEA013100F088809E
:100808004FEA03334FF0805545EA131343EA126366
:100818004FEA022245EA111545EA10654FEA00261B
:100828000EF000419D4208BF964244F1FD0404F5D4
:10083800407402D25B084FEA3202B61A65EB030530
:100848005B084FEA32024FF480104FF4002CB6EBED
:10085800020E75EB030E22BFB61A754640EA0C006D
:100868005B084FEA3202B6EB020E75EB030E22BFAD
:10087800B61A754640EA5C005B084FEA3202B6EBEE
:10088800020E75EB030E22BFB61A754640EA9C00AD
:100898005B084FEA3202B6EB020E75EB030E22BF7D
:1008A800B61A754640EADC0055EA060E18D04FEA3B
:1008B800051545EA16754FEA06164FEAC30343EADB
:1008C80052734FEAC2025FEA1C1CC0D111F4801FA8
:1008D8000BD141EA00014FF000004FF0004CB6E7A1
:1008E80011F4801F04BF01430020B4F1FD0C88BF40
:1008F800BCF5E06F3FF6AFAEB5EB030C04BFB6EB4B
:10090800020C5FEA500C50F1000041EB045170BD3D
:100918000EF0004E4EEA113114EB5C04C2BFD4EB6A
:100928000C0541EA045170BD41F480114FF0000EEE
:10093800013C90E645EA060E8DE60CEA135594EA6A
:100948000C0F08BF95EA0C0F3FF43BAF94EA0C0F6D
:100958000AD150EA01347FF434AF95EA0C0F7FF4E2
:1009680025AF104619462CE795EA0C0F06D152EA36
:1009780003353FF4FDAE1046194622E750EA41061A
:1009880018BF52EA43067FF4C5AE50EA41047FF42B
:100998000DAF52EA43057FF4EBAE12E74FEA41028E
:1009A80012F5001215D211D56FF47873B3EB6252B9
:1009B80012D94FEAC12343F0004343EA505311F0E0
:1009C800004F23FA02F018BF404270474FF0000072
:1009D800704750EA013005D111F0004008BF6FF0B0
:1009E800004070474FF00000704700BF53B94AB944
:1009F800002908BF00281CBF4FF0FF314FF0FF301F
:100A080000F072B9ADF1080C6DE904CE00F006F8FB
:100A1800DDF804E0DDE9022304B070472DE9F04772
:100A2800089E04468846002B4BD18A42154667D952
:100A3800B2FA82F24AB1C2F1200701FA02F320FAAF
:100A480007F7954047EA030894404FEA154E230CF0
:100A5800B8FBFEF71FFA85FC0EFB178843EA08432C
:100A680007FB0CF1994209D9EB1807F1FF3080F028
:100A78001B81994240F21881023F2B445B1AA4B2B1
:100A8800B3FBFEF00EFB103344EA034400FB0CFCFE
:100A9800A44509D92C1900F1FF3380F00781A4453A
:100AA80040F2048102382C4440EA0740A4EB0C04CD
:100AB80000271EB1D4400023C6E900433946BDE8EB
:100AC800F0878B4209D9002E00F0EB800027C6E999
:100AD800000138463946BDE8F087B3FA83F7002F9E
:100AE80047D18B4202D3824200F2FA80841A61EB2A
:100AF800030301209846002EE0D0C6E90048DDE750
:100B080002B9FFDEB2FA82F2002A40F08F80491B58
:100B18004FEA154E1FFA85F80127B1FBFEFC230C9E
:100B28000EFB1C1143EA014308FB0CF1994207D95B
:100B3800EB180CF1FF3002D2994200F2CD808446C6
:100B4800591AA3B2B1FBFEF00EFB101443EA044499
:100B580008FB00F8A04507D92C1900F1FF3302D291
:100B6800A04500F2B6801846A4EB080440EA0C4001
:100B78009FE7C7F1200CBB4022FA0CFE4EEA030E99
:100B880001FA07F420FA0CF521FA0CF34FEA1E4893
:100B98002543B3FBF8F92C0C08FB19331FFA8EFA1E
:100BA80044EA034309FB0AF49C4202FA07F200FAFA
:100BB80007F10BD91EEB030309F1FF3080F08780A2
:100BC8009C4240F28480A9F1020973441B1BADB218
:100BD800B3FBF8F008FB103345EA034400FB0AFABC
:100BE800A24508D91EEB040400F1FF336BD2A245DD
:100BF80069D90238744440EA0940A0FB0289A4EB91
:100C08000A044C45C2464B4654D351D0002E69D0F5
:100C1800B1EB0A0564EB030404FA0CFCFD40FC404C
:100C28004CEA0505C6E90054002747E7C2F120034E
:100C380020FA03F7954001FA02F021FA03F34FEA8C
:100C4800154E3843010CB3FBFEF71FFA85F80EFB6F
:100C5800173341EA034107FB08F38B4204FA02F415
:100C680007D9691807F1FF3C2FD28B422DD9023FD3
:100C78002944CB1A81B2B3FBFEF00EFB103341EAD4
:100C8800034100FB08F38B4207D9691800F1FF3CC8
:100C980017D28B4215D902382944C91A40EA0747A6
:100CA8003BE73746304609E70746E7E61846FBE6DE
:100CB8004145ABD2B8EB020A69EB0E020138134684
:100CC800A4E76046E9E7184695E76746D1E7814615
:100CD8007CE702382C4447E7ACF1020C2B442FE7A1
:100CE800384608E73746E9E6704700BF034613F879
:100CF800012B002AFBD1181A013870474FF0FF3C2E
:100D080006E000BF4FF0010C02E000BF4FF0010CFD
:100D18004DF804CD4FEA410C7FEA6C5C4FEA430C76
:100D280018BF7FEA6C5C1BD001B050EA410C0CBFC5
:100D380052EA430C91EA030F02BF90EA020F002027
:100D4800704710F1000F91EA030F58BF994208BF8E
:100D580090422CBFD8176FEAE37040F0010070474B
:100D68004FEA410C7FEA6C5C02D150EA013C07D1A2
:100D78004FEA430C7FEA6C5CD6D152EA033CD3D0ED
:100D88005DF8040B704700BF8446104662468C46E7
:100D98001946634600E000BF01B5FFF7B7FF00281A
:100DA80048BF10F1000F01BD4DF808EDFFF7F4FF43
:100DB8000CBF012000205DF808FB00BF4DF808EDCE
:100DC800FFF7EAFF34BF012000205DF808FB00BFF1
:100DD8004DF808EDFFF7E0FF94BF012000205DF813
:100DE80008FB00BF4DF808EDFFF7CEFF94BF0120C8
:100DF80000205DF808FB00BF4DF808EDFFF7C4FFC1
:100E080034BF012000205DF808FB00BF4FEA410C09
:100E18007FEA6C5C02D150EA013C0AD14FEA430CEC
:100E28007FEA6C5C02D152EA033C02D14FF0000029
:100E380070474FF00100704770B50E4B0E4D1B68A0
:100E48002A7806464FF47A70B0FBF2F0B3FBF0F064
:100E580000F052FE08B90F2E01D9012070BD0446DA
:100E6800024631464FF0FF3000F004FE6E60204627
:100E780070BD00BF080000200000002008B50B4B23
:100E88001A6842F400721A601A6842F480621A60A2
:100E98001A6842F480721A60032000F0D9FD00201D
:100EA800FFF7CAFF02F010F9002008BD003C02401D
:100EB800034A044B11681B780B441360704700BF4A
:100EC8000802002000000020014B1868704700BF8E
:100ED8000802002038B50446FFF7F6FF631C0546F4
:100EE80002D0044B1B781C44FFF7EEFF401BA042C6
:100EF800FAD338BD00000020002800F08E80F8B535
:100F0800036C0446002B7ED0236CDB0604D500233B
:100F1800012084F83C30F8BD226C4C4923684C4DC4
:100F280022F4885222F0020242F0020222644A6845
:100F380022F440324A604A68606802434A6058684E
:100F48002169A768E66820F4807058605A6842EA08
:100F580001225A60586820F0407058605968A06AA9
:100F680039435960996821F4006199609A68A842E8
:100F780042EA06029A6052D09968E56A21F07061E7
:100F880099609A6810439860996821F04051996077
:100F98009A682A439A609968A569206A21F0020133
:100FA80099609A6842EA45029A605A6800283FD1D7
:100FB80022F400625A60DA6AE569276B666922F4EE
:100FC8007002DA62D86A013D40EA0550D862986832
:100FD80020F400709860996841EA472199609968FF
:100FE80021F4806199609A68002042EA86229A601A
:100FF8006064236C23F0030343F00103236400239C
:1010080084F83C30F8BD436480F83C3002F0A6F820
:10101800236CDB063FF57BAF7EE7012070479A68BB
:1010280022F070629A609A6822F040529A60B2E7A1
:1010380042F40062616A5A605A6822F460425A6057
:101048005A68013942EA41325A60B4E70023014044
:101058000100000F704700BF704700BF38B5036834
:101068001A6859680446900701D58A0653D41A6845
:101078005968520701D50D061BD41A685968D0075C
:1010880001D54A0606D41A685968900601D54A015E
:1010980069D438BD1A68D507F5D5236C43F4803375
:1010A80023642046FFF7D6FF23686FF001021A6019
:1010B800E9E7226CD00603D4226C42F40052226481
:1010C8009A6812F4401F1ED19A6B12F4401F02D086
:1010D8009A68510517D45A68520514D49A6812F0C0
:1010E800405F10D1A26972B95A6822F080025A6032
:1010F800236C23F480532364236CDD0503D4236C11
:1011080043F001032364204600F0EAF823686FF0F7
:101118000C021A60B1E7226CD50603D4226C42F4A3
:10112800007222649A6812F0405F14D1A26992B9E1
:10113800DA6A12F4700F23D15A6822F020025A603A
:10114800236C23F480732364236CD90403D4236CA5
:1011580043F001032364204601F0B6FD23686FF0D5
:1011680012021A6083E7626C6FF0200542F00202F7
:10117800626420461D60FFF76FFF23681D6038BD5D
:101188009A685005E7D4D7E7F0B490F83C3082B0BD
:101198000022012B019200F08D800D688A68036897
:1011A8000124092DAFB280F83C4029D81C6905EB11
:1011B80045064FF0070C0CFA06FC24EA0C041C61E7
:1011C8001C6902FA06F626431E614E68062E06EBD7
:1011D80086022AD8596B053A1F24944021EA040153
:1011E8005963596B07FA02F20A435A63374A934222
:1011F8002DD0002380F83C30184602B0F0BC704770
:1012080007EB4706DC681E3E4FF0070C0CFA06FC9D
:1012180024EA0C04DC60DC6802FA06F62643DE6089
:101228004E68062E06EB8602D4D90C2E2DD8A2F1D4
:1012380023041F211A6BA14022EA01021A63196BC9
:1012480007FA04F20A431A63204A9342D1D1122DB5
:1012580029D01F4B9D4231D11E491F4B4A681F4C54
:1012680042F400024A601B68A4FB03239B0C03EBB7
:1012780083035B000193019B002BBAD0019B013BC8
:101288000193019B002BF9D1B3E7A2F141011F247F
:10129800DA6A8C4022EA0402DA62DC6A07FA01F2AE
:1012A8002243DA62A2E7D2F8043343F48003C2F897
:1012B80004339EE7022002B0F0BC7047112D98D18C
:1012C800044A536843F40003536092E70020014046
:1012D80012000010002301400800002083DE1B4399
:1012E800704700BF00287CD038B590F820300446FD
:1012F800002B73D02268136823F002031360FFF7F2
:10130800E3FD054604E0FFF7DFFD401B0A285CD833
:1013180023685A689107F6D41A6842F001021A60E5
:10132800FFF7D2FD054604E0FFF7CEFD401B0A2873
:101338004BD823685A68D207F6D5227E012A1A6844
:101348000CBF42F0800222F080021A60627E012AFD
:101358001A680CBF42F0400222F040021A60A27ED6
:10136800012A1A680CBF42F0200222F020021A60FB
:10137800E27E012A1A680CBF22F0100242F0100225
:101388001A60227F012A1A680CBF42F0080222F074
:1013980008021A60627F012A1A680CBF42F0040230
:1013A80022F004021A60D4E90221D4E904500A4365
:1013B80061682A43024301390A4301250021DA61A1
:1013C8000846616284F8205038BD636A052243F4F8
:1013D80000336362012084F8202038BD01F006FF45
:1013E80088E70120704700BF90F82030012B09D012
:1013F80090F82030022B05D0436A43F480234362DF
:10140800012070473B4BD3F8002242F00102F0B4B0
:10141800C3F80022D3F8002222F47C52C3F8002239
:10142800D3F80022486A42EA0022C3F800224A6937
:10143800D3F81C5201209040C4432540C3F81C52E5
:10144800CD69002D39D1D3F80C522540C3F80C5280
:10145800D200CF688D888E680B8802F1804202F531
:10146800C84245EA074543EA0643C2F84052C2F873
:1014780044328B691F4A002B35D1D2F804322340FD
:10148800C2F804320B693BBB1A4BD3F81422144040
:10149800C3F814420B6A012B05D1164AD2F81C3244
:1014A8001843C2F81C02134AD2F8003223F0010391
:1014B8000020C2F80032F0BC7047012DD9D1D3F812
:1014C8000C520543C3F80C52D20002F180420F6857
:1014D8008D888E688B89C2E7064AD2F81432034396
:1014E800C2F81432D6E7D2F804320343C2F8043201
:1014F800C8E700BF0064004038B590F82030012BE1
:1015080005D0436A43F400234362012038BD0268D2
:10151800022380F82030136823F001031360044687
:10152800FFF7D2FC054604E0FFF7CEFC401B0A2873
:1015380007D823685B6813F00103F5D16362184686
:1015480038BD636A052243F400336362012084F8DE
:10155800202038BD70B490F82040012C0AD090F8B3
:101568002040022C06D0436A43F4802343620120C2
:1015780070BC70470468A5686D012DD5A068012569
:10158800C0F3016085401D608B688BBB0E68CD6819
:1015980000F118031B0145EA4655E5500D7D096920
:1015A80000012318012DC3F8841105D1D3F8841143
:1015B80041F48071C3F8841104445168C4F88C1153
:1015C8001268C4F88821D3F8802142F00102002073
:1015D800C3F8802170BC7047A5682E01CED4A568D9
:1015E800ED00CBD4436A43F4001343620120BFE704
:1015F800CD684E682B4300F118052D0143EAC60358
:101608006351CBE790F82030012B05D090F82030BB
:10161800022B01D000207047036898689A689B687D
:101628001201C0F3806048BF0130DB00F3D5013000
:10163800704700BF90F82030012B05D090F820307B
:10164800022B01D00020704703689B68890631EAA5
:10165800030314BF01200020704700BF2DE9F041AB
:10166800044690F8200001280AD094F820000228A7
:1016780006D0636A43F4802363620120BDE8F081E9
:101688002668002956D1F068850763D00801351807
:10169800D5F8B07107F004079760002F55D0D5F83A
:1016A800B071FF085760D5F8B0E1D5F8B4C1D5F8E6
:1016B800B471D5F8B4510644CEF3400ED6F8B881CB
:1016C800C7F307270CF00F062D0CC2E903E6C2E9A1
:1016D800055783F8008022680244D2F8B821120A1C
:1016E8005A7022680244D2F8B821120C9A70226803
:1016F8000244D2F8B821120EDA7022680244D2F8F5
:10170800BC211A7122680244D2F8BC21120A5A710B
:1017180022680244D2F8BC21120C9A712268104443
:10172800D0F8BC21120EDA71D9B1012921D00020DC
:10173800BDE8F0810129A9D130698007A6D1636A83
:1017480043F400130846636298E7D5F8B0717F0D3B
:101758001760A8E7636A43F4001363620120BDE8D9
:10176800F0812268D36843F020030846D360BDE8BF
:10177800F0812268136943F02003136100207DE79C
:1017880090F82030012B05D090F82030022B01D0A2
:1017980000207047036819B1186900F0030070470A
:1017A800D86800F00300704790F82030012B09D06A
:1017B80090F82030022B05D0436A43F4802343621B
:1017C800012070470268536919435161002070472E
:1017D800704700BF704700BF704700BF704700BF29
:1017E800704700BF704700BF704700BF704700BF19
:1017F800704700BF704700BF704700BF704700BF09
:101808002DE9F84F03685C69D3F804809F68D3F822
:101818000CB0D3F81090D3F818A014F001060546C0
:1018280025D017F0010640F09C804FF400524FF489
:101838008041F8050DD52B684FF480709860BB0582
:1018480000F1C780780500F1D7803A0540F1E880BB
:101858000E46FB030BD52B684FF48032B8039A6011
:1018680000F1B380790340F1C98046F400462307AC
:1018780002D51BF0100F6ED1670702D51BF0080FB9
:101888007FD1A00704D52B68DB68990740F08E80CC
:10189800620602D519F0100F57D1A30603D519F027
:1018A800080F40F08780E70604D52B681B69980766
:1018B80040F08780A10302D518F0100F68D1E20329
:1018C80002D518F0080F6AD1230435D518F0040F93
:1018D8002B682FD0E70504D51AF0010F18BF46F082
:1018E8000106A00504D51AF0020F18BF46F002063B
:1018F800610504D51AF0040F18BF46F00406220546
:1019080018D51AF0700A15D0BAF1300F00F0968089
:1019180079D9BAF1500F00F08E80BAF1600F00F05B
:101928009080BAF1400F01D146F040069A6922F042
:1019380070029A6104225A602EB16B6A1E436E626D
:101948002846FFF75BFFBDE8F88F2B68102246F4A6
:1019580080661A61A1E72B68102246F40076DA60E7
:101968008AE701229A60BB0737D47E073DD417F077
:10197800080659D04FF440524FF4A0414FF4805616
:1019880057E72B680822DA60284601F061FB78E700
:101998002B6810225A602846FFF72CFF8FE72B6828
:1019A80008225A602846FFF727FF8DE72846FFF7E9
:1019B8001BFF6DE72B6808221A612846FFF718FFFE
:1019C80071E72846FFF712FF74E72846FFF704FF80
:1019D8004DE72846FFF7FEFE3BE7FFF7F9FE002636
:1019E8004FF400524FF4804123E74FF420524FF454
:1019F80090414FF400661CE716462AE73A030BD5D8
:101A080046F4803633E7BAF1100F1DD0BAF1200F33
:101A18008CD146F0100689E72846FFF7E3FE26E753
:101A28002846FFF7DDFE14E7FFF7D8FE4FF4005213
:101A38004FF48041FDE646F0800677E746F0200641
:101A480074E746F4807671E746F008066EE700BF53
:101A5800074AD3684FF6FF010B40000243F0BF630B
:101A680000F4E06043F400330343D360704700BFE1
:101A780000ED00E0184BDB68C3F3022330B4C3F178
:101A88000705042D03F1040428BF0425062C19D9E1
:101A9800033B4FF0FF349C4022EA04044FF0FF322E
:101AA800AA4021EA020101FA03F2224312010028A6
:101AB800D2B20ADB00F1604000F5614080F80023F3
:101AC80030BC704700242346E8E7044B00F00F00C1
:101AD80003441A7630BC704700ED00E0FCEC00E0EF
:101AE80000F01F0101234009024A8B4042F82030D0
:101AF800704700BF00E100E00138B0F1807F0ED2EE
:101B0800084B10B4084C5860F02084F823000022D9
:101B1800072110469A6019605DF8044B7047012050
:101B2800704700BF10E000E000ED00E0044A1368D1
:101B380004280CBF43F0040323F004031360704728
:101B480010E000E0704700BF08B5FFF7FBFF08BDD5
:101B5800F8B50446FFF7B8F9002C54D002222368E0
:101B680084F835201A68002122F0010284F8341024
:101B780005461A6005E0FFF7A7F9401B05283BD882
:101B880023681A68D107F6D4D4E90126D4E90351A9
:101B9800324360691F682A43D4E906650A43024351
:101BA800216A354832432A430A43616A3840042986
:101BB80042EA000229D01A605A6922F0070211434A
:101BC800DAB22E485961103AA0FB021212092C49C8
:101BD80023F47F73895CE16523F00303032A88BF3C
:101BE80004333F228A4001250021A36508469A60F4
:101BF800616584F83550F8BD0323202262651846D4
:101C080084F83530F8BD0120F8BDD4E90B01014353
:101C18000A43A56A1A605A6945F0040122F00702CE
:101C280011430028CCD07EB1B6F5005F16D0022D46
:101C380003D9032DC4D1C201C2D501234022626554
:101C4800184684F83530F8BD012D03D0F3D3022DA2
:101C5800B6D1F0E7B0F1C07FB2D1EEE7032DAFD82F
:101C680001A252F825F000BF431C00083F1C0008E1
:101C7800431C00085D1C00083F8010F0ABAAAAAA0C
:101C8800304F0008F0B583B00023876D0193C36D12
:101C98003D68654908229A402A4204460E6803D0E6
:101CA80001680868400759D401229A402A4203D0A3
:101CB80021684969080674D404229A402A4203D04C
:101CC80021680968890766D410229A402A4203D0FD
:101CD8002168086800074BD420229A402A4214D071
:101CE80021680868C00610D5BA6094F83520052A1E
:101CF80063D00B6813F4802F0B687ED0190340F172
:101D08008980E36B0BB120469847636D23B3636DFD
:101D1800DA071AD50523226884F835301368434951
:101D280023F00103A1FB06161360B60A02E013684C
:101D3800DB0704D5019B0133B3420193F7D9002295
:101D4800012384F8342084F83530E36C23B120462D
:101D580003B0BDE8F040184703B0F0BD086820F0B4
:101D680004000860BA60626D42F0010262659BE798
:101D7800BA600A6812F4802F0A6818D1D20503D411
:101D88000A6822F008020A60226C002AA4D02046C1
:101D98009047E36DA0E7BA60626D42F004026265A5
:101DA80092E7BA60626D42F00202626584E711034D
:101DB800EAD5A26C002AEAD18EE70A68206C22F0E4
:101DC80016020A604A6922F080024A6138B30A683A
:101DD80022F008020A603F22216D02FA03F3002074
:101DE8000122BB6084F8340084F835200029B3D080
:101DF800204603B0BDE8F040084713F4807380D153
:101E08000A68012022F010020A6084F8343084F84D
:101E1800350076E7636C002B7FF475AF75E7A26C2D
:101E2800002AD4D1D7E700BF08000020B5814E1B97
:101E38002DE9F04FDFF814C2DFF81482D1F800E082
:101E480083B0002503E00135102D00F094800123B4
:101E5800AB400EEA0304A342F5D14E6826F0100AFF
:101E6800BAF1020F00F08A804FEA45090322D0F840
:101E780000B002FA09F2D24306F0030702EA0B0B9C
:101E880007FA09F70AF1FF3A47EA0B07BAF1010F17
:101E9800076040F29980C7688B683A4003FA09F3F3
:101EA8001343C360F300CED500230193D8F8443020
:101EB80043F48043C8F84430D8F8443025F003028E
:101EC80002F1804203F4804302F59C32019305F04D
:101ED8000307019BD2F80890BF000F23BB4029EAF3
:101EE800030A544B98421ED003F5806398427ED073
:101EF800514B984200F08280504B984200F0858008
:101F08004F4B984200F088804E4B984200F08B80EF
:101F18004D4B98420CBF4FF006094FF0070909FADC
:101F280007F74AEA070AC2F808A0DCF80030E243DB
:101F3800F70354BF13402343CCF80030DCF80430D7
:101F4800B70354BF13402343CCF80430DCF80830FF
:101F5800F70254BF13402343CCF80830DCF80C30A8
:101F6800B60205F1010554BF13402343102DCCF8E8
:101F78000C307FF46CAF03B0BDE8F08F4FEAD509A1
:101F880000EB890905F00707D9F82020BF004FF0BA
:101F98000F0B0BFA07FB22EA0B0A0A69BA4042EA5E
:101FA8000A02C9F820204FEA45090322D0F800A008
:101FB80002FA09F2D24306F0030702EA0A0A07FA0C
:101FC80009F747EA0A070760876807EA020ACF683D
:101FD80007FA09F747EA0A078760D0F804A0C6F3AA
:101FE80000172AEA0303AF401F43476053E74FF047
:101FF800010909FA07F74AEA070A94E74FF00209C4
:1020080009FA07F74AEA070A8DE74FF0030909FAC0
:1020180007F74AEA070A86E74FF0040909FA07F7BB
:102028004AEA070A7FE74FF0050909FA07F74AEA7B
:10203800070A78E70000024000080240000C02404E
:10204800001002400014024000180240003C014009
:102058000038024002B909048161704760B1484AFA
:10206800136803F00F038B4208D2CBB213701368C6
:1020780003F00F038B4201D00120704703682DE95C
:10208800F0419D0714D55C0704D53E4CA26842F484
:10209800E052A2601A0704D53A4CA26842F46042A2
:1020A800A260384C8568A26822F0F0022A43A26038
:1020B800DF0704460D4622D54268012A56D0931EF2
:1020C800012B304B1B6858D9990725D52D4EB3687D
:1020D80023F003031343B360FEF7F6FE41F288379B
:1020E800804605E0FEF7F0FEA0EB0800B84242D8B3
:1020F800B368626803F00C03B3EB820FF2D1204A95
:10210800136803F00F03AB4209D9EBB213701368DD
:1021180003F00F03AB4202D00120BDE8F081236831
:102128005A0706D51749E0688A6822F4E052024344
:102138008A601B0711D400F051F8124B12499B68B2
:10214800124AC3F30313CB5C20FA03F30020136095
:10215800FEF772FE0020BDE8F0810A4A2169936803
:1021680023F4604343EAC1039360E4E7054B1B682B
:102178009E03ABD4D0E70320EDE79801A6D4CBE7C4
:10218800003C024000380240384F00080800002098
:10219800014B1868704700BF08000020044B054A2F
:1021A8009B680549C3F382230868D35CD84070470D
:1021B80000380240484F000808000020044B054A38
:1021C8009B680549C3F342330868D35CD84070471D
:1021D80000380240484F000808000020284908B588
:1021E8008B6803F00C03082B07D00C2B1DD0254A55
:1021F8002548042B18BF104608BD4A684B6813F4DD
:10220800800302F03F0230D149681E48C1F38811AB
:10221800A1FB0001FEF7EAFB194B5B68C3F301431E
:1022280001335B00B0FBF3F008BD4A684B6813F458
:10223800800302F03F020ED149681248C1F38811A9
:10224800A1FB0001FEF7D2FB0D4B5B68C3F30273E1
:10225800B0FBF3F008BD4B680B48C3F38813A3FB2E
:1022680000010023FEF7C2FBEEE74B680648C3F304
:102278008813A3FB00010023FEF7B8FBCCE700BFDF
:10228800003802400024F40000127A002DE9F041E1
:102298000368DA0782B0044636D5AE498A6802F088
:1022A8000C02042A00F0D2808A6802F00C02082A84
:1022B80000F0C880A7498A6802F00C020C2A00F0D6
:1022C80004816368B3F5803F00F00481B3F5A02F63
:1022D80000F060819F4D2A6822F480322A602A68C3
:1022E80022F480222A60002B40F0F980FEF7ECFDF2
:1022F800064605E0FEF7E8FD801B642800F20D8124
:102308002B689903F6D423689A072FD5914A9168C8
:1023180011F00C0F00F0AB80916801F00C01082956
:1023280000F0A1808B498A6802F00C020C2A00F0A8
:102338002C81E368002B00F01781874B854D012223
:102348001A60FEF7C1FD064605E0FEF7BDFD801BDD
:10235800022800F2E2802B689807F6D52B682269DC
:1023680023F0F80343EAC2032B6023681A0715D544
:102378006369002B00F08D80784B764D01221A603E
:10238800FEF7A2FD064605E0FEF79EFD801B02282B
:1023980000F2C3806B6F9B07F6D52368580731D5C9
:1023A8006C4A136C13F0805300F0838000266C4D48
:1023B8002A68D10540F1A180A368012B00F0B18003
:1023C800052B00F0F780634D2A6F22F001022A677F
:1023D8002A6F22F004022A67002B40F0A780FEF73C
:1023E80073FD41F28837804606E0FEF76DFDA0EBED
:1023F8000800B84200F291802B6F9807F5D4002EA0
:1024080040F0D280A269CAB1524DA96801F00C010E
:10241800082924D0022A534A4FF00001116000F025
:10242800D380FEF751FD2C46054604E0FEF74CFD2F
:10243800401B022871D823689B01F7D4002002B002
:10244800BDE8F0814A6857027FF534AF414A126807
:1024580095037FF559AF6268002A7FF455AF0120D4
:1024680002B0BDE8F081526857023FF55BAF394AC8
:102478001268950702D5E268012AF0D1354920692A
:102488000A6822F0F80242EAC0020A601A0785D5F3
:102498006EE7324A2F4D1360FEF716FD064604E03C
:1024A800FEF712FD801B022837D86B6F9F07F7D401
:1024B80073E70193136C43F080531364136C03F0B8
:1024C80080530193019B012671E74A6856027FF504
:1024D800F8AEBBE71F4A136843F480331360FEF776
:1024E800F3FC1C4D064604E0FEF7EEFC801B642856
:1024F80013D82B689803F7D505E72A6842F4807249
:102508002A60FEF7E1FC07462B68DA053FF554AF71
:10251800FEF7DAFCC01B0228F6D9032002B0BDE89A
:10252800F0810C4A136F43F001031367FEF7CCFCEC
:10253800084D804641F2883705E0FEF7C5FCA0EB60
:102548000800B842E9D82B6F9B07F6D5002E3FF458
:1025580059AF29E00038024000004742800E474248
:1025680000700040600047422F4A304D1360FEF76C
:10257800ABFC064604E0FEF7A7FC801B0228CCD87B
:102588002B689907F7D42368F0E64A6856023FF5A6
:10259800D0AE6CE7254B1A6842F480221A601A689C
:1025A80042F480321A609AE7204A136C23F0805371
:1025B800136427E71D4B1A6F42F004021A671A6F5B
:1025C80042F001021A67B1E7FEF77EFC064604E016
:1025D800FEF77AFC801B02289FD82B689901F7D454
:1025E800D4E90732666AE06A216B1343A26A0F4C8A
:1025F80043EA861343EA0063520843EA0173013A47
:102608000B4943EA024301226B600A60FEF75CFC57
:10261800054605E0FEF758FC401B02283FF67DAF53
:1026280023689A01F6D509E70000474200380240BE
:102638006000474200283BD090F85120002370B535
:1026480002F0FF010446836262B31846D4E90135FB
:10265800D4E903212B4313436269E569266A0B43D6
:102668001343A26921682B43022584F85150334350
:1026780002F400750E682B43120C656A02F004021E
:1026880003432A4326F040060E600B604A60CB697C
:10269800002223F400630125CB611046626584F8AB
:1026A800515070BD80F8501000F0D4FDA06ACDE7FD
:1026B80001207047002800F004812DE9F84390F8C4
:1026C8003930044603F0FF02002B00F0F580236840
:1026D8002669242284F83920D86820F40050D4E9E7
:1026E8000225D8601969E06921F44051294319612C
:1026F800D9686569324321F416412A4321F00C0157
:1027080002430A43DA605A69A16922F440720A4313
:10271800B0F5004F5A61AA4A71D0934200F0D380B5
:1027280002F58062934200F0CE80FFF737FDA54F97
:10273800636800EB800000EB80009B00B0FBF3F3C4
:10274800A7FB03235B091D01FFF728FD666800EB63
:10275800800000EB8000B600B0FBF6F6FFF71EFD28
:10276800636800EB800000EB80009B00B0FBF3F394
:10277800A7FB03235B094FF0640909FB13631B01E3
:102788003233A7FB03235B0903F0F006FFF706FDCE
:10279800626800EB800000EB80009300B0FBF3F868
:1027A800FFF7FCFCD4E9002100EB80008B0000EB74
:1027B8008000B0FBF3F3A7FB03135B0909FB13834A
:1027C8001B013233A7FB0313C3F3431333432B44D7
:1027D8009360136923F490431361536923F02A0328
:1027E8005361D3680025202143F40053D360284661
:1027F800E56384F8391084F83A10BDE8F883934209
:1028080000F09F8002F58062934200F09A80FFF703
:10281800C5FC6C4F636800EB800000EB80005B0038
:10282800B0FBF3F3A7FB03235B091E01FFF7B6FC1C
:10283800656800EB800000EB80006D00B0FBF5F5EB
:10284800FFF7ACFC636800EB800000EB80005B00E6
:10285800B0FBF3F3A7FB03235B094FF0640909FB03
:102868001353DB003233A7FB03231B0903F4F8756A
:10287800FFF794FC626800EB800000EB80005300D7
:10288800B0FBF3F8FFF78AFCD4E9002100EB8000E5
:102898004B0000EB8000B0FBF3F3A7FB03135B09CD
:1028A80009FB1383DB003233A7FB0313C3F3421383
:1028B80033442B4493608CE780F8382000F0F2FC16
:1028C80005E701207047FFF779FC3E4F636800EB8E
:1028D800800000EB80009B00B0FBF3F3A7FB032311
:1028E8005B091D01FFF76AFC666800EB800000EBDE
:1028F8008000B600B0FBF6F6FFF760FC636800EBFB
:10290800800000EB80009B00B0FBF3F3A7FB0323E0
:102918004FF064095B0909FB13631B013233A7FB02
:1029280003235B0903F0F006FFF748FC626800EB3D
:102938008000930000EB8000B0FBF3F8FFF73EFC4B
:1029480030E7FFF73BFC1F4F636800EB800000EBAC
:1029580080005B00B0FBF3F3A7FB03235B091E01B8
:10296800FFF72CFC656800EB800000EB80006D0031
:10297800B0FBF5F5FFF722FC636800EB800000EB85
:1029880080005B00B0FBF3F3A7FB03234FF064095F
:102998005B0909FB1353DB003233A7FB03231B0935
:1029A80003F4F875FFF70AFC626800EB8000530037
:1029B80000EB8000B0FBF3F8FFF700FC64E700BF12
:1029C800001001401F85EB51F0B50E4690F8391004
:1029D800202983B02DD1002E2ED0019262B31F463C
:1029E80090F83830012B044623D00023C36301211B
:1029F800212380F8381080F83930FEF765FA019AFB
:102A0800A284E28422680546E38C9BB2002B39D06D
:102A1800E08CA168013880B2B1F5805FE08419D0FC
:102A2800781C3BD110680106FCD533785360013619
:102A3800EAE7022003B0F0BD012003B0F0BD13683F
:102A48001B060CD4002F33D0FEF73EFA401B8742FA
:102A580022682DD3781CF2D110680106FCD5338882
:102A68002169C3F3080353600029E0D10236CBE79C
:102A780013685B060BD4DFB1FEF726FA401B8742CA
:102A8800226815D3781CF3D113685906FCD5202386
:102A9800002084F8393084F83800CBE713681B0627
:102AA800C3D42FB1FEF710FA401B87422268B7D271
:102AB800D36823F4D073D3605369202123F0010332
:102AC80000250320536184F8391084F8385084F8BD
:102AD8003A1003B0F0BD00BF90F83A30202B1CD15B
:102AE800E9B1E2B190F83830012B16D030B40023A8
:102AF8000468C2852225C36380F83A5065698285D7
:102B080045F00105816280F838306561E26842F479
:102B180090721846E26030BC70470220704701206E
:102B2800704700BF10B5D0E9001288B000230446F2
:102B3800806902910692CDE904338DF81C30FEF7C6
:102B480061FD10B9002008B010BD0121A069FEF791
:102B580071FD0028F6D101AB04F10802A06902A9B1
:102B6800FEF7F8FC012008B010BD00BF10B5002129
:102B780088B004468069FEF703FE30B104F1100303
:102B8800A06901AA0021FEF769FD019808B010BDEF
:102B9800F8B54FF41652404D404E42600C4628603E
:102BA800FFF788FD31461422C8232868FFF70CFF79
:102BB8004FF4FA70FEF78EF928684FF461434360CA
:102BC800FFF778FD31461422C8232868FFF7FCFE7A
:102BD8004FF4FA70FEF77EF928684FF4E13343604A
:102BE800FFF768FD3146C823142228682C4EFFF7EA
:102BF800EBFE4FF4FA70FEF76DF92A492868C823EE
:102C08001122FFF7E1FE4FF4FA70FEF763F9264947
:102C18002868C8233322FFF7D7FE4FF4FA70FEF76F
:102C280059F9224B224A1868206003CAB3F804C035
:102C38009F79204BDFF888E0E06021611288A2824A
:102C480003CBBEF80020A4F804C0A283DFF874C048
:102C5800194AE0622163306819889B78A77184F863
:102C68003630B788BCF80030E064B6791068A387BE
:102C7800A065A186A4F8507084F852609188927972
:102C8800A4F85C1084F85E2028680C490122FFF73C
:102C980023FF0120F8BD00BF34040020544F000872
:102CA800DC4F00086C4F0008804F0008B44F000844
:102CB800BC4F0008CC4F0008E44F00080C0400206B
:102CC800C84F0008D84F0008024A034B12681A6020
:102CD800704700BFE80600207405002070B594B066
:102CE8000020284A0090116C274B41F08051116454
:102CF800126C02F080520092009A01901A6842F415
:102D080040421A601B68012003F4404302240193E7
:102D18004FF4A0254FF4800108224FF490730790D8
:102D280007A8019E08950D94CDE911441394CDE9A7
:102D38000E121093FFF7AAFA00B1FEE702464FF40D
:102D4800A0530F25042102A8CDE903420295CDE93D
:102D58000533FFF783F9044600B1FEE7FFF718FAD9
:102D68004FF47A73B0FBF3F0FEF7C6FE0420FEF7CB
:102D7800DDFE224621464FF0FF30FEF77BFE14B001
:102D880070BD00BF00380240007000402DE9804847
:102D98009A48DFF8B4829A4A9A4D9B4E9B4B9C49BD
:102DA800DFF8A8B285618DB000244FF400794FF4A4
:102DB800807A404653630193A2F83890C2F83CB039
:102DC800A2F840A0FFF7E4FEFEF758F8FFF786FFE9
:102DD8000394326B019B42F080023263326B02F043
:102DE80080020392039A0494326B42F00102326328
:102DF800326B02F001020492049A0594326B42F09D
:102E080002023263326B02F002020592059A0694BE
:102E1800326B42F004023263326B02F0040218464D
:102E2800069249462246069FFFF714F92246514664
:102E38005846FFF70FF9019BCDF81C90184601275B
:102E480007A9CDE909440897FEF7F2FF584607A9F4
:102E5800CDE907A7CDE90944FEF7EAFF0294336BF1
:102E680043F480033363336B03F480032246214623
:102E780002933820029BFEF7FDFD3820FEF730FE56
:102E8800644B65499C604FF4E1320C261846C3E94F
:102E98000344C3E90644C3E900125E61FFF70AFC74
:102EA80000B1FEE75D4AA8600223E86028776877EA
:102EB8004FF430212A606B604FF480024FF4803366
:102EC80028462961C5E90523FEF70CFA00B1FEE79B
:102ED800534B544CC3F81890C3E90200C3E90400EB
:102EE8004FF48271C3E90700C3E909000A221846B2
:102EF8001C605960DA62FFF79DFB00B1FEE74A4C9F
:102F08004A4B4B4A2062C4E90100E062E060204677
:102F1800A3622761A761E761276367612260FDF704
:102F2800EBFF034600B1FEE7082207A92046CDE9DA
:102F380008730792FEF728F900B1FEE73D4AC8E991
:102F48000200C8E904064FF41653C8E906004046D3
:102F5800C8E90023FFF7AEFB044600B1FEE70246CE
:102F680001461320FEF786FD1320FEF7B9FD224621
:102F780021461420FEF77EFD1420FEF7B1FD2246FF
:102F880021461520FEF776FD1520FEF7A9FD2246FD
:102F980021461620FEF76EFD1620FEF7A1FD2246FB
:102FA80021461220FEF766FD1220FEF799FD224BFE
:102FB8002248234A9C611946C3E90044C3E90244F4
:102FC800C3E90444DC611F621E4E40F6C773036008
:102FD80040F6C7144FF4C063284613603460FEF708
:102FE80003FA2846FEF788FA14212846FEF7DCFB88
:102FF80028461521FEF7D8FBFEE700BFF0030020A6
:1030080030020020C00600200038024000080240BC
:10301800A004002080060020004400400064004016
:1030280028060020003001402C0500200100000F78
:103038000020014000100140040500209C040020ED
:1030480024060020C0050020800500200000024062
:1030580070B5174C2046FFF789FDBB2800D070BD1E
:10306800238A022B0DD0134DB3F5817F15D0124E54
:1030780033682968114A5B1A002BB8BF5B4213609A
:1030880070BD0F4A0B4D1268A36020460023E36011
:103098002A60FFF747FD238AE6E7094A064E1268C9
:1030A800A360034832600023E360FFF73BFDDFE7DE
:1030B800F0030020C00500209C0400202406002006
:1030C80074050020FEE700BF10B582B00024224B33
:1030D80000945A6C42F480425A645A6C02F480425A
:1030E8000092009A01941A6C42F080521A641B6C88
:1030F80003F0805301930320019BFEF7A9FC2246AD
:1031080021466FF00B00FEF7B5FC224621466FF012
:103118000A00FEF7AFFC224621466FF00900FEF7D1
:10312800A9FC224621466FF00400FEF7A3FC2246C4
:1031380021466FF00300FEF79DFC224621466FF002
:103148000100FEF797FC224621464FF0FF3002B0FF
:10315800BDE81040FEF78EBC003802401E4B0268E6
:103168009A4200D0704770B586B0002603F58C33BC
:1031780000965A6C194C42F480725A645B6C039640
:1031880003F480730093012203230099019201A99B
:10319800054613480293FEF74BFE124820604FF491
:1031A80080614FF400624FF4005320466660C4E922
:1031B8000266C4E907666662C4E90412A361FEF701
:1031C800C7FC18B9AC63A56306B070BD7521064885
:1031D800FFF778FFF6E700BF00200140C405002094
:1031E8000004024010640240EC4F00080268174BCC
:1031F8009A4200D07047F0B587B0002703F5EA334C
:1032080000971A6C124842F000721A641B6C03F0A3
:10321800007300934FF4006201A9022601230325DD
:10322800009C01920924CDE90263CDE90454FEF71C
:10323800FFFD4FF4805301A905480193CDE90267CA
:10324800CDE90454FEF7F4FD07B0F0BD006400407A
:10325800000002400268114B9A4200D0704770B5D6
:1032680086B0002103F5843300915A6C0C4842F46F
:1032780080525A645B6C039103F4805300930322D9
:103288000523E025022401A9009ECDE90154CDE9DA
:103298000423FEF7CDFD06B070BD00BF003001402D
:1032A8000000024070B503681D4A934288B020D0E0
:1032B8001C4A934201D008B070BD1B4B1B4800222A
:1032C80002921A6C42F400321A641B6C03F4003345
:1032D80002930C21029E0391022501240322072355
:1032E8006944CDE90454CDE90623FEF7A1FD08B0F1
:1032F80070BD0D4B0D48002201925A6C42F010022D
:103308005A645B6C03F0100301934FF4C06103919E
:103318000225012403220723019E03A9E1E700BF38
:103328000010014000440040003802400000024004
:10333800704700BFFEE700BFFEE700BFFEE700BF23
:10334800FEE700BF704700BF704700BF704700BF6F
:1033580008B5FDF7ADFDBDE80840FEF7F5BB00BFB9
:103368000148FDF77BBE00BF2C0500200148FEF791
:1033780047BA00BFC00600200148FEF741BA00BFA7
:10338800C00600200148FEF73BBA00BFC006002077
:103398000148FEF735BA00BFC00600200148FEF715
:1033A80071BC00BFC40500201049114BD1F888201A
:1033B80042F4700210B4C1F888201A680D4C00203D
:1033C80042F001021A6098601A6822F0847222F4AE
:1033D80080321A605C601A684FF0006422F4802220
:1033E8001A60D8608C605DF8044B704700ED00E00F
:1033F8000038024010300024DFF834D0002103E008
:103408000C4B5B58435004310B480C4B42189A4202
:10341800F6D30B4A02E0002342F8043B094B9A42D8
:10342800F9D3FFF7C1FF00F011F8FFF7AFFC7047C1
:10343800000002204852000800000020DC010020A3
:10344800E0010020F8060020FEE7000070B50D4EF0
:103458000D4CA41BA4100025A54209D10B4E0C4C01
:1034680001F054FDA41BA4100025A54205D170BD90
:1034780056F8253098470135EEE756F82530984735
:103488000135F2E740520008405200084052000857
:1034980044520008024B0146186800F00BB800BF00
:1034A8000C00002002440346934200D1704703F801
:1034B800011BF9E770B5CD1C25F0030508350C2D67
:1034C80038BF0C25002D064601DBA94203D90C2381
:1034D8003360002070BD01F012FA214A14682146B9
:1034E80091B9204C23681BB9304600F087FB206057
:1034F8002946304600F082FB431C24D10C2333605C
:10350800304601F0FDF9E4E70B685B1B18D40B2B80
:103518000FD90B60CD50CC18304601F0F1F904F109
:103528000B00231D20F00700C31AD3D05A42E250E3
:10353800D0E78C424B6816BF636013600C46EBE71C
:103548000C464968CCE7C41C24F00304A04205D00B
:10355800211A304600F052FB0130CFD02560DBE75E
:10356800FC010020000200202DE9FF4755EC104B1C
:103578000D9FDDF830A0002D0E4691461946B8BFC4
:1035880022462B4627F02007BBBF05F100431D4606
:1035980000232D23B8BF1446462F0B7004D0452FA7
:1035A80000D10136022100E0032103AB019302ABF5
:1035B80000933246534645EC104B00F0BDFB472FB5
:1035C800804602D119F0010F26D0462F08EB0609D4
:1035D80011D198F80030302B0AD100220023204660
:1035E8002946FDF7E1FB18B9C6F10106CAF80060E3
:1035F800DAF8003099440022002320462946FDF7D6
:10360800D3FB38B93022039B4B4505D2591C039193
:103618001A70F8E7CDF80C90039B0E9AA3EB0803F9
:103628004046136004B0BDE8F087F7B500290446AA
:10363800BABF49422D232B23092904F8022B4370D2
:1036480020DD0DF107031F460A2691FBF6F506FB60
:1036580015113031092D03F8011C03F1FF322946F9
:1036680009DC3031023B02F8011CBB42224604D37C
:10367800101A03B0F0BD1346E7E713F8012B04F85E
:10368800012BF2E7302319448370021DC170EFE764
:103698002DE9F04F8DB00C46DDF8588016461F46D0
:1036A800054601F001F9036804931846FDF71EFB6F
:1036B80000230A93D8F800300590073323F0070356
:1036C80003F1080294F818A0D4F800B0C8F8002054
:1036D800D3E90023C4E91223D4E9128929F000436D
:1036E8000793CDF818804FF0FF32A74BDDE90601AC
:1036F800FDF78CFB70BB4FF0FF32A34BDDE90601F1
:10370800FDF766FB30BB0022002340464946FDF723
:1037180055FB10B12D2384F843309C4A9C4BBAF1D9
:10372800470F8CBF9046984603232BF00402236171
:1037380022604FF00009009733460BAA214628461D
:1037480000F0E6F9013040F08D804FF0FF300DB009
:10375800BDE8F08F42464B4640464946FDF756FBCA
:1037680010B18C4A8C4BDAE761684B1C4BF48062D1
:103778000AA83ED1062363600023CDE9020309AB02
:10378800009349EC108B0DF123032260CDF804A0BF
:1037980061682846FFF7E8FE0AF0DF03472B8046FA
:1037A80009D1099BD81C02DB6268934247DDAAF164
:1037B800020A5FFA8AFABAF1650F099924D8013921
:1037C800524604F150000991FFF72FFF0A9A131887
:1037D800012A8146236102DC2268D10701D5013321
:1037E80023619DF82330002BA5D02D2384F8433086
:1037F800A1E7BAF1670F00F07781BAF1470FBBD1A3
:103808000029B9D10123B6E7BAF1660F19D1002909
:1038180063680CDD216113B92268D20702D5013330
:103828000B442361099BA3654FF00009D9E713B93D
:103838002268D00701D50233F3E70123F1E74FF0FF
:10384800670ADDE90932934205DB22682361D10763
:10385800E8D50133E5E7002BD4BFC3F10203012308
:103868001344DEE723685A0507D4236942463146E4
:103878002846B84701302BD167E7BAF1650F40F207
:10388800DC8000220023D4E91201FDF78DFA00281C
:1038980033D00123414A31462846B84701303FF426
:1038A80054AFDDE909239A4202DB2368D8070FD514
:1038B800DDE9042331462846B84701303FF445AFD7
:1038C8004FF0000804F11A090A9B013B434509DC43
:1038D80023689B0700F10381E0680B9B9842B8BFFF
:1038E800184634E701234A4631462846B84701308E
:1038F8003FF42BAF08F10108E6E7099B002B2BDC0E
:103908000123264A31462846B84701303FF41DAF07
:10391800099B23B90A9B13B92368D907D8D5DDE9D0
:10392800042331462846B84701303FF40EAF4FF024
:10393800000904F11A0A099B5B424B4501DC0A9B0A
:1039480094E70123524631462846B84701303FF4F0
:10395800FCAE09F10109EEE70A9AA36D9A42A8BFE5
:103968001A46002A914607DD134631464246284644
:10397800B84701303FF4E9AE04F11A034FF0000BE9
:1039880029EAE979069315E0FFFFEF7F0C5000085C
:10399800085000081450000810500008185000087B
:1039A8000123069A31462846B84701303FF4CDAE88
:1039B8000BF1010BD4F858A0AAEB09035B45EFDC27
:1039C800DDE909239A42D04415DB2368DA0712D4CB
:1039D8000A9B0999A3EB0A02A3EB010A9245A8BF27
:1039E8009246BAF1000F0EDC4FF000082AEAEA7A94
:1039F80004F11A0919E0DDE9042331462846B847DD
:103A08000130E5D1A1E65346424631462846B8473B
:103A18000130E9D199E601234A4631462846B8479C
:103A280001303FF492AE08F10108DDE909239B1A41
:103A3800A3EB0A034345EEDC4AE70A9A012A01DCB4
:103A4800DB073AD50123424631462846B8470130BC
:103A58003FF47BAEDDE9042331462846B847013000
:103A680008F101083FF471AE0A9B002203F1FF3A06
:103A7800D4E912010023FDF797F9C8B95346424625
:103A880031462846B84701300ED15EE6012352463A
:103A980031462846B84701303FF457AE08F10108CF
:103AA8000A9B013B4345F1DC4B4604F15002DEE63C
:103AB8004FF0000804F11A0AF2E70123DFE70123B7
:103AC8004A4631462846B84701303FF43EAE08F131
:103AD8000108E3680B9A9B1A4345F0DCFCE64FF0BB
:103AE800000804F11909F4E700293FF48BAE00231C
:103AF800CDE9020309AB009349EC108B2260CDF8A5
:103B080004A00DF123032846FFF72EFD804648E662
:103B18002DE9F04791461F468A680B69DDF8208039
:103B28009342B8BF1346C9F8003091F843200646BF
:103B38000C4612B10133C9F800302368990642BF18
:103B4800D9F800300233C9F80030256815F00605A9
:103B580007D104F1190AE368D9F800209B1AAB428F
:103B680028DC94F843302268003318BF01239206FA
:103B78002DD404F1430239463046C047013020D0E5
:103B88002368E568D9F8002003F00603042B08BF72
:103B9800AD1AA36822690CBF25EAE5750025934292
:103BA800C4BF9B1AED184FF000091A344D451AD1BD
:103BB800002008E00123524639463046C04701300C
:103BC80003D14FF0FF30BDE8F0870135C3E7E118B6
:103BD8005A1C302081F84300224494F8451082F89A
:103BE80043100233C5E70123224639463046C04711
:103BF8000130E6D009F10109D8E7000038B5064CD4
:103C0800002305460846236001F072F9431C02D1DF
:103C1800236803B12B6038BDF40600202DE9F74F67
:103C280003690C69A3428046C0F28280013C01F11D
:103C380014074FEA840C00F1140657F8245056F87C
:103C4800240006EB0C03013507EB0C090193B0FBCC
:103C5800F5F595B34FF0000A3846B646D34650F806
:103C6800042B93B205FB03A34FEA134A9BB2ABEBB9
:103C78000303120CDEF800B005FB02A213FA8BF363
:103C88004FEA124A1FFA82FBDEF80020CBEB124201
:103C980002EB23429BB243EA024381454FEA224B9F
:103CA8004EF8043BDBD256F80C3033B9019B043B89
:103CB8009E421A4630D3C8F81040404601F036F804
:103CC800002825DB013530464FF0000C57F8042B4F
:103CD800D0F800E093B2ACEB0303120C13FA8EF3A6
:103CE800C2EB1E4202EB23429BB243EA0243B945B0
:103CF8004FEA224C40F8043BE8D256F8242006EB61
:103D080084032AB9043B9E421A460BD3C8F81040D4
:103D1800284603B0BDE8F08F1268043B002ACAD1D8
:103D2800013CC5E71268043B002AEFD1013CEAE7F1
:103D38000020EEE7000000002DE9F04F57EC106B73
:103D480097B0456A069104460B921293DDF880807D
:103D5800CDE900673DB91020FFF79CFB6062C0E920
:103D680001550560C560636A196851B15A684A60AF
:103D7800012393408B60204600F0F7FD636A002220
:103D88001A603B1EBBBF23F00043019300230122AE
:103D9800ACBFC8F80030C8F80020AF4BDDF804808D
:103DA80033EA080314D1129A42F20F731360009B8E
:103DB80023B9C8F31300002800F04285219BDFF8DF
:103DC800ACB2002B00F044850BF1030300F03EBDBC
:103DD800DDE900670022002330463946FCF7E4FF9E
:103DE800814668B1129A01231360219B002B00F0D1
:103DF80024859A4B219A03F1FF3B136000F028BDFC
:103E080014AA15A947EC106B204601F006F8C8F370
:103E18000A550490002D7CD0C7F3130343F07F5B51
:103E2800B2464BF4401BA5F2FF35CDF84C9000226A
:103E38008B4B50465946FCF7E7F981A3D3E9002399
:103E4800FCF79AFB80A3D3E90023FCF7DFF90646C9
:103E580028460F46FCF726FB7DA3D3E90023FCF791
:103E68008BFB02460B4630463946FCF7CFF906462F
:103E78000F46FCF793FD0022824600233046394660
:103E8800FCF79CFF48B15046FCF70CFB32463B461A
:103E9800FCF78AFF08B90AF1FF3ABAF1160F59D8A8
:103EA800704901EBCA01DDE90023D1E90001FCF703
:103EB800A3FF002850D00AF1FF3A00230F93149B68
:103EC8005D1BB5F1010849BFC5F101030023059346
:103ED8004FF0000858BF0593BAF1000F3EDB0023EE
:103EE800D044CDF838A00793069B092B00F29080A8
:103EF800052BC4BF043B0693069BA3F10203CCBF6A
:103F080000250125032B00F28F80DFE803F07D7F79
:103F18003171DDE914531D4405F23240202813DDC8
:103F2800C0F14000009B08FA00F805F2124023FA9D
:103F380000F048EA0000FCF7A5FA01238246A1F147
:103F4800F87B013D139372E7009BC0F1200003FA50
:103F580000F0F0E70123B1E70F90B0E7059BA3EB72
:103F68000A030593CAF10003079300230E93BBE7E6
:103F780001230A930B9B002B59DD02939946666A2D
:103F880000227260042202F114009842716853D929
:103F9800204600F0B6FC636A3060B9F10E0FD3F822
:103FA80000B000F2E680002D00F0E3809DED007B7C
:103FB800BAF1000F8DED107B74DD2A4A0AF00F0369
:103FC80002EBC30393ED007B4FEA2A16F0068DED52
:103FD800087B65D5244BDDE91001D3E90823FCF7FC
:103FE800F5FBCDE9000106F00F0603251E4F4CE056
:103FF80001230A930B9B534403F1010902934B4697
:10400800012BB8BF0123BAE70023B2E70023F0E78A
:104018000125002306930A954FF0FF330293994632
:10402800002212230B92AAE701230A93F4E7012343
:10403800029399461A46F5E7013171605200A2E7EA
:1040480061436F63A787D23FB3C8608B288AC63F96
:10405800FB799F501344D33F0000F07F19500008AC
:104068000000F83F6050000838500008235000084E
:10407800F10708D5DDE90801D7E90023FCF77CFA48
:10408800CDE90801013576100837002EF0D1DDE9B9
:104098000823DDE90001FCF799FBCDE900011AE0EE
:1040A8000225A3E700F0A080CAF100069F4BA04FAD
:1040B80006F00F0203EBC203D3E90023DDE9100188
:1040C800FCF75AFACDE90001361100230225002E2B
:1040D8007FD1002BE1D10F9B002B00F08780DDE919
:1040E80000670022934B30463946FCF767FE0028EC
:1040F8007CD0B9F1000F79D0029B002B35DD0AF195
:10410800FF330893394600228B4B3046FCF734FACC
:10411800CDE90001029F01352846FCF7C3F9DDE926
:104128000023FCF729FA0022844BFCF76FF80546B8
:10413800A1F15076002F5DD10022814BDDE900010D
:10414800FCF762F82A463346CDE90001FCF754FE35
:10415800002840F088822A4606F10043DDE9000184
:10416800FCF72CFE002840F07C82DDE91023CDE925
:104178000023159B002BC0F25081BAF10E0F00F3FB
:104188004C816A4B03EBCA0393ED007B0B9B002B1E
:104198008DED027B80F2D880B9F1000F00F3D48056
:1041A80040F05E820022664B51EC170BFCF7E4F9F5
:1041B800DDE90023FCF716FE4F464E46002840F086
:1041C800348231230BF101058BF800300AF1010A22
:1041D8002FE2F20705D5D7E90023FCF7CDF9013521
:1041E80001237610083772E7022574E7CDF820A07E
:1041F8004F4691E74D4B03EBC70353E902010A9B76
:10420800002B47D002460B4600204E49FCF7DEFA49
:104218002A463346FBF7F8FFCDE90C015D46DDE998
:104228000001FCF7BBFB0646FCF73CF902460B46CF
:10423800DDE90001FBF7E8FF303605F8016BDDE941
:104248000C23CDE90001FCF7B9FD002863D1DDE9B5
:10425800002300203749FBF7D7FFDDE90C23FCF7E3
:10426800ADFD002840F0B780A5EB0B039F427FF718
:104278007CAF0022304BDDE90C01FCF77DF9002210
:10428800CDE90C012C4BDDE90001FCF775F9CDE90E
:104298000001C4E72A463346FCF76EF9CDE90C0164
:1042A8000BEB07055E46DDE90001FCF777FB0746E7
:1042B800FCF7F8F8303702460B46DDE90001FBF75A
:1042C800A3FF06F8017BAE42CDE900014FF00002E2
:1042D80026D11C4BDDE90C01FBF798FF02460B4683
:1042E800DDE90001FCF788FD002874D1DDE90C2325
:1042F80000201449FBF788FF02460B46DDE9000160
:10430800FCF75CFD00283FF430AF15F8013C302B7A
:1043180005F1FF3202D0DDF820A04AE01546F4E7A7
:10432800054BFCF729F9CDE90001BCE7605000080E
:10433800385000080000F03F0000244000001C40F6
:10434800000014400000E03FDDE900675D46DDE95C
:10435800022330463946FCF739FAFCF71FFB804642
:10436800FCF7A0F8DDE90223FCF706F902460B4644
:104378003046394608F13006FBF746FF05F8016B71
:10438800A5EB0B06B14502460B4639D1FBF73EFFBC
:10439800DDE9022306460F46FCF72EFDC8B9DDE924
:1043A800022330463946FCF7FFFC10B118F0010F24
:1043B8000FD10499204600F0D8FA0023129A2B70E6
:1043C8000AF101031360219B002B00F041821D605C
:1043D8003EE2CDF820A015F8012C392A05F1FF336B
:1043E80008D19B450AD1089B0133089330238BF8E9
:1043F80000305B461A7801321A708CE71D46EAE7EE
:1044080000229B4BFCF7B8F80022002306460F4613
:10441800FCF7CAFC00289AD0CBE70A9A002A00F0D9
:104428008B80069A012A6EDC139A002A67D003F261
:104438003343079F059D059A01211A44204605929A
:10444800984400F032FB0646002D0CDDB8F1000F51
:1044580009DD4545059A2B46A8BF4346D21A059261
:10446800ED1AA8EB0308079BEBB10A9B002B67D05A
:104478008FB131463A46204600F0B6FB049A014611
:104488000646204600F01AFB04990890204600F0E2
:104498006CFA089B0493079BDA1B04D00499204606
:1044A80000F0A2FB04900121204600F0FEFA0E9BCA
:1044B8000746002B00F0D0811A460146204600F03E
:1044C80093FB069B012B074640DC009B002B39D150
:1044D800019BC3F31303002B36D1019B23F0004348
:1044E8001B0D1B052BB1059B0133059308F1010832
:1044F800012307930E9B002B2AD1012030E0149B47
:10450800C3F1360395E7079B09F1FF37BB42BFBFED
:10451800079B0797FA1A0E9BBBBF9B180E93DF1BCE
:104528000027B9F1000FB5BF059B059DA3EB090551
:104538004B46B8BF00237EE7079F059D0A9E83E789
:10454800079AABE70023D4E7009BD2E70023079341
:104558003B6907EB8303186900F059FAC0F12000A2
:10456800404410F01F0047D0C0F12003042B3BDD6E
:10457800059BC0F11C000344059305448044059B3A
:10458800002B05DD1A460499204600F07BFB0490B9
:10459800B8F1000F05DD39464246204600F072FBAF
:1045A80007460F9B53B33946049800F0BFFB002819
:1045B80024DA00230A220499204600F0EDF90A9B28
:1045C80004900AF1FF3A002B00F04D810023314698
:1045D8000A22204600F0E0F9029B002B06464FDC39
:1045E800069B022B4CDD11E0C9D0059A1C331A44F6
:1045F80005921D449844C2E70346F6E7B9F1000F57
:1046080038DC069B022B35DDCDF80890029B63B998
:1046180039460522204600F0BFF9014607460498AE
:1046280000F084FB00283FF7CCAD0B9B5D466FEA9A
:10463800030A4FF000093946204600F096F9002E8B
:104648003FF4B7AEB9F1000F05D0B14503D04946E4
:10465800204600F08AF93146204600F086F9A8E69F
:1046680000273E46E1E7DDF820A03E46A9E500BF69
:10467800000024400A9BCDF80890002B00F0FA8037
:10468800002D05DD31462A46204600F0FBFA064695
:10469800079B002B4CD07168204600F032F9326934
:1046A80002320546920006F10C010C3000F01CF9AC
:1046B80001222946204600F0E5FA009BCDF814B007
:1046C80003F00103B1460793064639460498FFF7FD
:1046D800A5FA4946054600F13008049800F026FB83
:1046E800324600903946204600F03AFBC36802463D
:1046F80003BB01460890049800F018FB089A03468B
:1047080011462046089300F030F9089BA3B9069A91
:1047180092B9079A82B9B8F1390F29D0009B002BBA
:1047280001DD05F13108059B5D1C83F8008082E7F7
:104738003046C2E70123E3E7009A002A04DB25D1CB
:10474800069A1ABB079A0ABB002BECDD01220499D2
:10475800204600F097FA3946049000F0E7FA00285E
:1047680003DCE0D118F0010FDDD0B8F1390FD8D152
:10477800059B059A5D1C3923137015F8013C392BEC
:1047880005F1FF324FD00133137054E7059A002B1F
:1047980002F1010506DDB8F1390FE9D008F1010889
:1047A800059BC2E7029A05F8018CA5EB0B0393421F
:1047B80021D000230A220499204600F0EDF8B145E3
:1047C80004904FF000034FF00A024946204605D1F5
:1047D80000F0E2F881460646059576E700F0DCF839
:1047E8003146814600230A22204600F0D5F80646C5
:1047F800F2E74FF0000901220499204600F042FA3E
:104808003946049000F092FA0028B6DC02D118F07C
:10481800010FB2D115F8013C302B05F1FF327FF4BE
:104828000AAF1546F6E7934505D131230AF1010A87
:104838008BF80030FFE615469FE7DFF864B007E025
:10484800219BDFF860B01BB10BF10803219A1360BC
:10485800584617B0BDE8F08F069B012B7FF735AEA1
:104868000E9B079349E6029B002B03DC069B022B59
:104878003FF7CCAE5D4639460498FFF7CFF900F113
:10488800300805F8018B029AA5EB0B039A42B0DDBC
:1048980000230A220499204600F07EF80490EAE7F3
:1048A800185000081A500008044B1B68186A044B7B
:1048B800002808BF1846F030704700BF0C000020E1
:1048C8007000002082B001B901A942B14BB1137840
:1048D8000B601278101C18BF012002B070471046F8
:1048E800FBE76FF00100F8E710B5431E0A44914258
:1048F80000D110BD11F8014B03F8014FF7E77047DD
:10490800704770B5456A04460E463DB91020FEF75B
:10491800C1FD6062C0E901550560C560656AEB6864
:1049280083B1636ADB6853F82600B8B9012101FA3C
:1049380006F56A1D9200204600F0BEFA60B1C0E993
:1049480001650EE021220421204600F0B5FA636AD1
:10495800E860DB68002BE4D1002070BD026843F8F2
:1049680026200023C0E90333F7E770B5446A0646FA
:104978000D463CB91020FEF78DFD7062C0E9014478
:104988000460C4603DB1736A6A68DB6853F822103A
:10499800296043F8225070BD2DE9F0410D691F468A
:1049A80006460C4601F1140C0023DCF8000081B225
:1049B80002FB01710F0C000C02FB007089B201337D
:1049C80001EB00419D424FEA10474CF8041BECDC18
:1049D800D7B1A368AB4212DC616830460131FFF7FA
:1049E80090FF2269023204F10C01804692000C30DB
:1049F800FFF77AFF21463046FFF7B7FF444604EB3E
:104A0800850301355F6125612046BDE8F081020C10
:104A180012040346B2B90304102013F07F4F04BFF9
:104A28001B02083013F0704F04BF1B01043013F051
:104A3800404F04BF9B000230002B06DB5B0003D510
:104A4800013070470020E8E720207047036813F022
:104A5800070201460BD0DA0723D4980749BF5B0841
:104A68009B0801200B605CBF0B600220704798B266
:104A7800A8B91B0C102013F0FF0F04BF1B0A083045
:104A88001A0704BF1B0904309A0704BF9B080230A9
:104A9800DA0702D45B0806D001300B607047104675
:104AA800E9E7002070472020704710B50C46012127
:104AB800FFF727FF01224461026110BD2DE9F74F7E
:104AC80014460A6923699A42B8BF0B468846BCBF98
:104AD800A0461C46D8F81070D4F81090D8F80830C2
:104AE800D8F8041007EB0906B342B8BF0131FFF745
:104AF80008FF00F1140505EB860E2B4600227345CE
:104B080016D304F1140208F1140102EB890301EB36
:104B180087070093009B019293420CD8002E03DD77
:104B28005EF8043D002B5DD0066103B0BDE8F08F50
:104B380043F8042BE3E7B2F800B0BBF1000F23D031
:104B48008946AC464FF0000859F8044BDCF800A041
:104B5800A3B21FFA8AFA0BFB03A34FEA144ADCF844
:104B6800004043444FEA14480BFB0A8404EB134407
:104B7800E2469BB243EA04434F454FEA14484AF8D9
:104B8800043B2BD8CCF80480019BB3F802A0043274
:104B9800BAF1000F20D02B688946A8464FF0000BC9
:104BA800B9F800C0B8F802400AFB0C445C44C4469B
:104BB8009BB243EA04434CF8043B59F8043BB8F869
:104BC80004B01B0C0AFB03B303EB14434F454FEA35
:104BD800134B05D8C8F8043004359BE7D446B3E72F
:104BE800E046DDE7013E99E72DE9F843154612F066
:104BF800030206460F4607D0013A214C002354F819
:104C08002220FFF7C9FE0746AD1035D0746A3CB9BB
:104C18001020FEF73FFC7062C0E901440460C460E4
:104C2800D6F82480D8F808404CB940F271213046B3
:104C3800FFF73BFF0023C8F80800044603604FF065
:104C48000008EB070AD5394622463046FFF736FFFB
:104C5800394681463046FFF788FE4F466D100BD027
:104C6800206838B9224621463046FFF727FF2060E2
:104C7800C0F800800446E4E73846BDE8F88300BF82
:104C8800285100082DE9F0470C464FEA621A2369BB
:104C980049680AEB0309A3680746164609F10105A6
:104CA800AB4232DB3846FFF72CFE0023804600F18A
:104CB80014011A4653452BDB20692AEAEA7A04F1E3
:104CC800140316F01F0201EB8A0103EB800C25D0B8
:104CD800C2F1200E00201E688A46964030434AF8EA
:104CE800040B53F8040B9C4520FA0EF014D84860C6
:104CF80008B109F10205013D3846C8F810502146AF
:104D0800FFF733FE4046BDE8F08701315B00C7E797
:104D180041F823200133CDE75146DCE7043953F845
:104D2800042B41F8042F9C45F9D8E4E703690A6984
:104D38009B1A30B50CD192001430143184181144E8
:104D480054F8045D51F8042D954203D005D301238E
:104D5800184630BDA042F3D3FAE74FF0FF33F7E728
:104D68002DE9F0470D460746114628461446FFF739
:104D7800DDFF061E08D131463846FFF7C2FD012384
:104D8800C0E90436BDE8F087A4BF23462C46384660
:104D98006168A6BF1D4600260126FFF7B2FD2B69F4
:104DA800C660266905F1140904F1140202EB8607AE
:104DB80009EB830800F114054FF0000E52F804AB1C
:104DC80059F8044B1EFA8AF1A3B2C91A230CC3EB93
:104DD8001A4303EB214389B24FEA234EC84541EAFF
:104DE8000343944645F8043BE8D8BC4504D355F83A
:104DF800043D83B10661C5E75CF8041B1EFA81F324
:104E08001A1402EB11429BB243EA02434FEA224EC4
:104E180045F8043BE9E7013EE9E72DE9F7430E468B
:104E2800012159EC108B1546FFF76BFDC9F30A54A5
:104E38000746C9F3130334BB0193B8F1000327D025
:104E480002A840F8083DFFF701FE0099F0B1019A69
:104E5800C0F1200302FA03F30B43C2407B610192C5
:104E6800019BBB61002B14BF022101213961C4B130
:104E7800A4F2334404443460C0F135002860384655
:104E880003B0BDE8F08343F48013D5E77961E7E721
:104E980001A8FFF7DBFD019B7B610121396120300F
:104EA800E5E707EB8103A0F2324030601869FFF7AD
:104EB800AEFDC0EB4110E1E738B502FB01F4214635
:104EC800FEF7F8FA054618B122460021FEF7EAFA7D
:104ED800284638BD49B1FF2A85BF8A2303600A7076
:104EE8004FF0FF3098BF0120704708467047000018
:104EF800044A05491368002B08BF0B461844106084
:104F08001846704704020020F8060020F8B500BFD4
:104F1800F8BC08BC9E467047F8B500BFF8BC08BC92
:044F28009E467047EA
:104F30000006101600061016000000000000000019
:104F4000010203040607080900000000010203042F
:104F50002578000024504D544B3235312C313135F9
:104F60003230302A31460D0A0000000024504D54E2
:104F70004B3232302C3130302A32460D0A000000DC
:104F800024504D544B3331342C302C302C312C31B7
:104F90002C302C302C302C302C302C302C302C3031
:104FA0002C302C302C302C302C302C302C302A3221
:104FB000380D0A003030302E3030000030303030C4
:104FC0002E303030300000004E00000030303030E5
:104FD000302E30303030000057000000303030309C
:104FE0002E30000030303030303000002E2E2F5365
:104FF00072632F73746D3332663478785F68616CD6
:105000005F6D73702E630000494E4600696E660046
:105010004E414E006E616E003000496E66696E69E9
:105020007479004E614E004300504F534958002E92
:1050300000000000000000000080E03779C3414319
:10504000176E05B5B5B89346F5F93FE9034F384DEE
:10505000321D30F94877825A3CBF737FDD4F15759A
:10506000000000000000F03F0000000000002440AD
:1050700000000000000059400000000000408F4088
:10508000000000000088C34000000000006AF840F3
:105090000000000080842E4100000000D012634117
:1050A0000000000084D797410000000065CDCD418D
:1050B000000000205FA00242000000E8764837426E
:1050C000000000A2941A6D42000040E59C30A2420C
:1050D0000000901EC4BCD64200003426F56B0C4381
:1050E0000080E03779C3414300A0D8855734764328
:1050F00000C84E676DC1AB43003D9160E458E14389
:10510000408CB5781DAF154450EFE2D6E41A4B44FD
:1051100092D54D06CFF08044F64AE1C7022DB54442
:10512000B49DD9794378EA440500000019000000D5
:105130007D00000000202020202020202020282882
:105140002828282020202020202020202020202047
:105150002020202020881010101010101010101087
:1051600010101010100404040404040404040410B7
:105170001010101010104141414141410101010145
:10518000010101010101010101010101010101010F
:10519000101010101010424242424242020202021B
:1051A00002020202020202020202020202020202DF
:1051B000101010102000000000000000000000008F
:1051C00000000000000000000000000000000000DF
:1051D00000000000000000000000000000000000CF
:1051E00000000000000000000000000000000000BF
:1051F00000000000000000000000000000000000AF
:10520000000000000000000000000000000000009E
:10521000000000000000000000000000000000008E
:10522000000000000000000000000000000000007E
:08523000000000000000000076
:08523800ECB7FF7F010000004C
:04524000ED01000874
:04524400C901000894
:1052480001000000100000000024F40010000020FD
:105258000000000000000000000000000000000046
:105268000000000000000000000000000000000036
:105278000000000000000000000000000000000026
:105288000000000000000000000000000000000016
:105298000000000000000000000000000000000006
:1052A80000000000000000000000000000000000F6
:1052B80043000000000000000000000000000000A3
:1052C80000000000000000000000000000000000D6
:1052D8004300000000000000000000000000000083
:1052E80000000000000000000000000000000000B6
:1052F8004300000000000000000000000000000063
:105308000000000000000000000000000000000095
:105318004300000000000000000000000000000042
:105328000000000000000000000000000000000075
:105338004300000000000000000000000000000022
:105348000000000000000000000000000000000055
:105358004300000000000000000000000000000002
:105368000000000000000000000000000000000035
:1053780043000000000000000000000000000000E2
:105388000000000000000000000000000000000015
:10539800DD4E0008CD480008000000003451000828
:1053A8002F500008305000083050000830500008D6
:1053B80030500008305000083050000830500008C5
:1053C8003050000830500008FFFFFFFFFFFFFFFFCD
:1053D800FFFFFFFFFFFF0000010041534349490061
:1053E80000000000000000000000000000000000B5
:1053F800000000000000000000004153434949003C
:105408000000000000000000000000000000000094
:0C54180000000000000000000000000088
:0400000508003401BA
:00000001FF
