:020000040800F2
:10000000000002207D5B0008555A0008595A00087C
:100010005D5A0008615A0008655A00080000000097
:10002000000000000000000000000000695A000805
:100030006D5A000800000000715A0008755A000847
:10004000CD5B0008CD5B0008CD5B0008CD5B0008F0
:10005000CD5B0008CD5B0008CD5B0008CD5B0008E0
:10006000CD5B0008CD5B0008CD5B0008CD5B0008D0
:10007000CD5B0008CD5B0008CD5B0008CD5B0008C0
:10008000CD5B0008CD5B0008855A0008915A000836
:100090009D5A0008A95A0008B55A0008CD5B00080F
:1000A000CD5B0008C15A0008CD5B0008CD5B00089D
:1000B000CD5A0008CD5B0008D95A0008CD5B000876
:1000C000CD5B0008CD5B0008CD5B0008CD5B000870
:1000D000CD5B0008E55A0008F15A0008CD5B000826
:1000E000CD5B0008CD5B0008CD5B0008CD5B000850
:1000F000CD5B0008CD5B0008CD5B0008CD5B000840
:10010000CD5B0008CD5B0008FD5A0008CD5B000800
:10011000CD5B0008CD5B0008095B0008155B00089B
:10012000215B0008CD5B0008CD5B0008CD5B0008BB
:10013000CD5B00080000000000000000CD5B00085F
:10014000CD5B0008CD5B0008CD5B0008CD5B0008EF
:10015000CD5B0008CD5B0008CD5B0008CD5B0008DF
:10016000CD5B0008CD5B0008CD5B0008CD5B0008CF
:10017000CD5B0008CD5B0008CD5B000800000000EF
:1001800000000000CD5B000800000000000000003F
:10019000CD5B00080000000000000000CD5B0008FF
:1001A000000000000000000000000000CD5B00081F
:1001B000CD5B0008CD5B0008CD5B0008CD5B00087F
:0401C000CD5B00080B
:1001D00010B5054C237833B9044B13B10448AFF381
:1001E00000800123237010BDA00300200000000048
:1001F0008C92000808B5034B1BB103490348AFF3C9
:10020000008008BD00000000A40300208C920008BC
:1002100081F0004102E000BF83F0004330B54FEAB7
:1002200041044FEA430594EA050F08BF90EA020F24
:100230001FBF54EA000C55EA020C7FEA645C7FEAB7
:10024000655C00F0E2804FEA5454D4EB5555B8BFDA
:100250006D420CDD2C4480EA020281EA030382EA4B
:10026000000083EA010180EA020281EA0303362DDD
:1002700088BF30BD11F0004F4FEA01314FF4801CB0
:100280004CEA113102D0404261EB410113F0004FC2
:100290004FEA03334CEA133302D0524263EB430379
:1002A00094EA050F00F0A780A4F10104D5F1200E17
:1002B0000DDB02FA0EFC22FA05F2801841F1000172
:1002C00003FA0EF2801843FA05F359410EE0A5F146
:1002D00020050EF1200E012A03FA0EFC28BF4CF077
:1002E000020C43FA05F3C01851EBE37101F000452D
:1002F00007D54FF0000EDCF1000C7EEB00006EEB3A
:100300000101B1F5801F1BD3B1F5001F0CD34908C3
:100310005FEA30004FEA3C0C04F101044FEA44521A
:1003200012F5800F80F09A80BCF1004F08BF5FEAA1
:10033000500C50F1000041EB045141EA050130BD81
:100340005FEA4C0C404141EB010111F4801FA4F124
:100350000104E9D191F0000F04BF01460020B1FA79
:1003600081F308BF2033A3F10B03B3F120020CDAB1
:100370000C3208DD02F1140CC2F10C0201FA0CF08F
:1003800021FA02F10CE002F11402D8BFC2F1200CF4
:1003900001FA02F120FA0CFCDCBF41EA0C019040AA
:1003A000E41AA2BF01EB0451294330BD6FEA0404F3
:1003B0001F3C1CDA0C340EDC04F11404C4F12002DE
:1003C00020FA04F001FA02F340EA030021FA04F3F0
:1003D00045EA030130BDC4F10C04C4F1200220FA47
:1003E00002F001FA04F340EA0300294630BD21FA85
:1003F00004F0294630BD94F0000F83F4801306BF4B
:1004000081F480110134013D4EE77FEA645C18BF3E
:100410007FEA655C29D094EA050F08BF90EA020FD5
:1004200005D054EA000C04BF1946104630BD91EACD
:10043000030F1EBF0021002030BD5FEA545C05D1D0
:100440004000494128BF41F0004130BD14F580040F
:100450003CBF01F5801130BD01F0004545F0FE4183
:1004600041F470014FF0000030BD7FEA645C1ABFB8
:10047000194610467FEA655C1CBF0B46024650EAEF
:10048000013406BF52EA033591EA030F41F400211B
:1004900030BD00BF90F0000F04BF0021704730B5A1
:1004A0004FF4806404F132044FF000054FF0000176
:1004B00050E700BF90F0000F04BF0021704730B537
:1004C0004FF4806404F1320410F0004548BF40420C
:1004D0004FF000013EE700BF42004FEAE2014FEA61
:1004E00031014FEA02701FBF12F07F4393F07F4F3C
:1004F00081F06051704732F07F4208BF704793F03F
:100500007F4F04BF41F40021704730B54FF4607451
:1005100001F0004521F000411CE700BF50EA010254
:1005200008BF704730B54FF000050AE050EA0102FD
:1005300008BF704730B511F0004502D5404261EB6D
:1005400041014FF4806404F132045FEA915C3FF4AE
:10055000D8AE4FF003025FEADC0C18BF03325FEA4B
:10056000DC0C18BF033202EBDC02C2F1200300FAFC
:1005700003FC20FA02F001FA03FE40EA0E0021FA21
:1005800002F11444BDE600BF70B54FF0FF0C4CF40F
:10059000E06C1CEA11541DBF1CEA135594EA0C0FC1
:1005A00095EA0C0F00F0DEF82C4481EA030621EAFC
:1005B0004C5123EA4C5350EA013518BF52EA033537
:1005C00041F4801143F4801338D0A0FB02CE4FF0E9
:1005D0000005E1FB02E506F00042E0FB03E54FF019
:1005E0000006E1FB03569CF0000F18BF4EF0010E11
:1005F000A4F1FF04B6F5007F64F5407404D25FEA0D
:100600004E0E6D4146EB060642EAC62141EA5551BF
:100610004FEAC52040EA5E504FEACE2EB4F1FD0C01
:1006200088BFBCF5E06F1ED8BEF1004F08BF5FEA7F
:10063000500E50F1000041EB045170BD06F0004631
:1006400046EA010140EA020081EA0301B4EB5C04DE
:10065000C2BFD4EB0C0541EA045170BD41F48011D6
:100660004FF0000E013C00F3AB8014F1360FDEBFFB
:10067000002001F0004170BDC4F10004203C35DAD7
:100680000C341BDC04F11404C4F1200500FA05F35A
:1006900020FA04F001FA05F240EA020001F00042FB
:1006A00021F0004110EBD37021FA04F642EB060171
:1006B0005EEA430E08BF20EAD37070BDC4F10C049B
:1006C000C4F1200500FA04F320FA05F001FA04F25F
:1006D00040EA020001F0004110EBD37041F100014B
:1006E0005EEA430E08BF20EAD37070BDC4F1200556
:1006F00000FA05F24EEA020E20FA04F301FA05F2BE
:1007000043EA020321FA04F001F0004121FA04F265
:1007100020EA020000EBD3705EEA430E08BF20EA35
:10072000D37070BD94F0000F0FD101F0004640006F
:1007300041EB010111F4801F08BF013CF7D041EAF1
:10074000060195F0000F18BF704703F000465200F5
:1007500043EB030313F4801F08BF013DF7D043EAC6
:100760000603704794EA0C0F0CEA135518BF95EA7C
:100770000C0F0CD050EA410618BF52EA4306D1D103
:1007800081EA030101F000414FF0000070BD50EA22
:10079000410606BF1046194652EA430619D094EAAC
:1007A0000C0F02D150EA013613D195EA0C0F05D196
:1007B00052EA03361CBF104619460AD181EA0301EA
:1007C00001F0004141F0FE4141F470014FF00000A2
:1007D00070BD41F0FE4141F4780170BD70B54FF03D
:1007E000FF0C4CF4E06C1CEA11541DBF1CEA1355BD
:1007F00094EA0C0F95EA0C0F00F0A7F8A4EB05049F
:1008000081EA030E52EA03354FEA013100F0888095
:100810004FEA03334FF0805545EA131343EA12635E
:100820004FEA022245EA111545EA10654FEA002613
:100830000EF000419D4208BF964244F1FD0404F5CC
:10084000407402D25B084FEA3202B61A65EB030528
:100850005B084FEA32024FF480104FF4002CB6EBE5
:10086000020E75EB030E22BFB61A754640EA0C0065
:100870005B084FEA3202B6EB020E75EB030E22BFA5
:10088000B61A754640EA5C005B084FEA3202B6EBE6
:10089000020E75EB030E22BFB61A754640EA9C00A5
:1008A0005B084FEA3202B6EB020E75EB030E22BF75
:1008B000B61A754640EADC0055EA060E18D04FEA33
:1008C000051545EA16754FEA06164FEAC30343EAD3
:1008D00052734FEAC2025FEA1C1CC0D111F4801FA0
:1008E0000BD141EA00014FF000004FF0004CB6E799
:1008F00011F4801F04BF01430020B4F1FD0C88BF38
:10090000BCF5E06F3FF6AFAEB5EB030C04BFB6EB42
:10091000020C5FEA500C50F1000041EB045170BD35
:100920000EF0004E4EEA113114EB5C04C2BFD4EB62
:100930000C0541EA045170BD41F480114FF0000EE6
:10094000013C90E645EA060E8DE60CEA135594EA62
:100950000C0F08BF95EA0C0F3FF43BAF94EA0C0F65
:100960000AD150EA01347FF434AF95EA0C0F7FF4DA
:1009700025AF104619462CE795EA0C0F06D152EA2E
:1009800003353FF4FDAE1046194622E750EA410612
:1009900018BF52EA43067FF4C5AE50EA41047FF423
:1009A0000DAF52EA43057FF4EBAE12E74FF0FF3C88
:1009B00006E000BF4FF0010C02E000BF4FF0010C59
:1009C0004DF804CD4FEA410C7FEA6C5C4FEA430CD2
:1009D00018BF7FEA6C5C1BD001B050EA410C0CBF21
:1009E00052EA430C91EA030F02BF90EA020F002083
:1009F000704710F1000F91EA030F58BF994208BFEA
:100A000090422CBFD8176FEAE37040F001007047A6
:100A10004FEA410C7FEA6C5C02D150EA013C07D1FD
:100A20004FEA430C7FEA6C5CD6D152EA033CD3D048
:100A30005DF8040B704700BF8446104662468C4642
:100A40001946634600E000BF01B5FFF7B7FF002875
:100A500048BF10F1000F01BD4DF808EDFFF7F4FF9E
:100A60000CBF012000205DF808FB00BF4DF808ED29
:100A7000FFF7EAFF34BF012000205DF808FB00BF4C
:100A80004DF808EDFFF7E0FF94BF012000205DF86E
:100A900008FB00BF4DF808EDFFF7CEFF94BF012023
:100AA00000205DF808FB00BF4DF808EDFFF7C4FF1C
:100AB00034BF012000205DF808FB00BF4FEA41026F
:100AC00012F5001215D211D56FF47873B3EB6252A0
:100AD00012D94FEAC12343F0004343EA505311F0C7
:100AE000004F23FA02F018BF404270474FF0000059
:100AF000704750EA013005D111F0004008BF6FF097
:100B0000004070474FF00000704700BF4A0011D20C
:100B100012F5001211D20DD56FF47873B3EB625257
:100B20000ED44FEAC12343F0004343EA505323FA63
:100B300002F070474FF00000704750EA013002D1D8
:100B40004FF0FF3070474FF00000704753B94AB97B
:100B5000002908BF00281CBF4FF0FF314FF0FF30C5
:100B600000F072B9ADF1080C6DE904CE00F006F8A2
:100B7000DDF804E0DDE9022304B070472DE9F04719
:100B8000089E04468846002B4BD18A42154667D9F9
:100B9000B2FA82F24AB1C2F1200701FA02F320FA56
:100BA00007F7954047EA030894404FEA154E230C97
:100BB000B8FBFEF71FFA85FC0EFB178843EA0843D3
:100BC00007FB0CF1994209D9EB1807F1FF3080F0CF
:100BD0001B81994240F21881023F2B445B1AA4B258
:100BE000B3FBFEF00EFB103344EA034400FB0CFCA5
:100BF000A44509D92C1900F1FF3380F00781A445E1
:100C000040F2048102382C4440EA0740A4EB0C0473
:100C100000271EB1D4400023C6E900433946BDE891
:100C2000F0878B4209D9002E00F0EB800027C6E93F
:100C3000000138463946BDE8F087B3FA83F7002F44
:100C400047D18B4202D3824200F2FA80841A61EBD0
:100C5000030301209846002EE0D0C6E90048DDE7F6
:100C600002B9FFDEB2FA82F2002A40F08F80491BFF
:100C70004FEA154E1FFA85F80127B1FBFEFC230C45
:100C80000EFB1C1143EA014308FB0CF1994207D902
:100C9000EB180CF1FF3002D2994200F2CD8084466D
:100CA000591AA3B2B1FBFEF00EFB101443EA044440
:100CB00008FB00F8A04507D92C1900F1FF3302D238
:100CC000A04500F2B6801846A4EB080440EA0C40A8
:100CD0009FE7C7F1200CBB4022FA0CFE4EEA030E40
:100CE00001FA07F420FA0CF521FA0CF34FEA1E483A
:100CF0002543B3FBF8F92C0C08FB19331FFA8EFAC5
:100D000044EA034309FB0AF49C4202FA07F200FAA0
:100D100007F10BD91EEB030309F1FF3080F0878048
:100D20009C4240F28480A9F1020973441B1BADB2BE
:100D3000B3FBF8F008FB103345EA034400FB0AFA62
:100D4000A24508D91EEB040400F1FF336BD2A24583
:100D500069D90238744440EA0940A0FB0289A4EB37
:100D60000A044C45C2464B4654D351D0002E69D09C
:100D7000B1EB0A0564EB030404FA0CFCFD40FC40F3
:100D80004CEA0505C6E90054002747E7C2F12003F5
:100D900020FA03F7954001FA02F021FA03F34FEA33
:100DA000154E3843010CB3FBFEF71FFA85F80EFB16
:100DB000173341EA034107FB08F38B4204FA02F4BC
:100DC00007D9691807F1FF3C2FD28B422DD9023F7A
:100DD0002944CB1A81B2B3FBFEF00EFB103341EA7B
:100DE000034100FB08F38B4207D9691800F1FF3C6F
:100DF00017D28B4215D902382944C91A40EA07474D
:100E00003BE73746304609E70746E7E61846FBE684
:100E10004145ABD2B8EB020A69EB0E02013813462A
:100E2000A4E76046E9E7184695E76746D1E78146BB
:100E30007CE702382C4447E7ACF1020C2B442FE747
:100E4000384608E73746E9E6704700BF034613F81F
:100E5000012B002AFBD1181A01387047000000004E
:100E600001F0FF01102A2BDB10F0070F08D010F85B
:100E7000013B013A8B422DD010F0070F42B3F6D15F
:100E8000F0B441EA012141EA014122F007047FF078
:100E900000070023F0E80256083C85EA010586EACF
:100EA000010685FA47F5A3FA87F586FA47F6A5FA0B
:100EB00087F68EB9EED1F0BC01F0FF0102F0070217
:100EC00032B110F8013B013A83EA010313B1F8D1C2
:100ED0000020704701387047002D06BF35460338A3
:100EE000073815F0010F07D1013015F4807F02BFDC
:100EF000013015F4C03F0130F0BC0138704700BF2D
:100F00004FEA410C7FEA6C5C02D150EA013C0AD105
:100F10004FEA430C7FEA6C5C02D152EA033C02D1F7
:100F20004FF0000070474FF00100704770B50E4B56
:100F30000E4D1B682A7806464FF47A70B0FBF2F02B
:100F4000B3FBF0F000F018FF08B90F2E01D9012013
:100F500070BD0446024631464FF0FF3000F0CAFE35
:100F60006E60204670BD00BFCC0100200000002054
:100F700008B50B4B1A6842F400721A601A6842F402
:100F800080621A601A6842F480721A60032000F0CE
:100F90009FFE0020FFF7CAFF04F088FB002008BD79
:100FA000003C0240034A044B11681B780B44136059
:100FB000704700BFCC04002000000020014B1868DF
:100FC000704700BFCC04002038B50446FFF7F6FF99
:100FD000631C054602D0044B1B781C44FFF7EEFF50
:100FE000401BA042FAD338BD00000020002800F0CA
:100FF0008E80F8B5036C0446002B7ED0236CDB0694
:1010000004D50023012084F83C30F8BD226C4C4903
:1010100023684C4D22F4885222F0020242F0020270
:1010200022644A6822F440324A604A686068024397
:101030004A6058682169A768E66820F480705860A3
:101040005A6842EA01225A60586820F0407058609D
:101050005968A06A39435960996821F40061996020
:101060009A68A84242EA06029A6052D09968E56AF4
:1010700021F0706199609A6810439860996821F036
:10108000405199609A682A439A609968A569206AD4
:1010900021F0020199609A6842EA45029A605A6812
:1010A00000283FD122F400625A60DA6AE569276BB2
:1010B000666922F47002DA62D86A013D40EA05509E
:1010C000D862986820F400709860996841EA4721D6
:1010D0009960996821F4806199609A68002042EAD9
:1010E00086229A606064236C23F0030343F00103BB
:1010F0002364002384F83C30F8BD436480F83C301E
:1011000004F01EFB236CDB063FF57BAF7EE701207E
:1011100070479A6822F070629A609A6822F0405292
:101120009A60B2E742F40062616A5A605A6822F437
:1011300060425A605A68013942EA41325A60B4E763
:10114000002301400100000FF0B590F83C3083B05F
:101150000024012B019469D00568AB680124DE07E7
:1011600080F83C4014D4334B334E1C68AB68A6FB6C
:101170000464A40C43F0010304EB4404AB60019449
:10118000019B2BB1019C013C0194019C002CF9D1E5
:10119000AB68DC073DD5046C24F4E06424F0010462
:1011A00044F4807404646B685B0505D5036C23F418
:1011B000405343F480530364036C204E13F4805374
:1011C0001CBF436C23F0060343640446806B134644
:1011D00000271B4A84F83C70C6630264194EC6643B
:1011E0006FF022022A606E6846F080666E60AE681C
:1011F00046F480760A46AE6005F14C0100F082FEAE
:10120000114B5B6813F01F0F236805D00F4A934200
:1012100002D0002003B0F0BD986810F04050F8D123
:101220009A6842F080429A6003B0F0BD022003B099
:10123000F0BD00BFCC01002083DE1B43511200082B
:10124000B1120008F1130008002301400020014002
:10125000836B1A6C12F0500F02D09B6BDB6C18473B
:101260001A6C196842F4007210B51A648A6812F098
:10127000405F17D19A69AAB9CA6A12F4700F02D0F6
:101280008A6850050ED44A6822F020024A601A6C1F
:1012900022F480721A641A6CD20403D41A6C42F0DD
:1012A00001021A64184603F085FD10BD704700BFA7
:1012B00008B5806BFFF7FAFF08BD00BF704700BF9D
:1012C000704700BF38B503681A685968044690072C
:1012D00001D58A0653D41A685968520701D50D06FC
:1012E0001BD41A685968D00701D54A0606D41A6873
:1012F0005968900601D54A0169D438BD1A68D507E6
:10130000F5D5236C43F4803323642046FFF7D6FFE2
:1013100023686FF001021A60E9E7226CD00603D45B
:10132000226C42F4005222649A6812F4401F1ED1CB
:101330009A6B12F4401F02D09A68510517D45A686C
:10134000520514D49A6812F0405F10D1A26972B9A4
:101350005A6822F080025A60236C23F4805323647D
:10136000236CDD0503D4236C43F001032364204682
:1013700000F0F6F823686FF00C021A60B1E7226CF7
:10138000D50603D4226C42F4007222649A6812F0EB
:10139000405F14D1A26992B9DA6A12F4700F23D1B6
:1013A0005A6822F020025A60236C23F4807323646D
:1013B000236CD90403D4236C43F001032364204637
:1013C00003F0F8FC23686FF012021A6083E7626C86
:1013D0006FF0200542F00202626420461D60FFF7B4
:1013E0006FFF23681D6038BD9A685005E7D4D7E7C2
:1013F000806B08B540230364436C43F004034364EB
:10140000FFF75EFF08BD00BFF0B490F83C3082B03B
:101410000022012B019200F08D800D688A6803681C
:101420000124092DAFB280F83C4029D81C6905EB96
:1014300045064FF0070C0CFA06FC24EA0C041C616C
:101440001C6902FA06F626431E614E68062E06EB5C
:1014500086022AD8596B053A1F24944021EA0401D8
:101460005963596B07FA02F20A435A63374A9342A7
:101470002DD0002380F83C30184602B0F0BC7047F5
:1014800007EB4706DC681E3E4FF0070C0CFA06FC23
:1014900024EA0C04DC60DC6802FA06F62643DE600F
:1014A0004E68062E06EB8602D4D90C2E2DD8A2F15A
:1014B00023041F211A6BA14022EA01021A63196B4F
:1014C00007FA04F20A431A63204A9342D1D1122D3B
:1014D00029D01F4B9D4231D11E491F4B4A681F4CDA
:1014E00042F400024A601B68A4FB03239B0C03EB3D
:1014F00083035B000193019B002BBAD0019B013B4E
:101500000193019B002BF9D1B3E7A2F141011F2404
:10151000DA6A8C4022EA0402DA62DC6A07FA01F233
:101520002243DA62A2E7D2F8043343F48003C2F81C
:1015300004339EE7022002B0F0BC7047112D98D111
:10154000044A536843F40003536092E700200140CB
:101550001200001000230140CC01002083DE1B4359
:10156000704700BF00287CD038B590F82030044682
:10157000002B73D02268136823F002031360FFF777
:101580001DFD054604E0FFF719FD401B0A285CD845
:1015900023685A689107F6D41A6842F001021A606B
:1015A000FFF70CFD054604E0FFF708FD401B0A2885
:1015B0004BD823685A68D207F6D5227E012A1A68CA
:1015C0000CBF42F0800222F080021A60627E012A83
:1015D0001A680CBF42F0400222F040021A60A27E5C
:1015E000012A1A680CBF42F0200222F020021A6081
:1015F000E27E012A1A680CBF22F0100242F01002AB
:101600001A60227F012A1A680CBF42F0080222F0F9
:1016100008021A60627F012A1A680CBF42F00402B5
:1016200022F004021A60D4E90221D4E904500A43EA
:1016300061682A43024301390A4301250021DA6126
:101640000846616284F8205038BD636A052243F47D
:1016500000336362012084F8202038BD04F0B8F81C
:1016600088E70120704700BF90F82030012B09D097
:1016700090F82030022B05D0436A43F48023436264
:10168000012070473B4BD3F8002242F00102F0B436
:10169000C3F80022D3F8002222F47C52C3F80022BF
:1016A000D3F80022486A42EA0022C3F800224A69BD
:1016B000D3F81C5201209040C4432540C3F81C526B
:1016C000CD69002D39D1D3F80C522540C3F80C5206
:1016D000D200CF688D888E680B8802F1804202F5B7
:1016E000C84245EA074543EA0643C2F84052C2F8F9
:1016F00044328B691F4A002B35D1D2F80432234083
:10170000C2F804320B693BBB1A4BD3F814221440C5
:10171000C3F814420B6A012B05D1164AD2F81C32C9
:101720001843C2F81C02134AD2F8003223F0010316
:101730000020C2F80032F0BC7047012DD9D1D3F897
:101740000C520543C3F80C52D20002F180420F68DC
:101750008D888E688B89C2E7064AD2F8143203431B
:10176000C2F81432D6E7D2F804320343C2F8043286
:10177000C8E700BF0064004038B590F82030012B66
:1017800005D0436A43F400234362012038BD026858
:10179000022380F82030136823F00103136004460D
:1017A000FFF70CFC054604E0FFF708FC401B0A2885
:1017B00007D823685B6813F00103F5D1636218460C
:1017C00038BD636A052243F400336362012084F864
:1017D000202038BD70B490F82040012C0AD090F839
:1017E0002040022C06D0436A43F480234362012048
:1017F00070BC70470468A5686D012DD5A0680125EF
:10180000C0F3016085401D608B688BBB0E68CD689E
:1018100000F118031B0145EA4655E5500D7D0969A5
:1018200000012318012DC3F8841105D1D3F88411C8
:1018300041F48071C3F8841104445168C4F88C11D8
:101840001268C4F88821D3F8802142F001020020F8
:10185000C3F8802170BC7047A5682E01CED4A5685E
:10186000ED00CBD4436A43F4001343620120BFE789
:10187000CD684E682B4300F118052D0143EAC603DD
:101880006351CBE790F82030012B05D090F8203041
:10189000022B01D000207047036898689A689B6803
:1018A0001201C0F3806048BF0130DB00F3D5013086
:1018B000704700BF90F82030012B05D090F8203001
:1018C000022B01D00020704703689B68890631EA2B
:1018D000030314BF01200020704700BF2DE9F04131
:1018E000044690F8200001280AD094F8200002282D
:1018F00006D0636A43F4802363620120BDE8F0816F
:101900002668002956D1F068850763D0080135188C
:10191000D5F8B07107F004079760002F55D0D5F8BF
:10192000B071FF085760D5F8B0E1D5F8B4C1D5F86B
:10193000B471D5F8B4510644CEF3400ED6F8B88150
:10194000C7F307270CF00F062D0CC2E903E6C2E926
:10195000055783F8008022680244D2F8B821120AA1
:101960005A7022680244D2F8B821120C9A70226888
:101970000244D2F8B821120EDA7022680244D2F87A
:10198000BC211A7122680244D2F8BC21120A5A7191
:1019900022680244D2F8BC21120C9A7122681044C9
:1019A000D0F8BC21120EDA71D9B1012921D0002062
:1019B000BDE8F0810129A9D130698007A6D1636A09
:1019C00043F400130846636298E7D5F8B0717F0DC1
:1019D0001760A8E7636A43F4001363620120BDE85F
:1019E000F0812268D36843F020030846D360BDE845
:1019F000F0812268136943F02003136100207DE722
:101A000090F82030012B05D090F82030022B01D027
:101A100000207047036819B1186900F0030070478F
:101A2000D86800F00300704790F82030012B09D0EF
:101A300090F82030022B05D0436A43F480234362A0
:101A400001207047026853691943516100207047B3
:101A5000704700BF704700BF704700BF704700BFAE
:101A6000704700BF704700BF704700BF704700BF9E
:101A7000704700BF704700BF704700BF704700BF8E
:101A80002DE9F84F03685C69D3F804809F68D3F8A8
:101A90000CB0D3F81090D3F818A014F00106054646
:101AA00025D017F0010640F09C804FF400524FF40F
:101AB0008041F8050DD52B684FF480709860BB0508
:101AC00000F1C780780500F1D7803A0540F1E88041
:101AD0000E46FB030BD52B684FF48032B8039A6097
:101AE00000F1B380790340F1C98046F40046230732
:101AF00002D51BF0100F6ED1670702D51BF0080F3F
:101B00007FD1A00704D52B68DB68990740F08E8051
:101B1000620602D519F0100F57D1A30603D519F0AC
:101B2000080F40F08780E70604D52B681B699807EB
:101B300040F08780A10302D518F0100F68D1E203AE
:101B400002D518F0080F6AD1230435D518F0040F18
:101B50002B682FD0E70504D51AF0010F18BF46F007
:101B60000106A00504D51AF0020F18BF46F00206C0
:101B7000610504D51AF0040F18BF46F004062205CB
:101B800018D51AF0700A15D0BAF1300F00F096800F
:101B900079D9BAF1500F00F08E80BAF1600F00F0E1
:101BA0009080BAF1400F01D146F040069A6922F0C8
:101BB00070029A6104225A602EB16B6A1E436E62F3
:101BC0002846FFF75BFFBDE8F88F2B68102246F42C
:101BD00080661A61A1E72B68102246F40076DA606D
:101BE0008AE701229A60BB0737D47E073DD417F0FD
:101BF000080659D04FF440524FF4A0414FF480569C
:101C000057E72B680822DA60284603F077FC78E76C
:101C10002B6810225A602846FFF72CFF8FE72B68AD
:101C200008225A602846FFF727FF8DE72846FFF76E
:101C30001BFF6DE72B6808221A612846FFF718FF83
:101C400071E72846FFF712FF74E72846FFF704FF05
:101C50004DE72846FFF7FEFE3BE7FFF7F9FE0026BB
:101C60004FF400524FF4804123E74FF420524FF4D9
:101C700090414FF400661CE716462AE73A030BD55D
:101C800046F4803633E7BAF1100F1DD0BAF1200FB9
:101C90008CD146F0100689E72846FFF7E3FE26E7D9
:101CA0002846FFF7DDFE14E7FFF7D8FE4FF4005299
:101CB0004FF48041FDE646F0800677E746F02006C7
:101CC00074E746F4807671E746F008066EE700BFD9
:101CD000074AD3684FF6FF010B40000243F0BF6391
:101CE00000F4E06043F400330343D360704700BF67
:101CF00000ED00E0184BDB68C3F3022330B4C3F1FE
:101D00000705042D03F1040428BF0425062C19D966
:101D1000033B4FF0FF349C4022EA04044FF0FF32B3
:101D2000AA4021EA020101FA03F22243120100282B
:101D3000D2B20ADB00F1604000F5614080F8002378
:101D400030BC704700242346E8E7044B00F00F0046
:101D500003441A7630BC704700ED00E0FCEC00E074
:101D600000F01F0101234009024A8B4042F8203055
:101D7000704700BF00E100E00138B0F1807F0ED273
:101D8000084B10B4084C5860F02084F8230000225F
:101D9000072110469A6019605DF8044B70470120D6
:101DA000704700BF10E000E000ED00E0044A136857
:101DB00004280CBF43F0040323F0040313607047AE
:101DC00010E000E0704700BF08B5FFF7FBFF08BD5B
:101DD000F8B50446FFF7F2F8002C54D0022223682D
:101DE00084F835201A68002122F0010284F83410AA
:101DF00005461A6005E0FFF7E1F8401B05283BD8CF
:101E000023681A68D107F6D4D4E90126D4E903512E
:101E1000324360691F682A43D4E906650A430243D6
:101E2000216A354832432A430A43616A384004290B
:101E300042EA000229D01A605A6922F007021143CF
:101E4000DAB22E485961103AA0FB021212092C494D
:101E500023F47F73895CE16523F00303032A88BFC1
:101E600004333F228A4001250021A36508469A6079
:101E7000616584F83550F8BD032320226265184659
:101E800084F83530F8BD0120F8BDD4E90B010143D9
:101E90000A43A56A1A605A6945F0040122F0070254
:101EA00011430028CCD07EB1B6F5005F16D0022DCC
:101EB00003D9032DC4D1C201C2D5012340226265DA
:101EC000184684F83530F8BD012D03D0F3D3022D28
:101ED000B6D1F0E7B0F1C07FB2D1EEE7032DAFD8B5
:101EE00001A252F825F000BFBB1E0008B71E000873
:101EF000BB1E0008D51E00083F8010F0ABAAAAAA9E
:101F0000A8920008F0B490F83440012C39D090F831
:101F10003540866D0125AC4280F834502BD10468E1
:101F20000227002580F8357045652568876825F407
:101F30008025402F256063600ABFA260A160E16038
:101F4000C16D18BFE2603F238B40026CB360236811
:101F500043F016032360636943F0800363611AB1A1
:101F6000236843F008032360236843F001032360E0
:101F70000020F0BC7047002380F83430F0BC022011
:101F800070470220F0BC704790F83530022B03D028
:101F900080234365012070470268052380F83530AF
:101FA000136823F00103136000207047F0B583B07D
:101FB0000023876D0193C36D3D68654908229A40EF
:101FC0002A4204460E6803D001680868400759D4C5
:101FD00001229A402A4203D021684969080674D434
:101FE00004229A402A4203D021680968890766D4EE
:101FF00010229A402A4203D02168086800074BD477
:1020000020229A402A4214D021680868C00610D5C0
:10201000BA6094F83520052A63D00B6813F4802F3A
:102020000B687ED0190340F18980E36B0BB1204629
:102030009847636D23B3636DDA071AD505232268C9
:1020400084F835301368434923F00103A1FB0616D9
:102050001360B60A02E01368DB0704D5019B013365
:10206000B3420193F7D90022012384F8342084F885
:102070003530E36C23B1204603B0BDE8F04018478B
:1020800003B0F0BD086820F004000860BA60626D1B
:1020900042F0010262659BE7BA600A6812F4802F81
:1020A0000A6818D1D20503D40A6822F008020A602F
:1020B000226C002AA4D020469047E36DA0E7BA60C6
:1020C000626D42F00402626592E7BA60626D42F0AE
:1020D0000202626584E71103EAD5A26C002AEAD104
:1020E0008EE70A68206C22F016020A604A6922F024
:1020F00080024A6138B30A6822F008020A603F226F
:10210000216D02FA03F300200122BB6084F8340041
:1021100084F835200029B3D0204603B0BDE8F04054
:10212000084713F4807380D10A68012022F010025E
:102130000A6084F8343084F8350076E7636C002B4D
:102140007FF475AF75E7A26C002AD4D1D7E700BF42
:10215000CC010020B5814E1B2DE9F04FDFF814C2F1
:10216000DFF81482D1F800E083B0002503E00135E8
:10217000102D00F094800123AB400EEA0304A3422B
:10218000F5D14E6826F0100ABAF1020F00F08A80ED
:102190004FEA45090322D0F800B002FA09F2D2430F
:1021A00006F0030702EA0B0B07FA09F70AF1FF3AF8
:1021B00047EA0B07BAF1010F076040F29980C76840
:1021C0008B683A4003FA09F31343C360F300CED59A
:1021D00000230193D8F8443043F48043C8F84430D6
:1021E000D8F8443025F0030202F1804203F4804322
:1021F00002F59C32019305F00307019BD2F8089089
:10220000BF000F23BB4029EA030A544B98421ED05B
:1022100003F5806398427ED0514B984200F0828053
:10222000504B984200F085804F4B984200F08880D8
:102230004E4B984200F08B804D4B98420CBF4FF0B4
:1022400006094FF0070909FA07F74AEA070AC2F830
:1022500008A0DCF80030E243F70354BF13402343E7
:10226000CCF80030DCF80430B70354BF13402343EC
:10227000CCF80430DCF80830F70254BF1340234395
:10228000CCF80830DCF80C30B60205F1010554BF7B
:1022900013402343102DCCF80C307FF46CAF03B007
:1022A000BDE8F08F4FEAD50900EB890905F0070773
:1022B000D9F82020BF004FF00F0B0BFA07FB22EAE2
:1022C0000B0A0A69BA4042EA0A02C9F820204FEA1A
:1022D00045090322D0F800A002FA09F2D24306F021
:1022E000030702EA0A0A07FA09F747EA0A0707603A
:1022F000876807EA020ACF6807FA09F747EA0A0778
:102300008760D0F804A0C6F300172AEA0303AF40A1
:102310001F43476053E74FF0010909FA07F74AEAFC
:10232000070A94E74FF0020909FA07F74AEA070A91
:102330008DE74FF0030909FA07F74AEA070A86E72B
:102340004FF0040909FA07F74AEA070A7FE74FF056
:10235000050909FA07F74AEA070A78E70000024088
:1023600000080240000C024000100240001402402D
:1023700000180240003C0140003802400369194245
:1023800014BF01200020704702B909048161704721
:1023900060B1484A136803F00F038B4208D2CBB2F6
:1023A0001370136803F00F038B4201D001207047B4
:1023B00003682DE9F0419D0714D55C0704D53E4C18
:1023C000A26842F4E052A2601A0704D53A4CA2680F
:1023D00042F46042A260384C8568A26822F0F002A4
:1023E0002A43A260DF0704460D4622D54268012A2F
:1023F00056D0931E012B304B1B6858D9990725D511
:102400002D4EB36823F003031343B360FEF7D6FDEC
:1024100041F28837804605E0FEF7D0FDA0EB0800CA
:10242000B84242D8B368626803F00C03B3EB820F82
:10243000F2D1204A136803F00F03AB4209D9EBB283
:102440001370136803F00F03AB4202D00120BDE804
:10245000F08123685A0706D51749E0688A6822F494
:10246000E05202438A601B0711D400F051F8124B6E
:1024700012499B68124AC3F30313CB5C20FA03F39F
:1024800000201360FEF752FD0020BDE8F0810A4AEB
:102490002169936823F4604343EAC1039360E4E74E
:1024A000054B1B689E03ABD4D0E70320EDE79801F2
:1024B000A6D4CBE7003C024000380240B0920008AE
:1024C000CC010020014B1868704700BFCC010020F0
:1024D000044B054A9B680549C3F382230868D35C13
:1024E000D840704700380240C0920008CC0100205C
:1024F000044B054A9B680549C3F342330868D35C23
:10250000D840704700380240C0920008CC0100203B
:10251000284908B58B6803F00C03082B07D00C2B57
:102520001DD0254A2548042B18BF104608BD4A680F
:102530004B6813F4800302F03F0230D149681E4813
:10254000C1F38811A1FB0001FEF700FB194B5B688A
:10255000C3F3014301335B00B0FBF3F008BD4A68ED
:102560004B6813F4800302F03F020ED14968124811
:10257000C1F38811A1FB0001FEF7E8FA0D4B5B687F
:10258000C3F30273B0FBF3F008BD4B680B48C3F311
:102590008813A3FB00010023FEF7D8FAEEE74B688F
:1025A0000648C3F38813A3FB00010023FEF7CEFA0D
:1025B000CCE700BF003802400024F40000127A008B
:1025C0002DE9F0410368DA0782B0044636D5AE49FA
:1025D0008A6802F00C02042A00F0D2808A6802F0B5
:1025E0000C02082A00F0C880A7498A6802F00C0291
:1025F0000C2A00F004816368B3F5803F00F0048189
:10260000B3F5A02F00F060819F4D2A6822F480323C
:102610002A602A6822F480222A60002B40F0F98088
:10262000FEF7CCFC064605E0FEF7C8FC801B6428DC
:1026300000F20D812B689903F6D423689A072FD5F1
:10264000914A916811F00C0F00F0AB80916801F095
:102650000C01082900F0A1808B498A6802F00C0265
:102660000C2A00F02C81E368002B00F01781874BC7
:10267000854D01221A60FEF7A1FC064605E0FEF733
:102680009DFC801B022800F2E2802B689807F6D59B
:102690002B68226923F0F80343EAC2032B60236806
:1026A0001A0715D56369002B00F08D80784B764DA5
:1026B00001221A60FEF782FC064605E0FEF77EFC6A
:1026C000801B022800F2C3806B6F9B07F6D523683E
:1026D000580731D56C4A136C13F0805300F0838097
:1026E00000266C4D2A68D10540F1A180A368012B1A
:1026F00000F0B180052B00F0F780634D2A6F22F0C7
:1027000001022A672A6F22F004022A67002B40F098
:10271000A780FEF753FC41F28837804606E0FEF7BB
:102720004DFCA0EB0800B84200F291802B6F980797
:10273000F5D4002E40F0D280A269CAB1524DA968EA
:1027400001F00C01082924D0022A534A4FF000015D
:10275000116000F0D380FEF731FC2C46054604E002
:10276000FEF72CFC401B022871D823689B01F7D48C
:10277000002002B0BDE8F0814A6857027FF534AF0F
:10278000414A126895037FF559AF6268002A7FF4C9
:1027900055AF012002B0BDE8F081526857023FF505
:1027A0005BAF394A1268950702D5E268012AF0D179
:1027B000354920690A6822F0F80242EAC0020A603C
:1027C0001A0785D56EE7324A2F4D1360FEF7F6FBE8
:1027D000064604E0FEF7F2FB801B022837D86B6F39
:1027E0009F07F7D473E70193136C43F0805313648E
:1027F000136C03F080530193019B012671E74A6833
:1028000056027FF5F8AEBBE71F4A136843F48033E6
:102810001360FEF7D3FB1C4D064604E0FEF7CEFB2B
:10282000801B642813D82B689803F7D505E72A681E
:1028300042F480722A60FEF7C1FB07462B68DA0576
:102840003FF554AFFEF7BAFBC01B0228F6D90320B0
:1028500002B0BDE8F0810C4A136F43F00103136727
:10286000FEF7ACFB084D804641F2883705E0FEF7E5
:10287000A5FBA0EB0800B842E9D82B6F9B07F6D563
:10288000002E3FF459AF29E00038024000004742D3
:10289000800E474200700040600047422F4A304D92
:1028A0001360FEF78BFB064604E0FEF787FB801BF8
:1028B0000228CCD82B689907F7D42368F0E64A6839
:1028C00056023FF5D0AE6CE7254B1A6842F48022E1
:1028D0001A601A6842F480321A609AE7204A136C30
:1028E00023F08053136427E71D4B1A6F42F0040254
:1028F0001A671A6F42F001021A67B1E7FEF75EFB32
:10290000064604E0FEF75AFB801B02289FD82B687E
:102910009901F7D4D4E90732666AE06A216B134360
:10292000A26A0F4C43EA861343EA0063520843EA63
:102930000173013A0B4943EA024301226B600A60CA
:10294000FEF73CFB054605E0FEF738FB401B02287E
:102950003FF67DAF23689A01F6D509E700004742AC
:10296000003802406000474200283BD090F85120D8
:10297000002370B502F0FF010446836262B318467B
:10298000D4E90135D4E903212B4313436269E56996
:10299000266A0B431343A26921682B43022584F85E
:1029A0005150334302F400750E682B43120C656AD4
:1029B00002F0040203432A4326F040060E600B6037
:1029C0004A60CB69002223F400630125CB611046E5
:1029D000626584F8515070BD80F8501002F02CFFF1
:1029E000A06ACDE7012070472DE9F0410D4690F82F
:1029F0005010012982B072D01E46012380F8503059
:102A000004461746FEF7DAFA804694F85100C0B241
:102A1000012809D002200122002384F8512084F8E3
:102A2000503002B0BDE8F081002DF4D0002FF2D07C
:102A3000A36820682563032284F85120B3F5004F72
:102A40004FF000026265A263A287C4E91022E78604
:102A5000A786E287024603D1036843F480430360FC
:102A6000036859063FD5E3686168B3F5006F00F06D
:102A7000B080002951D115F8013B0373E38E206823
:102A8000013B9BB2E3860246711C31D0002E52D02E
:102A9000E38E9BB273B183689A0755D4FEF78EFA22
:102AA000A0EB080086424DD9E38E20689BB2024617
:102AB000002BF0D1771C51D183689D07FCD583682A
:102AC0001A06FCD4A3682BB90193C36801938368E9
:102AD0000193019B606D003018BF01209BE702202D
:102AE00002B0BDE8F081036843F040030360BAE739
:102AF000E38E9BB2002BDDD083689B07F8D515F8D9
:102B0000013B0373E38E2068013B9BB2E386E38EB7
:102B10009BB20246002BEFD1CCE7E38E9BB2012B98
:102B2000B2D1A8E715F8013B0373E38E2068013B9F
:102B30009BB2E3860246E38E9BB2002BBAD0836839
:102B40009F07EFD4032066E715F8013B0373E38E7C
:102B50002068013B9BB2E386024699E783689907A8
:102B600013D4002E00F08A80FEF728FAA0EB0800AC
:102B7000864240F28280206802469BE7FEF71EFAFA
:102B8000A0EB08008642206804D983681B0699D50B
:102B9000002EF3D14368626823F0E003B2F5827F30
:102BA000436000F09080A36AB3F5005F08D103682A
:102BB0004DF6FF7213400360036843F40053036053
:102BC000012084F85100636D202213436365626520
:102BD00021E7002949D0E38E9BB2012B45D0771C19
:102BE00016D0002E2FD0E38E9BB2002B3FF462AFA5
:102BF0008368990731D4FEF7E1F9A0EB080086421B
:102C0000A0D9E38E20689BB20246002BF0D151E799
:102C1000E38E9BB2002B3FF44DAF83689B07F7D543
:102C200035F8023BC360E38E013B9BB2E386E38E43
:102C30009BB2002BF1D13DE735F8023BC360E38E38
:102C4000013B9BB2E386E38E9BB2002B3FF432AF95
:102C500083689B077FF576AFEEE735F8023BC360EC
:102C6000E38E013B9BB2E386BDE735F8023BC360D0
:102C7000E38E013B9BB2E386B1E72268536861684B
:102C800023F0E003B1F5827F536010D0A36AB3F55F
:102C9000005F08D113684DF6FF710B401360136895
:102CA00043F400531360012384F851304AE7A368CA
:102CB000B3F5004F02D0B3F5806FE7D1136823F06E
:102CC00040031360E2E7A368B3F5004F03D0B3F508
:102CD000806F7FF468AF036823F04003036062E70E
:102CE0002DE9F04304464068B0F5827F0D4683B07D
:102CF00094F8501016461F4618D0012900F08D8018
:102D0000012384F85030FEF759F9804694F85100B9
:102D1000C0B2012800F0858002200122002384F83F
:102D2000512084F8503003B0BDE8F083A368002B35
:102D3000E3D10423012984F851306ED0012384F8B3
:102D40005030FEF73BF994F851306268DBB2012B4A
:102D5000804607D0B2F5827FDED1A1680029DBD1A1
:102D6000042BD9D1002D00F02881002E00F0258100
:102D700094F85130012B04BF052384F85130002111
:102D800023686165E687E6861868A563C4E91011C3
:102D90004106A6872563A68603D4196841F0400141
:102DA0001960E168B1F5006F2E4600F06D81002AD0
:102DB00000F06281E28E92B2012A00F05D817B1CFC
:102DC00040F0CB8023680121E28E92B222B9E28FDB
:102DD00092B2002A00F0CE8071B1E28E92B25AB166
:102DE0009A68900708D532781A73E28E2368013A00
:102DF00092B20136E2860021E28F92B2002AE3D03D
:102E00009A68D207E0D5DB682B70E28F2368013A1D
:102E100092B20135E2870121D6E7022003B0BDE876
:102E2000F083002D3FF479AF002E3FF476AFA16818
:102E3000A563042384F85130B1F5004F4FF000032F
:102E40006365A687E6872363A386C4E91033E38618
:102E500022685ED01368580603D4136843F0400319
:102E60001360E368A3B97E1C3FD0002F5DD0E38FD1
:102E70009BB2002B30D023689A68D00700F18D8078
:102E8000FEF79CF8A0EB08008742F0D8032044E747
:102E9000791C10D0002F58D0E38F9BB2E3B1236888
:102EA0009A68D20700F18180FEF788F8A0EB08004D
:102EB0008742F1D8EAE7E38F9BB26BB19368DF07F3
:102EC000F9D5D36825F8023BE38F013B9BB2E3873A
:102ED000E38F9BB2002BF1D16368B3F5827F6ED094
:102EE000606D003018BF012017E7E38F9BB2002B05
:102EF000F2D023689A68D107F7D51B7B05F8013B10
:102F0000E38F013B9BB2E387E38F9BB2002BF0D1B1
:102F1000E2E7136823F4804313609BE71B7B05F80B
:102F2000013BE38F013B9BB2E387E38F9BB2002B16
:102F3000D2D023689A68D207A8D5EFE7D36825F8DE
:102F4000023BE38F013B9BB2E387E38F9BB2002BF5
:102F5000C2D09368DB0799D5F0E74FF00109E38E03
:102F60009BB2002B40F0C080E38F9BB2002B40F05F
:102F7000BB802368781C2FD19A689107FCD59A688A
:102F80001606FCD4A068002840F015810190DA688C
:102F900001929B680193019BBFE61B7B05F8013BF7
:102FA000E38F013B9BB2E38761E7DB6825F8023BD7
:102FB000E38F013B9BB2E3876EE70120ADE6A36898
:102FC000B3F5004F02D0B3F5806F89D12268136842
:102FD00023F04003136083E79A68920728D437B13F
:102FE000FDF7ECFFA0EB080087422368C2D85A68BF
:102FF000616822F0E002B1F5827F5A6000F0DD8066
:10300000A26AB2F5005F08D11A684DF6FF710A4056
:103010001A601A6842F400521A60012384F8513091
:1030200034E7FDF7CBFFA0EB08008742236804D903
:103030009A681506A6D5002FF3D15A68616822F068
:10304000E002B1F5827F5A6000F0C480A26AB2F556
:10305000005F08D11A684DF6FF710A401A601A68BD
:1030600042F400521A60012084F85100636D20225E
:1030700013436365626550E616F8012B1A73E38EFD
:10308000013B9BB2E3869AE6002A58D0E28E92B2C8
:10309000012A54D0791C5AD10121E28E92B222B970
:1030A000E28F92B2002A3FF465AF69B1E28E92B22C
:1030B00052B19A68920707D536F8022BDA60E28E91
:1030C000013A92B2E2860021E28F92B2002AE4D065
:1030D0009A68D007E1D5DA6825F8022BE28F013A29
:1030E00092B2E2870121D8E7B9F1000F0FD0E38E49
:1030F0009BB263B123689A68910708D532781A7336
:10310000E38E013B9BB20136E3864FF00009E38F6B
:103110009BB263B123689A68D20708D5DB682B702D
:10312000E38F013B9BB20135E3874FF00109FDF7C7
:1031300045FFA0EB080087423FF611AFA6E636F840
:10314000022BDA60E28E013A92B2E286A2E74FF0F9
:103150000109E38E9BB223B9E38F9BB2002B3FF4AE
:1031600008AFB9F1000F0FD0E38E9BB263B12368B3
:103170009A68920708D536F8022BDA60E38E013B95
:103180009BB2E3864FF00009E38F9BB263B12368E3
:103190009A68D00708D5DB6825F8023BE38F013B2E
:1031A0009BB2E3874FF00109FDF708FFA0EB080091
:1031B0008742CED86AE60020AFE5A268B2F5004F9C
:1031C00003D0B2F5806F7FF41BAF1A6822F0400283
:1031D0001A6015E7A268B2F5004F03D0B2F5806F10
:1031E0007FF434AF1A6822F040021A602EE700BF65
:1031F000002858D090F8393070B503F0FF0204462B
:10320000B3B32368354DE0686168022284F8392041
:10321000AB421A6849D0B3F1804F52D0A5F57C4536
:10322000AB422AD005F58065AB4226D005F5806516
:10323000AB4222D005F57845AB421ED005F570555E
:10324000AB4213D005F58065AB420FD005F5806524
:10325000AB420BD0A5F59835AB4207D005F580659C
:10326000AB4203D005F58065AB4232D125692DE034
:1032700080F8382002F008FBC3E7A568266922F031
:1032800070022A43164D22F440723243AB421A6058
:10329000D862996201D162691A6301225A610020E1
:1032A00084F8392070BD01207047A668256922F096
:1032B0007002324322F440722A431A60D862996243
:1032C000E9E7A668256922F07002324322F44072D1
:1032D0002A431A60D8629962DFE700BF000001400C
:1032E000000401400168022210B480F839200A6805
:1032F0000124034622430A60002083F839405DF828
:10330000044B70470368DA6842F00102DA601A6819
:1033100042F001021A600020704700BF90F8383078
:10332000012B67D002220368F0B480F839209A6834
:103330000C6822F47F4222F077020125402C80F8AD
:1033400038509A6000F0938018D9702C7FD02BD918
:10335000B4F5805F76D0B4F5005F1CD1D1E901529D
:10336000CC6899682A4342EA042221F47F410A4347
:103370009A609A6842F480429A600CE0102C42D025
:103380002FD9202C38D0302C05D19A6822F0700229
:1033900042F037029A600023012280F8392080F839
:1033A0003830F0BC18467047502C33D0602CF2D126
:1033B0001C6A4D68CE6824F010041C6299691A6A70
:1033C00021F4704122F0A00242EA051241EA0631DE
:1033D00099611A629A6822F0700242F067029A605C
:1033E000D9E7002CD7D19A6822F0700242F0070288
:1033F0009A60D0E7022070479A6822F0700242F08B
:1034000027029A60C7E79A6822F0700242F017021A
:103410009A60C0E71D6A1E6A4C68CF6826F00106F4
:103420001E629A6925F00A0122F0F00242EA0712B0
:1034300021439A6119629A6822F0700242F05702A1
:103440009A60A8E79A6822F007029A60A3E7D1E998
:103450000152CC6899682A4342EA042221F47F4150
:103460000A439A609A6842F077029A6093E71D6A6D
:103470001E6A4C68CF6826F001061E629A6925F024
:103480000A0122F0F00242EA071221439A6119620E
:103490009A6822F0700242F047029A607BE700BF10
:1034A00090F83830012B45D002220368F0B480F840
:1034B0003920D1E900459A6822F070022A4322F0AF
:1034C00007022243502D4FF0010480F838409A60E3
:1034D00046D01FD9602D30D0702D0AD1D1E90252CB
:1034E0000C6999682A4342EA042221F47F410A4385
:1034F0009A60DA6822F04002DA60DA68012400217A
:1035000022F48042DA6080F8394080F83810F0BC4C
:1035100008467047402DECD11D6A1C6A0E6924F0E4
:1035200001041C629A6922F0F00242EA06129A61D2
:103530001D62DEE70223184670471C6A8D680E691B
:1035400024F010041C6299691A6A21F4704122F077
:10355000A00241EA063142EA051299611A62C8E7FF
:103560001D6A1E6A8C680F6926F001061E629A6940
:1035700025F00A0122F0F002214342EA07129A6183
:103580001962B6E7704700BF704700BF704700BFC1
:10359000704700BF03681A69910710B5044602D549
:1035A000DA6892075FD41A69500702D5DA685107C2
:1035B00046D41A69120702D5DA6810072ED41A69A0
:1035C000D20602D5DA68D00618D41A69D10702D516
:1035D000DA68D2075DD41A69100602D5DA681106D6
:1035E0005FD41A69520602D5DA68500661D41A69A6
:1035F000910602D5DA68920643D410BD6FF010022E
:103600001A61DB69082213F4407F2276204664D0D9
:10361000FFF7BAFF002223682276D6E76FF0080290
:103620001A61DB69042299072276204652D1FFF7FE
:10363000A9FF2046FFF7AAFF002223682276BEE7F3
:103640006FF004021A619B69022213F4407F227614
:1036500020463CD1FFF796FF2046FFF797FF002258
:1036600023682276A5E76FF002021A619B690122A6
:103670009B07027625D0FFF787FF0022236822767A
:1036800091E76FF0200220461A61BDE8104000F07B
:1036900051B86FF001021A61204601F0B1FF2368B2
:1036A00099E76FF080021A61204600F045F8236820
:1036B00097E76FF040021A612046FFF769FF236821
:1036C00095E7FFF75FFF2046FFF760FFD5E7FFF7BD
:1036D0005BFFC4E7FFF758FFAEE7FFF753FF204655
:1036E000FFF754FF96E700BF90F83830012B1ED04B
:1036F00002460220136870B482F839005C6824F036
:103700007004D1E900565C60586828435860986896
:1037100020F0800098609968002401253143996069
:10372000204682F8395082F8384070BC7047022039
:10373000704700BF704700BF704700BF002800F00F
:1037400004812DE9F84390F83930044603F0FF0274
:10375000002B00F0F58023682669242284F83920A4
:10376000D86820F40050D4E90225D8601969E069CE
:1037700021F4405129431961D9686569324321F424
:1037800016412A4321F00C0102430A43DA605A69C8
:10379000A16922F440720A43B0F5004F5A61AA4A67
:1037A00071D0934200F0D38002F58062934200F022
:1037B000CE80FEF78DFEA54F636800EB800000EB26
:1037C00080009B00B0FBF3F3A7FB03235B091D0103
:1037D000FEF77EFE666800EB800000EB8000B6001E
:1037E000B0FBF6F6FEF774FE636800EB800000EBBA
:1037F00080009B00B0FBF3F3A7FB03235B094FF0B2
:10380000640909FB13631B013233A7FB03235B0924
:1038100003F0F006FEF75CFE626800EB800000EB50
:1038200080009300B0FBF3F8FEF752FED4E90021CC
:1038300000EB80008B0000EB8000B0FBF3F3A7FBF4
:1038400003135B0909FB13831B013233A7FB03132B
:10385000C3F3431333432B449360136923F490431E
:103860001361536923F02A035361D3680025202193
:1038700043F40053D3602846E56384F8391084F894
:103880003A10BDE8F883934200F09F8002F5806211
:10389000934200F09A80FEF71BFE6C4F636800EBCA
:1038A000800000EB80005B00B0FBF3F3A7FB032379
:1038B0005B091E01FEF70CFE656800EB800000EB63
:1038C00080006D00B0FBF5F5FEF702FE636800EBCB
:1038D000800000EB80005B00B0FBF3F3A7FB032349
:1038E0005B094FF0640909FB1353DB003233A7FB7C
:1038F00003231B0903F4F875FEF7EAFD626800EB89
:10390000800000EB80005300B0FBF3F8FEF7E0FD11
:10391000D4E9002100EB80004B0000EB8000B0FBFD
:10392000F3F3A7FB03135B0909FB1383DB003233BB
:10393000A7FB0313C3F3421333442B4493608CE778
:1039400080F8382002F032F805E701207047FEF7D2
:10395000CFFD3E4F636800EB800000EB80009B00D2
:10396000B0FBF3F3A7FB03235B091D01FEF7C0FDCA
:10397000666800EB800000EB8000B600B0FBF6F656
:10398000FEF7B6FD636800EB800000EB80009B0053
:10399000B0FBF3F3A7FB03234FF064095B0909FBBA
:1039A00013631B013233A7FB03235B0903F0F0060B
:1039B000FEF79EFD626800EB8000930000EB800044
:1039C000B0FBF3F8FEF794FD30E7FEF791FD1F4FD3
:1039D000636800EB800000EB80005B00B0FBF3F35A
:1039E000A7FB03235B091E01FEF782FD656800EB60
:1039F000800000EB80006D00B0FBF5F5FEF778FD70
:103A0000636800EB800000EB80005B00B0FBF3F329
:103A1000A7FB03234FF064095B0909FB1353DB0089
:103A20003233A7FB03231B0903F4F875FEF760FD8F
:103A3000626800EB8000530000EB8000B0FBF3F8FD
:103A4000FEF756FD64E700BF001001401F85EB51F3
:103A5000F0B50E4690F83910202983B02DD1002EF4
:103A60002ED0019262B31F4690F83830012B0446E5
:103A700023D00023C3630121212380F8381080F86C
:103A80003930FDF79BFA019AA284E2842268054648
:103A9000E38C9BB2002B39D0E08CA168013880B256
:103AA000B1F5805FE08419D0781C3BD11068010625
:103AB000FCD5337853600136EAE7022003B0F0BD4D
:103AC000012003B0F0BD13681B060CD4002F33D0C7
:103AD000FDF774FA401B874222682DD3781CF2D17F
:103AE00010680106FCD533882169C3F308035360CD
:103AF0000029E0D10236CBE713685B060BD4DFB1B7
:103B0000FDF75CFA401B8742226815D3781CF3D17D
:103B100013685906FCD52023002084F8393084F836
:103B20003800CBE713681B06C3D42FB1FDF746FA64
:103B3000401B87422268B7D2D36823F4D073D36086
:103B40005369202123F0010300250320536184F8E9
:103B5000391084F8385084F83A1003B0F0BD00BF33
:103B600090F83930202B18D1C9B1C2B190F8383053
:103B7000012B12D030B400230568C2842124C36312
:103B800080F83940EC68016244F08004828480F857
:103B900038301846EC6030BC704702207047012076
:103BA000704700BF90F83A30202B1CD1E9B1E2B148
:103BB00090F83830012B16D030B400230468C28549
:103BC0002225C36380F83A506569828545F0010576
:103BD000816280F838306561E26842F4907218467C
:103BE000E26030BC7047022070470120704700BF80
:103BF000704700BF03681A6870B516070446D86896
:103C0000596973D011F0010179D0D60705D5C505E2
:103C100003D5E56B45F00105E563560702F00205A3
:103C200040F19F8069B1E16B41F00201E16302F074
:103C30000806002D40F09B801EB1E16B41F00801A9
:103C4000E163E16B002959D0950628D5800626D579
:103C500094F83A20222A22D1A1682069A26AB1F5FB
:103C6000805F00F0D580511C5B68A16208B103F051
:103C70007F0313702368E28D013A92B2E28572B934
:103C8000DA6822F49072DA605A69202122F0010287
:103C90005A61204684F83A1001F01CFC23685D69E3
:103CA000E16B090703D415F0400500F09380DA6852
:103CB00022F49072DA605A69202122F001025A61DE
:103CC00084F83A105A6952065DD55A69606B22F041
:103CD00040025A61002856D0544B0365FEF754F950
:103CE00060B1606BBDE87040036D1847950609D55B
:103CF000810607D594F83A20222A48D070BD10F4E6
:103D0000907F82D116060ED45106F7D54206F5D51E
:103D1000DA68202122F04002DA60204684F8391067
:103D200001F0E4FB70BD0506EED594F83920212A98
:103D3000E4D1A168226AB1F5805F50D0511C2162A4
:103D400012785A60E28C013A92B2E284002AD5D10C
:103D5000DA6822F08002DA60DA6842F04002DA6063
:103D600070BD4DB100293FF46CAF02F00806E16B65
:103D700041F00401E1635FE716077FF562AF0029B8
:103D80007FF45BAF5DE72046FFF732FF70BDA168AF
:103D90002069A26AB1F5805F2AD0511C5B68A162DC
:103DA00008B103F07F031370E38D013B9BB2E38501
:103DB000002BA3D12368DA6822F49072DA605A6982
:103DC000202122F001025A61204684F83A1001F0C5
:103DD00081FB70BD2046FFF70BFFE56370BD1188C6
:103DE0002069C1F30801596050B902322262A9E783
:103DF0005B6840B9C3F3080322F8023BA262D3E731
:103E0000013222629EE7DBB222F8013BA262CBE7DD
:103E1000596828B9C1F3080122F8021BA2622AE7F7
:103E2000C9B222F8011BA26225E700BF313E00089B
:103E300008B5836B0022DA851846DA84FFF7D8FECE
:103E400008BD00BF70B500231D4982B01C468342E7
:103E500005DA5A5C2A2A02D054400133F7E7194D9B
:103E60001949EE5C0135224601A8ED5C02F070FCB8
:103E7000102C06DC9DF804308DF8053030238DF8C9
:103E800004309DF80430A3F16102052A9CBF203B59
:103E90008DF804309DF80530A3F16102052A9CBF1E
:103EA000203B8DF805309DF80430B34205D19DF8D4
:103EB0000500431B5842584100E0002002B070BD8D
:103EC000D0060020D1060020C892000870B5234C0F
:103ED000234E0546012220464FF48071FEF754FA26
:103EE00001224FF400711F48FEF74EFA20460022CF
:103EF0004FF48071FEF748FA3146686C0A230122BC
:103F0000FEF772FD0A23711C686C0122FEF76CFD3E
:103F1000204601224FF48071FEF736FA2046002237
:103F20004FF48071FEF730FAB11C686C0A2301224D
:103F3000FEF75AFDF11C0A23686C0122FEF754FDBE
:103F4000204601224FF48071FEF71EFA0A231A223E
:103F500005490648BDE87040FFF77ABD0000024001
:103F60000800002000080240CC920008E80A002067
:103F700070B54A4C4A4E054601224FF480714948BB
:103F8000FEF702FA204601224FF40071FEF7FCF919
:103F9000204600224FF40071FEF7F6F9311D686CDF
:103FA0000A230122FEF720FD0A23711D686C0122FD
:103FB000FEF71AFD204601224FF40071FEF7E4F9E6
:103FC000204600224FF40071FEF7DEF9B11D686C47
:103FD0000A230122FEF708FD0A23F11D686C012265
:103FE000FEF702FD204601224FF40071FEF7CCF9E6
:103FF000204600224FF40071FEF7C6F906F10801D1
:10400000686C0A230122FEF7EFFC0A2306F109017E
:10401000686C0122FEF7E8FC204601224FF4007193
:10402000FEF7B2F9204600224FF40071FEF7ACF91A
:1040300006F10A01686C0A230122FEF7D5FC0A2367
:1040400006F10B01686C0122FEF7CEFC204601222E
:104050004FF40071FEF798F9204600224FF40071EA
:10406000FEF792F906F10C01686C0A230122FEF7B3
:10407000BBFC0A23686C0C490122FEF7B5FC204604
:1040800001224FF40071FEF77FF90A231A22074933
:104090000748BDE87040FFF7DBBC00BF00080240E6
:1040A0000800002000000240BC030020E892000845
:1040B000E80A002030B52E4D2A68002383B004465C
:1040C0005362536A142BFCD90A23012204F14201E2
:1040D000606CFEF789FC0A2301220DF10601606C79
:1040E000FEF7FEFD2A6800235362536A142BFCD9A5
:1040F0000122218F606BFEF747F90022218F606B50
:10410000FEF742F92A6800235362536A142BFCD944
:104110000A23012204F14301606CFEF765FC0A23C7
:1041200001220DF10701606CFEF7DAFD2A68002319
:104130005362536A142BFCD90122218F606BFEF766
:1041400023F99DF807209DF80630DFED0A7A43EA4F
:10415000022300EE103AB8EEC00AB4EEE70AF1EE20
:1041600010FAC4BFDFED047A30EE670A03B030BD49
:10417000AC0A002000FEFF460000804738B5314CF5
:10418000002205464FF400712F48FEF7FDF8226823
:1041900000235362536A142BFCD90A2301222B49B2
:1041A000686CFEF721FC0A2301222949686CFEF79E
:1041B00097FD226800235362536A142BFCD9012215
:1041C0004FF400712048FEF7DFF800224FF48071B1
:1041D0002048FEF7D9F8226800235362536A142B53
:1041E000FCD90A2301221C49686CFEF7FDFB0A2357
:1041F0000122686C1949FEF773FD2268002353629F
:10420000536A142BFCD901224FF480711148FEF738
:10421000BBF8124B1B78D42B0BD10D4B1B78492BC1
:1042200007D10A2311220E490E48FFF711FC012085
:1042300038BD0A2310220C490A48FFF709FC002068
:1042400038BD00BFAC0A0020000802401500002065
:10425000300500200000024016000020C8060020A3
:1042600004930008E80A002018930008F0B5464DB2
:10427000464AEB7B4649026380F843304FF4807234
:104280002B7C416389B0028780F842300446FFF7F7
:1042900011FF84ED000A6A7CAB7C84F8432084F82B
:1042A00042302046FFF706FF2B7DEA7C84F842303F
:1042B00084F84320204684ED010AFFF7FBFE94EDCD
:1042C000007AD4ED017A334F84ED020ABDEEC77A4D
:1042D000FDEEE77A17EE101A87FB0130C917C1EB24
:1042E000A006734217EE902AFDEEC07ADBB2F6B25A
:1042F00058BF5E4287FB023417EE903AD217C1EBEB
:10430000A02087FB0317C2EBA401234DC2EBA4241A
:104310004A424FEAE373D2B2C9B2687258BF5142FF
:104320000420C3EBA70228725042C3EBA723C0B2FC
:10433000D2B2AE7258BF4242EC7229730024C0213F
:104340006B73002608230027A869AA73EC738DF805
:104350001C40296002916B600693CDE90467FDF76C
:1043600091FA08B909B0F0BD0121A869FDF7A2FAD8
:104370000028F7D101AB05F10802A86902A9FDF7F1
:1043800029FA09B0F0BD00BF08000020295C8F3C6D
:10439000000002406766666690060020F0B53E4D5C
:1043A0003E4A6B7D3E49026380F843304FF4007211
:1043B000AB7D416389B0028780F842300446FFF745
:1043C00079FEEA7D2B7E84F8432084F84230204633
:1043D00084ED060AFFF76EFE6A7EAB7E84F843200A
:1043E00084F84230204684ED070AFFF763FE94ED1F
:1043F000077AD4ED067A2B4884ED080AFDEEE77AB9
:10440000BDEEC77A17EE902A17EE101AFDEEC07AAD
:1044100080FB016417EE903AC917C1EBA40180FB41
:104420000264D217204D80FB0360C2EBA402DB17AD
:10443000C3EBA003C1F30724C2F3072605206C7267
:10444000A972C3F30724002128722A73EE72C022D6
:10445000AB73002608230027A8696C73E9738DF8F5
:104460001C102A6002926B600693CDE90467FDF789
:1044700009FA08B909B0F0BD0121A869FDF71AFAD7
:104480000028F7D101AB05F10802A86902A9FDF7E0
:10449000A1F909B0F0BD00BF080000202B009D3A33
:1044A00000080240676666669006002010B5D0E9F5
:1044B000001288B000230446806902910692CDE97B
:1044C00004338DF81C30FDF7DDF910B9002008B079
:1044D00010BD0121A069FDF7EDF90028F6D101AB6F
:1044E00004F10802A06902A9FDF774F9012008B0DF
:1044F00010BD00BF10B5002188B004468069FDF7EB
:104500007FFA30B104F11003A06901AA0021FDF780
:10451000E5F9019808B010BD70B5104CD4E901322E
:1045200093428EB018D004EB830305461E6901A8A0
:10453000314602F02DF9304601F0CCFB6368272BA1
:1045400014BF0133002301A86360FCF77FFC01A9BD
:1045500082B22846FFF704FB0EB070BDBC030020FA
:10456000F8B54FF41652404D404E42600C4628605C
:10457000FFF7E4F831461422C8232868FFF768FAE9
:104580004FF4FA70FCF720FD28684FF46143436054
:10459000FFF7D4F831461422C8232868FFF758FAE9
:1045A0004FF4FA70FCF710FD28684FF4E1334360D4
:1045B000FFF7C4F83146C823142228682C4EFFF7B1
:1045C00047FA4FF4FA70FCF7FFFC2A492868C82321
:1045D0001122FFF73DFA4FF4FA70FCF7F5FC26497B
:1045E0002868C8233322FFF733FA4FF4FA70FCF738
:1045F000EBFC224B224A1868206003CAB3F804C0BF
:104600009F79204BDFF888E0E06021611288A28268
:1046100003CBBEF80020A4F804C0A283DFF874C066
:10462000194AE0622163306819889B78A77184F881
:104630003630B788BCF80030E064B6791068A387DC
:10464000A065A186A4F8507084F852609188927990
:10465000A4F85C1084F85E2028680C490122FFF75A
:10466000A1FA0120F8BD00BFCC0600202C93000861
:10467000B493000844930008589300088C930008F2
:1046800094930008A4930008BC930008AC06002093
:10469000A0930008B0930008F0B5BD4B1B6883429F
:1046A00083B003D00024204603B0F0BDB94CBA4E0D
:1046B00001220D462146FFF775FAD6F8E420B749E6
:1046C00023780B70012A08D0242BEBD1B44A0024A4
:1046D00001231460C6F8E430E5E7242BF6D0B04A95
:1046E000B04F10680D2B3B5404D00A2B02D0013080
:1046F0001060D7E700233B54B978C6F8E430472967
:104700002BD05629CED1F9785429CBD139794729E4
:10471000C8D1CDE90032FFF795FB01280446DDE959
:104720000032BFD11668DFF898C2052ECCF80030F1
:104730004BDD19461846052207E007293ED0082917
:1047400008BF32460132B2423CDA17F802E0BEF14D
:104750002C0FF2D101310123F4E7FA78472AA1D1D5
:104760003A79412A9ED10093FFF76CFB0128009B08
:1047700098D18D481F461E461C461A4600F15F0E12
:1047800016E0012A57D0022A68D0032A00F0AE8032
:10479000042A00F0A280052A00F0A580062A00F075
:1047A000EA80092A00F0E1800A2A5DD070455BD0DA
:1047B00010F8011F2C29E4D10132F7E705F800E0D9
:1047C0000130BFE70BB1CCF8001095F86330302B07
:1047D00037D10023AB60D5E909124842734BC0B210
:1047E000CEB258BF464250429E72C0B24FF007064A
:1047F0001E72D6B258BF46421E7305F11C064FF416
:1048000080705E7391FBF0F192FBF0F25972DA72F4
:10481000AA6892FBF0F15042C0B2D2B24FF0D0067B
:1048200058BF4242082518469973DA73C3E90065F8
:10483000FFF73CFE37E705EB030C01338CF858100B
:10484000B4E7284601F016FA0022594B51EC100B40
:10485000FBF79AFEFCF732F9A860BCE705EB040C05
:1048600001348CF80C10A1E795F86330302B3FD160
:104870000023C5E90933C5E911336B65D5E911405A
:104880006342DBB2E6B258BF5E424142474B6A6DBB
:104890009E72C9B2C7B258BF4F421F73574205F14B
:1048A0003C01FFB24FF48076597394FBF6F490FB11
:1048B000F6F04FF008015C72D872D4B2184658BFB7
:1048C0007C42D02792FBF6F2DC739A731F60197258
:1048D00059600024FFF7EAFDE5E605EB060C01361A
:1048E0008CF82C1062E785F83C105FE729775DE7CC
:1048F00005F10C0001F0BEF921A3D3E9002351EC2E
:10490000100BFBF741FEFCF7D9F8286205F12C00EB
:1049100001F0B0F91CA3D3E9002351EC100BFBF715
:1049200033FEFCF7CBF8286405F14C0001F0A2F946
:1049300000221F4B51EC100BFBF726FEFCF7BEF8D4
:104940002E6A1C4B2C6C1C49686542F2107296FB57
:10495000F2F203FB0266194B94FBF3F301FB0341F4
:10496000C5E90926C5E9113188E705EB070C0137D0
:104970008CF84C101AE785F8631017E7AFF3008046
:10498000000000000088C34000000000006AF840FA
:10499000CC060020AC060020BC0300208C060020C2
:1049A0004C050020D0060020D406002090060020F0
:1049B00000005940F0D8FFFF6079FEFFA08601009B
:1049C00088060020000000002DE9F04F0223064673
:1049D00003610022402183B05748FDF7D5FCD6F88B
:1049E000303131691A6800235362536A8B42FCD913
:1049F0007368002B35DBDFF840914FF0000801228F
:104A000040214846FDF7C0FCD6F8303131691A68BC
:104A100000235362536A8B42FCD97368434525DDFA
:104A20004FF480714846FDF7A9FCA0F1010006EBA8
:104A30008803B0FA80F040095861002240214846BE
:104A4000FDF7A2FCD6F8303131691A6800235362B1
:104A5000536A8B42FCD9D6F804A008F10108D0456E
:104A6000CDDD96ED4A0B03B0BDE8F08F002240216A
:104A70004846FDF789FCD6F8303131691A680023C1
:104A80005362536A8B42FCD9012240214846FDF70C
:104A90007BFC4FF480714846FDF770FCD6F804A00B
:104AA000A0F10100B0FA80F04009BAF1000FB06047
:104AB0003BDD06F1100754464FF0000B57F8043F5A
:104AC000012B11D0013C002CF8D15846FBF7F2FC29
:104AD00017A3D3E90023FBF781FE0022174BFBF756
:104AE00053FDC6E94A01B8E7012C4FF00002144B10
:104AF00019D0013C002510461946FBF78FFB013504
:104B0000A54202460B46F6D15846CDE90023FBF7F5
:104B1000D1FCDDE90023FBF781FBFBF7CFFF8346E8
:104B2000002CCBD1D1E70024EEE700200021D8E70C
:104B300062105839B4C04640000802400000E03F0F
:104B40000000F03F000000002DE9F0472DED028B42
:104B5000824682B00068FBF7ADFC0022CDE900017F
:104B6000534BDAE91C01FBF70FFD514B04460D4690
:104B70000022DAE91E01FBF707FDDAF86830012BA5
:104B800006460F467ED002460B4620462946FBF7D6
:104B900043FB0022474BFBF721FE3DA3D3E9002353
:104BA000FBF7F2FC8046DAF86C008946FBF794FCD0
:104BB00002460B4640464946FBF7E6FCDDE900238A
:104BC000FBF70CFE34A3D3E90023FBF7DDFC41EC3B
:104BD000100B00F0FDFF204629460022344BB0EEBA
:104BE000408AF0EE608AFBF7F9FD04460D4600228C
:104BF0002F4B30463946CAE91C45FBF7EFFD064608
:104C00000F4600222C4BCAE91E6720462946FBF7B7
:104C10002DFF38B122A3D3E9002330463946FBF7F4
:104C200043FFE0B9304639460022234BFBF71EFF15
:104C3000D0B970220AF188010AF1800001F052F81F
:104C400000221E4B51EC180BFBF7C8FD16A3D3E94D
:104C50000023FBF799FCCAE93C01CAE9480102B00C
:104C6000BDEC028BBDE8F087204629460CA3D3E9B2
:104C70000023FBF719FF0028DBD002B0BDEC028B4C
:104C8000BDE8F08722462B46FBF7C6FA81E700BF56
:104C90006F1283C0CA210940000000000088C34091
:104CA0000000000000307640CDCCCCCCCCCC0C4009
:104CB00000005940008076400000104000408F40C6
:104CC000F0B5C36889B004463BB1012B49D0022B33
:104CD0000ED00133E36009B0F0BDFFF775FE84ED3F
:104CE0001C0BE368022BF4D10023E36009B0F0BD94
:104CF000FFF72AFF00221D4B1D4DD4E94801FBF7A9
:104D000043FCC4E94801FBF701FF636EEB7382B219
:104D1000130A0626D0216B72AA72002308222E7273
:104D200000270026A869EB722B736B73AB738DF8A9
:104D30001C30296002916A600692CDE90467FCF795
:104D4000A1FD0028CDD00121A869FCF7B3FD002802
:104D5000C7D101AB05F10802A86902A9FCF73AFD29
:104D6000BFE7FFF731FE84ED1E0BBAE700002440D9
:104D700090060020026981688A420FDD511A6FF0A7
:104D8000630303FB01F3C16893FBF1F36433036036
:104D900043689A42A4BF0023036070476423036002
:104DA000F6E700BF03694360704700BF0369836093
:104DB000704700BF30B4064B064C0749074AD3E999
:104DC00000509B6825610861136130BC704700BFCB
:104DD000500B0020B0060020D00400203405002035
:104DE00070B594B00020284A0090116C274B41F018
:104DF00080511164126C02F080520092009A01906E
:104E00001A6842F440421A601B68012003F44043D0
:104E1000022401934FF4A0254FF4800108224FF49F
:104E20009073079007A8019E08950D94CDE9114451
:104E30001394CDE90E121093FDF7C2FB00B1FEE70B
:104E400002464FF4A0530F25042102A8CDE90342E6
:104E50000295CDE90533FDF79BFA044600B1FEE764
:104E6000FDF730FB4FF47A73B0FBF3F0FCF784FFEF
:104E70000420FCF79BFF224621464FF0FF30FCF751
:104E800039FF14B070BD00BF003802400070004010
:104E90002DE9804891B00024A94DFCF769F8FFF78F
:104EA0009FFF01942B6BA74843F080032B632B6B70
:104EB00003F080030193019B02942B6B43F00103E9
:104EC0002B632B6B03F001030293029B03942B6B68
:104ED00043F002032B632B6B03F002030393039B4A
:104EE00004942B6B43F004032B632B6B03F004033C
:104EF000049301224021049BFDF746FA22464FF419
:104F000000719048FDF740FA22464FF480718E48B8
:104F1000FDF73AFA0127402203230BA989480E9393
:104F2000CDE90B274FF480760D94FDF715F90BA909
:104F300084480B96CDE90C444FF4007AFDF70CF948
:104F40000BA980480E94CDE90C74CDF82CA0FDF788
:104F500003F90BA97C48CDE90B67CDE90D44FDF7BA
:104F6000FBF80BA979480D94CDE90B64FDF7F4F833
:104F700000942B6B43F480032B632B6B03F48003AF
:104F80002246009321463820009BFCF7B3FE3820D0
:104F9000FCF7E6FE6E4B6F4A9C604FF4E1394FF030
:104FA0000C081846C3E90344C3E90644C3E90029D1
:104FB000C3F81480FEF7C2FB00B1FEE7664E674AF5
:104FC000326002234FF4800273604FF48033B0608C
:104FD000F060307770774FF430213046C6E9052312
:104FE0003161FCF7BFFA00B1FEE75D4D5D49C5F8E0
:104FF00018A0C5E90200C5E904004FF48272C5E9B2
:105000000700C5E909000A23284629606A60EB62A7
:10501000FDF7AAFC00B1FEE7534C544B544A206202
:10502000C4E90100E062E0602046A3622761A76155
:10503000E761276367612260FBF7D8FF034600B191
:10504000FEE7082220460BA90B920C970D93FCF764
:10505000DBF9024600B1FEE7464B4749C3F804902E
:105060001846C3E90222C3E90428C3E906221960ED
:10507000FEF764FB00B1FEE7404C4FF08043A060B8
:1050800020612422236020464FF47A736260E3603B
:10509000FEF7AEF800B1FEE70DF140084FF4805383
:1050A00048F8243D20464146FEF738F9034600B152
:1050B000FEE70BA92046CDE90B33FEF7F1F90346D5
:1050C00000B1FEE7204605A9CDE90533FEF70CFB4C
:1050D00000B1FEE72A4F2B4B3B6012234FF6DC72E8
:1050E0007B6038460023C7E902323B61FEF780F857
:1050F00000B1FEE74FF4805A0BA93846CDF82CA03A
:10510000FEF70CF9034600B1FEE741463846CDE90B
:105110000733FEF7E9FA034600B1FEE71A4C1B4AD3
:10512000A0604FF4616B4FF4FA6920462361C4E933
:10513000002BC4F80C90FEF75BF848B3FEE700BF05
:105140000038024000080240000002400004024013
:10515000E80A002000440040280B002000640040C2
:10516000540A002000300140180900200100000FFF
:10517000002001406C09002000100140AC0A002012
:10518000B4080020000400409C07002000080040F4
:105190000BA92046CDF82CA0FEF7C0F8034600B1BD
:1051A000FEE720464146CDE90733FEF79DFA00B100
:1051B000FEE7AF4CAF4A2061C4E902092423204630
:1051C00022606360FEF714F800B1FEE70BA92046E9
:1051D000CDF82CA0FEF7A2F8034600B1FEE7414649
:1051E0002046CDE90733FEF77FFA024600B1FEE71D
:1051F000A14BA249C3F804B01846C3E902291960BB
:10520000FDF7F6FF00B1FEE700230BA99A48CDE9B0
:105210000B33FEF769FA00B1FEE7DFF8A4A2984A63
:10522000CAF808004FF4FA63CAF80C305046242339
:10523000CAF80430CAF80020FDF7DAFF034600B1CF
:10524000FEE70BA95046CDE90B33FEF74DFA00B14E
:10525000FEE7DFF870928B4AC9F808002423C9F8EA
:105260000430C9F810004FF4FA734846C9F800201A
:10527000C9F80C30FDF7BCFF044600B1FEE702465A
:1052800001461320FCF736FD1320FCF769FD22468A
:1052900021461420FCF72EFD1420FCF761FD224668
:1052A00021461520FCF726FD1520FCF759FD224666
:1052B00021461620FCF71EFD1620FCF751FD224664
:1052C00021461220FCF716FD1220FCF749FD22466C
:1052D00021463720FCF70EFD3720FCF741FD224622
:1052E00021463620FCF706FD3620FCF739FD224624
:1052F00021463220FCF7FEFC3220FCF731FD22462D
:1053000021461C20FCF7F6FC1C20FCF729FD224658
:1053100021461920FCF7EEFC1920FCF721FD22465E
:1053200021462520FCF7E6FC2520FCF719FD564A0E
:1053300056489461114601231362C2E90044C2E950
:105340000244C2E90444D461FCF78EF94F48DFF807
:105350007881DFF878B1FCF70FFA14214B48FCF79D
:1053600063FB15214948FCF75FFBDFF864C1484B3C
:105370004848C8F844504FF480714FF4007501223A
:10538000CCF81860C8F83430C8F83C00A8F8385099
:10539000A8F84010FCF7F8FF012229463C483E4D92
:1053A000FCF7F2FF3D493E48FFF7DAF83D4B3E4837
:1053B000DFED3E7AFA687E68C3ED1B7A9FED2A6BBB
:1053C0002421B1FBF6F63C2192FBF1F1384A1E6133
:1053D00028314FF47A7E4FF00E0C5966016040F68A
:1053E000DC7740F2AE6140F62E163248D16083ED94
:1053F000486BC3E900EC9C66DC60C3F830B1C2E9DD
:105400000176FDF76FFF2C48FDF76CFF5046FDF766
:1054100069FF4846FDF766FF2648FDF773FF2648FB
:10542000FDF770FF5046FDF76DFF4846FDF76AFF38
:10543000DBF83C00DBF80010DBF87820DBF8B43058
:1054400044624C62404654625C62FEF791FD404605
:10545000FEF73CFD4046FEF791FE03222946174821
:10546000FBF772FEF9E700BF00000000000000003B
:1054700078080020000C0040100A002000100040B6
:105480000014004000440140F0080020280B0020D8
:105490000008024000000240500B0020D807002006
:1054A0006C09002050050020500A002000007E45B5
:1054B000D0040020AC0A0020B40800201809002005
:1054C0005C0B00203C080020E804002024000020A1
:1054D00090060020034B834200D070470249FFF73B
:1054E000DBB800BF6C090020D8070020024B8342C4
:1054F00000D07047FFF710B8E80A002070B53C48AC
:10550000FEF7F8FF552813D040F2012398420FD040
:10551000A02801D0AA2852D1354E337CDA1E022AA7
:1055200014D9082B12D0D82B10D0BB2813D070BDA3
:105530002F4E337C512B09D0033BDBB2082BE7D82D
:1055400040F2A71222FA03F3DB07E1D5294B01222F
:105550001A6070BD264E348A022C0BD0B4F5817FC0
:105560001BD0254AD2E901315B1A002BB8BF5B4240
:10557000D360DCE720481E4DFFF718FCBC2208234F
:10558000C6E900230021C6E90241C8242846FEF7E7
:105590008DFF013CFAD1348AE0E71748144DFFF73C
:1055A00001FCBC220823C6E900230021C6E9024110
:1055B000C8242846FEF77AFF013CFAD1D1E740F231
:1055C00081139842A8D0BB28C4D00A28AFD1084B79
:1055D0001A7C012AABD15C7C9A7CD87C1B7D074964
:1055E00002EB042203EB00234A60CB609FE700BF7D
:1055F00090060020B4040020340500203C08002060
:10560000F8B5224B9842044603D0214B9C4213D05C
:10561000F8BD204D6B68042B1BD0062B11D0012B3D
:1056200003D11D48FEF7BAFE6B68072B0ED001337D
:105630006B60174B9C42EBD11848BDE8F840FFF770
:105640003FBBAE6856B10022AA60F0E700236B6052
:10565000DBE71148FEF70AFE6B68E6E7104F3846B5
:10566000FFF788FB0F4B3A685A7202201872C0216C
:105670005E819E81DE8108221846C3E90012FEF792
:1056800015FF0123AB606B68CFE700BF3C0800202B
:105690005C0B0020B4040020E8040020500500202A
:1056A000D004002090060020FEE700BF10B582B0B5
:1056B0000024224B00945A6C42F480425A645A6C83
:1056C00002F480420092009A01941A6C42F08052D7
:1056D0001A641B6C03F0805301930320019BFCF7B9
:1056E000F7FA224621466FF00B00FCF703FB224637
:1056F00021466FF00A00FCF7FDFA224621466FF0C2
:105700000900FCF7F7FA224621466FF00400FCF787
:10571000F1FA224621466FF00300FCF7EBFA22462D
:1057200021466FF00100FCF7E5FA224621464FF0D2
:10573000FF3002B0BDE81040FCF7DCBA0038024090
:105740001E4B02689A4200D0704770B586B00026A2
:1057500003F58C3300965A6C194C42F480725A64EB
:105760005B6C039603F4807300930122032300997A
:10577000019201A9054613480293FCF7EDFC12487B
:1057800020604FF480614FF400624FF400532046D4
:105790006660C4E90266C4E907666662C4E9041289
:1057A000A361FCF715FB18B9AC63A56306B070BD27
:1057B00074210648FFF778FFF6E700BF002001409C
:1057C000B00900200004024010640240C4930008A5
:1057D0000268174B9A4200D07047F0B587B0002797
:1057E00003F5EA3300971A6C124842F000721A640B
:1057F0001B6C03F0007300934FF4006201A90226B2
:1058000001230325009C01920924CDE90263CDE91F
:105810000454FCF7A1FC4FF4805301A905480193FF
:10582000CDE90267CDE90454FCF796FC07B0F0BD62
:1058300000640040000002400268114B9A4200D010
:10584000704770B586B0002103F5843300915A6C1F
:105850000C4842F480525A645B6C039103F4805309
:10586000009303220523E025022401A9009ECDE92F
:105870000154CDE90423FCF76FFC06B070BD00BFF6
:10588000003001400000024000B50368B3F1804FD2
:1058900089B01ED03E4A93424ED03E4A934228D011
:1058A0003D4A934257D03D4A934263D03C4A93428B
:1058B00035D03C4A934219D13B4B002207925A6C97
:1058C00042F400325A645B6C03F400330793079B85
:1058D0000CE003F50E33002201921A6C42F0010233
:1058E0001A641B6C03F001030193019B09B05DF87E
:1058F00004FB00222C4B0392196C41F00401196443
:105900001B6C03F00403039311461E20039BFCF75A
:10591000F1F91E2009B05DF804EBFCF721BA224B27
:10592000002206921A6C42F020021A641B6C03F0EB
:1059300020030693069BD9E71B4B002202921A6CA8
:1059400042F002021A641B6C03F002030293029BF2
:1059500009B05DF804FB144B002204921A6C42F06B
:1059600008021A641B6C03F008030493049B09B03B
:105970005DF804FB0C4B002205921A6C42F01002F9
:105980001A641B6C03F010030593059BAEE700BF80
:105990000004004000080040000C004000100040DF
:1059A00000140040004401400038024070B5036814
:1059B000244A934288B028D0234A934201D008B0A9
:1059C00070BD0024214B0294196C214841F4003130
:1059D00019641B6C03F40033029302210C2303228D
:1059E00003930491072303A901250793CDE90552E9
:1059F000029EFCF7B1FB224621462620FCF77AF9ED
:105A00002620FCF7ADF908B070BD104B10480022FD
:105A100001925A6C42F010025A645B6C4FF4C06100
:105A200003F01003019303220723039102250124AD
:105A300003A9019ECDE90454CDE90623FCF78CFBB4
:105A400008B070BD00100140004400400038024022
:105A500000000240704700BFFEE700BFFEE700BF46
:105A6000FEE700BFFEE700BF704700BF704700BF02
:105A7000704700BF08B5FBF795FABDE80840FCF792
:105A8000A3B900BF0148FBF71DBC00BF18090020E7
:105A90000148FBF7F5BF00BF280B00200148FBF7CA
:105AA000EFBF00BF280B00200148FBF7E9BF00BF94
:105AB000280B00200148FBF7E3BF00BF280B0020A4
:105AC0000148FDF767BD00BF3C0800200148FDF715
:105AD00061BD00BFAC0A00200148FDF75BBD00BFFF
