:020000040800F2
:1000000000000220A13D0008C53C0008C93C0008D2
:10001000CD3C0008D13C0008D53C000800000000A1
:10002000000000000000000000000000D93C0008B3
:10003000DD3C000800000000E13C0008E53C000851
:10004000F13D0008F13D0008F13D0008F13D0008D8
:10005000F13D0008F13D0008F13D0008F13D0008C8
:10006000F13D0008F13D0008F13D0008F13D0008B8
:10007000F13D0008F13D0008F13D0008F13D0008A8
:10008000F13D0008F13D0008F53C0008013D000885
:100090000D3D0008113D0008153D0008F13D000828
:1000A000F13D0008F13D0008F13D0008F13D000878
:1000B000193D0008253D0008313D0008F13D0008CC
:1000C000F13D0008F13D0008F13D0008F13D000858
:1000D000F13D0008F13D0008F13D0008F13D000848
:1000E0003D3D0008F13D0008F13D0008F13D0008EC
:1000F000F13D0008F13D0008F13D0008F13D000828
:10010000F13D0008F13D0008F13D0008F13D000817
:10011000F13D0008F13D0008F13D0008F13D000807
:10012000453D0008F13D0008F13D0008F13D0008A3
:10013000F13D00080000000000000000F13D000853
:10014000F13D0008F13D0008F13D0008F13D0008D7
:10015000F13D0008F13D0008F13D0008F13D0008C7
:10016000F13D0008F13D0008F13D0008F13D0008B7
:10017000F13D0008F13D0008F13D000800000000DD
:1001800000000000F13D0008000000000000000039
:10019000F13D00080000000000000000F13D0008F3
:1001A000000000000000000000000000F13D000819
:1001B000F13D0008F13D0008F13D0008F13D000867
:0401C000F13D000805
:1001D00010B5054C237833B9044B13B10448AFF381
:1001E00000800123237010BD80000020000000006B
:1001F0006446000808B5034B1BB103490348AFF33D
:10020000008008BD00000000840000206446000853
:1002100081F0004102E000BF83F0004330B54FEAB7
:1002200041044FEA430594EA050F08BF90EA020F24
:100230001FBF54EA000C55EA020C7FEA645C7FEAB7
:10024000655C00F0E2804FEA5454D4EB5555B8BFDA
:100250006D420CDD2C4480EA020281EA030382EA4B
:10026000000083EA010180EA020281EA0303362DDD
:1002700088BF30BD11F0004F4FEA01314FF4801CB0
:100280004CEA113102D0404261EB410113F0004FC2
:100290004FEA03334CEA133302D0524263EB430379
:1002A00094EA050F00F0A780A4F10104D5F1200E17
:1002B0000DDB02FA0EFC22FA05F2801841F1000172
:1002C00003FA0EF2801843FA05F359410EE0A5F146
:1002D00020050EF1200E012A03FA0EFC28BF4CF077
:1002E000020C43FA05F3C01851EBE37101F000452D
:1002F00007D54FF0000EDCF1000C7EEB00006EEB3A
:100300000101B1F5801F1BD3B1F5001F0CD34908C3
:100310005FEA30004FEA3C0C04F101044FEA44521A
:1003200012F5800F80F09A80BCF1004F08BF5FEAA1
:10033000500C50F1000041EB045141EA050130BD81
:100340005FEA4C0C404141EB010111F4801FA4F124
:100350000104E9D191F0000F04BF01460020B1FA79
:1003600081F308BF2033A3F10B03B3F120020CDAB1
:100370000C3208DD02F1140CC2F10C0201FA0CF08F
:1003800021FA02F10CE002F11402D8BFC2F1200CF4
:1003900001FA02F120FA0CFCDCBF41EA0C019040AA
:1003A000E41AA2BF01EB0451294330BD6FEA0404F3
:1003B0001F3C1CDA0C340EDC04F11404C4F12002DE
:1003C00020FA04F001FA02F340EA030021FA04F3F0
:1003D00045EA030130BDC4F10C04C4F1200220FA47
:1003E00002F001FA04F340EA0300294630BD21FA85
:1003F00004F0294630BD94F0000F83F4801306BF4B
:1004000081F480110134013D4EE77FEA645C18BF3E
:100410007FEA655C29D094EA050F08BF90EA020FD5
:1004200005D054EA000C04BF1946104630BD91EACD
:10043000030F1EBF0021002030BD5FEA545C05D1D0
:100440004000494128BF41F0004130BD14F580040F
:100450003CBF01F5801130BD01F0004545F0FE4183
:1004600041F470014FF0000030BD7FEA645C1ABFB8
:10047000194610467FEA655C1CBF0B46024650EAEF
:10048000013406BF52EA033591EA030F41F400211B
:1004900030BD00BF90F0000F04BF0021704730B5A1
:1004A0004FF4806404F132044FF000054FF0000176
:1004B00050E700BF90F0000F04BF0021704730B537
:1004C0004FF4806404F1320410F0004548BF40420C
:1004D0004FF000013EE700BF42004FEAE2014FEA61
:1004E00031014FEA02701FBF12F07F4393F07F4F3C
:1004F00081F06051704732F07F4208BF704793F03F
:100500007F4F04BF41F40021704730B54FF4607451
:1005100001F0004521F000411CE700BF50EA010254
:1005200008BF704730B54FF000050AE050EA0102FD
:1005300008BF704730B511F0004502D5404261EB6D
:1005400041014FF4806404F132045FEA915C3FF4AE
:10055000D8AE4FF003025FEADC0C18BF03325FEA4B
:10056000DC0C18BF033202EBDC02C2F1200300FAFC
:1005700003FC20FA02F001FA03FE40EA0E0021FA21
:1005800002F11444BDE600BF70B54FF0FF0C4CF40F
:10059000E06C1CEA11541DBF1CEA135594EA0C0FC1
:1005A00095EA0C0F00F0DEF82C4481EA030621EAFC
:1005B0004C5123EA4C5350EA013518BF52EA033537
:1005C00041F4801143F4801338D0A0FB02CE4FF0E9
:1005D0000005E1FB02E506F00042E0FB03E54FF019
:1005E0000006E1FB03569CF0000F18BF4EF0010E11
:1005F000A4F1FF04B6F5007F64F5407404D25FEA0D
:100600004E0E6D4146EB060642EAC62141EA5551BF
:100610004FEAC52040EA5E504FEACE2EB4F1FD0C01
:1006200088BFBCF5E06F1ED8BEF1004F08BF5FEA7F
:10063000500E50F1000041EB045170BD06F0004631
:1006400046EA010140EA020081EA0301B4EB5C04DE
:10065000C2BFD4EB0C0541EA045170BD41F48011D6
:100660004FF0000E013C00F3AB8014F1360FDEBFFB
:10067000002001F0004170BDC4F10004203C35DAD7
:100680000C341BDC04F11404C4F1200500FA05F35A
:1006900020FA04F001FA05F240EA020001F00042FB
:1006A00021F0004110EBD37021FA04F642EB060171
:1006B0005EEA430E08BF20EAD37070BDC4F10C049B
:1006C000C4F1200500FA04F320FA05F001FA04F25F
:1006D00040EA020001F0004110EBD37041F100014B
:1006E0005EEA430E08BF20EAD37070BDC4F1200556
:1006F00000FA05F24EEA020E20FA04F301FA05F2BE
:1007000043EA020321FA04F001F0004121FA04F265
:1007100020EA020000EBD3705EEA430E08BF20EA35
:10072000D37070BD94F0000F0FD101F0004640006F
:1007300041EB010111F4801F08BF013CF7D041EAF1
:10074000060195F0000F18BF704703F000465200F5
:1007500043EB030313F4801F08BF013DF7D043EAC6
:100760000603704794EA0C0F0CEA135518BF95EA7C
:100770000C0F0CD050EA410618BF52EA4306D1D103
:1007800081EA030101F000414FF0000070BD50EA22
:10079000410606BF1046194652EA430619D094EAAC
:1007A0000C0F02D150EA013613D195EA0C0F05D196
:1007B00052EA03361CBF104619460AD181EA0301EA
:1007C00001F0004141F0FE4141F470014FF00000A2
:1007D00070BD41F0FE4141F4780170BD70B54FF03D
:1007E000FF0C4CF4E06C1CEA11541DBF1CEA1355BD
:1007F00094EA0C0F95EA0C0F00F0A7F8A4EB05049F
:1008000081EA030E52EA03354FEA013100F0888095
:100810004FEA03334FF0805545EA131343EA12635E
:100820004FEA022245EA111545EA10654FEA002613
:100830000EF000419D4208BF964244F1FD0404F5CC
:10084000407402D25B084FEA3202B61A65EB030528
:100850005B084FEA32024FF480104FF4002CB6EBE5
:10086000020E75EB030E22BFB61A754640EA0C0065
:100870005B084FEA3202B6EB020E75EB030E22BFA5
:10088000B61A754640EA5C005B084FEA3202B6EBE6
:10089000020E75EB030E22BFB61A754640EA9C00A5
:1008A0005B084FEA3202B6EB020E75EB030E22BF75
:1008B000B61A754640EADC0055EA060E18D04FEA33
:1008C000051545EA16754FEA06164FEAC30343EAD3
:1008D00052734FEAC2025FEA1C1CC0D111F4801FA0
:1008E0000BD141EA00014FF000004FF0004CB6E799
:1008F00011F4801F04BF01430020B4F1FD0C88BF38
:10090000BCF5E06F3FF6AFAEB5EB030C04BFB6EB42
:10091000020C5FEA500C50F1000041EB045170BD35
:100920000EF0004E4EEA113114EB5C04C2BFD4EB62
:100930000C0541EA045170BD41F480114FF0000EE6
:10094000013C90E645EA060E8DE60CEA135594EA62
:100950000C0F08BF95EA0C0F3FF43BAF94EA0C0F65
:100960000AD150EA01347FF434AF95EA0C0F7FF4DA
:1009700025AF104619462CE795EA0C0F06D152EA2E
:1009800003353FF4FDAE1046194622E750EA410612
:1009900018BF52EA43067FF4C5AE50EA41047FF423
:1009A0000DAF52EA43057FF4EBAE12E74FEA410286
:1009B00012F5001215D211D56FF47873B3EB6252B1
:1009C00012D94FEAC12343F0004343EA505311F0D8
:1009D000004F23FA02F018BF404270474FF000006A
:1009E000704750EA013005D111F0004008BF6FF0A8
:1009F000004070474FF00000704700BF53B94AB93C
:100A0000002908BF00281CBF4FF0FF314FF0FF3016
:100A100000F072B9ADF1080C6DE904CE00F006F8F3
:100A2000DDF804E0DDE9022304B070472DE9F0476A
:100A3000089E04468846002B4BD18A42154667D94A
:100A4000B2FA82F24AB1C2F1200701FA02F320FAA7
:100A500007F7954047EA030894404FEA154E230CE8
:100A6000B8FBFEF71FFA85FC0EFB178843EA084324
:100A700007FB0CF1994209D9EB1807F1FF3080F020
:100A80001B81994240F21881023F2B445B1AA4B2A9
:100A9000B3FBFEF00EFB103344EA034400FB0CFCF6
:100AA000A44509D92C1900F1FF3380F00781A44532
:100AB00040F2048102382C4440EA0740A4EB0C04C5
:100AC00000271EB1D4400023C6E900433946BDE8E3
:100AD000F0878B4209D9002E00F0EB800027C6E991
:100AE000000138463946BDE8F087B3FA83F7002F96
:100AF00047D18B4202D3824200F2FA80841A61EB22
:100B0000030301209846002EE0D0C6E90048DDE747
:100B100002B9FFDEB2FA82F2002A40F08F80491B50
:100B20004FEA154E1FFA85F80127B1FBFEFC230C96
:100B30000EFB1C1143EA014308FB0CF1994207D953
:100B4000EB180CF1FF3002D2994200F2CD808446BE
:100B5000591AA3B2B1FBFEF00EFB101443EA044491
:100B600008FB00F8A04507D92C1900F1FF3302D289
:100B7000A04500F2B6801846A4EB080440EA0C40F9
:100B80009FE7C7F1200CBB4022FA0CFE4EEA030E91
:100B900001FA07F420FA0CF521FA0CF34FEA1E488B
:100BA0002543B3FBF8F92C0C08FB19331FFA8EFA16
:100BB00044EA034309FB0AF49C4202FA07F200FAF2
:100BC00007F10BD91EEB030309F1FF3080F087809A
:100BD0009C4240F28480A9F1020973441B1BADB210
:100BE000B3FBF8F008FB103345EA034400FB0AFAB4
:100BF000A24508D91EEB040400F1FF336BD2A245D5
:100C000069D90238744440EA0940A0FB0289A4EB88
:100C10000A044C45C2464B4654D351D0002E69D0ED
:100C2000B1EB0A0564EB030404FA0CFCFD40FC4044
:100C30004CEA0505C6E90054002747E7C2F1200346
:100C400020FA03F7954001FA02F021FA03F34FEA84
:100C5000154E3843010CB3FBFEF71FFA85F80EFB67
:100C6000173341EA034107FB08F38B4204FA02F40D
:100C700007D9691807F1FF3C2FD28B422DD9023FCB
:100C80002944CB1A81B2B3FBFEF00EFB103341EACC
:100C9000034100FB08F38B4207D9691800F1FF3CC0
:100CA00017D28B4215D902382944C91A40EA07479E
:100CB0003BE73746304609E70746E7E61846FBE6D6
:100CC0004145ABD2B8EB020A69EB0E02013813467C
:100CD000A4E76046E9E7184695E76746D1E781460D
:100CE0007CE702382C4447E7ACF1020C2B442FE799
:100CF000384608E73746E9E6704700BF034613F871
:100D0000012B002AFBD1181A01387047000000009F
:100D100001F0FF01102A2BDB10F0070F08D010F8AC
:100D2000013B013A8B422DD010F0070F42B3F6D1B0
:100D3000F0B441EA012141EA014122F007047FF0C9
:100D400000070023F0E80256083C85EA010586EA20
:100D5000010685FA47F5A3FA87F586FA47F6A5FA5C
:100D600087F68EB9EED1F0BC01F0FF0102F0070268
:100D700032B110F8013B013A83EA010313B1F8D113
:100D80000020704701387047002D06BF35460338F4
:100D9000073815F0010F07D1013015F4807F02BF2D
:100DA000013015F4C03F0130F0BC0138704700BF7E
:100DB00070B50E4B0E4D1B682A7806464FF47A70BC
:100DC000B0FBF2F0B3FBF0F000F0F0FE08B90F2E2C
:100DD00001D9012070BD0446024631464FF0FF3074
:100DE00000F0A2FE6E60204670BD00BF140000201F
:100DF0000000002008B50B4B1A6842F400721A601C
:100E00001A6842F480621A601A6842F480721A60AA
:100E1000032000F077FE0020FFF7CAFF02F012FE69
:100E2000002008BD003C0240034A044B11681B78B7
:100E30000B441360704700BFBC000020000000207E
:100E4000014B1868704700BFBC000020002800F06C
:100E50008E80F8B5036C0446002B7ED0236CDB0635
:100E600004D50023012084F83C30F8BD226C4C49A5
:100E700023684C4D22F4885222F0020242F0020212
:100E800022644A6822F440324A604A686068024339
:100E90004A6058682169A768E66820F48070586045
:100EA0005A6842EA01225A60586820F0407058603F
:100EB0005968A06A39435960996821F400619960C2
:100EC0009A68A84242EA06029A6052D09968E56A96
:100ED00021F0706199609A6810439860996821F0D8
:100EE000405199609A682A439A609968A569206A76
:100EF00021F0020199609A6842EA45029A605A68B4
:100F000000283FD122F400625A60DA6AE569276B53
:100F1000666922F47002DA62D86A013D40EA05503F
:100F2000D862986820F400709860996841EA472177
:100F30009960996821F4806199609A68002042EA7A
:100F400086229A606064236C23F0030343F001035C
:100F50002364002384F83C30F8BD436480F83C30BF
:100F600002F0BAFD236CDB063FF57BAF7EE7012084
:100F700070479A6822F070629A609A6822F0405234
:100F80009A60B2E742F40062616A5A605A6822F4D9
:100F900060425A605A68013942EA41325A60B4E705
:100FA000002301400100000FF0B590F83C3083B001
:100FB0000024012B019469D00568AB680124DE0789
:100FC00080F83C4014D4334B334E1C68AB68A6FB0E
:100FD0000464A40C43F0010304EB4404AB600194EB
:100FE000019B2BB1019C013C0194019C002CF9D187
:100FF000AB68DC073DD5046C24F4E06424F0010404
:1010000044F4807404646B685B0505D5036C23F4B9
:10101000405343F480530364036C204E13F4805315
:101020001CBF436C23F0060343640446806B1346E5
:1010300000271B4A84F83C70C6630264194EC664DC
:101040006FF022022A606E6846F080666E60AE68BD
:1010500046F480760A46AE6005F14C0100F06CFE65
:10106000114B5B6813F01F0F236805D00F4A9342A2
:1010700002D0002003B0F0BD986810F04050F8D1C5
:101080009A6842F080429A6003B0F0BD022003B03B
:10109000F0BD00BF1400002083DE1B43B110000828
:1010A00011110008511200080023014000200140E6
:1010B000836B1A6C12F0500F02D09B6BDB6C1847DD
:1010C0001A6C196842F4007210B51A648A6812F03A
:1010D000405F17D19A69AAB9CA6A12F4700F02D098
:1010E0008A6850050ED44A6822F020024A601A6CC1
:1010F00022F480721A641A6CD20403D41A6C42F07F
:1011000001021A64184602F01DF810BD704700BFB6
:1011100008B5806BFFF7FAFF08BD00BF704700BF3E
:10112000704700BF38B503681A68596804469007CD
:1011300001D58A0653D41A685968520701D50D069D
:101140001BD41A685968D00701D54A0606D41A6814
:101150005968900601D54A0169D438BD1A68D50787
:10116000F5D5236C43F4803323642046FFF7D6FF84
:1011700023686FF001021A60E9E7226CD00603D4FD
:10118000226C42F4005222649A6812F4401F1ED16D
:101190009A6B12F4401F02D09A68510517D45A680E
:1011A000520514D49A6812F0405F10D1A26972B946
:1011B0005A6822F080025A60236C23F4805323641F
:1011C000236CDD0503D4236C43F001032364204624
:1011D00000F0F6F823686FF00C021A60B1E7226C99
:1011E000D50603D4226C42F4007222649A6812F08D
:1011F000405F14D1A26992B9DA6A12F4700F23D158
:101200005A6822F020025A60236C23F4807323640E
:10121000236CD90403D4236C43F0010323642046D8
:1012200001F090FF23686FF012021A6083E7626C8E
:101230006FF0200542F00202626420461D60FFF755
:101240006FFF23681D6038BD9A685005E7D4D7E763
:10125000806B08B540230364436C43F0040343648C
:10126000FFF75EFF08BD00BFF0B490F83C3082B0DD
:101270000022012B019200F08D800D688A680368BE
:101280000124092DAFB280F83C4029D81C6905EB38
:1012900045064FF0070C0CFA06FC24EA0C041C610E
:1012A0001C6902FA06F626431E614E68062E06EBFE
:1012B00086022AD8596B053A1F24944021EA04017A
:1012C0005963596B07FA02F20A435A63374A934249
:1012D0002DD0002380F83C30184602B0F0BC704797
:1012E00007EB4706DC681E3E4FF0070C0CFA06FCC5
:1012F00024EA0C04DC60DC6802FA06F62643DE60B1
:101300004E68062E06EB8602D4D90C2E2DD8A2F1FB
:1013100023041F211A6BA14022EA01021A63196BF0
:1013200007FA04F20A431A63204A9342D1D1122DDC
:1013300029D01F4B9D4231D11E491F4B4A681F4C7B
:1013400042F400024A601B68A4FB03239B0C03EBDE
:1013500083035B000193019B002BBAD0019B013BEF
:101360000193019B002BF9D1B3E7A2F141011F24A6
:10137000DA6A8C4022EA0402DA62DC6A07FA01F2D5
:101380002243DA62A2E7D2F8043343F48003C2F8BE
:1013900004339EE7022002B0F0BC7047112D98D1B3
:1013A000044A536843F40003536092E7002001406D
:1013B00012000010002301401400002083DE1B43B4
:1013C000704700BF00287CD038B590F82030044624
:1013D000002B73D02268136823F002031360FFF719
:1013E0002FFD054604E0FFF72BFD401B0A285CD8C3
:1013F00023685A689107F6D41A6842F001021A600D
:10140000FFF71EFD054604E0FFF71AFD401B0A2802
:101410004BD823685A68D207F6D5227E012A1A686B
:101420000CBF42F0800222F080021A60627E012A24
:101430001A680CBF42F0400222F040021A60A27EFD
:10144000012A1A680CBF42F0200222F020021A6022
:10145000E27E012A1A680CBF22F0100242F010024C
:101460001A60227F012A1A680CBF42F0080222F09B
:1014700008021A60627F012A1A680CBF42F0040257
:1014800022F004021A60D4E90221D4E904500A438C
:1014900061682A43024301390A4301250021DA61C8
:1014A0000846616284F8205038BD636A052243F41F
:1014B00000336362012084F8202038BD02F056FB1F
:1014C00088E70120704700BF90F82030012B09D039
:1014D00090F82030022B05D0436A43F48023436206
:1014E000012070473B4BD3F8002242F00102F0B4D8
:1014F000C3F80022D3F8002222F47C52C3F8002261
:10150000D3F80022486A42EA0022C3F800224A695E
:10151000D3F81C5201209040C4432540C3F81C520C
:10152000CD69002D39D1D3F80C522540C3F80C52A7
:10153000D200CF688D888E680B8802F1804202F558
:10154000C84245EA074543EA0643C2F84052C2F89A
:1015500044328B691F4A002B35D1D2F80432234024
:10156000C2F804320B693BBB1A4BD3F81422144067
:10157000C3F814420B6A012B05D1164AD2F81C326B
:101580001843C2F81C02134AD2F8003223F00103B8
:101590000020C2F80032F0BC7047012DD9D1D3F839
:1015A0000C520543C3F80C52D20002F180420F687E
:1015B0008D888E688B89C2E7064AD2F814320343BD
:1015C000C2F81432D6E7D2F804320343C2F8043228
:1015D000C8E700BF0064004038B590F82030012B08
:1015E00005D0436A43F400234362012038BD0268FA
:1015F000022380F82030136823F0010313600446AF
:10160000FFF71EFC054604E0FFF71AFC401B0A2802
:1016100007D823685B6813F00103F5D163621846AD
:1016200038BD636A052243F400336362012084F805
:10163000202038BD70B490F82040012C0AD090F8DA
:101640002040022C06D0436A43F4802343620120E9
:1016500070BC70470468A5686D012DD5A068012590
:10166000C0F3016085401D608B688BBB0E68CD6840
:1016700000F118031B0145EA4655E5500D7D096947
:1016800000012318012DC3F8841105D1D3F884116A
:1016900041F48071C3F8841104445168C4F88C117A
:1016A0001268C4F88821D3F8802142F0010200209A
:1016B000C3F8802170BC7047A5682E01CED4A56800
:1016C000ED00CBD4436A43F4001343620120BFE72B
:1016D000CD684E682B4300F118052D0143EAC6037F
:1016E0006351CBE790F82030012B05D090F82030E3
:1016F000022B01D000207047036898689A689B68A5
:101700001201C0F3806048BF0130DB00F3D5013027
:10171000704700BF90F82030012B05D090F82030A2
:10172000022B01D00020704703689B68890631EACC
:10173000030314BF01200020704700BF2DE9F041D2
:10174000044690F8200001280AD094F820000228CE
:1017500006D0636A43F4802363620120BDE8F08110
:101760002668002956D1F068850763D0080135182E
:10177000D5F8B07107F004079760002F55D0D5F861
:10178000B071FF085760D5F8B0E1D5F8B4C1D5F80D
:10179000B471D5F8B4510644CEF3400ED6F8B881F2
:1017A000C7F307270CF00F062D0CC2E903E6C2E9C8
:1017B000055783F8008022680244D2F8B821120A43
:1017C0005A7022680244D2F8B821120C9A7022682A
:1017D0000244D2F8B821120EDA7022680244D2F81C
:1017E000BC211A7122680244D2F8BC21120A5A7133
:1017F00022680244D2F8BC21120C9A71226810446B
:10180000D0F8BC21120EDA71D9B1012921D0002003
:10181000BDE8F0810129A9D130698007A6D1636AAA
:1018200043F400130846636298E7D5F8B0717F0D62
:101830001760A8E7636A43F4001363620120BDE800
:10184000F0812268D36843F020030846D360BDE8E6
:10185000F0812268136943F02003136100207DE7C3
:1018600090F82030012B05D090F82030022B01D0C9
:1018700000207047036819B1186900F00300704731
:10188000D86800F00300704790F82030012B09D091
:1018900090F82030022B05D0436A43F48023436242
:1018A0000120704702685369194351610020704755
:1018B000704700BF704700BF704700BF704700BF50
:1018C000704700BF704700BF704700BF704700BF40
:1018D000704700BF704700BF704700BF704700BF30
:1018E0002DE9F84F03685C69D3F804809F68D3F84A
:1018F0000CB0D3F81090D3F818A014F001060546E8
:1019000020D017F001060DD00122B9079A6000F12E
:10191000C7807A0700F1C88017F0080600F0DE8063
:101920004FF48056FB050BD52B684FF48072B80539
:101930009A6000F1B180790540F1BE8046F400560E
:10194000FB0376D4230702D51BF0100F6BD167077A
:1019500003D51BF0080F40F09480A00703D52B6837
:10196000DB68990777D1620602D519F0100F54D1C0
:10197000A30602D519F0080F66D1E70603D52B6838
:101980001B6998076BD1A10302D518F0100F6AD11B
:10199000E20302D518F0080F6CD1230434D518F0F7
:1019A000040F2B682ED0E70504D51AF0010F18BFDD
:1019B00046F00106A00504D51AF0020F18BF46F044
:1019C0000206610504D51AF0040F18BF46F004069C
:1019D000220517D51AF0700A14D0BAF1300F00F0B2
:1019E00087806ED9BAF1500F7FD0BAF1600F00F046
:1019F0008280BAF1400F01D146F040069A6922F088
:101A000070029A6104225A602EB16B6A1E436E62A4
:101A10002846FFF763FFBDE8F88F2B68102246F4D5
:101A200080661A61A4E72B68102246F40076DA601B
:101A30008DE72B684FF48032B8039A6028D479037D
:101A400035D546F400467DE72B6808221A61284602
:101A5000FFF73EFF91E72846FFF736FF83E728466A
:101A6000FFF734FF8FE72B6810225A602846FFF7F4
:101A700031FF8DE72B6808225A602846FFF72CFFBC
:101A80008BE72B680822DA60284601F0A3FE64E7A2
:101A90002846FFF711FF55E72846FFF70BFF4FE7F2
:101AA000FFF706FF00263DE74FF400663AE73A03EA
:101AB00010D546F4803645E73A0512D546F48046FF
:101AC0003EE7BAF1100F19D0BAF1200F96D146F0C7
:101AD000100693E72846FFF7F5FE33E7FFF7EEFE23
:101AE00020E72846FFF7ECFE2AE746F0800685E768
:101AF00046F0200682E746F480767FE746F0080647
:101B00007CE700BF074AD3684FF6FF010B40000295
:101B100043F0BF6300F4E06043F400330343D36059
:101B2000704700BF00ED00E0184BDB68C3F30223F1
:101B300030B4C3F10705042D03F1040428BF0425C4
:101B4000062C19D9033B4FF0FF349C4022EA0404D1
:101B50004FF0FF32AA4021EA020101FA03F22243C8
:101B600012010028D2B20ADB00F1604000F56140AA
:101B700080F8002330BC704700242346E8E7044B7C
:101B800000F00F0003441A7630BC704700ED00E00F
:101B9000FCEC00E000F01F0101234009024A8B40E9
:101BA00042F82030704700BF00E100E00138B0F19A
:101BB000807F0ED2084B10B4084C5860F02084F897
:101BC00023000022072110469A6019605DF8044B3B
:101BD00070470120704700BF10E000E000ED00E01A
:101BE000044A136804280CBF43F0040323F00403E1
:101BF0001360704710E000E0704700BF08B5FFF7C2
:101C0000FBFF08BDF8B50446FFF71AF9002C54D0C5
:101C10000222236884F835201A68002122F001028C
:101C200084F8341005461A6005E0FFF709F9401BF7
:101C300005283BD823681A68D107F6D4D4E90126D1
:101C4000D4E90351324360691F682A43D4E9066529
:101C50000A430243216A354832432A430A43616AF0
:101C60003840042942EA000229D01A605A6922F059
:101C700007021143DAB22E485961103AA0FB021252
:101C800012092C4923F47F73895CE16523F0030377
:101C9000032A88BF04333F228A4001250021A3651F
:101CA00008469A60616584F83550F8BD0323202208
:101CB0006265184684F83530F8BD0120F8BDD4E9D6
:101CC0000B0101430A43A56A1A605A6945F00401F1
:101CD00022F0070211430028CCD07EB1B6F5005F98
:101CE00016D0022D03D9032DC4D1C201C2D50123C0
:101CF00040226265184684F83530F8BD012D03D0C6
:101D0000F3D3022DB6D1F0E7B0F1C07FB2D1EEE748
:101D1000032DAFD801A252F825F000BFEF1C000838
:101D2000EB1C0008EF1C0008091D00083F8010F0A4
:101D3000ABAAAAAA7C460008F0B490F83440012C63
:101D400039D090F83540866D0125AC4280F834508A
:101D50002BD104680227002580F835704565256879
:101D6000876825F48025402F256063600ABFA26044
:101D7000A160E160C16D18BFE2603F238B40026C3F
:101D8000B360236843F016032360636943F0800364
:101D900063611AB1236843F008032360236843F0AA
:101DA000010323600020F0BC7047002380F834302A
:101DB000F0BC022070470220F0BC7047F0B583B041
:101DC0000023876D0193C36D3D68654908229A40E1
:101DD0002A4204460E6803D001680868400759D4B7
:101DE00001229A402A4203D021684969080674D426
:101DF00004229A402A4203D021680968890766D4E0
:101E000010229A402A4203D02168086800074BD468
:101E100020229A402A4214D021680868C00610D5B2
:101E2000BA6094F83520052A63D00B6813F4802F2C
:101E30000B687ED0190340F18980E36B0BB120461B
:101E40009847636D23B3636DDA071AD505232268BB
:101E500084F835301368434923F00103A1FB0616CB
:101E60001360B60A02E01368DB0704D5019B013357
:101E7000B3420193F7D90022012384F8342084F877
:101E80003530E36C23B1204603B0BDE8F04018477D
:101E900003B0F0BD086820F004000860BA60626D0D
:101EA00042F0010262659BE7BA600A6812F4802F73
:101EB0000A6818D1D20503D40A6822F008020A6021
:101EC000226C002AA4D020469047E36DA0E7BA60B8
:101ED000626D42F00402626592E7BA60626D42F0A0
:101EE0000202626584E71103EAD5A26C002AEAD1F6
:101EF0008EE70A68206C22F016020A604A6922F016
:101F000080024A6138B30A6822F008020A603F2260
:101F1000216D02FA03F300200122BB6084F8340033
:101F200084F835200029B3D0204603B0BDE8F04046
:101F3000084713F4807380D10A68012022F0100250
:101F40000A6084F8343084F8350076E7636C002B3F
:101F50007FF475AF75E7A26C002AD4D1D7E700BF34
:101F600014000020B5814E1B2DE9F04FDFF814C29C
:101F7000DFF81482D1F800E083B0002503E00135DA
:101F8000102D00F094800123AB400EEA0304A3421D
:101F9000F5D14E6826F0100ABAF1020F00F08A80DF
:101FA0004FEA45090322D0F800B002FA09F2D24301
:101FB00006F0030702EA0B0B07FA09F70AF1FF3AEA
:101FC00047EA0B07BAF1010F076040F29980C76832
:101FD0008B683A4003FA09F31343C360F300CED58C
:101FE00000230193D8F8443043F48043C8F84430C8
:101FF000D8F8443025F0030202F1804203F4804314
:1020000002F59C32019305F00307019BD2F808907A
:10201000BF000F23BB4029EA030A544B98421ED04D
:1020200003F5806398427ED0514B984200F0828045
:10203000504B984200F085804F4B984200F08880CA
:102040004E4B984200F08B804D4B98420CBF4FF0A6
:1020500006094FF0070909FA07F74AEA070AC2F822
:1020600008A0DCF80030E243F70354BF13402343D9
:10207000CCF80030DCF80430B70354BF13402343DE
:10208000CCF80430DCF80830F70254BF1340234387
:10209000CCF80830DCF80C30B60205F1010554BF6D
:1020A00013402343102DCCF80C307FF46CAF03B0F9
:1020B000BDE8F08F4FEAD50900EB890905F0070765
:1020C000D9F82020BF004FF00F0B0BFA07FB22EAD4
:1020D0000B0A0A69BA4042EA0A02C9F820204FEA0C
:1020E00045090322D0F800A002FA09F2D24306F013
:1020F000030702EA0A0A07FA09F747EA0A0707602C
:10210000876807EA020ACF6807FA09F747EA0A0769
:102110008760D0F804A0C6F300172AEA0303AF4093
:102120001F43476053E74FF0010909FA07F74AEAEE
:10213000070A94E74FF0020909FA07F74AEA070A83
:102140008DE74FF0030909FA07F74AEA070A86E71D
:102150004FF0040909FA07F74AEA070A7FE74FF048
:10216000050909FA07F74AEA070A78E7000002407A
:1021700000080240000C024000100240001402401F
:1021800000180240003C0140003802400369194237
:1021900014BF01200020704702B909048161704713
:1021A000704700BF044A5169014200D1704708B529
:1021B0005061FFF7F5FF08BD003C014060B1484A9F
:1021C000136803F00F038B4208D2CBB2137013686D
:1021D00003F00F038B4201D00120704703682DE903
:1021E000F0419D0714D55C0704D53E4CA26842F42B
:1021F000E052A2601A0704D53A4CA26842F4604249
:10220000A260384C8568A26822F0F0022A43A260DE
:10221000DF0704460D4622D54268012A56D0931E98
:10222000012B304B1B6858D9990725D52D4EB36823
:1022300023F003031343B360FEF702FE41F2883735
:10224000804605E0FEF7FCFDA0EB0800B84242D84E
:10225000B368626803F00C03B3EB820FF2D1204A3B
:10226000136803F00F03AB4209D9EBB21370136884
:1022700003F00F03AB4202D00120BDE8F0812368D8
:102280005A0706D51749E0688A6822F4E0520243EB
:102290008A601B0711D400F051F8124B12499B6859
:1022A000124AC3F30313CB5C20FA03F3002013603C
:1022B000FEF77EFD0020BDE8F0810A4A216993689F
:1022C00023F4604343EAC1039360E4E7054B1B68D2
:1022D0009E03ABD4D0E70320EDE79801A6D4CBE76B
:1022E000003C0240003802408446000814000020F0
:1022F000014B1868704700BF14000020044B054ACA
:102300009B680549C3F382230868D35CD8407047B3
:10231000003802409446000814000020044B054A8F
:102320009B680549C3F342330868D35CD8407047C3
:10233000003802409446000814000020284908B5DF
:102340008B6803F00C03082B07D00C2B1DD0254AFB
:102350002548042B18BF104608BD4A684B6813F483
:10236000800302F03F0230D149681E48C1F3881152
:10237000A1FB0001FEF742FB194B5B68C3F301436D
:1023800001335B00B0FBF3F008BD4A684B6813F4FF
:10239000800302F03F020ED149681248C1F3881150
:1023A000A1FB0001FEF72AFB0D4B5B68C3F3027330
:1023B000B0FBF3F008BD4B680B48C3F38813A3FBD5
:1023C00000010023FEF71AFBEEE74B680648C3F353
:1023D0008813A3FB00010023FEF710FBCCE700BF2E
:1023E000003802400024F40000127A002DE9F04188
:1023F0000368DA0782B0044636D5AE498A6802F02F
:102400000C02042A00F0D2808A6802F00C02082A2A
:1024100000F0C880A7498A6802F00C020C2A00F07C
:1024200004816368B3F5803F00F00481B3F5A02F09
:1024300000F060819F4D2A6822F480322A602A6869
:1024400022F480222A60002B40F0F980FEF7F8FC8D
:10245000064605E0FEF7F4FC801B642800F20D81BF
:102460002B689903F6D423689A072FD5914A91686F
:1024700011F00C0F00F0AB80916801F00C010829FD
:1024800000F0A1808B498A6802F00C020C2A00F04F
:102490002C81E368002B00F01781874B854D0122CA
:1024A0001A60FEF7CDFC064605E0FEF7C9FC801B6E
:1024B000022800F2E2802B689807F6D52B68226983
:1024C00023F0F80343EAC2032B6023681A0715D5EB
:1024D0006369002B00F08D80784B764D01221A60E5
:1024E000FEF7AEFC064605E0FEF7AAFC801B0228BC
:1024F00000F2C3806B6F9B07F6D52368580731D570
:102500006C4A136C13F0805300F0838000266C4DEE
:102510002A68D10540F1A180A368012B00F0B180A9
:10252000052B00F0F780634D2A6F22F001022A6725
:102530002A6F22F004022A67002B40F0A780FEF7E2
:102540007FFC41F28837804606E0FEF779FCA0EB7D
:102550000800B84200F291802B6F9807F5D4002E46
:1025600040F0D280A269CAB1524DA96801F00C01B5
:10257000082924D0022A534A4FF00001116000F0CC
:10258000D380FEF75DFC2C46054604E0FEF758FCC0
:10259000401B022871D823689B01F7D4002002B0A9
:1025A000BDE8F0814A6857027FF534AF414A1268AE
:1025B00095037FF559AF6268002A7FF455AF01207B
:1025C00002B0BDE8F081526857023FF55BAF394A6F
:1025D0001268950702D5E268012AF0D135492069D1
:1025E0000A6822F0F80242EAC0020A601A0785D59A
:1025F0006EE7324A2F4D1360FEF722FC064604E0D8
:10260000FEF71EFC801B022837D86B6F9F07F7D49C
:1026100073E70193136C43F080531364136C03F05E
:1026200080530193019B012671E74A6856027FF5AA
:10263000F8AEBBE71F4A136843F480331360FEF71C
:10264000FFFB1C4D064604E0FEF7FAFB801B6428E6
:1026500013D82B689803F7D505E72A6842F48072EF
:102660002A60FEF7EDFB07462B68DA053FF554AF0D
:10267000FEF7E6FBC01B0228F6D9032002B0BDE836
:10268000F0810C4A136F43F001031367FEF7D8FB88
:10269000084D804641F2883705E0FEF7D1FBA0EBFC
:1026A0000800B842E9D82B6F9B07F6D5002E3FF4FF
:1026B00059AF29E00038024000004742800E4742EF
:1026C00000700040600047422F4A304D1360FEF713
:1026D000B7FB064604E0FEF7B3FB801B0228CCD80C
:1026E0002B689907F7D42368F0E64A6856023FF54D
:1026F000D0AE6CE7254B1A6842F480221A601A6843
:1027000042F480321A609AE7204A136C23F0805317
:10271000136427E71D4B1A6F42F004021A671A6F01
:1027200042F001021A67B1E7FEF78AFB064604E0B1
:10273000FEF786FB801B02289FD82B689901F7D4EF
:10274000D4E90732666AE06A216B1343A26A0F4C30
:1027500043EA861343EA0063520843EA0173013AED
:102760000B4943EA024301226B600A60FEF768FBF3
:10277000054605E0FEF764FB401B02283FF67DAFEF
:1027800023689A01F6D509E7000047420038024065
:10279000600047420168022210B480F839200A68BC
:1027A0000124034622430A60002083F839405DF883
:1027B000044B70470368DA6842F00102DA601A6875
:1027C00042F001021A600020704700BF90F83830D4
:1027D000012B67D002220368F0B480F839209A6890
:1027E0000C6822F47F4222F077020125402C80F809
:1027F00038509A6000F0938018D9702C7FD02BD974
:10280000B4F5805F76D0B4F5005F1CD1D1E90152F8
:10281000CC6899682A4342EA042221F47F410A43A2
:102820009A609A6842F480429A600CE0102C42D080
:102830002FD9202C38D0302C05D19A6822F0700284
:1028400042F037029A600023012280F8392080F894
:102850003830F0BC18467047502C33D0602CF2D181
:102860001C6A4D68CE6824F010041C6299691A6ACB
:1028700021F4704122F0A00242EA051241EA063139
:1028800099611A629A6822F0700242F067029A60B7
:10289000D9E7002CD7D19A6822F0700242F00702E3
:1028A0009A60D0E7022070479A6822F0700242F0E6
:1028B00027029A60C7E79A6822F0700242F0170276
:1028C0009A60C0E71D6A1E6A4C68CF6826F0010650
:1028D0001E629A6925F00A0122F0F00242EA07120C
:1028E00021439A6119629A6822F0700242F05702FD
:1028F0009A60A8E79A6822F007029A60A3E7D1E9F4
:102900000152CC6899682A4342EA042221F47F41AB
:102910000A439A609A6842F077029A6093E71D6AC8
:102920001E6A4C68CF6826F001061E629A6925F07F
:102930000A0122F0F00242EA071221439A61196269
:102940009A6822F0700242F047029A607BE700BF6B
:10295000704700BF704700BF704700BF704700BF9F
:1029600003681A69910710B5044602D5DA68920720
:102970005FD41A69500702D5DA68510746D41A693C
:10298000120702D5DA6810072ED41A69D20602D5CA
:10299000DA68D00618D41A69D10702D5DA68D207E6
:1029A0005DD41A69100602D5DA6811065FD41A6977
:1029B000520602D5DA68500661D41A69910602D52A
:1029C000DA68920643D410BD6FF010021A61DB6919
:1029D000082213F4407F2276204664D0FFF7BAFF26
:1029E000002223682276D6E76FF008021A61DB69BD
:1029F000042299072276204652D1FFF7A9FF2046EC
:102A0000FFF7AAFF002223682276BEE76FF00402D8
:102A10001A619B69022213F4407F227620463CD142
:102A2000FFF796FF2046FFF797FF002223682276E4
:102A3000A5E76FF002021A619B6901229B070276EB
:102A400025D0FFF787FF00222368227691E76FF0F9
:102A5000200220461A61BDE8104000F0D5B86FF0A2
:102A600001021A61204600F00DFF236899E76FF01C
:102A700080021A61204600F0C9F8236897E76FF0DA
:102A800040021A612046FFF769FF236895E7FFF7C8
:102A90005FFF2046FFF760FFD5E7FFF75BFFC4E766
:102AA000FFF758FFAEE7FFF753FF2046FFF754FF4D
:102AB00096E700BF70B4314D03688C680A68A8427D
:102AC0004FD0B0F1804F29D0A5F57C45A84234D035
:102AD00005F58065A84230D005F58065A8422CD068
:102AE00005F57845A84228D005F57055A84213D0C1
:102AF00005F58065A8420FD005F58065A8420BD08A
:102B0000A5F59835A84207D005F58065A84203D001
:102B100005F58065A84209D1C96804E04D68C96817
:102B200023F070032B4323F440730B430360C46210
:102B300082620123436170BC70474D68CE6823F008
:102B400070032B430E4D23F440733343A8420360BC
:102B5000C4628262EDD10B6903630123436170BCDF
:102B600070474E68CD6823F07003334323F44073FD
:102B70002B430360C4628262EDE700BF00000140A6
:102B800000040140B8B190F8393010B503F0FF02ED
:102B900004465BB1022384F839302068211DFFF719
:102BA00089FF012384F83930002010BD80F83820D7
:102BB00001F010F8EEE70120704700BF90F83830C0
:102BC000012B1ED002460220136870B482F839002F
:102BD0005C6824F07004D1E900565C6058682843B2
:102BE0005860986820F0800098609968002401255A
:102BF00031439960204682F8395082F8384070BCE1
:102C000070470220704700BF704700BF704700BF89
:102C1000026811692DE9F843C568836821F44051C1
:102C20000446294300691161D16865690343E0697D
:102C300021F416412B4321F00C0103430B43D360D5
:102C40005369A16923F440730B43B0F5004F5361FE
:102C50009B4B00F09A809A4259D003F580639A42C8
:102C600055D0FFF74BFB974F636800EB800000EBFC
:102C700080009B00B0FBF3F3A7FB03235B091D015E
:102C8000FFF73CFB666800EB800000EB8000B600BD
:102C9000B0FBF6F6FFF732FB636800EB800000EB59
:102CA00080009B00B0FBF3F3A7FB03235B094FF00D
:102CB000640909FB13631B013233A7FB03235B0980
:102CC00003F0F006FFF71AFB626800EB800000EBF0
:102CD00080009300B0FBF3F8FFF710FBD4E900236A
:102CE00000EB80009B0000EB8000B0FBF3F0A7FB43
:102CF0000030400909FB10831B013233A7FB03138B
:102D0000C3F3431333432B449360BDE8F883FFF7C9
:102D100005FB6C4F636800EB800000EB80009B00BC
:102D2000B0FBF3F3A7FB03235B091D01FFF7F6FAE2
:102D3000666800EB800000EB8000B600B0FBF6F6A2
:102D4000FFF7ECFA636800EB800000EB80009B006B
:102D5000B0FBF3F3A7FB03234FF064095B0909FB06
:102D600013631B013233A7FB03235B0903F0F00657
:102D7000FFF7D4FA626800EB8000930000EB80005C
:102D8000B0FBF3F8FFF7CAFAA8E79A4259D003F567
:102D900080639A4255D0FFF7B1FA4A4F636800EB5F
:102DA000800000EB80005B00B0FBF3F3A7FB032384
:102DB0005B091E01FFF7A2FA656800EB800000EBDB
:102DC00080006D00B0FBF5F5FFF798FA636800EB43
:102DD000800000EB80005B00B0FBF3F3A7FB032354
:102DE0005B094FF0640909FB1353DB003233A7FB87
:102DF00003231B0903F4F875FFF780FA626800EB00
:102E0000800000EB80005300B0FBF3F8FFF776FA88
:102E1000D4E9002300EB800000EB80005B00B0FBF6
:102E2000F3F3A7FB03135B0909FB1383DB003233C6
:102E3000A7FB0313C3F3421333442B449360BDE851
:102E4000F883FFF76BFA1F4F636800EB800000EB1D
:102E500080005B00B0FBF3F3A7FB03235B091E01BB
:102E6000FFF75CFA656800EB800000EB80006D0006
:102E7000B0FBF5F5FFF752FA636800EB800000EB5A
:102E800080005B00B0FBF3F3A7FB03234FF0640962
:102E90005B0909FB1353DB003233A7FB03231B0938
:102EA00003F4F875FFF73AFA626800EB800053000C
:102EB00000EB8000B0FBF3F8FFF730FAA8E700BFA3
:102EC000001001401F85EB512DE9F04107460E46E9
:102ED00090461D463C6801E06B1C06D1206836EA2E
:102EE0000003F9D10020BDE8F08135B1FDF7A8FF5E
:102EF000A0EB08008542EDD23C68E36823F4D07370
:102F0000E3606369202223F0010300216361032051
:102F100087F8392087F8381087F83A20E3E700BFB0
:102F200060B338B590F83930044603F0FF0203B3BC
:102F30002268242384F83930D36823F40053D36003
:102F40002046FFF765FE23681A6922F490421A6151
:102F50005A6922F02A025A61DA680025202142F4D7
:102F60000052DA602846E56384F8391084F83A1094
:102F700038BD80F8382000F07DFED9E70120704789
:102F80002DE9F0430F4690F83910202983B02DD158
:102F900087B3019272B3984690F83830012B0446FB
:102FA00024D00023C3630121212380F8381080F846
:102FB0003930FDF745FF019AA2848146E284E58C11
:102FC000ADB243464A468021204655B3E58CA668FB
:102FD000013DADB2B6F5805FE5840FD0FFF774FF19
:102FE000E8B923683A785A600137E8E7022003B06D
:102FF000BDE8F083012003B0BDE8F08343464A46B4
:1030000080212046FFF760FF48B93B88216822698C
:10301000C3F308034B60002AE6D10237CFE7032051
:10302000E5E74021FFF750FF0028F8D1202384F87E
:10303000380084F83930DAE710B5D0E9001288B0EA
:1030400000230446806902910692CDE904338DF88D
:103050001C30FEF747FB10B9002008B010BD01215D
:10306000A069FEF757FB0028F6D101AB04F1080276
:10307000A06902A9FEF7DEFA012008B010BD00BF6A
:1030800010B5002188B004468069FEF7E9FB30B135
:1030900004F11003A06901AA0021FEF74FFB01987B
:1030A00008B010BD2DE9F041804600F11804006918
:1030B000FDF700FA234608F1B002D3E90267E3E81E
:1030C00002679A42F9D1C8E92C010026002704F1D1
:1030D000A005F4E8022330463946FDF79FF8A542E3
:1030E00006460F46F5D10022114BFDF777FBFDF7A1
:1030F0005DFCD8F80830D8F80C10C8F81000C31AD6
:10310000002BB8BF5B42642202FB03F393FBF1F395
:10311000632B04DDC8F800200120BDE8F081052BF9
:10312000D8BF0023C8F800300120BDE8F08100BFFF
:103130000000344003694360704700BF0369836047
:10314000704700BF30B4064B064C0749074AD3E925
:1031500000509B6825610861136130BC704700BF57
:10316000540E0020B8050020C0000020700200208E
:1031700070B594B00020284A0090116C274B41F0A4
:1031800080511164126C02F080520092009A0190FA
:103190001A6842F440421A601B68012003F440435D
:1031A000022401934FF4A0254FF4800108224FF42C
:1031B0009073079007A8019E08950D94CDE91144DE
:1031C0001394CDE90E121093FFF710F900B1FEE74A
:1031D00002464FF4A0530F25042102A8CDE9034273
:1031E0000295CDE90533FEF7E9FF044600B1FEE79D
:1031F000FFF77EF84FF47A73B0FBF3F0FEF7D6FCDE
:103200000420FEF7EDFC224621464FF0FF30FEF78A
:103210008BFC14B070BD00BF00380240007000404D
:103220002DE98048AA4EDFF8F482AA4BAA49AB4A9E
:10323000AB4FAC48AC4D40F6A1744FF4726CB46027
:10324000812493B0C6F804C0F46040F6362C40F6F2
:10325000AA24C8F808C0C8F804404FF0740C002431
:10326000C8F80CC04C6014601C705C709C70DC7002
:103270003C600460FDF7BEFDFFF77AFF07942B6BFF
:103280009A4843F004032B632B6B03F0040307936A
:10329000079B08942B6B43F080032B632B6B03F08D
:1032A00080030893089B09942B6B43F001032B6365
:1032B0002B6B03F001030993099B0A942B6B43F0DA
:1032C00002032B632B6B03F002030A9322460121B6
:1032D0000A9BFEF761FF22464FF480718448FEF797
:1032E0005BFF844B81480F944FF400520DA9CDE948
:1032F0000D234FF00109FEF737FE0DA97B48CDE9FC
:103300000F44CDE90D99FEF72FFE40230DA9774814
:103310000D934FF48077CDE90E49FEF725FE0DA9F8
:1033200072480D97CDE90E44FEF71EFE0DA97048B8
:10333000CDE90D79CDE90F44FEF716FE2246214670
:103340002820FEF7F1FB2820FEF724FC06942B6BC7
:1033500043F480032B632B6B03F480032246214646
:1033600006933820069BFEF7DFFB3820FEF712FCA1
:10337000614BA5F5FA354FF4E1310C2218469C60FB
:10338000C3E90344C3E90644C3E900515A61FFF7A6
:10339000C7FD00B1FEE7594C59495A4A60600346DF
:1033A00003252046A360C4F81090C4F81890236247
:1033B000E362E360C4F83090C4F814902160A26224
:1033C000E561FDF743FD00B1FEE707230D900DA970
:1033D0002046CDE90E93FDF747FF00B1FEE74FF021
:1033E000020A0DA92046CDE90D9AFDF73DFF00B177
:1033F000FEE7042320460DA90E950D93FDF734FF3B
:1034000000B1FEE7404F414BB86038614AF2AA6212
:103410003B6038464FF47A737A60FB60FFF7B2FB8B
:1034200000B1FEE74FF480530DA938460D93FFF726
:10343000CDF9034600B1FEE70BA93846CDE90B33C1
:10344000FFF7BCFB00B1FEE7314D324928764FF45F
:103450003022C5E9020068764FF48003E8762877C9
:1034600068772846C5F804A085F81A902960C5E950
:103470000423FDF7A7FF00B1FEE7DFF89C904FF0B3
:103480008043C9F80800C9F810004FF4B472C9F8B5
:10349000003048464FF4FA63C9F80420C9F80C30EC
:1034A000FFF770FB00B1FEE74FF4805A0DA91A48F0
:1034B000CDF834A0FFF78AF9034600B1FEE70BA967
:1034C0001548CDE90B33FFF779FB48B3FEE700BFA2
:1034D000B8050020880D0020F00B0020700D0020A2
:1034E000EC0B00207C0D0020003802400008024058
:1034F0000004024000001110D00D0020A00B00209D
:10350000002001400100000F340B002000040040A7
:10351000100E002000640040940D0020C000002028
:10352000934C944BA06020614FF46162236020466D
:103530004FF4FA736260E360FFF724FB00B1FEE72B
:103540000DA92046CDF834A0FFF740F9034600B19D
:10355000FEE70BA92046CDE90B33FFF72FFB00B1A7
:10356000FEE7DFF864B28449CBF8080042F210723B
:1035700058464FF0120ACBF80C20CBF80010CBF8CD
:1035800004A0FFF7FFFA024600B1FEE70DA9584676
:10359000CDE90D22FFF712FB044600B1FEE702461B
:1035A00001465046FEF7C0FA5046FEF7F3FA2246AF
:1035B00021461320FEF7B8FA1320FEF7EBFA224655
:1035C00021461420FEF7B0FA1420FEF7E3FA224653
:1035D00021461520FEF7A8FA1520FEF7DBFA224651
:1035E00021461620FEF7A0FA1620FEF7D3FA22464F
:1035F00021461D20FEF798FA1D20FEF7CBFA224641
:1036000021461E20FEF790FA1E20FEF7C3FA22463E
:1036100021461C20FEF788FA1C20FEF7BBFA574A09
:103620005748946101231146C2E90743C2E90044A7
:10363000C2E90244C2E90444FDF746FF5048DFF8FE
:103640008CA1FDF7C9FF14214D48FEF71DF9152186
:103650004B48FEF719F94B48FFF79CF84A48FFF72B
:1036600099F85846FFF796F84648FFF7A3F8D9F8B7
:103670000C30C6F8A8714FF08042A02193FBF1F303
:10368000424954624C624249424A8D610433DFF838
:103690004091414D414C1360414B42484FF0000B6B
:1036A00003224946C3F800B0CAF800B0FDF77CFC1D
:1036B00040212846FEF76AFD012803465A464FF08E
:1036C0000101284644D0384BC3F808B0FEF764FD2A
:1036D0003648FFF7E7FC3648FFF7E4FC3369B3F5FB
:1036E000967F4FF000024FF0010304DBD8F8101072
:1036F000B1F5967F33DA2F4932610B602E49C8F855
:1037000010200B602D493260C8F800200A60CAF80A
:103710000030D8F800202748294900680293C2F1F8
:1037200064020192DAF8002033680093CDE90302C5
:10373000D8F810303269204600F038FC2046FDF7FA
:10374000DDFA0A2382B221461E48FFF719FCA3E7DF
:10375000154F1A461946BB60FEF71EFDB8E7164A1C
:1037600000231360134ACAF800301360D1E700BF8A
:10377000E80900200008004000140040740B0020FD
:10378000100E0020940D0020340B00200004004097
:10379000980500209C0B002000080240E407002050
:1037A000780D0020A00B00209C000020B805002010
:1037B000C00000206C0C0020B40E0020E4090020A2
:1037C000F4460008D00D0020740E0020B00E00203A
:1037D000540E002070B5264C2046FFF751FCBB2844
:1037E0000AD0C32807D1237C2BB9617CA37C214A52
:1037F00003EB0123936070BD258A9DB1B5F5807FF1
:1038000024D01D481D49D0E90125D1E90134521BBE
:103810001B1B002AB8BF5242002BB8BF5B42C260DC
:10382000CB6070BD1448FFF789FC1448FFF786FC95
:10383000BC220823C4E90023C4E902552046FFF74F
:10384000FBFB0F4B258A01221A60D7E70A48FFF7D6
:1038500071FC0A48FFF76EFC00260823BC2284E8AE
:103860006C000348FFF7E8FB054B1E60C9E700BF8B
:103870009805002008000020B8050020C0000020A6
:10388000EC0B0020654B834200D0704770B5644C50
:10389000E368072B22D8DFE813F0080097009A00AE
:1038A0009D00B800BB00BE0094005E495E4B0968F5
:1038B0005E4AD9720221B025197208211268A068E7
:1038C0009A73C3E90051002258729A7218469A817D
:1038D000DA73FFF7B1FBE3680133E360544DAA6884
:1038E0009A4253D05100994208BF013301EB0200C4
:1038F00008BFE360984208BF01334FEA820008BF67
:10390000E36098421DD01044984208BF013311442F
:1039100008BFE360B3EB410F4FEAC20108BF0133B8
:10392000A1EB020208BFE3609A4204BF0133E360E7
:103930008B4204BF0133E3608B42C4BF0023E360CA
:1039400070BD3C4E3668012EDDD03B4B364A1B68BD
:103950003A4E344935489372B02336680968006896
:10396000136000235672D17201260821907393814F
:1039700010465160D3731672FFF75EFBE368AA68C6
:103980003344E36002FA06F19000BCE7254A264B77
:103990001268DA72254902221A72B02208681A6087
:1039A000A1685972002298739A81082118469A7268
:1039B000DA735960FFF740FBE368AA680133E360FC
:1039C00090E70023E36089E70223E36086E70323AF
:1039D000E36083E7174A1268012A3FF47FAF174D6F
:1039E000114B15492D680F48104A09685D72012571
:1039F000006812681D729972B0250821D8729A73F6
:103A000018460022C3E9005161E70523E36065E73A
:103A10000623E36062E70723E3605FE7940D00207D
:103A20009C0000209C0B002098050020B00E002078
:103A300008000020EC0B0020B8050020C00000208A
:103A4000FEE700BF10B582B00024224B00945A6CF0
:103A500042F480425A645A6C02F480420092009A06
:103A600001941A6C42F080521A641B6C03F080536C
:103A700001930320019BFEF745F8224621466FF093
:103A80000B00FEF751F8224621466FF00A00FEF7C0
:103A90004BF8224621466FF00900FEF745F8224612
:103AA00021466FF00400FEF73FF8224621466FF0F2
:103AB0000300FEF739F8224621466FF00100FEF7B9
:103AC00033F8224621464FF0FF3002B0BDE81040E7
:103AD000FEF72AB8003802401F4B02689A4200D015
:103AE000704770B586B0002603F58C3300965A6C8B
:103AF0001A4C42F480725A645B6C039603F4807330
:103B00000093132203230099019201A9054614484A
:103B10000293FEF729FA134B23604FF480604FF4B1
:103B200080514FF480424FF48073206120466660DC
:103B3000C4E90266C4E90866C4E90512E361FEF758
:103B400061F818B9AC63A56306B070BD772106486B
:103B5000FFF776FFF6E700BF00200140040C0020CD
:103B600000000240106402404C4700080268174BF6
:103B70009A4200D07047F0B587B0002703F5EA33CA
:103B800000971A6C124842F000721A641B6C03F022
:103B9000007300934FF4006201A90226012303255C
:103BA000009C01920924CDE90263CDE90454FEF79B
:103BB000DBF94FF4805301A905480193CDE9026771
:103BC000CDE90454FEF7D0F907B0F0BD0064004021
:103BD000000002400368B3F1804F84B016D0214A40
:103BE000934230D0204A93421FD0204A93420BD1B7
:103BF0001F4B002203921A6C42F020021A641B6CC5
:103C000003F020030393039B04B0704703F50E33C6
:103C1000002200921A6C42F001021A641B6C03F03D
:103C200001030093009B04B07047114B00220292E5
:103C30001A6C42F004021A641B6C03F00403029332
:103C4000029B04B070470A4B002201921A6C42F0AA
:103C500002021A641B6C03F002030193019B04B07F
:103C6000704700BF000400400008004000140040FE
:103C7000003802400268114B9A4200D0704770B57C
:103C800086B003F5FA33002200921A6C0C4842F415
:103C900000321A641B6C0C2103F4003300930322DE
:103CA000072301910225012401A9009ECDE90254B8
:103CB000CDE90423FEF758F906B070BD004400407A
:103CC00000000240704700BFFEE700BFFEE700BFF4
:103CD000FEE700BFFEE700BF704700BF704700BFB0
:103CE000704700BF08B5FDF79FF8BDE80840FDF735
:103CF00085BF00BF0148FDF715BA00BFA00B00202B
:103D00000148FDF7EDBD00BF100E0020FFF7F8BF22
:103D1000FFF7F6BFFFF7F4BF0148FEF721BE00BF73
:103D2000940D00200148FEF71BBE00BF340B00209D
:103D30000148FEF715BE00BFE80900204FF400500F
:103D4000FEF730BA0148FEF739B800BF040C002076
:103D50001049114BD1F8882042F4700210B4C1F818
:103D600088201A680D4C002042F001021A60986009
:103D70001A6822F0847222F480321A605C601A6839
:103D80004FF0006422F480221A60D8608C605DF8E5
:103D9000044B704700ED00E0003802401030002472
:103DA000DFF834D0002103E00C4B5B584350043162
:103DB0000B480C4B42189A42F6D30B4A02E0002300
:103DC00042F8043B094B9A42F9D3FFF7C1FF00F0D8
:103DD00011F8FFF725FA704700000220AC470008F1
:103DE000000000207C00002080000020BC0E00208D
:103DF000FEE7000070B50D4E0D4CA41BA41000256D
:103E0000A54209D10B4E0C4C00F02CFCA41BA410B5
:103E10000025A54205D170BD56F8253098470135DB
:103E2000EEE756F8253098470135F2E7A447000839
:103E3000A4470008A4470008A847000838B505466D
:103E4000002945D051F8043C0C1F002BB8BFE418E2
:103E500000F0D7F81F4A1368104633B96360146046
:103E60002846BDE8384000F0CDB8A3420CD92168FF
:103E70006218934204BF1A685B68636004BF5218FB
:103E800022600460ECE713465A680AB1A242FAD9EC
:103E900019685818A0420BD1206801445818824272
:103EA0001960DDD1106852685A6001441960D7E783
:103EB00002D90C232B60D3E7206821188A4204BF63
:103EC00011685268626004BF091821605C60C7E72E
:103ED00038BD00BFB000002070B5CD1C25F0030533
:103EE00008350C2D38BF0C25002D064601DBA942F4
:103EF00003D90C233360002070BD00F082F8214A02
:103F00001468214691B9204C23681BB9304600F053
:103F10003DF820602946304600F038F8431C24D193
:103F20000C233360304600F06DF8E4E70B685B1B50
:103F300018D40B2B0FD90B60CD50CC18304600F0A5
:103F400061F804F10B00231D20F00700C31AD3D041
:103F50005A42E250D0E78C424B6816BF6360136050
:103F60000C46EBE70C464968CCE7C41C24F003047C
:103F7000A04205D0211A304600F008F80130CFD019
:103F80002560DBE7B0000020B400002038B5064C07
:103F9000002305460846236000F056FB431C02D16F
:103FA000236803B12B6038BDB80E00200EB400B5F5
:103FB0009CB01DAB029006906FF00041094807913C
:103FC0000491094953F8042B05910068019302A953
:103FD00000F074F8029B00221A701CB05DF804EB2C
:103FE00003B07047180000200802FFFF10B5431E01
:103FF0000A44914200D110BD11F8014B03F8014F62
:10400000F7E7704770472DE9F0478E689E42824679
:104010000C469046994637D88A8912F4906F31D071
:10402000256809696F1A6569022305EB450595FB4B
:10403000F3F509F101033B449D4238BF1D4653058A
:1040400030D52946FFF748FF064650B90C23CAF879
:104050000030A38943F04003A3814FF0FF30BDE857
:10406000F0873A462169FFF7C1FFA38923F49063E3
:1040700043F08003A381266165613E44ED1B266009
:10408000A5604E464E4500D94E4632464146206810
:1040900000F092FAA3689B1BA36023681E4426606D
:1040A0000020DCE72A4600F0A0FA06460028E2D10C
:1040B00021695046FFF7C2FEC8E700002DE9F04F26
:1040C0009DB0804603938B891D060C4616460FD57E
:1040D0000B696BB94021FFF7FFFE2060206128B912
:1040E0000C23C8F800304FF0FF30C7E04023636175
:1040F0000023099320238DF8293030238DF82A30AE
:104100004FF0010B37463D4615F8013B0BB1252B0F
:104110003ED1B7EB060A0BD0534632462146404605
:10412000FFF771FF013000F0A480099B534409930D
:104130003B78002B00F09D8000234FF0FF32CDE94B
:104140000523049307938DF853301A932F460522C5
:1041500017F8011B4F48FCF7DBFD049BD0B9D906CB
:1041600044BF20228DF853201A0744BF2B228DF81C
:1041700053202A782A2A15D0079A2F4600200A258C
:10418000394611F8013B303B092B4DD9B8B10FE04E
:104190002F46B8E73F4A801A0BFA00F01843049004
:1041A0003D46D3E7039A111D12680391002A01DBF3
:1041B000079204E0524243F00203079204933B78D3
:1041C0002E2B0CD17B782A2B33D1039B1A1D1B6815
:1041D0000392002BB8BF4FF0FF33023705932E4DEB
:1041E000397803222846FCF793FD38B14023401B61
:1041F00003FA00F0049B03430137049339782748FE
:104200008DF8281006227E1CFCF782FD002838D08D
:10421000234B13BB039B073323F00703083303939C
:10422000099B4B4409936DE705FB023201200F46C1
:10423000A6E700230137059319460A25384610F8EA
:10424000012B303A092A03D9002BC8D00591C6E7C3
:1042500005FB012101230746F0E703AB009322464B
:10426000104B04A94046AFF30080B0F1FF3F8146F8
:10427000D6D1A3895B063FF536AF09981DB0BDE8DE
:10428000F08F03AB00932246064B04A9404600F092
:1042900081F8EAE7684700086E470008724700089F
:1042A00000000000074000082DE9F04791461F4636
:1042B0008A680B69DDF820809342B8BF1346C9F8BD
:1042C000003091F8432006460C4612B10133C9F87C
:1042D00000302368990642BFD9F800300233C9F88C
:1042E0000030256815F0060507D104F1190AE368C6
:1042F000D9F800209B1AAB4228DC94F8433022689E
:10430000003318BF012392062DD404F1430239462D
:104310003046C047013020D02368E568D9F8002036
:1043200003F00603042B08BFAD1AA36822690CBF73
:1043300025EAE57500259342C4BF9B1AED184FF09E
:1043400000091A344D451AD1002008E001235246D5
:1043500039463046C047013003D14FF0FF30BDE849
:10436000F0870135C3E7E1185A1C302081F843007B
:10437000224494F8451082F843100233C5E7012324
:10438000224639463046C0470130E6D009F10109DE
:10439000D8E700002DE9F04301F1430C0C46097EFB
:1043A00085B06E291746064698460C9A00F0B380F1
:1043B00022D8632936D00AD8002900F0B9805829BC
:1043C00000F0838004F1420584F8421032E0642951
:1043D00001D06929F6D120681368050603F10401AC
:1043E0002AD51B681160002B03DA2D225B4284F86A
:1043F00043206F480A2239E0732900F09D8008D8D5
:104400006F2920D07029DDD1236843F02003236079
:1044100003E0752917D07829D4D1782384F8453062
:10442000644855E01368191D1B68116004F14205CA
:1044300084F8423001238CE01B68116010F0400FBB
:1044400018BF1BB2CFE713682568181D1060280637
:1044500001D51B6802E06806FBD51B8854486F290C
:1044600014BF0A220822002184F843106568A56061
:10447000002DC0F29580216821F004012160002BFD
:104480003DD1002D40F08E806546082A0BD123686F
:10449000DB0708D5236962689A42DEBF302305F83E
:1044A000013C05F1FF35ACEB05032361CDF800803D
:1044B0003B4603AA21463046FFF7F6FE01304DD1B8
:1044C0004FF0FF3005B0BDE8F083394884F845105F
:1044D000136821681D1D1B6815600A060BD5CA07E5
:1044E00044BF41F0200121601BB9226822F0200264
:1044F00022601022B7E74D0648BF9BB2EFE7654642
:10450000B3FBF2F102FB1133C35C05F8013D0B462E
:104510000029F5D1B9E7136825686169181D106095
:1045200028061B6801D5196002E06A06FBD51980D0
:10453000002323616546B9E71368191D11601D68E2
:10454000626800212846FCF7E3FB08B1401B60606D
:1045500063682361002384F84330A7E723692A4670
:1045600039463046C0470130AAD023689B0713D490
:10457000E068039B9842B8BF1846A3E701234A4668
:1045800039463046C04701309AD00135E368039A76
:104590009B1AAB42F2DCEBE7002504F11909F5E7C1
:1045A000002BACD1037884F8423004F142056CE76B
:1045B000794700088A470008884210B501EB0203DA
:1045C00007D8421E99420AD011F8014B02F8014F58
:1045D000F8E78342F5D98118D21AD34200D110BD31
:1045E00013F8014D01F8014DF7E7F8B507461446F9
:1045F0000E4621B91146BDE8F840FFF76DBC22B95F
:10460000FFF71CFC25462846F8BD00F014F8A04230
:104610000FD221463846FFF75FFC05460028F2D04E
:1046200031462246FFF7E2FC31463846FFF706FCEA
:10463000E9E73546E7E751F8043C181F002BBCBFFB
:104640000B58C01870470000044A05491368002B36
:1046500008BF0B461844106018467047B800002089
:10466000C00E0020F8B500BFF8BC08BC9E467047DD
:0C467000F8B500BFF8BC08BC9E467047BF
:10467C0000061016000610160000000000000000D6
:10468C0001020304060708090000000001020304EC
:10469C0076616C4D494E30203D2025642076616C4E
:1046AC004D415830203D20256420092076616C4D09
:1046BC00494E31203D2025642076616C4D415831A6
:1046CC00203D2025642076616C305F313030203DF8
:1046DC002025642076616C315F313030203D2025FF
:1046EC0064200D0A0000000076616C303A202564CD
:1046FC00202C2076616C313A202564202C207661A8
:10470C006C305F3130303A2025642C2076616C316E
:10471C005F3130303A2025642C205343533A202506
:10472C00642C20534353313A2025642C205343539B
:10473C005F73656E643A202564200D0A000000004A
:10474C002E2E2F5372632F73746D33326634787838
:10475C005F68616C5F6D73702E630000232D302BCE
:10476C002000686C4C006566674546470030313266
:10477C0033343536373839414243444546003031BD
:10478C00323334353637383961626364656600001C
:08479C0090C2FF7F0100000044
:0447A400F501000813
:0447A800D101000833
:1047AC0001000000100000007017000060EA00001B
:1047BC00010000000024F4001C0000200000000098
:1047CC0000000000000000000000000000000000DD
:1047DC0000000000000000000000000000000000CD
:1047EC0000000000000000000000000000000000BD
:1047FC0000000000000000000000000000000000AD
:10480C00000000000000000000000000000000009C
:0C481C0000000000000000000000000090
:0400000508003DA111
:00000001FF
