:020000040800F2
:1000000000000220F14B0008F14A0008F34A000802
:10001000F54A0008F74A0008F94A00080000000005
:10002000000000000000000000000000FB4A000883
:10003000FD4A000800000000FF4A0008014B0008CC
:10004000414C0008414C0008414C0008414C00085C
:10005000414C0008414C0008414C0008414C00084C
:10006000414C0008414C0008414C0008414C00083C
:10007000414C0008414C0008414C0008414C00082C
:10008000414C0008414C0008094B0008194B00087E
:10009000294B0008394B0008494B0008414C000827
:1000A000414C0008414C0008414C0008414C0008FC
:1000B000594B0008694B0008794B0008414C000877
:1000C000414C0008414C0008414C0008414C0008DC
:1000D000414C0008414C0008414C0008414C0008CC
:1000E000894B0008414C0008414C0008414C000875
:1000F000414C0008414C0008414C0008414C0008AC
:10010000414C0008414C0008414C0008414C00089B
:10011000414C0008414C0008414C0008414C00088B
:10012000954B0008414C0008414C0008414C000828
:10013000414C00080000000000000000414C000895
:10014000414C0008414C0008414C0008414C00085B
:10015000414C0008414C0008414C0008414C00084B
:10016000414C0008414C0008414C0008414C00083B
:10017000414C0008414C0008414C000800000000C0
:1001800000000000414C00080000000000000000DA
:10019000414C00080000000000000000414C000835
:1001A000000000000000000000000000414C0008BA
:1001B000414C0008414C0008414C0008414C0008EB
:0401C000414C0008A6
:1001C400044B05481B1A062B02D9044B03B11847EC
:1001D400704700BF530800205008002000000000B2
:1001E40005490648091A891001EBD171491002D05A
:1001F400034B03B1184770475008002050080020F3
:100204000000000010B5064C237843B9FFF7D8FF6F
:10021400044B13B10448AFF300800123237010BDD5
:100224005008002000000000584C000808B5084B96
:100234001BB108490848AFF300800848036813B9A4
:10024400BDE80840CCE7064B002BF9D09847F7E708
:100254000000000054080020584C000850080020FA
:1002640000000000002301461A46184600F060BB57
:1002740038B50A4C0A4D641BA4100AD004F180431B
:10028400013B05EB8305013C55F804399847002CE4
:10029400F9D1BDE8384004F0E3BC00BFB44C000819
:1002A400B04C000870B50F4E0F4D761BB61018BF3A
:1002B400002405D0013455F8043B9847A642F9D1EF
:1002C4000A4E0B4D761B04F0C5FCB61018BF002473
:1002D40006D0013455F8043B9847A642F9D170BDC5
:1002E40070BD00BFA84C0008A84C0008B04C000822
:1002F400A84C0008024B0146186800F00BB800BF78
:1003040000000020024B0146186800F0B3BB00BF98
:10031400000000202DE9F04F01F10B06162E83B0EA
:10032400054640F29E8036F0070600F1BD80B142DA
:1003340000F2BA8000F0E6FAB6F5FC7FC0F08F82D6
:10034400730A00F0B880042B00F27D81B30903F135
:10035400390003F1380EC300C14F3B44A3F1080137
:100364005C68A14206D10CE0002A80F2AA80E4680D
:10037400A14206D0636823F003039A1B0F2AF3DD1E
:1003840070463C69DFF8DCE2744500F0A7816368DD
:1003940023F003039A1B0F2A00F38C81002AC7F869
:1003A40014E0C7F810E080F29D80B3F5007F80F080
:1003B4005D81DB0803F1010C99107A6857F83C80E1
:1003C400C4F8088001238B4007EBCC0113430839A0
:1003D400E1607B6047F83C40C8F80C40821001247F
:1003E40094409C4200F28B801C4206D120F0030012
:1003F40064001C4200F10400FAD007EBC009CC46AB
:100404008046DCF80C309C4507D169E1002A80F273
:100414007781DB689C4500F06381596821F0030112
:100424008A1B0F2AF2DDD3F80CC0D3F8088001939D
:100434009C19284646F0010642F001055E60C8F8A2
:100444000CC0CCF808807C613C61C4F80CE0C4F8B2
:1004540008E065605A5000F057FA019B03F1080464
:100464001EE0102920D800F04DFA1026182302208F
:100474007B4F3B44A3F108025C68944200F039814D
:100484006368E168A66823F00303234428465A6896
:10049400F16042F001028E605A6000F035FA0834CF
:1004A400204603B0BDE8F08F00240C2320462B60C7
:1004B40003B0BDE8F08F40204FF400734FF03F0EBF
:1004C4004AE72344E1685A68A66842F00102F160F1
:1004D40028468E605A6000F017FA0834204603B0AC
:1004E400BDE8F08F234428465A6842F001025A605E
:1004F40000F00AFA0834204603B0BDE8F08FBC6867
:10050400636823F00309B14504D3A9EB06030F2B59
:1005140000F38980DFF850A1D7F80824DAF8003016
:10052400013204EB090B06EB030800F0508108F5D7
:10053400805808F10F0828F47F6828F00F08414616
:10054400284600F0E3F9421C034600F0F680834598
:1005540000F2F180DAF804204244CAF8042000F0E2
:100564004781D7F8081401311BBFA3EB0B0B5A4486
:10057400C7F80834CAF8042013F0070200F00D810C
:10058400C2F10801C2F580520B4408329844C8F302
:100594000B08A2EB080841462846019300F0B6F97F
:1005A400431C019B00F03E81C11A414441F001010A
:1005B400DAF80420BB604244BC425960CAF8042003
:1005C40016D0B9F10F0F40F2F4806168A9F10C0361
:1005D40023F00703E01801F001014FF0050E194361
:1005E4000F2B6160C0F804E0C0F808E000F212814B
:1005F400DAF82C30BC689A42DAF8303088BFCAF88E
:100604002C209A4288BFCAF83020626822F0030284
:100614009642A2EB060301D80F2B04DC284600F017
:1006240073F900243CE7A21943F0010346F00106E4
:1006340066602846BA60536000F066F908342046C4
:1006440003B0BDE8F08F142B69D9542B00F29B80C2
:10065400330B03F16F0003F16E0EC3007CE600BFA1
:1006640030040020380400206C0800205A0A042AB0
:100674005BD9142A00F2AE8002F15C01C9005B323E
:1006840007EB010C7958ACF1080C8C4500F088801C
:100694004A6822F00302934273D289688C45F7D1E9
:1006A400DCF80C207B68E260C4F808C09460CCF8E5
:1006B4000C4093E6A11946F0010C42F00106C4F87F
:1006C40004C0284679613961C1F80CE0C1F808E03A
:1006D4004E60E25000F018F90834E1E67B687DE6EC
:1006E40008F1010818F0030F0CF1080C7FF489AE2F
:1006F4002DE0DC68A34208BF02303FF442AEBFE6FF
:1007040019441C464A68DB6854F8086F42F0010239
:100714004A602846F3609E6000F0F6F8C0E603F1F4
:100724005C0003F15B0EC30016E69A0902F139017D
:10073400C9003832A4E7BC4254D0BC68626822F0D5
:10074400030265E759F80839994540F0868010F0AE
:10075400030F00F1FF30F5D17B6823EA04037B60CB
:1007640064009C423FF6CBAE002C3FF4C8AE1C4262
:1007740040467FF442AE64001C4200F10400FAD00B
:100784003BE68C468CE7B3F5AA7F15D8F30B03F14F
:10079400780003F1770EC300DEE54FF48052F5E6EE
:1007A4007B689210012101FA02F213437B606246D6
:1007B40079E701225A6031E740F25452934223D838
:1007C400B30C03F17D0003F17C0EC300C4E508F112
:1007D4001008B4E6542A29D81A0B02F16F01C90093
:1007E4006E324DE7DAF804204244CAF80420B8E631
:1007F400CBF30B0100297FF4B4AE09EB0803B9680D
:1008040043F001034B60F3E67F204FF47E734FF017
:100814007E0EA1E504F10801284600F02BF9DAF870
:100824000420E5E601214FF00008C1E6B2F5AA7FF5
:1008340005D8DA0B02F17801C900773220E740F2DB
:1008440054518A4205D89A0C02F17D01C9007C32C8
:1008540016E74FF47E717E2212E77B6880E7F0088A
:1008640006F1080304E600BF70B4860746D0541EA0
:10087400002A41D0CAB2034602E014F1FF343BD34C
:1008840003F8012B9D07F8D1032C2ED9CDB245EAEC
:1008940005250F2C45EA054519D903F11002264612
:1008A400103E0F2E42F8105C42F80C5C42F8085CD3
:1008B40042F8045C02F11002F2D8A4F1100222F012
:1008C4000F0204F00F041032032C13440DD91E46FA
:1008D4002246043A032A46F8045BFAD8221F22F07F
:1008E40003020432134404F003042CB1C9B21C44BF
:1008F40003F8011B9C42FBD170BC704714460346AD
:10090400C2E700BF704700BF704700BF38B5074C4F
:10091400002305460846236000F092F9431C00D0EA
:1009240038BD2368002BFBD02B6038BDC4160020D3
:100934002DE9F047254C2568D5F8484106468846F8
:1009440092469946C4B360681F2817DC431C76B1ED
:1009540004EB80050122C5F888A0D4F888118240F0
:100964001143022EC4F88811C5F808911ED0023034
:10097400636044F820800020BDE8F087144B03B383
:100984004FF4C870FFF7B6FC0446D0B1D5F848312F
:10099400002780E88800C5F8484138460123C4F898
:1009A4008871C4F88C71002EE1D0D1E7D4F88C1191
:1009B4000A43C4F88C21DAE705F5A674C5F8484162
:1009C400C1E74FF0FF30BDE8F08700BF704C00086E
:1009D400F9020008F8B5244F0C460646FFF792FFCB
:1009E400BB685D68C4F57E610F3125F003052944B9
:1009F40021F47F6121F00F01A1F58054B4F5805FEB
:100A040007DB00213046FFF781FFBB682B44984287
:100A140004D03046FFF778FF0020F8BD614230462D
:100A2400FFF774FF01300DD0104BBA6819682D1B05
:100A340045F001053046091B55601960FFF764FF56
:100A44000120F8BD00213046FFF760FFBA68831A21
:100A54000F2BDEDD064C0549246843F00103001B1F
:100A640053600860D5E700BF300400207008002000
:100A740038080020002944D02DE9F0410D46804675
:100A8400FFF740FF55F8047C694927F00103A5F1FD
:100A94000804E2188E685068B24220F003005ED069
:100AA400FE0750600BD455F8087CE41B01F1080ED6
:100AB400A56875453B446DD0E768EF60BD601518C7
:100AC4006D68ED073ED543F001026260E350B3F573
:100AD400007F17D2DB08581C9A104D6851F830700B
:100AE400A7600123934001EBC0022B43083AE26064
:100AF4004B6041F83040FC604046BDE8F041FFF7F0
:100B040003BF70475A0A042A52D89A0902F13907D6
:100B1400FF0002F13805C819CA59083890424FD06D
:100B2400516821F003018B4232D292689042F7D18E
:100B3400C368A060E3609C60C4604046BDE8F041C7
:100B4400FFF7E2BE95683B4FBD42034440D0D068F6
:100B5400E86043F0010285606260E350B7E7FF0795
:100B6400034407D455F8082CA41A1344A068E26877
:100B7400C2609060304A126843F0010093426060A2
:100B84008C60B9D32D4B40461968FFF723FFB3E7B8
:100B94001046CDE711184968C90744D49168D26852
:100BA400CA60034443F0010091606060E350A3E72E
:100BB400142A16D802F15C07FF0002F15B05AAE7CC
:100BC400AA1001234D6893402B434B600346B0E7C2
:100BD40043F001024C610C61E560A5606260E35082
:100BE4008AE7542A06D81A0B02F16F07FF0002F1B4
:100BF4006E0590E7B2F5AA7F06D8DA0B02F1780702
:100C0400FF0002F1770586E740F25450824206D88D
:100C14009A0C02F17D07FF0002F17C057BE74FF49B
:100C24007E777E2577E743F001016160136063E717
:100C340030040020380400203C0800206C08002008
:100C4400044A05491368002B08BF0B46184410607A
:100C540018467047A0080020C816002081F0004103
:100C640002E000BF83F0004330B54FEA41044FEA8D
:100C7400430594EA050F08BF90EA020F1FBF54EA28
:100C8400000C55EA020C7FEA645C7FEA655C00F0C4
:100C9400E2804FEA5454D4EB5555B8BF6D420CDD95
:100CA4002C4480EA020281EA030382EA000083EA18
:100CB400010180EA020281EA0303362D88BF30BDB8
:100CC40011F0004F4FEA01314FF4801C4CEA11310E
:100CD40002D0404261EB410113F0004F4FEA03336D
:100CE4004CEA133302D0524263EB430394EA050FF8
:100CF40000F0A780A4F10104D5F1200E0DDB02FA67
:100D04000EFC22FA05F2801841F1000103FA0EF2FA
:100D1400801843FA05F359410EE0A5F120050EF1C0
:100D2400200E012A03FA0EFC28BF4CF0020C43FAF1
:100D340005F3C01851EBE37101F0004507D54FF0FE
:100D4400000EDCF1000C7EEB00006EEB0101B1F54E
:100D5400801F1BD3B1F5001F0CD349085FEA300094
:100D64004FEA3C0C04F101044FEA445212F5800F9F
:100D740080F09A80BCF1004F08BF5FEA500C50F13C
:100D8400000041EB045141EA050130BD5FEA4C0C1F
:100D9400404141EB010111F4801FA4F10104E9D1A8
:100DA40091F0000F04BF01460020B1FA81F308BF9F
:100DB4002033A3F10B03B3F120020CDA0C3208DD6B
:100DC40002F1140CC2F10C0201FA0CF021FA02F146
:100DD4000CE002F11402D8BFC2F1200C01FA02F1B6
:100DE40020FA0CFCDCBF41EA0C019040E41AA2BFDB
:100DF40001EB0451294330BD6FEA04041F3C1CDAA3
:100E04000C340EDC04F11404C4F1200220FA04F0C2
:100E140001FA02F340EA030021FA04F345EA03016C
:100E240030BDC4F10C04C4F1200220FA02F001FA2E
:100E340004F340EA0300294630BD21FA04F02946B0
:100E440030BD94F0000F83F4801306BF81F4801149
:100E54000134013D4EE77FEA645C18BF7FEA655CBC
:100E640029D094EA050F08BF90EA020F05D054EA8E
:100E7400000C04BF1946104630BD91EA030F1EBF93
:100E84000021002030BD5FEA545C05D14000494197
:100E940028BF41F0004130BD14F580043CBF01F58A
:100EA400801130BD01F0004545F0FE4141F4700170
:100EB4004FF0000030BD7FEA645C1ABF194610464B
:100EC4007FEA655C1CBF0B46024650EA013406BF4C
:100ED40052EA033591EA030F41F4002130BD00BF0B
:100EE40090F0000F04BF0021704730B54FF48064C8
:100EF40004F132044FF000054FF0000150E700BF49
:100F040090F0000F04BF0021704730B54FF48064A7
:100F140004F1320410F0004548BF40424FF0000194
:100F24003EE700BF42004FEAE2014FEA31014FEAD7
:100F340002701FBF12F07F4393F07F4F81F0605126
:100F4400704792F0000F14BF93F07F4F704730B595
:100F54004FF4607401F0004521F0004120E700BF28
:100F640050EA010208BF704730B54FF000050AE0AF
:100F740050EA010208BF704730B511F0004502D5B0
:100F8400404261EB41014FF4806404F132045FEAB2
:100F9400915C3FF4DCAE4FF003025FEADC0C18BF57
:100FA40003325FEADC0C18BF033202EBDC02C2F14D
:100FB400200300FA03FC20FA02F001FA03FE40EADF
:100FC4000E0021FA02F11444C1E600BF70B54FF0DF
:100FD400FF0C4CF4E06C1CEA11541DBF1CEA1355C1
:100FE40094EA0C0F95EA0C0F00F0DEF82C4481EA29
:100FF400030621EA4C5123EA4C5350EA013518BF49
:1010040052EA033541F4801143F4801338D0A0FB35
:1010140002CE4FF00005E1FB02E506F00042E0FBE2
:1010240003E54FF00006E1FB03569CF0000F18BFE8
:101034004EF0010EA4F1FF04B6F5007F64F5407490
:1010440004D25FEA4E0E6D4146EB060642EAC62123
:1010540041EA55514FEAC52040EA5E504FEACE2E90
:10106400B4F1FD0C88BFBCF5E06F1ED8BEF1004F93
:1010740008BF5FEA500E50F1000041EB045170BD0F
:1010840006F0004646EA010140EA020081EA030153
:10109400B4EB5C04C2BFD4EB0C0541EA045170BD4F
:1010A40041F480114FF0000E013C00F3AB8014F1C9
:1010B400360FDEBF002001F0004170BDC4F1000412
:1010C400203C35DA0C341BDC04F11404C4F1200593
:1010D40000FA05F320FA04F001FA05F240EA0200EE
:1010E40001F0004221F0004110EBD37021FA04F624
:1010F40042EB06015EEA430E08BF20EAD37070BDDE
:10110400C4F10C04C4F1200500FA04F320FA05F03C
:1011140001FA04F240EA020001F0004110EBD3703E
:1011240041F100015EEA430E08BF20EAD37070BDAE
:10113400C4F1200500FA05F24EEA020E20FA04F387
:1011440001FA05F243EA020321FA04F001F0004136
:1011540021FA04F220EA020000EBD3705EEA430EA7
:1011640008BF20EAD37070BD94F0000F0FD101F0D6
:101174000046400041EB010111F4801F08BF013C0F
:10118400F7D041EA060195F0000F18BF704703F04D
:101194000046520043EB030313F4801F08BF013DD4
:1011A400F7D043EA0603704794EA0C0F0CEA135590
:1011B40018BF95EA0C0F0CD050EA410618BF52EA4A
:1011C4004306D1D181EA030101F000414FF0000050
:1011D40070BD50EA410606BF1046194652EA43065E
:1011E40019D094EA0C0F02D150EA013613D195EAD2
:1011F4000C0F05D152EA03361CBF104619460AD11A
:1012040081EA030101F0004141F0FE4141F4700123
:101214004FF0000070BD41F0FE4141F4780170BD13
:1012240070B54FF0FF0C4CF4E06C1CEA11541DBF78
:101234001CEA135594EA0C0F95EA0C0F00F0A7F87A
:10124400A4EB050481EA030E52EA03354FEA0131A7
:1012540000F088804FEA03334FF0805545EA1313BA
:1012640043EA12634FEA022245EA111545EA106582
:101274004FEA00260EF000419D4208BF964244F119
:10128400FD0404F5407402D25B084FEA3202B61A38
:1012940065EB03055B084FEA32024FF480104FF40C
:1012A400002CB6EB020E75EB030E22BFB61A754680
:1012B40040EA0C005B084FEA3202B6EB020E75EB13
:1012C400030E22BFB61A754640EA5C005B084FEA7B
:1012D4003202B6EB020E75EB030E22BFB61A754648
:1012E40040EA9C005B084FEA3202B6EB020E75EB53
:1012F400030E22BFB61A754640EADC0055EA060E14
:1013040018D04FEA051545EA16754FEA06164FEA56
:10131400C30343EA52734FEAC2025FEA1C1CC0D102
:1013240011F4801F0BD141EA00014FF000004FF08F
:10133400004CB6E711F4801F04BF01430020B4F150
:10134400FD0C88BFBCF5E06F3FF6AFAEB5EB030C08
:1013540004BFB6EB020C5FEA500C50F1000041EB05
:10136400045170BD0EF0004E4EEA113114EB5C04D2
:10137400C2BFD4EB0C0541EA045170BD41F48011A5
:101384004FF0000E013C90E645EA060E8DE60CEAAD
:10139400135594EA0C0F08BF95EA0C0F3FF43BAFCA
:1013A40094EA0C0F0AD150EA01347FF434AF95EA81
:1013B4000C0F7FF425AF104619462CE795EA0C0F65
:1013C40006D152EA03353FF4FDAE1046194622E732
:1013D40050EA410618BF52EA43067FF4C5AE50EA0C
:1013E40041047FF40DAF52EA43057FF4EBAE12E7FC
:1013F4004FEA410212F5001215D211D56FF4787339
:10140400B3EB625212D94FEAC12343F0004343EADB
:10141400505311F0004F23FA02F018BF40427047B6
:101424004FF00000704750EA013005D111F0004040
:1014340008BF6FF0004070474FF00000704700BFD6
:1014440053B94AB9002908BF00281CBF4FF0FF3127
:101454004FF0FF3000F07AB9ADF1080C6DE904CE1D
:1014640000F006F8DDF804E0DDE9022304B070477B
:101474002DE9F0478C460D460446089E002B51D1B9
:101484008A4217466DD9B2FA82FEBEF1000F0BD024
:10149400CEF1200C01FA0EF520FA0CFC02FA0EF73C
:1014A4004CEA050C00FA0EF44FEA174A250CBCFB73
:1014B400FAF81FFA87F90AFB18CC45EA0C4508FB31
:1014C40009F3AB420AD9ED1908F1FF3280F0238108
:1014D400AB4240F22081A8F102083D44ED1AA4B2C7
:1014E400B5FBFAF00AFB105544EA054400FB09F980
:1014F400A14509D9E41900F1FF3380F00A81A1451F
:1015040040F2078102383C44A4EB090440EA084055
:101514000021002E61D024FA0EF40023346073609D
:10152400BDE8F0878B4207D9002E54D0002186E80D
:1015340021000846BDE8F087B3FA83F1002940F0A2
:101544008E80AB4202D3824200F2FA80841A65EBA9
:1015540003050120AC46002E3FD086E81010BDE8FC
:10156400F08712B90127B7FBF2F7B7FA87FEBEF18D
:10157400000F34D1EB1B3A0C1FFA87FC0121B3FB9B
:10158400F2F8250C02FB183345EA03450CFB08F37B
:10159400AB4207D9ED1908F1FF3002D2AB4200F299
:1015A400D1808046ED1AA3B2B5FBF2F002FB1055D0
:1015B40043EA05440CFB00FCA44507D9E41900F1F7
:1015C400FF3302D2A44500F2B8801846A4EB0C0401
:1015D40040EA08409DE731463046BDE8F087CEF149
:1015E400200405FA0EF307FA0EF720FA04F83A0C71
:1015F40025FA04F448EA0308B4FBF2F14FEA18456B
:1016040002FB11441FFA87FC45EA044501FB0CF375
:10161400AB4200FA0EF409D9ED1901F1FF3080F064
:101624008A80AB4240F2878002393D44EB1A1FFAAC
:1016340088F5B3FBF2F002FB103345EA034500FBE7
:101644000CF3AB4207D9ED1900F1FF386FD2AB426E
:101654006DD902383D44EB1A40EA01418FE7C1F1EC
:10166400200722FA07F88B4005FA01F448EA03033D
:1016740020FA07FE4FEA134CFD404EEA040EB5FB78
:10168400FCF94FEA1E440CFB19551FFA83F844EA8F
:10169400054509FB08F4AC4202FA01F200FA01FA2A
:1016A40008D9ED1809F1FF3043D2AC4241D9A9F170
:1016B40002091D442D1B1FFA8EFEB5FBFCF00CFB2A
:1016C40010554EEA054400FB08F8A04507D9E41874
:1016D40000F1FF3529D2A04527D902381C4440EA3D
:1016E4000940A4EB0804A0FB02894C45C6464D46BC
:1016F40015D312D056B1BAEB0E0364EB050404FA09
:1017040007F7CB401F43CC40376074600021BDE82D
:10171400F0871846F8E69046E0E6C245EAD2B8EB10
:10172400020E69EB03050138E4E72846D7E7404693
:1017340091E78146BEE7014678E702383C4445E735
:10174400084608E7A8F102083D442BE7704700BFAC
:1017540010B504460E4B18784FF47A73B3FBF0F3CC
:101764000C4A1068B0FBF3F000F0FCFF68B90F2CD2
:1017740001D9012010BD002221464FF0FF3000F0B6
:10178400B1FF054B1C60002010BD012010BD00BF3F
:10179400400800204C0800204408002008B50B4BEA
:1017A4001A6842F400721A601A6842F480621A607D
:1017B4001A6842F480721A60032000F081FF00204E
:1017C400FFF7C6FF03F050F8002008BD003C0240BC
:1017D400034A1168034B1B780B441360704700BF26
:1017E400B008002040080020014B1868704700BF73
:1017F400B008002038B50446FFF7F6FF0546B4F1FB
:10180400FF3F02D0044B1B781C44FFF7EDFF401B45
:101814008442FAD838BD00BF400800204A4B5A68B9
:1018240022F440325A605A6841680A435A60026896
:10183400536823F48073536002685368016943EA70
:10184400012353600268536823F0407353600268B5
:10185400536881680B4353600268936823F4006300
:10186400936002689368C1680B439360826A374B44
:101874009A424BD00268936823F0706393600268C5
:101884009368816A0B4393600268936823F0405322
:10189400936002689368C16A0B439360026893681B
:1018A40023F00203936002689368017E43EA4103D4
:1018B400936090F82030002B33D10268536823F4EE
:1018C400006353600268D36A23F47003D36201682F
:1018D400CB6AC269013A43EA0253CB620268936855
:1018E40023F4007393600268936890F8301043EA1D
:1018F400412393600268936823F4806393600268D1
:101904009368416943EA812393607047026893684E
:1019140023F0706393600268936823F040539360EC
:10192400BCE70268536843F4006353600268536879
:1019340023F46043536001684B68426A013A43EA06
:1019440042334B60BEE700BF002301400100000F9B
:1019540038B310B50446036C43B1236C13F0100F75
:101964000BD00120002384F83C3010BD02F098FF16
:101974000023636484F83C30EFE7236C23F488533A
:1019840023F0020343F0020323642046FFF746FFDB
:1019940000206064236C23F0030343F001032364F9
:1019A400E0E701207047000030B583B000230193C5
:1019B40090F83C30012B00F09B80012380F83C30F0
:1019C40003689C6814F0010F13D19C6844F001046F
:1019D4009C604D4B1C684D4BA3FB0434A40C04EBDE
:1019E4004404019402E0019C013C0194019C002CFC
:1019F400F9D103689C6814F0010F7CD0046C24F4C2
:101A0400E06424F0010444F4807404645B6813F417
:101A1400806F05D0036C23F4405343F48053036474
:101A2400036C13F4805F38D0436C23F006034364E3
:101A340013460446002280F83C20826B3448D0636D
:101A4400A26B34481064A26B3348D06422686FF0F0
:101A5400220010602568686840F08060686025682E
:101A6400A86840F48070A86020680A4600F14C0120
:101A7400A06B00F071FF294B5B6813F01F0F27D197
:101A84002368274A934219D002F58072934207D003
:101A9400244A93420BD000202BE000234364C7E781
:101AA40002F50072526812F01F0F07D0F0E702F53A
:101AB4008072526802F01F020F2A1ED89A6812F030
:101AC400405F1CD19A6842F080429A60002010E086
:101AD4002368134A934201D000200AE09A6812F066
:101AE400405F0ED19A6842F080429A60002000E084
:101AF400022003B030BD0020FBE70020F9E70020FE
:101B0400F7E70020F5E700BF4C08002083DE1B4305
:101B1400A11C00082F1B00088B1C00080023014097
:101B24000020014000220140704708B5806BFFF798
:101B3400FBFF08BD7047704738B50446026811685A
:101B4400536811F0020F2FD003F0200363B3036C2A
:101B540013F0100F03D1036C43F400730364936810
:101B640013F0405F19D1237EBBB9D36A13F4700F0D
:101B740003D0936813F4806F0FD1536823F02003CC
:101B84005360236C23F480732364236C13F4805F09
:101B940003D1236C43F001032364204602F0C0FA0E
:101BA40023686FF012021A60236819685A6802F0F9
:101BB400800211F0040F36D0002A34D0226C12F0C7
:101BC400100F03D1226C42F4005222649A6812F47A
:101BD400401F21D19A6B12F4401F03D09A6812F46B
:101BE400806F19D15A6812F4806F15D19A6812F077
:101BF400405F11D1227E7AB95A6822F080025A607D
:101C0400236C23F480532364236C13F4807F03D167
:101C1400236C43F001032364204600F04BF923684E
:101C24006FF00C021A6022681168536803F04003D5
:101C340011F0010F04D01BB1136813F0010F09D187
:101C440022681168536803F0806311F0200F00D0FC
:101C540063B938BD236C43F4803323642046FFF713
:101C640069FF23686FF001021A60E9E7636C43F0CF
:101C7400020363646FF0200515602046FFF75BFFE5
:101C840023681D60E5E708B5806B40230364436C5B
:101C940043F004034364FFF74EFF08BD08B5836BAC
:101CA4001A6C12F0500F26D11A6C42F400721A64A6
:101CB4001A68916811F0405F19D1197EB9B9D16AD7
:101CC40011F4700F03D0916811F4806F0FD1516833
:101CD40021F0200151601A6C22F480721A641A6C8B
:101CE40012F4805F03D11A6C42F001021A641846A0
:101CF40002F016FA08BD1A6C12F0100F03D19B6B98
:101D0400DB6C984708BD1846FFF715FF08BD0000B7
:101D140030B482B00023019390F83C30012B00F0E2
:101D2400BD80012380F83C300B68092B3ED905683F
:101D3400EA689BB203EB43031E3B072404FA03F354
:101D440022EA0303EB600568EA688C680B8803EBFE
:101D540043031E3B04FA03F31343EB604B68062B67
:101D64003AD805686A6B03EB8303053B1F2404FA26
:101D740003F322EA03036B6305686A6B4B6803EBA6
:101D84008303053B0C8804FA03F313436B63026873
:101D9400434B9A4250D00268414B9A4259D0002397
:101DA40080F83C30184602B030BC704705682A6998
:101DB4009BB203EB4303072404FA03F322EA03036D
:101DC4002B6105682A698C680B8803EB430304FACA
:101DD40003F313432B61C1E70C2B16D805682A6B58
:101DE40003EB8303233B1F2404FA03F322EA0303D4
:101DF4002B6305682A6B4B6803EB8303233B0C8836
:101E040004FA03F313432B63C1E70568EA6A03EB9F
:101E14008303413B1F2404FA03F322EA0303EB6226
:101E24000568EA6A4B6803EB8303413B0C8804FAB8
:101E340003F31343EB62AAE70B68122BABD1194BE4
:101E44005A6822F400025A605A6842F480025A60C6
:101E5400A1E70B68144A934201D0112B9FD1114B77
:101E64005A6822F480025A605A6842F400025A60A6
:101E74000A680D4B9A4292D10C4B1B680C4AA2FB88
:101E840003239B0C03EB83035A00019202E0019BA2
:101E9400013B0193019B002BF9D180E7022082E7EB
:101EA4000020014000230140120000104C080020D3
:101EB40083DE1B437047002800F0A18038B5044638
:101EC40090F82030D3B12268136823F00203136022
:101ED400FFF78AFC054623685A6812F0020F10D0F7
:101EE400FFF782FC401B0A28F5D9636A43F40033E8
:101EF4006362052384F82030012038BD02F026FDFA
:101F0400E1E71A6842F001021A60FFF76DFC05462A
:101F140023685A6812F0010F0DD1FFF765FC401BCE
:101F24000A28F5D9636A43F400336362052384F80D
:101F34002030012038BD227E012A3DD01A6822F0CB
:101F440080021A60637E012B3BD02268136823F061
:101F540040031360A37E012B39D02268136823F059
:101F640020031360E37E012B37D02268136843F00B
:101F740010031360237F012B35D02268136823F0EC
:101F840008031360637F012B33D02268136823F0A6
:101F9400040313602168A368E268134322691343AE
:101FA400626913436268013A1343CB6100206062A3
:101FB400012384F8203038BD1A6842F080021A6088
:101FC400C0E72268136843F040031360C2E7226845
:101FD400136843F020031360C4E72268136823F0F6
:101FE40010031360C6E72268136843F00803136004
:101FF400C8E72268136843F004031360CAE70120AA
:102004007047000090F82030013BDBB2012B05D96A
:10201400436A43F4802343620120704770B4434B06
:10202400D3F8002242F00102C3F80022D3F80022C0
:1020340022F47C52C3F80022D3F80022486A42EA10
:102044000022C3F800224A6902F01F02012000FAAC
:1020540002F2D3F81C42D0430440C3F81C42CB69BB
:10206400B3B9324BD3F80C420440C3F80C424C6968
:10207400CE688D8845EA0645483443F834504D69A6
:102084008E680C8844EA0644483503EBC5035C605B
:10209400CB69012B1DD08B69002B32D1234CD4F892
:1020A40004320340C4F804320B698BBB1F4BD3F8D2
:1020B40014422040C3F814020B6A012B2FD01B4A90
:1020C400D2F8003223F00103C2F80032002070BCC1
:1020D4007047164BD3F80C421443C3F80C424C69B6
:1020E4000E688D8845EA0645483443F834504D69F6
:1020F4008E688C8944EA0644483503EBC5035C606A
:10210400C9E70A4CD4F804321343C4F80432CBE7C9
:102114000648D0F814321343C0F81432CCE7034B0A
:10212400D3F81C120A43C3F81C22C8E70064004019
:1021340038B590F82030DBB2012B05D0436A43F464
:1021440000234362012038BD0446022380F8203076
:102154000268136823F001031360FFF745FB05468B
:1021640023685B6813F0010F0DD0FFF73DFB401BA4
:102174000A28F5D9636A43F400336362052384F8BB
:102184002030012038BD0020606238BD70B490F862
:1021940020400568AD68013CE4B2012C06D9436ACD
:1021A40043F480234362012070BC704715F0E05F64
:1021B4005BD0C5F30165022D3ED80124AC401C6000
:1021C4008B68002B3ED104680E68CB6843EA465600
:1021D40005F118031B01E65003680C6905F11806A4
:1021E40003EB06135C600B7D012B36D00468D179B8
:1021F40093791B0443EA0163517943EA012311797A
:102204000B432E013444C4F88C310168D47893789C
:102214001B0443EA0463547843EA04231278134307
:102224003144C1F88831026818352D01535943F0FF
:10223400010353510020B7E7436A43F400034362A8
:102244000120B1E704684E6843EAC603CE6833430D
:1022540005F118063601A351BEE7036803EB061324
:10226400596841F480715960C0E7436A43F400132C
:102274004362012098E790F82030013BDBB2012B48
:1022840001D90020704703689A6812F0806F0BD15F
:1022940000209A6812F0006F00D001309B6813F0A0
:1022A400805FEFD0013070470120F2E790F82030D2
:1022B400013BDBB2012B01D90020704703689B6806
:1022C400890631EA030301D00120704700207047DA
:1022D40030B490F82040013CE4B2012C06D9436AA2
:1022E40043F480234362012030BC704700296FD13E
:1022F4000468E46814F0030F64D0056801F11B045A
:1023040024012C5904F004049460002C6BD105685A
:1023140001F11B0424012C59640D1460056801F1BA
:102324001B0424012D59C5F34005D56005682544D7
:102334006D6805F00F051561056825446D68C5F3E2
:102344000725956105682C446468240C546104686D
:102354000A011444D4F8B8411C7004681444D4F835
:10236400B841C4F307245C7004681444D4F8B84139
:10237400C4F307449C7004681444D4F8B841240E90
:10238400DC7004681444D4F8BC411C71046814441F
:10239400D4F8BC41C4F307245C7104681444D4F831
:1023A400BC41C4F307449C7104682244D2F8BC21A4
:1023B400120EDA71F9B90268D36843F02003D360CE
:1023C400002091E7436A43F40013436201208BE742
:1023D4000468246914F0030F8FD1436A43F4001393
:1023E4004362012080E7056801F11B0424012C5994
:1023F400E408546092E70268136943F02003136110
:10240400002071E790F82030013BDBB2012B01D9A9
:102414000020704721B10368186900F00300704779
:102424000368D86800F00300704790F82030013B3F
:10243400DBB2012B05D9436A43F4802343620120B4
:10244400704702685369194351610020704770470F
:1024540070477047704770477047704770477047C0
:102464007047704770472DE9F84F054603685C696B
:102474005F689E68D3F80C90D3F81080D3F818A046
:1024840014F0010F5AD016F0010F17D001229A60F0
:1024940016F0020F08D116F0040F30D116F0080F11
:1024A40007D04FF4805B0BE0FFF7D1FF4FF0000B38
:1024B40006E0FFF7CFFF4FF0000B01E04FF0000BF9
:1024C40016F4807F0BD02B684FF480729A6016F458
:1024D400007F17D116F4806F18D04BF4005B16F40C
:1024E400803F2DD02B684FF480329A6016F4003F61
:1024F40016D116F4802F17D04BF4004B20E04FF484
:10250400006BDDE72846FFF7A3FFE8E716F4006F4A
:1025140002D04BF4804BE2E72846FFF79CFFDEE74E
:102524002846FFF796FF0BE016F4002F02D04BF479
:10253400803B05E02846FFF78FFF01E04FF0000BDA
:1025440014F0080F07D019F0100F04D04BF4007BDF
:102554002B681022DA6014F0040F02D019F0080F6F
:1025640060D114F0020F04D02B68DB6813F0030F62
:102574005FD114F0400F07D018F0100F04D04BF4C3
:10258400806B2B6810221A6114F0200F02D018F00F
:10259400080F52D114F0100F04D02B681B6913F0EC
:1025A400030F51D114F4003F02D017F0100F4FD194
:1025B40014F4803F02D017F0080F50D114F4004FE8
:1025C40067D017F0040F61D014F4807F04D01AF0A0
:1025D400010F01D04BF0010B14F4007F04D01AF06A
:1025E400020F01D04BF0020B14F4806F04D01AF0E8
:1025F400040F01D04BF0040B14F4006F46D01AF012
:10260400700A43D0BAF1300F48D02FD9BAF1500F25
:1026140047D0BAF1600F47D0BAF1400F31D14BF037
:10262400400B2EE02B680822DA60284601F092FD68
:1026340097E72846FFF711FF9BE72B6808221A61EA
:102644002846FFF70CFFA5E72846FFF707FFA9E791
:102654002B6810225A602846FFF702FFA8E72B6870
:1026640008225A602846FFF7FCFEA7E7BAF1100FCC
:1026740005D0BAF1200F04D14BF0100B01E04BF060
:10268400080B2A68936923F0700393612B68042272
:102694005A60BBF1000F0AD1BDE8F88F4BF0200B54
:1026A400EFE74BF0800BECE74BF4807BE9E76B6AD8
:1026B4004BEA03036B622846FFF7D4FEECE7000005
:1026C400074AD36823F4E0631B041B0C000200F4E4
:1026D400E060184340F0BF6040F40030D0607047C1
:1026E40000ED00E030B4164BDB68C3F30223C3F102
:1026F4000704042C28BF04241D1D062D17D9033BF1
:10270400012505FA04F4013C2140994005FA03F33C
:10271400013B1340194300280BDB0901C9B200F146
:10272400604000F5614080F8001330BC704700231E
:10273400E6E700F00F000901C9B2024B1954F4E7AF
:1027440000ED00E014ED00E0002808DB420900F091
:102754001F00012303FA00F0014B43F822007047E5
:1027640000E100E00138B0F1807F0AD2064B5860E6
:10277400F021064A82F823100020986007221A608C
:1027840070470120704700BF10E000E000ED00E05A
:1027940030B405682C6824F480242C6004686360D9
:1027A4008368402B05D0036899600368DA6030BC05
:1027B400704703689A600368D960F8E70268D3B287
:1027C400103B0B49A1FB03131B090A49C95CC165F2
:1027D400032B06D822F47F7222F003028265806DF7
:1027E400704722F47F7222F0030204328265F6E716
:1027F400ABAAAAAA744C0008836A826992B9012B15
:102804000AD01BB1022B01D000207047C36A13F019
:10281400807F2CD100207047C36AB3F1C07F28D0D9
:1028240000207047B2F5005F05D0022B29D9032B95
:1028340015D000207047032B03D8DFE803F01C04F5
:102844001C0A00207047C36A13F0807F15D1002052
:102854007047C36AB3F1C07F11D000207047C36AC8
:1028640013F0807F01D001207047002070470120C1
:1028740070470120704701207047012070470120F4
:10288400704701207047000070B50446FEF7ACFFA6
:10289400002C5DD00546002384F83430022384F8EC
:1028A40035302268136823F00103136023681A6823
:1028B40012F0010F0AD0FEF797FF401B0528F5D947
:1028C40020236365032084F8350070BD1A6821490C
:1028D40011406268A0680243E06802432069024331
:1028E40060690243A0690243E0690243206A02432B
:1028F4000A43616A042916D01A602668756925F0AE
:102904000705636A1D43042B12D075612046FFF747
:1029140055FFE26D3F2393408360002060650123EF
:1029240084F8353070BDE16A206B01430A43E3E764
:10293400A36A1D43E36A002BE7D02046FFF75CFF40
:102944000028E2D040236365012084F8350070BD7F
:10295400012070BD3F8010F038B5856D90F834408B
:10296400012C31D0012480F8344090F83540E4B291
:10297400012C04D0002380F83430022038BD0446F2
:10298400022084F83500002060652046FFF700FF30
:10299400E26D3F239340AB602268136843F0160353
:1029A40013602268536943F080035361236C23B19D
:1029B4002268136843F0080313602268136843F025
:1029C40001031360002038BD022038BDF0B583B088
:1029D400044600230193724B1D68724BA3FB05351B
:1029E400AD0A876D3E68C26D082393401E4210D025
:1029F40003681A6812F0040F0BD01A6822F004025C
:102A04001A60C26D08239340BB60436D43F0010319
:102A14004365E26D012393401E4209D02268526946
:102A240012F0800F04D0BB60636D43F00203636552
:102A3400E26D042393401E4209D02268126812F00A
:102A4400020F04D0BB60636D43F004036365E26D61
:102A5400102393401E4224D02268126812F0080FFB
:102A64001FD0BB6023681A6812F4802F0DD01B6836
:102A740013F4002F04D1236C9BB12046984710E037
:102A8400A36C73B1204698470BE01A6812F4807F58
:102A940003D11A6822F008021A60236C0BB1204695
:102AA4009847E26D202393401E4255D02268126855
:102AB40012F0100F50D0BB6094F83530DBB2052B08
:102AC4000ED023681A6812F4802F33D01B6813F4D5
:102AD400002F2AD1636C002B3ED0204698473BE060
:102AE4002268136823F0160313602268536923F0E5
:102AF40080035361236CA3B12268136823F0080395
:102B04001360E26D3F239340BB60002384F83430AC
:102B1400012384F83530236D002B3FD0204698479D
:102B24003CE0A36C002BE7D1EBE7E36BA3B12046B9
:102B3400984711E01A6812F4807F09D11A6822F0CC
:102B440010021A60002384F83430012384F83530ED
:102B5400E36B0BB120469847636DFBB1636D13F0D3
:102B6400010F17D0052384F835302268136823F049
:102B740001031360019B013301939D4204D3236835
:102B84001B6813F0010FF5D1002384F834300123BE
:102B940084F83530E36C0BB12046984703B0F0BDA0
:102BA4004C080020B5814E1BF0B583B0002498E09A
:102BB4004FEAD40E0EF1080E50F82E2004F007064A
:102BC400B6000F27B74022EA07020F6907FA06F694
:102BD400324340F82E2094E086681640CF6807FA06
:102BE4000EF73E438660466826EA03034E68C6F342
:102BF4000016A64033434360C3681A408B6803FA47
:102C04000EF31A43C2604B6813F0805F68D0002350
:102C14000193514B5A6C42F480425A645B6C03F446
:102C240080430193019BA3089E1C4C4A52F8262022
:102C340004F003064FEA860E0F2606FA0EF622EA81
:102C44000602474FB84279D0464EB04278D006F5D6
:102C54008066B04276D006F58066B04274D006F540
:102C64008066B04272D006F58066B04270D006F538
:102C74008066B04260D0072606FA0EF6324302336D
:102C8400364E46F82320384B1A68EB4302EA030613
:102C94004F6817F4803F01D045EA0206324A1660B5
:102CA400526803EA02064F6817F4003F01D045EA70
:102CB40002062D4A5660926803EA02064F6817F42A
:102CC400801F01D045EA0206274A9660D268134065
:102CD4004E6816F4001F01D045EA0203224AD3606D
:102CE40001340F2C36D80123A3400A6803EA0205F5
:102CF400AB42F5D14A68022A3FF45AAF122A3FF494
:102D040057AF06684FEA440E032202FA0EF2D2438A
:102D140016404F6807F0030707FA0EF73E430660B4
:102D24004E68771E012F7FF657AF112E3FF454AF34
:102D3400122E7FF461AF4FE706269DE700269BE73E
:102D4400012699E7022697E7032695E7042693E7E9
:102D5400052691E703B0F0BD003802400038014079
:102D64000000024000040240003C01400369194293
:102D740001D1002070470120704712B90904816114
:102D8400704781617047704708B5054B5B69034222
:102D940000D108BD024B5861FFF7F5FFF9E700BF0A
:102DA400003C0140002800F09D8070B504464F4B64
:102DB4001B6803F00F038B4209D2CBB24B4A13704A
:102DC400136803F00F03994201D0012070BD2368FA
:102DD40013F0020F17D013F0040F04D0444A936881
:102DE40043F4E0539360236813F0080F04D0404A7F
:102DF400936843F4604393603D4A936823F0F0037F
:102E0400A068034393600D46236813F0010F32D08A
:102E14006368012B21D09A1E012A25D9344A1268ED
:102E240012F0020F60D032498A6822F00302134381
:102E34008B60FEF7D9FC06462D4B9B6803F00C0310
:102E44006268B3EB820F16D0FEF7CEFC801B41F212
:102E540088339842F0D9032070BD254A126812F4D1
:102E6400003FE0D1012070BD214A126812F0007FBA
:102E7400D9D1012070BD1D4B1B6803F00F039D4287
:102E840009D2EAB2194B1A701B6803F00F039D4272
:102E940001D0012070BD236813F0040F06D0144A3A
:102EA400936823F4E053E1680B439360236813F0C1
:102EB400080F07D00E4A936823F46043216943EA5C
:102EC400C103936000F040F8094B9B68C3F30313FC
:102ED400084AD35CD840084B18600020FEF738FC41
:102EE400002070BD01207047012070BD003C0240ED
:102EF40000380240844C00084C080020014B18683C
:102F0400704700BF4C08002008B5FFF7F7FF044BDB
:102F14009B68C3F38223034AD35CD84008BD00BF37
:102F240000380240944C000808B5FFF7E7FF044B53
:102F34009B68C3F34233034AD35CD84008BD00BF47
:102F440000380240944C0008F8B55C4B9B6803F0D1
:102F54000C03082B06D00C2B5AD0042B00F0AC80A9
:102F64005748F8BD554B5A6802F03F025B6813F4AA
:102F7400800F2AD0514B5B68C3F388131E46002789
:102F84005C010025E41A65EB0705A90141EA946197
:102F9400A001001B61EB0501CB0043EA5073C400A0
:102FA400A01943EB07014B0243EAD05344022046E5
:102FB40019460023FEF744FA404B5B68C3F3014310
:102FC40001335B00B0FBF3F0F8BD3C4B5B68C3F32B
:102FD40088131E4600275C010025E41A65EB0705EB
:102FE400A90141EA9461A001001B61EB0501CB003A
:102FF40043EA5073C400A01943EB07018B0243EA70
:1030040090538402204619460023FEF719FAD3E7A9
:103014002A4B5A6802F03F025B6813F4800F28D0F1
:10302400264B5B68C3F388131E4600275C0100250A
:10303400E41A65EB0705A90141EA9461A001001BAC
:1030440061EB0501CB0043EA5073C400A01943EBC4
:1030540007014B0243EAD053440220461946002399
:10306400FEF7EEF9154B5B68C3F30273B0FBF3F0A4
:10307400F8BD124B5B68C3F388131E4600275C013E
:103084000025E41A65EB0705A90141EA9461A00152
:10309400001B61EB0501CB0043EA5073C400A01987
:1030A40043EB07018B0243EA9053840220461946FE
:1030B4000023FEF7C5F9D5E70248F8BD0038024001
:1030C4000024F40000127A0070B582B0044603684C
:1030D40013F0010F41D0A64B9B6803F00C03042BA3
:1030E40032D0A34B9B6803F00C03082B27D0A04BD2
:1030F4009B6803F00C030C2B59D06368B3F5803F35
:103104005BD0B3F5A02F5ED0994B1A6822F48032BD
:103114001A601A6822F480221A606368002B5CD05B
:10312400FEF762FB0546924B1B6813F4003F14D173
:10313400FEF75AFB401B6428F5D903209DE18C4B14
:103144005B6813F4800FD2D0894B1B6813F4003FE3
:1031540003D06368002B00F08D81236813F0020F05
:1031640067D0834B9B6813F00C0F4AD0804B9B684D
:1031740003F00C03082B3FD07D4B9B6803F00C033A
:103184000C2B48D0E368002B74D00122794B1A60D1
:10319400FEF72AFB0546764B1B6813F0020F60D13D
:1031A400FEF722FB401B0228F5D9032065E1704B92
:1031B4005B6813F4800FA0D0C6E76D4A136843F42C
:1031C40080331360A9E76A4B1A6842F480221A60BC
:1031D4001A6842F480321A609FE7FEF705FB054641
:1031E400634B1B6813F4003FB7D0FEF7FDFA401B96
:1031F4006428F5D9032040E15D4B5B6813F4800F2C
:10320400BAD15B4B1B6813F0020F0AD0E368012BA1
:1032140007D0012031E1564B5B6813F4800FB1D124
:10322400EFE7534A136823F0F803216943EAC10323
:103234001360236813F0080F40D0636963B301225D
:103244004D4B1A60FEF7D0FA0546494B5B6F13F0FD
:10325400020F33D1FEF7C8FA401B0228F5D9032028
:103264000BE1434A136823F0F803216943EAC103DD
:103274001360DEE700223F4B1A60FEF7B5FA0546FD
:103284003B4B1B6813F0020FD3D0FEF7ADFA401B83
:103294000228F5D90320F0E00022374B1A60FEF72C
:1032A400A3FA0546324B5B6F13F0020F06D0FEF70C
:1032B4009BFA401B0228F5D90320DEE0236813F0B3
:1032C400040F79D02A4B1B6C13F0805F33D1002399
:1032D4000193274B1A6C42F080521A641B6C03F062
:1032E40080530193019B0125244B1B6813F4807FB9
:1032F40023D0A368012B34D0052B41D01C4B1A6F6B
:1033040022F001021A671A6F22F004021A67A368F6
:10331400002B3FD0FEF768FA0646154B1B6F13F0DF
:10332400020F48D1FEF760FA801B41F288339842BD
:10333400F3D90320A1E00025D6E7104A136843F42B
:1033440080731360FEF750FA06460C4B1B6813F4A7
:10335400807FCED1FEF748FA801B0228F5D90320DE
:103364008BE0034A136F43F001031367CFE700BFF9
:103374000038024000004742800E4742007000407F
:10338400404B1A6F42F004021A671A6F42F00102AE
:103394001A67BCE7FEF728FA06463A4B1B6F13F090
:1033A400020F08D0FEF720FA801B41F288339842BE
:1033B400F3D9032061E0E5B9A369002B5CD0314A5D
:1033C400926802F00C02082A59D0022B17D000226E
:1033D4002D4B1A60FEF708FA04462A4B1B6813F0BB
:1033E400007F45D0FEF700FA001B0228F5D9032020
:1033F40043E0244A136C23F080531364DCE7002277
:10340400214B1A60FEF7F0F905461E4B1B6813F0BA
:10341400007F06D0FEF7E8F9401B0228F5D9032007
:103424002BE0E369226A1343626A43EA8213A26AC5
:103434005208013A43EA0243E26A43EA0263226B16
:1034440043EA02730F4A536001220F4B1A60FEF7DE
:10345400CBF904460B4B1B6813F0007F06D1FEF733
:10346400C3F9001B0228F5D9032006E0002004E07C
:10347400002002E0012000E0002002B070BD012025
:10348400FBE700BF003802406000474210B4036A03
:10349400046A24F001040462846924F0F00444EA18
:1034A400021223F00A030B43826103625DF8044BAA
:1034B400704710B4036A23F0100303628469036A3B
:1034C40024F4704444EA023223F0A00343EA0113D3
:1034D400826103625DF8044B7047836823F07003D4
:1034E400194341F0070181607047022380F83D30A1
:1034F4000268936803F00703062B03D0136843F0B4
:1035040001031360012380F83D30002070470268F6
:10351400D36843F00103D3600268936803F00703A0
:10352400062B03D0136843F0010313600020704797
:10353400704770477047704710B5044603681A69AE
:1035440012F0020F11D0DA6812F0020F0DD06FF0F2
:1035540002021A610123037703689B6913F0030FC6
:1035640070D0FFF7E6FF0023237723681A6912F06F
:10357400040F12D0DA6812F0040F0ED06FF00402B8
:103584001A610223237723689B6913F4407F5FD079
:103594002046FFF7CEFF0023237723681A6912F031
:1035A400080F12D0DA6812F0080F0ED06FF008027C
:1035B4001A61042323772368DB6913F0030F4ED0C9
:1035C4002046FFF7B6FF0023237723681A6912F019
:1035D400100F12D0DA6812F0100F0ED06FF0100234
:1035E4001A61082323772368DB6913F4407F3DD0F5
:1035F4002046FFF79EFF0023237723681A6912F001
:10360400010F03D0DA6812F0010F36D123681A696A
:1036140012F0800F03D0DA6812F0800F34D12368DF
:103624001A6912F0400F03D0DA6812F0400F32D159
:1036340023681A6912F0200F03D0DA6812F0200F01
:1036440030D110BDFFF774FF2046FFF773FF8AE700
:103654002046FFF76DFF2046FFF76CFF9BE72046EF
:10366400FFF766FF2046FFF765FFACE72046FFF74C
:103674005FFF2046FFF75EFFBDE76FF001021A61AE
:10368400204600F0D5FDC1E76FF080021A612046A4
:1036940000F02CF9C3E76FF040021A612046FFF7EF
:1036A4004AFFC5E76FF020021A61204600F01DF9B9
:1036B400C7E700000368314A904212D0B0F1804F4E
:1036C4000FD0A2F57C4290420BD002F5806290426A
:1036D40007D002F58062904203D002F5784290420E
:1036E40003D123F070034A681343244A90422AD03A
:1036F400B0F1804F27D0A2F57C42904223D002F54E
:10370400806290421FD002F5806290421BD002F585
:103714007842904217D002F57052904213D002F5CD
:10372400806290420FD002F5806290420BD0A2F5E5
:103734009832904207D002F58062904203D002F59D
:103744008062904203D123F44073CA68134323F088
:1037540080034A69134303608B68C3620B68836206
:10376400064B984206D003F58063984202D00123A9
:10377400436170470B690363F9E700BF0000014030
:10378400A8B110B5044690F83D305BB1022384F82B
:103794003D30211D2068FFF78DFF012384F83D3063
:1037A400002010BD80F83C3001F01AF9EEE701204A
:1037B400704710B4846824F47F4442EA0323194315
:1037C4000C4384605DF8044B704790F83C30012B47
:1037D40066D010B50446012380F83C30022380F8FB
:1037E4003D300268936823F47F4323F077039360AA
:1037F4000B68402B4AD013D9602B3DD01ED9702BB7
:1038040028D0B3F5005F30D1CB684A688968006876
:10381400FFF7CFFF2268936843F48043936024E06A
:10382400102B06D004D9202B03D0302B01D01CE060
:10383400DBB919462068FFF750FE16E0502B14D16F
:10384400CA6849680068FFF721FE50212068FFF725
:1038540044FE0AE0CB684A6889680068FFF7A9FF5C
:103864002268936843F077039360012384F83D3022
:10387400002084F83C0010BDCA6849680068FFF75E
:1038840018FE60212068FFF728FEEEE7CA68496841
:103894000068FFF7FBFD40212068FFF71EFEE4E708
:1038A4000220704790F83C30012B1CD070B40125E5
:1038B40080F83C50022380F83D3004686268A368B5
:1038C40022F070020E68324323F0800349680B43F0
:1038D40062600268936080F83D50002380F83C30B9
:1038E400184670BC7047022070477047704700004C
:1038F4002DE9F04704460268136923F44053C16874
:103904000B43136183680269134342691343C26919
:1039140013430168CA6822F4164222F00C021343CE
:10392400CB600268536923F4407381690B4353618C
:10393400C369B3F5004F62D0D0F80080BB4B984503
:1039440000F01B8103F58063984500F01681FFF7B2
:10395400DBFA00EB800000EB80006568AD00B0FB93
:10396400F5F5B34FA7FB05356D092E01FFF7CCFA2A
:1039740000EB800000EB80006568AD00B0FBF5FA59
:10398400FFF7C2FA00EB800000EB80006568AD0031
:10399400B0FBF5F5A7FB05356D094FF0640909FB8C
:1039A40015A52D013235A7FB05356D0905F0F00588
:1039B4003544FFF7A9FA00EB800000EB800066684D
:1039C400B600B0FBF6F6FFF79FFA00EB800000EBC1
:1039D400800063689B00B0FBF3F0A7FB0030400954
:1039E40009FB10694FEA091909F13209A7FB0937E4
:1039F400C7F343172F44C8F80870BDE8F087D0F820
:103A0400008003F1804303F5104398455CD003F52F
:103A14008063984558D0FFF777FA00EB800000EBFD
:103A2400800065686D00B0FBF5F5814FA7FB053597
:103A34006D092E01FFF768FA00EB800000EB8000AF
:103A440065686D00B0FBF5FAFFF75EFA00EB8000E5
:103A540000EB800065686D00B0FBF5F5A7FB05354C
:103A64006D094FF0640909FB15A5ED003235A7FB7C
:103A740005356D096D0005F4F8753544FFF744FA12
:103A840000EB800000EB800066687600B0FBF6F681
:103A9400FFF73AFA00EB800000EB800063685B00FC
:103AA400B0FBF3F3A7FB03235B0909FB13694FEA9C
:103AB400C90909F13209A7FB0937C7F342172F4493
:103AC400C8F80870BDE8F087FFF72EFA00EB800015
:103AD40000EB800065686D00B0FBF5F5544FA7FB63
:103AE40005356D092E01FFF71FFA00EB800000EB8E
:103AF400800065686D00B0FBF5FAFFF715FA00EB7E
:103B0400800000EB800065686D00B0FBF5F5A7FB55
:103B140005356D094FF0640909FB15A5ED00323533
:103B2400A7FB05356D096D0005F4F8753544FFF7FD
:103B3400FBF900EB800000EB800066687600B0FBC8
:103B4400F6F6FFF7F1F900EB800000EB8000636804
:103B54005B00B0FBF3F3A7FB03235B0909FB1369C9
:103B64004FEAC90909F13209A7FB0937C7F342171C
:103B74002F44C8F80870BDE8F087FFF7D5F900EBCB
:103B8400800000EB80006568AD00B0FBF5F5284FC0
:103B9400A7FB05356D092E01FFF7C6F900EB800080
:103BA40000EB80006568AD00B0FBF5FAFFF7BCF9E7
:103BB40000EB800000EB80006568AD00B0FBF5F51C
:103BC400A7FB05356D094FF0640909FB15A52D0107
:103BD4003235A7FB05356D0905F0F0053544FFF7CF
:103BE400A3F900EB800000EB80006668B600B0FB30
:103BF400F6F6FFF799F900EB800000EB80006368AC
:103C04009B00B0FBF3F3A7FB03235B0909FB1369D8
:103C14004FEA091909F13209A7FB0937C7F343171A
:103C24002F44C8F80870BDE8F08700BF00100140B9
:103C34001F85EB512DE9F04105460F46164698467F
:103C4400069C2B681B6837EA03030CBF012300237F
:103C5400B3421ED1B4F1FF3FF3D02CB1FDF7C4FD44
:103C6400A0EB08008442ECD22A68D36823F4D07312
:103C7400D3602A68536923F001035361202385F834
:103C8400393085F83A30002385F838300320BDE810
:103C9400F0810020BDE8F08158B310B5044690F8D7
:103CA40039300BB3242384F839302268D36823F4E1
:103CB4000053D3602046FFF71BFE2268136923F4E8
:103CC400904313612268536923F02A0353612268E5
:103CD400D36843F40053D3600020E063202384F8C6
:103CE400393084F83A3010BD80F8383000F0C4FE22
:103CF400D8E7012070472DE9F04182B01E4690F8C4
:103D04003930DBB2202B04D00223184602B0BDE8C0
:103D1400F08104460D469046002955D0002A55D01E
:103D240090F83830012B01D10223EEE7012380F80B
:103D340038300023C363212380F83930FDF754FD64
:103D44000746A4F82480A4F8268010E000963B4699
:103D5400002280212046FFF76DFF002838D1226819
:103D64002B88C3F3080353602369CBB90235E38C72
:103D74009BB2BBB1E38C9BB2013B9BB2E384A368CF
:103D8400B3F5805FE2D000963B46002280212046B6
:103D9400FFF750FFF0B923682A785A600135E6E747
:103DA4000135E4E700963B46002240212046FFF718
:103DB40041FF034608B10323A7E7202284F83920F2
:103DC400002284F83820A0E701239EE701239CE722
:103DD40003239AE7032398E710B588B004460368E1
:103DE4000193002303930493426805928DF81830DD
:103DF4008069FEF740FA10B9002008B010BD012117
:103E0400A069FEF753FA08B10020F6E707AB04F106
:103E1400080201A9A069FEF7B9F90120EDE710B580
:103E240088B0044600218069FEF7ECFA10B90198C5
:103E340008B010BD04F1100301AA0021A069FEF727
:103E440047FAF4E703680A689B1A002BB8BF5B4281
:103E5400C3F16403092B07DDD0F8A8311B685B6A42
:103E6400642B07D800207047D0F8A8311B680020C5
:103E740058627047012070470369436070470369C3
:103E84008360704701228A4217DA30B402F100538A
:103E9400013B00EBC30300EBC204D4E90045C3E9D2
:103EA400004501328A42F1DB01F10051013900EB96
:103EB400C10080ED000B30BC704701F100510139A5
:103EC40000EBC10080ED000B70472DE9F041804606
:103ED4000D460024002600270AE008EBC403D3E9BA
:103EE400002330463946FCF7BFFE06460F46013430
:103EF400AC42F2DB2846FDF703F802460B46304697
:103F04003946FDF78DF941EC100BBDE8F08138B569
:103F1400044600F118050069FCF7F2FF41EC100BB0
:103F240014212846FFF7AEFF14212846FFF7CDFFE2
:103F340051EC100BFDF75CFA2061A368C01A00284D
:103F4400B8BF4042642303FB00F3E26893FBF2F33F
:103F54002360632B01DD642323602368052B01DCCC
:103F640000232360012038BD2DE9F0418AB00024EC
:103F7400059406940794089409940194364B1A6B9B
:103F840042F004021A631A6B02F004020192019ACD
:103F940002941A6B42F080021A631A6B02F08002D8
:103FA4000292029A03941A6B42F001021A631A6B8A
:103FB40002F001020392039A04941A6B42F0020283
:103FC4001A631B6B03F002030493049B234D2246E4
:103FD40001212846FEF7D1FE214F22464FF480717D
:103FE4003846FEF7CAFE4FF4005305931D4B069363
:103FF400079405A92846FEF7D7FD012605960696DF
:104004000794089405A92846FEF7CEFD402305939E
:104014000694079605A92846FEF7C6FD4FF4807856
:10402400CDF814800694079405A92846FEF7BCFD34
:10403400CDF8148006960794089405A93846FEF72F
:10404400B3FD224621462820FEF74CFB2820FEF72C
:104054007BFB0AB0BDE8F081003802400008024052
:10406400000402400000111000B583B0002101914A
:10407400094B1A6B42F480021A631B6B03F480032E
:104084000193019B0A463820FEF72CFB3820FEF7EB
:104094005BFB03B05DF804FB0038024008B5002266
:1040A40011461220FEF71EFB1220FEF74DFB0022E4
:1040B40011461320FEF716FB1320FEF745FB0022E2
:1040C40011461420FEF70EFB1420FEF73DFB0022E0
:1040D40011461520FEF706FB1520FEF735FB0022DE
:1040E40011461620FEF7FEFA1620FEF72DFB0022DD
:1040F40011461D20FEF7F6FA1D20FEF725FB0022CF
:1041040011461E20FEF7EEFA1E20FEF71DFB0022CC
:1041140011461C20FEF7E6FA1C20FEF715FB08BD2D
:10412400074B1968074A11615968074A11619A686F
:10413400064B1A61064A136801331360704700BFC7
:1041440058160020B00D0020B8080020680A00208E
:10415400AC08002038B53148FFF761FE0446BB289F
:1041640002D0C32C4DD038BD2C4B1B8AABB12B4B8A
:104174001B8AB3F5807F2AD0294A536891685B1A59
:10418400002BB8BF5B42D360264A536891685B1A20
:10419400002BB8BF5B42D360E3E72148FFF76CFE16
:1041A4002048FFF76CFE1D4800230372437283729C
:1041B400C372037343738373C373BC230360082301
:1041C4004360FFF709FE0122174B1A60CFE714483A
:1041D400FFF755FE1348FFF74FFE10480025057200
:1041E400012343728572C572057345738573C57364
:1041F400BC23036008234360FFF7EEFD0A4B1D60F8
:10420400BAE7064B1B7C002BADD1044A517C937C4E
:1042140003EB0123054A1360A5E700BF900D0020BE
:10422400B00D0020B8080020EC130020480800203E
:104234007047000010B50446254BA3FB0023DB08A0
:1042440003EB830303EB8303984228D00134204B10
:10425400A3FB0423DB0803EB830303EB83039C42EC
:104264001CD11C4B1B68012B18D01B480123037263
:104274001A4B1B6843721A4B1B688372194B1B68D9
:10428400C372002303734373174A12688273C373A0
:10429400B023036008234360FFF79EFD10BD0E4862
:1042A40002230372114B1B684372002383720D4A6D
:1042B4001268C272037343730B4A12688273C37326
:1042C400B023036008234360FFF786FDBEE700BF09
:1042D4001F85EB51EC130020900D0020B80800203E
:1042E400B00D00209C130020B8160020A808002060
:1042F400FEE7000008B50A480A4B03604FF4E133B7
:10430400436000238360C36003610C2242618361C4
:10431400C361FFF7C1FC00B908BDFFF7E9FF00BFA7
:10432400D41500200044004000B585B0002300935C
:104334000193029303931F481F4A02604360836002
:1043440001220261027680F82030C3621B49816237
:10435400C3600323C36180F830204261FDF7F8FA9B
:10436400F8B90023009301230193072302936946BC
:104374001048FDF7CDFCB0B901230093022301934B
:1043840069460C48FDF7C4FC78B904230093032361
:10439400019369460748FDF7BBFC40B905B05DF8D9
:1043A40004FBFFF7A5FFFFF7A3FFFFF7A1FFFFF74C
:1043B4009FFF00BFA0130020002001400100000F58
:1043C40000B587B0002302930393049305930093ED
:1043D40001931448144A02604AF2AA62426083605C
:1043E4004FF47A72C26003618361FFF7C9F998B927
:1043F40006A94FF4805341F8103D0A48FFF7E5F948
:1044040060B900230093019369460648FFF74AFA0E
:1044140030B907B05DF804FBFFF76AFFFFF768FFE8
:10442400FFF766FF301300200004004008B50D4874
:104434000D4B03600223436000238360C3604FF489
:10444400302202614FF480024261037643760122F6
:104454008276C37603774377FDF72DFD00B908BD57
:10446400FFF746FF141600200064004000B587B033
:104474000023029303930493059300930193154837
:104484004FF0804202604FF46162426083604FF4F7
:10449400FA72C26003618361FFF772F998B906A9E1
:1044A4004FF4805341F8103D0A48FFF78EF960B984
:1044B40000230093019369460648FFF7F3F930B9E6
:1044C40007B05DF804FBFFF713FFFFF711FFFFF7D9
:1044D4000FFF00BF9415002000B587B0002302939E
:1044E400039304930593009301931448144A0260C0
:1044F4004FF46162426083604FF4FA72C2600361F8
:104504008361FFF73DF998B906A94FF4805341F848
:10451400103D0A48FFF759F960B90023009301934D
:1045240069460648FFF7BEF930B907B05DF804FBE9
:10453400FFF7DEFEFFF7DCFEFFF7DAFEE0110020F6
:104544000008004000B583B00023009301930E4897
:104554000E4A026012224260836042F21072C2600C
:104564008361FFF70DF950B9002300930193694665
:104574000548FFF797F920B903B05DF804FBFFF78E
:10458400B7FEFFF7B5FE00BF781600200014004008
:1045940000B595B03422002107A8FCF765F9002383
:1045A400029303930493059306930093204A116C9A
:1045B40041F080511164126C02F080520092009A12
:1045C40001931C4B1A6842F440421A601B6803F4BE
:1045D40040430193019B012307934FF4A0230893C5
:1045E40002230D934FF480020E9208220F924FF48F
:1045F4009072109211931293139307A8FEF764FD1F
:1046040088B90F23029302230393002304934FF4E6
:10461400A05305930693042102A8FEF7C3FB20B917
:1046240015B05DF804FBFFF763FEFFF761FE00BF02
:1046340000380240007000402DE9F041714E40F610
:10464400A173B3604FF4726373608123F3606E4BA4
:1046540040F636229A6040F6AA225A607422DA6042
:1046640000246A4B1C606A4B1C606A4B5C606A4B9A
:104674001C606A4B1C705C709C70DC70FDF78EF8DB
:10468400FFF786FFFFF770FCFFF7EEFCFFF732FE43
:10469400FFF74AFEFFF794FEFFF7C8FEFFF7E6FEBA
:1046A400FFF71AFFFFF74EFFFFF7F8FC5C498C6138
:1046B4004C600C608C60CC600C614C61CC6101235B
:1046C4000B62584D2846FDF79DFC2846FDF730FD4A
:1046D40014212846FDF7A9FE15212846FDF7A5FE5D
:1046E400514F3846FEF701FFDFF878814046FEF768
:1046F400FCFE4E48FEF7F9FE3846FEF708FF4FF081
:1047040080435C6203F580635C62C6F8A881484B11
:104714009D61FB68A34200DA0733DA10454981FB47
:104724000212DB17C3EBE2030233434A13600A238A
:10473400062242494248FFF7DEFA23E06422414B55
:104744001A6032E00120FDF755F800223E4B1A6052
:104754003C4B1B68012B3BD0002B3FD0294C2046FF
:10476400FFF7D5FB284D2846FFF7D1FB2946204605
:10477400FFF768FB012837D0FDF736F8334B1B6889
:10478400984235D10023324A1360324A136003221F
:1047940031493248FDF708F940213148FEF7E6FA7D
:1047A4000128CBD00022274B1A60274B1B68002B13
:1047B400C8D1FDF719F8254B1B689842C8D0FDF7FE
:1047C40013F8FFF737FDFDF70FF8204B1860BFE72C
:1047D400012211462248FEF7D0FABFE70022012148
:1047E4001F48FEF7CAFAB9E70122194B1A60C3E75A
:1047F400FCF7FAFFFFF71EFDFCF7F6FF134B1860FA
:10480400C0E700BFB00D0020B8080020EC13002062
:104814007C150020F013002070150020881500205E
:10482400741300201416002094150020781600201C
:10483400900D0020676666669C1300207C4C00087F
:10484400D4150020A8080020A4080020BC160020CD
:10485400B81600207815002058160020A013002058
:10486400000802403013002082B0002100910B4B5D
:104874005A6C42F480425A645A6C02F480420092A8
:10488400009A01911A6C42F080521A641B6C03F076
:1048940080530193019B02B0704700BF003802406F
:1048A40030B589B0002303930493059306930793CB
:1048B400026803F1804303F590339A4201D009B0B2
:1048C40030BD04460025019503F58C335A6C42F43F
:1048D40080725A645A6C02F480720192019A0295B1
:1048E4001A6B42F001021A631B6B03F0010302937B
:1048F400029B132303930323049303A91048FEF795
:1049040053F91048104B036045608560C5604FF44F
:10491400806303614FF4805343614FF480438361A8
:104924004FF48073C36105624562FDF7ADFF18B9AA
:10493400044BA3639C63C2E7FFF7DAFCF8E700BF0C
:104944000000024004140020106402402DE9F041EC
:1049540088B0002303930493059306930793026896
:104964001D4B9A4202D008B0BDE8F08100240194A6
:1049740003F5EA331A6C42F000721A641A6C02F0FE
:1049840000720192019A02941A6B42F001021A63B6
:104994001B6B03F001030293029B4FF40063039328
:1049A4004FF00208CDF810800123059303270697E2
:1049B40009260796094D03A92846FEF7F5F84FF492
:1049C40080530393CDF8108005940697079603A9A6
:1049D4002846FEF7E9F8C6E70064004000000240FC
:1049E40084B00368B3F1804F0AD01F4A934214D0B5
:1049F4001E4A93421ED01E4A934228D004B07047E8
:104A0400002300931B4B1A6C42F001021A641B6CC6
:104A140003F001030093009BF0E700230193154B7F
:104A24001A6C42F002021A641B6C03F00203019335
:104A3400019BE3E7002302930E4B1A6C42F004023D
:104A44001A641B6C03F004030293029BD6E7002351
:104A54000393084B1A6C42F020021A641B6C03F097
:104A640020030393039BC9E70004004000080040AF
:104A7400001400400038024000B589B000230393BD
:104A840004930593069307930268164B9A4202D047
:104A940009B05DF804FB0021019103F5FA331A6CA7
:104AA40042F400321A641A6C02F400320192019A40
:104AB40002911A6B42F001021A631B6B03F00103AB
:104AC4000293029B0C230393022304930123059373
:104AD400032306930723079303A90348FEF764F807
:104AE400D6E700BF00440040000002407047FEE7E4
:104AF400FEE7FEE7FEE770477047704708B5FCF72E
:104B040067FE08BD08B50248FDF716F808BD00BFEA
:104B1400A013002008B50248FDF7A5FC08BD00BF9E
:104B24001416002008B50248FDF79DFC08BD00BF1F
:104B34001416002008B50248FDF795FC08BD00BF17
:104B44001416002008B50248FDF78DFC08BD00BF0F
:104B54001416002008B50248FEF7EEFC08BD00BF9D
:104B64009415002008B50248FEF7E6FC08BD00BF16
:104B74003013002008B50248FEF7DEFC08BD00BF74
:104B8400E011002008B54FF40050FEF7FDF808BD11
:104B940008B50248FDF71AFF08BD00BF0414002041
:104BA4000F49D1F8883043F47003C1F888300D4BB5
:104BB4001A6842F001021A60002098601A6822F014
:104BC400847222F480321A60074A5A601A6822F406
:104BD40080221A60D8604FF000638B60704700BF7A
:104BE40000ED00E00038024010300024DFF834D03B
:104BF400002103E00C4B5B58435004310B480C4B31
:104C040042189A42F6D30B4A02E0002342F8043BCE
:104C1400094B9A42F9D3FFF7C3FFFBF743FBFFF7B6
:104C24000BFD704700000220B44C00080000002077
:104C34005008002050080020C8160020FEE700009D
:104C4400024B13B10248FBF70DBB70470000000094
:104C540075020008F8B500BFF8BC08BC9E46704752
:0C4C6400F8B500BFF8BC08BC9E467047C5
:104C70000800002000061016000610167669766FF0
:104C80000D0A000000000000000000000102030403
:104C900006070809000000000102030443000000A9
:084CA000D4C7FF7F01000000F2
:084CA800454C00083102000830
:044CB00009020008ED
:104CB400080000200000000000000000F4020020B2
:104CC4005C030020C403002000000000000000007A
:104CD40000000000000000000000000000000000D0
:104CE4000000000000000000000000009C4C0008D0
:104CF40000000000000000000000000000000000B0
:104D0400000000000000000000000000000000009F
:104D1400000000000000000000000000000000008F
:104D2400000000000000000000000000000000007F
:104D3400000000000000000000000000000000006F
:104D4400000000000000000000000000000000005F
:104D5400000000000000000000000000000000004F
:104D640001000000000000000E33CDAB34126DE6EC
:104D7400ECDE05000B000000000000000000000055
:104D8400000000000000000000000000000000001F
:104D9400000000000000000000000000000000000F
:104DA40000000000000000000000000000000000FF
:104DB40000000000000000000000000000000000EF
:1050E4000000000000000000300400203004002014
:1050F400380400203804002040040020400400202C
:1051040048040020480400205004002050040020DB
:10511400580400205804002060040020600400208B
:10512400680400206804002070040020700400203B
:1051340078040020780400208004002080040020EB
:10514400880400208804002090040020900400209B
:105154009804002098040020A0040020A00400204B
:10516400A8040020A8040020B0040020B0040020FB
:10517400B8040020B8040020C0040020C0040020AB
:10518400C8040020C8040020D0040020D00400205B
:10519400D8040020D8040020E0040020E00400200B
:1051A400E8040020E8040020F0040020F0040020BB
:1051B400F8040020F8040020000500200005002069
:1051C4000805002008050020100500201005002017
:1051D40018050020180500202005002020050020C7
:1051E4002805002028050020300500203005002077
:1051F4003805002038050020400500204005002027
:1052040048050020480500205005002050050020D6
:105214005805002058050020600500206005002086
:105224006805002068050020700500207005002036
:1052340078050020780500208005002080050020E6
:105244008805002088050020900500209005002096
:105254009805002098050020A0050020A005002046
:10526400A8050020A8050020B0050020B0050020F6
:10527400B8050020B8050020C0050020C0050020A6
:10528400C8050020C8050020D0050020D005002056
:10529400D8050020D8050020E0050020E005002006
:1052A400E8050020E8050020F0050020F0050020B6
:1052B400F8050020F8050020000600200006002064
:1052C4000806002008060020100600201006002012
:1052D40018060020180600202006002020060020C2
:1052E4002806002028060020300600203006002072
:1052F4003806002038060020400600204006002022
:1053040048060020480600205006002050060020D1
:105314005806002058060020600600206006002081
:105324006806002068060020700600207006002031
:1053340078060020780600208006002080060020E1
:105344008806002088060020900600209006002091
:105354009806002098060020A0060020A006002041
:10536400A8060020A8060020B0060020B0060020F1
:10537400B8060020B8060020C0060020C0060020A1
:10538400C8060020C8060020D0060020D006002051
:10539400D8060020D8060020E0060020E006002001
:1053A400E8060020E8060020F0060020F0060020B1
:1053B400F8060020F806002000070020000700205F
:1053C400080700200807002010070020100700200D
:1053D40018070020180700202007002020070020BD
:1053E400280700202807002030070020300700206D
:1053F400380700203807002040070020400700201D
:1054040048070020480700205007002050070020CC
:10541400580700205807002060070020600700207C
:10542400680700206807002070070020700700202C
:1054340078070020780700208007002080070020DC
:10544400880700208807002090070020900700208C
:105454009807002098070020A0070020A00700203C
:10546400A8070020A8070020B0070020B0070020EC
:10547400B8070020B8070020C0070020C00700209C
:10548400C8070020C8070020D0070020D00700204C
:10549400D8070020D8070020E0070020E0070020FC
:1054A400E8070020E8070020F0070020F0070020AC
:1054B400F8070020F807002000080020000800205A
:1054C4000808002008080020100800201008002008
:1054D40018080020180800202008002020080020B8
:1054E4002808002028080020FFFFFFFF000002001A
:1054F4000100000010000000010000000024F4007E
:0400000508004BF1B3
:00000001FF
