:020000040800F2
:1000000000000220594F0008914E0008954E00084C
:10001000994E00089D4E0008A14E00080000000007
:10002000000000000000000000000000A54E0008D5
:10003000A94E000800000000AD4E0008B14E0008B7
:10004000A94F0008A94F0008A94F0008A94F0008B0
:10005000A94F0008A94F0008A94F0008A94F0008A0
:10006000A94F0008A94F0008A94F0008A94F000890
:10007000A94F0008A94F0008A94F0008A94F000880
:10008000A94F0008A94F0008C14E0008CD4E000836
:10009000D94E0008E54E0008F14E0008A94F0008AF
:1000A000A94F0008A94F0008A94F0008A94F000850
:1000B000A94F0008A94F0008A94F0008A94F000840
:1000C000A94F0008A94F0008A94F0008A94F000830
:1000D000A94F0008A94F0008A94F0008A94F000820
:1000E000A94F0008A94F0008A94F0008A94F000810
:1000F000A94F0008A94F0008A94F0008A94F000800
:10010000A94F0008A94F0008A94F0008A94F0008EF
:10011000A94F0008A94F0008A94F0008A94F0008DF
:10012000FD4E0008A94F0008A94F0008A94F00087C
:10013000A94F00080000000000000000A94F0008BF
:10014000A94F0008A94F0008A94F0008A94F0008AF
:10015000A94F0008A94F0008A94F0008A94F00089F
:10016000A94F0008A94F0008A94F0008A94F00088F
:10017000A94F0008A94F0008A94F0008000000007F
:1001800000000000A94F000800000000000000006F
:10019000A94F00080000000000000000A94F00085F
:1001A000000000000000000000000000A94F00084F
:1001B000A94F0008A94F0008A94F0008A94F00083F
:0401C000A94F00083B
:1001C80010B5054C237833B9044B13B10448AFF389
:1001D80000800123237010BD2004002000000000CF
:1001E800BC7F00080C4B43B10C480D4910B5AFF368
:1001F80000800C48036823B910BD0A48036833B966
:100208007047094B002BF7D0BDE810401847064B44
:10021800002BF5D0184700BF00000000BC7F000885
:1002280024040020200400200000000081F0004188
:1002380002E000BF83F0004330B54FEA41044FEAC3
:10024800430594EA050F08BF90EA020F1FBF54EA5E
:10025800000C55EA020C7FEA645C7FEA655C00F0FA
:10026800E2804FEA5454D4EB5555B8BF6D420CDDCB
:100278002C4480EA020281EA030382EA000083EA4E
:10028800010180EA020281EA0303362D88BF30BDEE
:1002980011F0004F4FEA01314FF4801C4CEA113144
:1002A80002D0404261EB410113F0004F4FEA0333A3
:1002B8004CEA133302D0524263EB430394EA050F2E
:1002C80000F0A780A4F10104D5F1200E0DDB02FA9D
:1002D8000EFC22FA05F2801841F1000103FA0EF231
:1002E800801843FA05F359410EE0A5F120050EF1F7
:1002F800200E012A03FA0EFC28BF4CF0020C43FA28
:1003080005F3C01851EBE37101F0004507D54FF034
:10031800000EDCF1000C7EEB00006EEB0101B1F584
:10032800801F1BD3B1F5001F0CD349085FEA3000CA
:100338004FEA3C0C04F101044FEA445212F5800FD5
:1003480080F09A80BCF1004F08BF5FEA500C50F172
:10035800000041EB045141EA050130BD5FEA4C0C55
:10036800404141EB010111F4801FA4F10104E9D1DE
:1003780091F0000F04BF01460020B1FA81F308BFD5
:100388002033A3F10B03B3F120020CDA0C3208DDA1
:1003980002F1140CC2F10C0201FA0CF021FA02F17C
:1003A8000CE002F11402D8BFC2F1200C01FA02F1EC
:1003B80020FA0CFCDCBF41EA0C019040E41AA2BF11
:1003C80001EB0451294330BD6FEA04041F3C1CDAD9
:1003D8000C340EDC04F11404C4F1200220FA04F0F9
:1003E80001FA02F340EA030021FA04F345EA0301A3
:1003F80030BDC4F10C04C4F1200220FA02F001FA65
:1004080004F340EA0300294630BD21FA04F02946E6
:1004180030BD94F0000F83F4801306BF81F480117F
:100428000134013D4EE77FEA645C18BF7FEA655CF2
:1004380029D094EA050F08BF90EA020F05D054EAC4
:10044800000C04BF1946104630BD91EA030F1EBFC9
:100458000021002030BD5FEA545C05D140004941CD
:1004680028BF41F0004130BD14F580043CBF01F5C0
:10047800801130BD01F0004545F0FE4141F47001A6
:100488004FF0000030BD7FEA645C1ABF1946104681
:100498007FEA655C1CBF0B46024650EA013406BF82
:1004A80052EA033591EA030F41F4002130BD00BF41
:1004B80090F0000F04BF0021704730B54FF48064FE
:1004C80004F132044FF000054FF0000150E700BF7F
:1004D80090F0000F04BF0021704730B54FF48064DE
:1004E80004F1320410F0004548BF40424FF00001CB
:1004F8003EE700BF42004FEAE2014FEA31014FEA0E
:1005080002701FBF12F07F4393F07F4F81F060515C
:10051800704792F0000F14BF93F07F4F704730B5CB
:100528004FF4607401F0004521F0004120E700BF5E
:1005380050EA010208BF704730B54FF000050AE0E5
:1005480050EA010208BF704730B511F0004502D5E6
:10055800404261EB41014FF4806404F132045FEAE8
:10056800915C3FF4DCAE4FF003025FEADC0C18BF8D
:1005780003325FEADC0C18BF033202EBDC02C2F183
:10058800200300FA03FC20FA02F001FA03FE40EA15
:100598000E0021FA02F11444C1E600BF70B54FF015
:1005A800FF0C4CF4E06C1CEA11541DBF1CEA1355F7
:1005B80094EA0C0F95EA0C0F00F0DEF82C4481EA5F
:1005C800030621EA4C5123EA4C5350EA013518BF7F
:1005D80052EA033541F4801143F4801338D0A0FB6C
:1005E80002CE4FF00005E1FB02E506F00042E0FB19
:1005F80003E54FF00006E1FB03569CF0000F18BF1F
:100608004EF0010EA4F1FF04B6F5007F64F54074C6
:1006180004D25FEA4E0E6D4146EB060642EAC62159
:1006280041EA55514FEAC52040EA5E504FEACE2EC6
:10063800B4F1FD0C88BFBCF5E06F1ED8BEF1004FC9
:1006480008BF5FEA500E50F1000041EB045170BD45
:1006580006F0004646EA010140EA020081EA030189
:10066800B4EB5C04C2BFD4EB0C0541EA045170BD85
:1006780041F480114FF0000E013C00F3AB8014F1FF
:10068800360FDEBF002001F0004170BDC4F1000448
:10069800203C35DA0C341BDC04F11404C4F12005C9
:1006A80000FA05F320FA04F001FA05F240EA020024
:1006B80001F0004221F0004110EBD37021FA04F65A
:1006C80042EB06015EEA430E08BF20EAD37070BD14
:1006D800C4F10C04C4F1200500FA04F320FA05F073
:1006E80001FA04F240EA020001F0004110EBD37075
:1006F80041F100015EEA430E08BF20EAD37070BDE5
:10070800C4F1200500FA05F24EEA020E20FA04F3BD
:1007180001FA05F243EA020321FA04F001F000416C
:1007280021FA04F220EA020000EBD3705EEA430EDD
:1007380008BF20EAD37070BD94F0000F0FD101F00C
:100748000046400041EB010111F4801F08BF013C45
:10075800F7D041EA060195F0000F18BF704703F083
:100768000046520043EB030313F4801F08BF013D0A
:10077800F7D043EA0603704794EA0C0F0CEA1355C6
:1007880018BF95EA0C0F0CD050EA410618BF52EA80
:100798004306D1D181EA030101F000414FF0000086
:1007A80070BD50EA410606BF1046194652EA430694
:1007B80019D094EA0C0F02D150EA013613D195EA08
:1007C8000C0F05D152EA03361CBF104619460AD150
:1007D80081EA030101F0004141F0FE4141F470015A
:1007E8004FF0000070BD41F0FE4141F4780170BD4A
:1007F80070B54FF0FF0C4CF4E06C1CEA11541DBFAF
:100808001CEA135594EA0C0F95EA0C0F00F0A7F8B0
:10081800A4EB050481EA030E52EA03354FEA0131DD
:1008280000F088804FEA03334FF0805545EA1313F0
:1008380043EA12634FEA022245EA111545EA1065B8
:100848004FEA00260EF000419D4208BF964244F14F
:10085800FD0404F5407402D25B084FEA3202B61A6E
:1008680065EB03055B084FEA32024FF480104FF442
:10087800002CB6EB020E75EB030E22BFB61A7546B6
:1008880040EA0C005B084FEA3202B6EB020E75EB49
:10089800030E22BFB61A754640EA5C005B084FEAB1
:1008A8003202B6EB020E75EB030E22BFB61A75467E
:1008B80040EA9C005B084FEA3202B6EB020E75EB89
:1008C800030E22BFB61A754640EADC0055EA060E4A
:1008D80018D04FEA051545EA16754FEA06164FEA8D
:1008E800C30343EA52734FEAC2025FEA1C1CC0D139
:1008F80011F4801F0BD141EA00014FF000004FF0C6
:10090800004CB6E711F4801F04BF01430020B4F186
:10091800FD0C88BFBCF5E06F3FF6AFAEB5EB030C3E
:1009280004BFB6EB020C5FEA500C50F1000041EB3B
:10093800045170BD0EF0004E4EEA113114EB5C0408
:10094800C2BFD4EB0C0541EA045170BD41F48011DB
:100958004FF0000E013C90E645EA060E8DE60CEAE3
:10096800135594EA0C0F08BF95EA0C0F3FF43BAF00
:1009780094EA0C0F0AD150EA01347FF434AF95EAB7
:100988000C0F7FF425AF104619462CE795EA0C0F9B
:1009980006D152EA03353FF4FDAE1046194622E768
:1009A80050EA410618BF52EA43067FF4C5AE50EA42
:1009B80041047FF40DAF52EA43057FF4EBAE12E732
:1009C8004FEA410212F5001215D211D56FF478736F
:1009D800B3EB625212D94FEAC12343F0004343EA12
:1009E800505311F0004F23FA02F018BF40427047ED
:1009F8004FF00000704750EA013005D111F0004077
:100A080008BF6FF0004070474FF00000704700BF0C
:100A18004FEA4102B2F1E04324BFB3F5001CDCF118
:100A2800FE5C0DD901F0004C4FEAC0024CEA507050
:100A3800B2F1004F40EB830008BF20F0010070477F
:100A480011F0804F21D113F13872BCBF01F0004082
:100A5800704741F480114FEA5252C2F11802C2F1B4
:100A6800200C10FA0CF320FA02F018BF40F0010035
:100A78004FEAC1234FEAD32303FA0CFC40EA0C00E7
:100A880023FA02F34FEA4303CCE77FEA625307D124
:100A980050EA01331EBF4FF0FE4040F4400070475B
:100AA80001F0004040F0FE4040F40000704700BFF5
:100AB80053B94AB9002908BF00281CBF4FF0FF31BD
:100AC8004FF0FF3000F07AB9ADF1080C6DE904CEB3
:100AD80000F006F8DDF804E0DDE9022304B0704711
:100AE8002DE9F0478C460D460446089E002B51D14F
:100AF8008A4217466DD9B2FA82FEBEF1000F0BD0BA
:100B0800CEF1200C01FA0EF520FA0CFC02FA0EF7D1
:100B18004CEA050C00FA0EF44FEA174A250CBCFB08
:100B2800FAF81FFA87F90AFB18CC45EA0C4508FBC6
:100B380009F3AB420AD9ED1908F1FF3280F023819D
:100B4800AB4240F22081A8F102083D44ED1AA4B25C
:100B5800B5FBFAF00AFB105544EA054400FB09F915
:100B6800A14509D9E41900F1FF3380F00A81A145B4
:100B780040F2078102383C44A4EB090440EA0840EB
:100B88000021002E61D024FA0EF400233460736033
:100B9800BDE8F0878B4207D9002E54D0002186E8A3
:100BA80021000846BDE8F087B3FA83F1002940F038
:100BB8008E80AB4202D3824200F2FA80841A65EB3F
:100BC80003050120AC46002E3FD086E81010BDE892
:100BD800F08712B90127B7FBF2F7B7FA87FEBEF123
:100BE800000F34D1EB1B3A0C1FFA87FC0121B3FB31
:100BF800F2F8250C02FB183345EA03450CFB08F311
:100C0800AB4207D9ED1908F1FF3002D2AB4200F22E
:100C1800D1808046ED1AA3B2B5FBF2F002FB105565
:100C280043EA05440CFB00FCA44507D9E41900F18C
:100C3800FF3302D2A44500F2B8801846A4EB0C0496
:100C480040EA08409DE731463046BDE8F087CEF1DE
:100C5800200405FA0EF307FA0EF720FA04F83A0C06
:100C680025FA04F448EA0308B4FBF2F14FEA184500
:100C780002FB11441FFA87FC45EA044501FB0CF30B
:100C8800AB4200FA0EF409D9ED1901F1FF3080F0FA
:100C98008A80AB4240F2878002393D44EB1A1FFA42
:100CA80088F5B3FBF2F002FB103345EA034500FB7D
:100CB8000CF3AB4207D9ED1900F1FF386FD2AB4204
:100CC8006DD902383D44EB1A40EA01418FE7C1F182
:100CD800200722FA07F88B4005FA01F448EA0303D3
:100CE80020FA07FE4FEA134CFD404EEA040EB5FB0E
:100CF800FCF94FEA1E440CFB19551FFA83F844EA25
:100D0800054509FB08F4AC4202FA01F200FA01FABF
:100D180008D9ED1809F1FF3043D2AC4241D9A9F105
:100D280002091D442D1B1FFA8EFEB5FBFCF00CFBBF
:100D380010554EEA054400FB08F8A04507D9E41809
:100D480000F1FF3529D2A04527D902381C4440EAD2
:100D58000940A4EB0804A0FB02894C45C6464D4651
:100D680015D312D056B1BAEB0E0364EB050404FA9E
:100D780007F7CB401F43CC40376074600021BDE8C3
:100D8800F0871846F8E69046E0E6C245EAD2B8EBA6
:100D9800020E69EB03050138E4E72846D7E7404629
:100DA80091E78146BEE7014678E702383C4445E7CB
:100DB800084608E7A8F102083D442BE7704700BF42
:100DC800034613F8012B002AFBD1181A0138704783
:100DD8004FF0FF3C06E000BF4FF0010C02E000BFFF
:100DE8004FF0010C4DF804CD4FEA410C7FEA6C5CE2
:100DF8004FEA430C18BF7FEA6C5C1BD001B050EA85
:100E0800410C0CBF52EA430C91EA030F02BF90EA6F
:100E1800020F0020704710F1000F91EA030F58BF2E
:100E2800994208BF90422CBFD8176FEAE37040F090
:100E3800010070474FEA410C7FEA6C5C02D150EA2E
:100E4800013C07D14FEA430C7FEA6C5CD6D152EAE9
:100E5800033CD3D05DF8040B704700BF84461046AE
:100E680062468C461946634600E000BF01B5FFF7AD
:100E7800B7FF002848BF10F1000F01BD4DF808ED7D
:100E8800FFF7F4FF0CBF012000205DF808FB00BF4E
:100E98004DF808EDFFF7EAFF34BF012000205DF8A8
:100EA80008FB00BF4DF808EDFFF7E0FF94BF0120F5
:100EB80000205DF808FB00BF4DF808EDFFF7CEFFF6
:100EC80094BF012000205DF808FB00BF4DF808ED35
:100ED800FFF7C4FF34BF012000205DF808FB00BF06
:100EE8004FEA410C7FEA6C5C02D150EA013C0AD11E
:100EF8004FEA430C7FEA6C5C02D152EA033C02D110
:100F08004FF0000070474FF0010070474A0011D2BF
:100F180012F5001211D20DD56FF47873B3EB62524B
:100F28000ED44FEAC12343F0004343EA505323FA57
:100F380002F070474FF00000704750EA013002D1CC
:100F48004FF0FF3070474FF00000704770B50E4B00
:100F58000E4D1B682A7806464FF47A70B0FBF2F003
:100F6800B3FBF0F000F020FF08B90F2E01D90120E3
:100F780070BD0446024631464FF0FF3000F0D2FE05
:100F88006E60204670BD00BF4C02002000000020AB
:100F980008B50B4B1A6842F400721A601A6842F4DA
:100FA80080621A601A6842F480721A60032000F0A6
:100FB800A7FE0020FFF7CAFF03F032FE002008BD9D
:100FC800003C0240034A044B11681B780B44136031
:100FD800704700BF6404002000000020014B18681F
:100FE800704700BF6404002038B50446FFF7F6FFD9
:100FF800631C054602D0044B1B781C44FFF7EEFF28
:10100800401B8442FAD838BD00000020002800F0B8
:10101800A480F8B5036C04463BB1236CDB060CD501
:101028000023012084F83C30F8BD436480F83C304C
:1010380003F040FE236CDB06F2D4226C4849236897
:10104800484D22F4885222F0020242F00202226441
:101058004A6822F440324A604A68606802434A603B
:1010680059682069D4F808E0E768A26A21F4807119
:1010780059605E6846EA00265E605E6826F0407643
:101088005E60586840EA0E005860986820F4006076
:1010980098609968AA4241EA0701996046D0996820
:1010A800E06A21F07061996099680A439A609968CA
:1010B80021F0405199609A6802439A609968A5693D
:1010C800206A21F0020199609A6842EA45029A6012
:1010D8005A68002833D122F400625A60DA6AE56956
:1010E800276B666922F47002DA62D86A013D40EA29
:1010F8000550D862986820F400709860996841EAB1
:1011080047219960996821F4806199609A68002064
:1011180042EA86229A606064236C23F0030343F05A
:1011280001032364002384F83C30F8BD9A6822F058
:1011380070629A609A6822F040529A60BEE742F460
:101148000062616A5A605A6822F460425A605A68BA
:10115800013942EA41325A60C0E70120704700BFB6
:10116800002301400100000FF0B590F83C3083B037
:101178000024012B019469D00568AB680124DF07BE
:1011880080F83C4014D4374B374E1C68AB68A6FB3C
:101198000464A40C43F0010304EB4404AB60019421
:1011A800019B2BB1019C013C0194019C002CF9D1BD
:1011B800AB68DE0747D5046C24F4E06424F001042E
:1011C80044F4807404646B685C0505D5036C23F4EF
:1011D800405343F480530364036C244C244F13F4AA
:1011E80080531CBF436C23F0060343640646806BA0
:1011F80013464FF0000E1F4A86F83CE0C2636FF0BA
:101208002202C46407642A606C6844F080646C60DD
:10121800AC6844F480740A46AC6005F14C0100F0F7
:1012280089FE154B5B68DB0609D13368986810F0B6
:10123800405008D19A6842F080429A6004E03268CF
:101248000E4B9A4205D0002003B0F0BD022003B037
:10125800F0BD906810F04050F5D1936843F080439A
:101268009360F1E74C02002083DE1B432D14000835
:10127800ED120008891200080023014000200140F7
:10128800836B1A6C12F0500F22D11A6C196842F451
:10129800007210B51A648A6812F0405F14D19A6916
:1012A80092B9CA6A12F4700F15D14A6822F0200266
:1012B8004A601A6C22F480721A641A6CD20403D43D
:1012C8001A6C42F001021A64184602F0EBFC10BDD9
:1012D8009B6BDB6C18478A685005F5D4E5E700BFBF
:1012E800704700BF08B5806BFFF7FAFF08BD00BF65
:1012F800704700BF704700BF38B503681A6859685F
:101308000446900701D58A0653D41A6859685207CB
:1013180001D50D061BD41A685968D00701D54A06AD
:1013280006D41A685968900601D54A0169D438BDAF
:101338001A68D507F5D5236C43F480332364204617
:10134800FFF7D6FF23686FF001021A60E9E7226C05
:10135800D00603D4226C42F4005222649A6812F434
:10136800401F1ED19A6B12F4401F02D09A68510593
:1013780017D45A68520514D49A6812F0405F10D1F5
:10138800A26972B95A6822F080025A60236C23F469
:1013980080532364236CDD0503D4236C43F00103DD
:1013A8002364204600F0F0F823686FF00C021A60FE
:1013B800B1E7226CD50603D4226C42F40072226491
:1013C8009A6812F0405F14D1A26992B9DA6A12F4ED
:1013D800700F23D15A6822F020025A60236C23F43C
:1013E80080732364236CD90403D4236C43F0010372
:1013F8002364204602F056FC23686FF012021A603C
:1014080083E7626C6FF0200542F0020262642046B6
:101418001D60FFF76FFF23681D6038BD9A6850058F
:10142800E7D4D7E7806B08B540230364436C43F0E7
:1014380004034364FFF75EFF08BD00BFF0B590F8F2
:101448003C3083B00022012B019255D00D68012356
:10145800092D80F83C3028D804688B68226905EB90
:1014680045070726BE4022EA060222612269BB40E0
:10147800134323614B68062B2E462BD803EB8303BB
:10148800626B053B1F21994022EA01026263626B8D
:1014980006FA03F313436363364B9C423ED00023A2
:1014A80080F83C30184603B0F0BD04688B68E768E4
:1014B800AEB206EB46021E3A4FF0070E0EFA02FED7
:1014C80027EA0E07E760E76893403B43E3604B6811
:1014D800062BD3D90C2B12D803EB8303A3F12301DA
:1014E8001F22236B8A4023EA02032363236B06FA35
:1014F80001F119432163CFE7022003B0F0BD03EBEC
:101508008302413AE36A1F21914023EA0103E3621F
:10151800E36A06FA02F11943E162BDE7122D23D00E
:10152800154B9D4207D0112DB9D1144A536843F485
:1015380000035360B3E71149114B4A68114C42F458
:1015480000024A601B68A4FB03239B0C03EB830384
:101558005B000193019B002BA1D0019B013B0193F0
:10156800019B002BF9D19AE7044A536843F480039E
:10157800536094E70020014012000010002301404E
:101588004C02002083DE1B43704700BF00287CD03C
:1015980090F8203070B50446002B73D02268136889
:1015A80023F002031360FFF719FD054604E0FFF777
:1015B80015FD401B0A285CD823685A689107F6D4A1
:1015C8001A6842F001021A60FFF708FD054604E0B8
:1015D800FFF704FD401B0A284BD823685A68D20736
:1015E800F6D5227E012A1A680CBF42F0800222F04A
:1015F80080021A60627E012A1A680CBF42F040021B
:1016080022F040021A60A27E012A1A680CBF42F03A
:10161800200222F020021A60E27E012A1A680CBF1A
:1016280022F0100242F010021A60227F012A1A6882
:101638000CBF42F0080222F008021A60627F012AF9
:101648001A680CBF42F0040222F004021A60A26871
:10165800E66825696069616832432A4302430139B3
:101668000A4301250021DA610846616284F82050A6
:1016780070BD636A052243F400336362012084F875
:10168800202070BD03F05EFB88E70120704700BF93
:1016980090F82030012B09D090F82030022B05D08B
:1016A800436A43F480234362012070473A4BD3F8DE
:1016B800002242F00102F0B4C3F80022D3F800225D
:1016C80022F47C52C3F80022D3F80022486A42EA86
:1016D8000022C3F800224A69D3F81C520120904026
:1016E800C4432540C3F81C52CD69002D45D1D3F819
:1016F8000C522540C3F80C52D200CF688D888E68F2
:101708000B8802F1804202F5C84245EA074543EAE0
:101718000643C2F84052C2F844328B691E4A33BBB2
:10172800D2F804322340C2F804320B69C3B91A4B09
:10173800D3F814221440C3F814420B6A012B05D1C4
:10174800154BD3F81C221043C3F81C02124AD2F8D6
:10175800003223F001030020C2F80032F0BC7047C9
:101768000D4AD2F814320343C2F81432E5E7D2F82E
:1017780004320343C2F80432D7E7012DCDD1D3F8A0
:101788000C520543C3F80C52D20002F180420F6894
:101798008D888E688B89B6E70064004038B590F86C
:1017A8002030012B05D0436A43F400234362012013
:1017B80038BD0268022380F82030136823F0010343
:1017C80013600446FFF70AFC054604E0FFF706FC31
:1017D800401B0A2807D823685B6813F00103F5D17A
:1017E8006362184638BD636A052243F400336362B6
:1017F800012084F8202038BDF0B490F82040012C56
:101808000AD090F82040022C06D0436A43F4802383
:1018180043620120F0BC70470468A5686F0102D4D8
:10182800A5682E0137D5A0680125C0F30160854061
:101838001D608B682BBB0E68CD6800F118031B0177
:1018480045EA4655E5500D7D096900012318012D2B
:10185800C3F8841105D1D3F8841141F48071C3F819
:10186800841104445168C4F88C111268C4F88821A2
:10187800D3F8802142F001020020C3F88021F0BC97
:101888007047CF684E6800F118053B432D0143EAC5
:10189800C6036351D7E7A568ED00C4D4436A43F48F
:1018A800001343620120B5E790F82030012B05D0E2
:1018B80090F82030022B01D0002070470368986808
:1018C8009A689B681201C0F3806048BF0130DB0052
:1018D800F3D50130704700BF90F82030012B05D0B8
:1018E80090F82030022B01D00020704703689B68D5
:1018F800890631EA030314BF01200020704700BFA6
:101908002DE9F041044690F8200001280AD094F807
:101918002000022806D0636A43F480236362012012
:10192800BDE8F0812668002957D1F068850765D0A1
:1019380008013518D5F8B07107F004079760002F33
:1019480057D0D5F8B071FF085760D5F8B0C1D5F8B1
:10195800B4E1D5F8B471D5F8B4510644CCF3400CD1
:10196800D6F8B881C2F80CC00EF00F06C7F30727E7
:101978002D0C16619761556183F800802268024436
:10198800D2F8B821120A5A7022680244D2F8B82153
:10199800120C9A7022680244D2F8B821120EDA703A
:1019A80022680244D2F8BC211A7122680244D2F893
:1019B800BC21120A5A7122680244D2F8BC21120CC6
:1019C8009A7122681044D0F8BC21120EDA71E1B184
:1019D800012922D00020BDE8F0810129A8D1306971
:1019E8008007A5D1636A43F4001308466362BDE823
:1019F800F081D5F8B0717F0D1760A6E7636A43F4EC
:101A0800001363620120BDE8F0812268D36843F0C7
:101A180020030846D360BDE8F0812268136943F0CB
:101A2800200313610020BDE8F08100BF90F820304A
:101A3800012B05D090F82030022B01D000207047F0
:101A4800036819B1186900F003007047D86800F0FE
:101A58000300704790F82030012B09D090F820300F
:101A6800022B05D0436A43F4802343620120704768
:101A7800026853691943516100207047704700BFDD
:101A8800704700BF704700BF704700BF704700BF76
:101A9800704700BF704700BF704700BF704700BF66
:101AA800704700BF704700BF704700BF2DE9F84F6F
:101AB80003685C69D3F804809F68D3F80CB0D3F846
:101AC8001090D3F818A014F00105064625D017F099
:101AD800010540F09F804FF480414FF40052F80513
:101AE8000DD533684FF480709860BB0500F1CA804B
:101AF800780500F1DA803B0540F1EB800D46F803EC
:101B08000BD533684FF48032B9039A6000F1B68080
:101B18007A0340F1CC8045F40045270702D51BF035
:101B2800100F71D1600703D51BF0080F40F08280B9
:101B3800A10704D53368DB689A0740F090806306F4
:101B480002D519F0100F59D1A70603D519F0080FBF
:101B580040F08980E00604D533681B69990740F096
:101B68008980A20302D518F0100F6AD1E30302D5C9
:101B780018F0080F6CD1270405D518F0040F0BD105
:101B8800336804225A602DB1736A1D43756230466A
:101B9800FFF78AFFBDE8F88FE00504D51AF0010FBA
:101BA80018BF45F00105A10504D51AF0020F18BFAA
:101BB80045F00205620504D51AF0040F18BF45F078
:101BC80004052305DCD51AF0700AD9D0BAF1300F14
:101BD80000F08D8070D9BAF1500F00F08580BAF10D
:101BE800600F00F08780BAF1400F01D145F0400541
:101BF80033689A6922F070029A61C2E7336810224A
:101C080045F480651A619FE73368102245F4007532
:101C1800DA6087E701229A60BB0737D47D073DD495
:101C280017F0080559D04FF4A0414FF440524FF433
:101C3800805554E733680822DA60304602F096F897
:101C480076E7336810225A603046FFF729FF8DE7A0
:101C5800336808225A603046FFF724FF8BE7304686
:101C6800FFF718FF6BE7336808221A613046FFF761
:101C780015FF6FE73046FFF70FFF72E73046FFF7B3
:101C880001FF4AE73046FFF7FBFE38E7FFF7F6FEAD
:101C980000254FF480414FF4005220E74FF4904163
:101CA8004FF420524FF4006519E7154627E73B0328
:101CB8000BD545F4803530E7BAF1100F1DD0BAF1D5
:101CC800200F95D145F0100592E73046FFF7E0FE6A
:101CD80023E73046FFF7DAFE11E7FFF7D5FE4FF4AA
:101CE80080414FF40052FAE645F0800580E745F060
:101CF80020057DE745F480757AE745F0080577E724
:101D0800074AD3684FF6FF010B40000243F0BF6358
:101D180000F4E06043F400330343D360704700BF2E
:101D280000ED00E0184B70B4DC68C4F30224C4F181
:101D38000706042E04F1040328BF0426062B17D92E
:101D4800033C0125A540013D2A400123B340013B46
:101D58001940A140002841EA02010CDB00F1604073
:101D680000F561400901C9B280F8001370BC7047E2
:101D780000221446E9E7054B00F00F00090103446F
:101D8800C9B2197670BC704700ED00E0FCEC00E0C9
:101D980000F01F0101234009024A8B4042F820301D
:101DA800704700BF00E100E00138B0F1807F0ED23B
:101DB800084B10B4084C5860F02084F82300002227
:101DC800072110469A6019605DF8044B704701209E
:101DD800704700BF10E000E000ED00E0044A13681F
:101DE80004280CBF43F0040323F004031360704776
:101DF80010E000E0704700BF08B5FFF7FBFF08BD23
:101E0800F8B50446FFF7EAF8002C73D002222368DD
:101E180084F835201A68002122F0010284F8341071
:101E280005461A6005E0FFF7D9F8401B05283BD89E
:101E380023681A68D107F6D4A7686268E668256936
:101E48006169A0693A4332432A430A43E169256A32
:101E58001F68354E02430A43616A2A433E400429FB
:101E680042EA060227D01A605A6922F00702114393
:101E7800DAB22E4D5961103AA5FB021212092C480C
:101E880023F47F73815CE16523F00303032A88BF91
:101E980004333F228A4001250021A36508469A6041
:101EA800616584F83550F8BD032320226265184621
:101EB80084F83530F8BDE56A216BA66A29430A43E0
:101EC8001A605A6946F0040122F007021143002DF6
:101ED800CED088B1B0F5005F18D0022E03D9032EFA
:101EE800C6D1EA01C4D5012340226265184684F8A8
:101EF8003530F8BD0120F8BD012E03D0F1D3022EF4
:101F0800B6D1EEE7B5F1C07FB2D1ECE7032EAFD87A
:101F180001A252F826F000BFEF1E0008EB1E0008D1
:101F2800EF1E00080D1F00083F8010F0ABAAAAAAF8
:101F3800D87F0008F0B490F83440012C0DD090F808
:101F48003540866D0125AC4280F8345008D0002316
:101F580080F834300220F0BC70470220F0BC704793
:101F680004680227002580F835704565256887686C
:101F780025F48025402F256063600ABFA260A16018
:101F8800E160C16D18BFE2603F238B40026CB36013
:101F9800236843F016032360636943F08003636199
:101FA8001AB1236843F008032360236843F0010350
:101FB80023600020CFE700BFF0B583B00023876D12
:101FC8000193C36D3D68624908229A401542044650
:101FD8000E6803D001680868400776D401229A4049
:101FE800154203D021684969080668D404229A403A
:101FF800154203D02168096889075AD410229A40EB
:10200800154203D02168086800073FD420229A406F
:10201800154203D021680868C00625D4636D0BB348
:10202800636DDA071AD50523216884F835300B6803
:10203800484A23F00103A2FB06020B60920A02E061
:102048000B68DB0704D5019B01339A420193F7D251
:102058000022012384F8342084F83530E36C0BB176
:102068002046984703B0F0BDBA6094F83520052A99
:102078003BD00B6813F4802F0B6854D019035FD53D
:10208800E36B002BCAD020469847C7E7BA600A68B6
:1020980012F4802F0A6822D1D20503D40A6822F0EC
:1020A80008020A60226C002AB0D020469047E36DEF
:1020B800ACE7BA60626D42F0040262659EE7BA60FE
:1020C800626D42F00202626590E7086820F0040041
:1020D8000860BA60626D42F0010262657EE7110332
:1020E800E0D5A26C002AE0D190E70A68206C22F0C3
:1020F80016020A604A6922F080024A6120B30A681F
:1021080022F008020A603F22216D02FA03F3002040
:102118000122BB6084F8340084F835200029A1D05E
:10212800204688479EE713F48073A9D10A680120E6
:1021380022F010020A6084F8343084F835009FE7F2
:10214800636C002B9FD169E7A26C002AD7D1DAE72C
:102158004C020020B5814E1B2DE9F04FD1F800C08C
:10216800DFF8FC81DFF8FCE183B0002503E00135EE
:10217800102D00F093800123AB4003EA0C02934238
:10218800F5D14E6826F0100ABAF1020F00F08980E6
:102198004FEA45090324D0F800B004FA09F4E443EF
:1021A80006F003070BEA040B07FA09F70AF1FF3AEE
:1021B80047EA0B07BAF1010F076040F29880C76839
:1021C8008B683C4003FA09F32343C360F300CED580
:1021D8004FF00009CDF80490D8F8443043F4804318
:1021E800C8F84430D8F8444025F0030303F180438D
:1021F80004F4804403F59C33019405F00304019F23
:10220800D3F808A0A4000F27A7402AEA070A4E4FD0
:10221800B8421AD007F58067B8427BD04B4FB84216
:102228007DD04B4FB8427FD04A4FB84200F08180F2
:10223800494FB84200F08280484FB8420CBF4FF077
:1022480006094FF0070909FA04F94AEA09079F60E5
:10225800DEF80030D443F70354BF23401343CEF8CD
:102268000030DEF80430B70354BF23401343CEF8E0
:102278000430DEF80830F70254BF23401343CEF889
:102288000830DEF80C30B60205F1010554BF2340D2
:102298001343102DCEF80C307FF46DAF03B0BDE8BA
:1022A800F08F4FEAD50900EB890905F00707D9F83F
:1022B8002040BF004FF00F0B0BFA07FB24EA0B0A74
:1022C8000C69BC4044EA0A04C9F820404FEA4509B1
:1022D8000324D0F800A004FA09F4E44306F0030745
:1022E80004EA0A0A07FA09F747EA0A07076087684B
:1022F80007EA040ACF6807FA09F747EA0A07876076
:10230800D0F804A0C6F300172AEA0303AF401F431E
:10231800476054E74FF0010909FA04F995E74FF0CF
:10232800020909FA04F990E74FF0030909FA04F9D8
:102338008BE74FF0040909FA04F986E74FF005091D
:1023480009FA04F981E700BF0000024000080240D2
:10235800000C024000100240001402400018024025
:1023680000380240003C014002B90904816170470D
:1023780060B1484A136803F00F038B4208D2CBB20E
:102388001370136803F00F03994201D001207047BE
:1023980003682DE9F0419D0714D55C0704D53E4C30
:1023A800A26842F4E052A2601A0704D53A4CA26827
:1023B80042F46042A260384C8568A26822F0F002BC
:1023C8002A43A260DF0704460D4622D54268012A47
:1023D8005BD0931E012B304B1B6850D9990725D52C
:1023E8002D4EB36823F003031343B360FEF7F6FDE5
:1023F80041F28837804605E0FEF7F0FDA0EB0800C3
:10240800B8423FD8B368626803F00C03B3EB820F9D
:10241800F2D1204A136803F00F039D4209D2EBB2B0
:102428001370136803F00F039D4202D00120BDE82A
:10243800F08123685A0706D51749E0688A6822F4AC
:10244800E05202438A601B0707D5134A2169936843
:1024580023F4604343EAC103936000F049F80E4B4C
:102468000E499B680E4AC3F30313CB5C20FA03F3AF
:1024780000201360FEF76AFD0020BDE8F081980196
:10248800AED4D3E70320BDE8F081034B1B689E035D
:10249800A6D4CBE7003C024000380240E07F0008A9
:1024A8004C020020014B1868704700BF4C02002006
:1024B800044B054A9B680549C3F382230868D35C2B
:1024C800D840704700380240F07F00084C020020D6
:1024D800044B054A9B680549C3F342330868D35C3B
:1024E800D840704700380240F07F00084C020020B6
:1024F800284908B58B6803F00C03082B07D00C2B70
:102508001DD0254A2548042B18BF104608BD4A6827
:102518004B6813F4800302F03F0230D149681E482B
:10252800C1F38811A1FB0001FEF7C2FA194B5B68E1
:10253800C3F3014301335B00B0FBF3F008BD4A6805
:102548004B6813F4800302F03F020ED14968124829
:10255800C1F38811A1FB0001FEF7AAFA0D4B5B68D5
:10256800C3F30273B0FBF3F008BD4B680B48C3F329
:102578008813A3FB00010023FEF79AFAEEE74B68E5
:102588000648C3F38813A3FB00010023FEF790FA63
:10259800CCE700BF003802400024F40000127A00A3
:1025A8002DE9F0410368DA0782B0044636D5AA4916
:1025B8008A6802F00C02042A00F0D6808A6802F0C9
:1025C8000C02082A00F0CC80A3498A6802F00C02A9
:1025D8000C2A00F058816368B3F5803F00F005814C
:1025E800B3F5A02F00F06B819B4D2A6822F480324E
:1025F8002A602A6822F480222A60002B40F0FA80A0
:10260800FEF7ECFC064605E0FEF7E8FC801B6428B4
:1026180000F20E812B689903F6D423689A072FD508
:102628008D4A916811F00C0F00F0AC80916801F0B0
:102638000C01082900F0A28087498A6802F00C0280
:102648000C2A00F07781E368002B00F02181834B8E
:10265800814D01221A60FEF7C1FC064605E0FEF72F
:10266800BDFC801B022800F2E3802B689807F6D592
:102678002B68226923F0F80343EAC2032B6023681E
:102688001A0715D56369002B00F08780744B724DCB
:1026980001221A60FEF7A2FC064605E0FEF79EFC42
:1026A800801B022800F2C4806B6F9B07F6D5236855
:1026B800580720D4A369D3B1674DAA6802F00C0269
:1026C800082A66D0022B674B4FF000021A6000F010
:1026D8000081FEF783FC2C46054605E0FEF77EFCEC
:1026E800401B022800F2A48023689B01F6D4002036
:1026F80002B0BDE8F081584A136C13F0805368D0DB
:102708000026594D2B68D90540F18280A368012B1A
:1027180000F0CF80052B00F08F804F4D2A6F22F0FC
:1027280001022A672A6F22F004022A67002B40F070
:102738008C80FEF753FC41F28837804605E0FEF7AF
:102748004DFCA0EB0800B84272D82B6F9807F6D45E
:10275800002EAFD0404A136C23F080531364A9E7CE
:102768004A6857027FF530AF3B4A126895037FF5F8
:1027780055AF6268002A7FF451AF0AE052685702E9
:102788003FF55AAF344A1268950716D5E268012A10
:1027980013D0012002B0BDE8F081314A2E4D1360FC
:1027A800FEF71CFC064604E0FEF718FC801B022816
:1027B8003ED86B6F9F07F7D479E7274920690A68E5
:1027C80022F0F80242EAC0020A601A077FF570AFE9
:1027D80058E70193136C43F080531364136C03F0B0
:1027E80080530193019B01268BE71B4A136843F42E
:1027F80080331360FEF7F2FB174D064604E0FEF740
:10280800EDFB801B642813D82B689803F7D504E7E1
:102818002B6843F480732B60FEF7E0FB07462B68B8
:10282800DA053FF573AFFEF7D9FBC01B0228F6D9CE
:10283800032002B0BDE8F081074B1A6F42F0040292
:102848001A671A6F42F001021A67FEF7C7FB024DBA
:10285800804641F288370FE00038024000004742C6
:10286800800E47426000474200700040FEF7B6FB0A
:10287800A0EB0800B842DBD82B6F9B07F6D5002EDB
:102888003FF418AF66E74A6856027FF5A4AE6BE7D7
:102898002B4A2C4D1360FEF7A1FB064604E0FEF719
:1028A8009DFB801B0228C3D82B689907F7D423689F
:1028B800E6E6244A136F43F001031367C5E7214B8B
:1028C8001A6842F480221A601A6842F480321A6048
:1028D80090E7FEF783FB064604E0FEF77FFB801BCC
:1028E8000228A5D82B689901F7D4E369D4F820E029
:1028F800676AE66AA26A206B1349124C43EA0E0320
:1029080043EA871343EA0663520843EA0073013A2D
:1029180043EA024301226B600A60FEF75FFB05464B
:1029280004E0FEF75BFB401B022881D823689A016C
:10293800F7D5DCE64A6856023FF585AE22E700BFC8
:1029480000004742003802406000474200283AD061
:1029580090F85120F8B50025044602F0FF01856281
:102968005AB3A7686368E66820696269E1693B430E
:10297800334303431343266AA0692768626A0B43FB
:10298800022184F851103968334300F40076000CB2
:10299800334300F004002B43024321F04001396027
:1029A8003B607A60FB69002223F400630121FB612C
:1029B8001046626584F85110F8BD80F8501002F096
:1029C800F5F9A56ACDE70120704700BF2DE9F04170
:1029D800044690F85000012882B003D1022002B0CA
:1029E800BDE8F0811E46012384F850300D46174695
:1029F800FEF7F4FA804694F85100C0B2012809D0D5
:102A080002200122002384F8512084F8503002B0BB
:102A1800BDE8F081002DF4D0002FF2D0A268256324
:102A280000230321B2F5004F84F85110A78663658F
:102A3800A363E786A38763642364E387226800F0BF
:102A4800118113685B0603D4136843F040031360D5
:102A5800E368B3F5006F636800F0B980002B00F0FD
:102A6800AD80E38E9BB2012B00F0A880771C27D0A5
:102A7800002E41D0E38E9BB26BB19368980744D483
:102A8800FEF7ACFAA0EB080086423CD9E38E226838
:102A98009BB2002BF1D1771C40D193689D07FCD5E0
:102AA80093681B06FCD4A3682BB90193D3680193E0
:102AB80093680193019B606D003018BF0120A0E767
:102AC800E38E9BB2002BE6D093689907F8D515F8EA
:102AD800013B1373E38E2268013B9BB2E386E38ECE
:102AE8009BB2002BF0D1D6E715F8013B1373E38EA8
:102AF8002268013B9BB2E386E38E9BB2002BCAD0CF
:102B080093689B07F0D403207BE715F8013B137308
:102B1800E38E2268013B9BB2E386ABE79368980794
:102B280028D436B1FEF75AFAA0EB0800864222688C
:102B3800B1D85368616823F0E003B1F5827F536030
:102B480000F09D80A36AB3F5005F08D113684DF6C5
:102B5800FF710B401360136843F4005313600123A3
:102B680084F85130CFE7FEF739FAA0EB0800864227
:102B7800226804D99368190695D5002EF3D15368B5
:102B8800616823F0E003B1F5827F536000F0848030
:102B9800A36AB3F5005F08D113684DF6FF710B40C7
:102BA8001360136843F400531360012084F8510044
:102BB800636D202213436365626522E715F8013BC4
:102BC8001373E38E2268013B9BB2E3864EE7002B2A
:102BD8004DD0E38E9BB2012B49D0771C15D0002E27
:102BE8002ED0E38E9BB2002B3FF455AF9368980725
:102BF80030D4FEF7F3F9A0EB0800864283D9E38EC0
:102C080022689BB2002BF1D145E7E38E9BB2002BE3
:102C18003FF441AF93689907F7D535F8023BD36085
:102C2800E38E013B9BB2E386E38E9BB2002BF1D18E
:102C380031E735F8023BD360E38E013B9BB2E38674
:102C4800E38E9BB2002B3FF426AF93689B077FF57A
:102C58005AAFEEE735F8023BD360E38E013B9BB2F7
:102C6800E386BEE7136843F480431360E9E635F86A
:102C7800023BD360E38E013B9BB2E386ADE7A368DA
:102C8800B3F5004F03D0B3F5806F7FF45BAF1368E3
:102C980023F04003136055E7A368B3F5004F03D052
:102CA800B3F5806F7FF474AF136823F040031360AB
:102CB8006EE700BF2DE9F04304464068B0F5827F17
:102CC80083B00D4617461E461DD094F850100129B2
:102CD80003D1022003B0BDE8F083012384F850300B
:102CE800FEF77CF9804694F85100C0B2012800F044
:102CF800838002200122002384F8512084F8503078
:102D080003B0BDE8F083A368002BDED194F85030FF
:102D18000422012B84F85120DBD0012384F85030A1
:102D2800FEF75CF994F851306168DBB2012B8046FC
:102D380007D0B1F5827FDCD1A268002AD9D1042B53
:102D4800D7D1002D00F02781002F00F0248194F8BE
:102D580051302268012B04BF052384F85130002329
:102D68006365E787E7861068A5634006A78725633C
:102D7800A7862364636403D4136843F04003136095
:102D8800E368B3F5006F2F4600F09680002900F045
:102D98001281E38E9BB2012B00F00D81731C40F071
:102DA800128122680121E38E9BB223B9E38F9BB283
:102DB800002B00F0978071B1E38E9BB25BB19368F2
:102DC8009E0708D53B781373E38E2268013B9BB2BC
:102DD8000137E3860021E38F9BB2002BE3D0936891
:102DE800D807E0D5D3682B70E38F2268013B9BB2EC
:102DF8000135E3870121D6E7002D3FF47BAF002F93
:102E08003FF478AFA268A56300230421B2F5004F10
:102E180084F85110A78763652363E787A386236433
:102E28006364E386226800F0B1801368580603D40F
:102E3800136843F040031360E368002B66D0711CED
:102E480010D0002E30D0E38F9BB2E3B123689A688C
:102E5800D20753D4FEF7C2F8A0EB08008642F2D896
:102E6800032047E7E38F9BB26BB19368DB07F9D583
:102E7800D36825F8023BE38F013B9BB2E387E38FDE
:102E88009BB2002BF1D16368B3F5827F00F0858097
:102E9800606D003018BF01202CE7D36825F8023B8D
:102EA800E38F013B9BB2E387E38F9BB2002BEAD011
:102EB8009368DB07D4D5F0E7002900F03781E38E6B
:102EC8009BB2012B00F03281731C40F0AF800121CE
:102ED800E38E9BB2002B40F00881E38F9BB2002B5E
:102EE80040F0038193689907FCD593681D06FCD4CC
:102EF800A068002800F04D810020FBE6DB6825F87B
:102F0800023BE38F013B9BB2E3879CE7771C10D021
:102F1800002E29D0E38F9BB2002BB4D023689A6887
:102F2800D0072BD4FEF75AF8A0EB08008642F1D858
:102F380096E7E38F9BB2002BA5D023689A68D10748
:102F4800F7D51B7B05F8013BE38F013B9BB2E38779
:102F5800E38F9BB2002BF0D195E71B7B05F8013B73
:102F6800E38F013B9BB2E387E38F9BB2002B8AD0B0
:102F780023689A68D2077FF573AFEEE71B7B05F8E5
:102F8800013BE38F013B9BB2E387C3E7136823F45C
:102F98008043136049E70120ACE6A368B3F5004F0E
:102FA80003D0B3F5806F7FF473AF2268136823F002
:102FB800400313606CE717F8013B1373E38E013B82
:102FC8009BB2E386EAE64FF00109E38E9BB21BB998
:102FD800E38F9BB2002B34D0B9F1000F0FD0E38EF2
:102FE8009BB263B123689A68910708D53A781A7337
:102FF800E38E013B9BB20137E3864FF00009E38F74
:103008009BB263B123689A68D20708D5DB682B7036
:10301800E38F013B9BB20135E3874FF00109FDF7D0
:10302800DDFFA0EB08008642CFD819E74FF0010971
:10303800E38E9BB2002B40F08180E38F9BB2002B84
:103048007CD1701C22683FF44DAF93689B0728D44D
:1030580036B1FDF7C3FFA0EB08008642F1D822681D
:103068005368616823F0E003B1F5827F536000F094
:103078009780A36AB3F5005F08D113684DF6FF7116
:103088000B401360136843F400531360012384F862
:103098005130E5E6FDF7A2FFA0EB08008642226862
:1030A80005D993681F067FF523AF002EF2D1536828
:1030B800616823F0E003B1F5827F53607DD0A36A95
:1030C800B3F5005F08D113684DF6FF710B4013602C
:1030D800136843F400531360012084F85100636DB2
:1030E800202213436365626504E669B1E38E9BB2EF
:1030F80053B193689E0707D537F8023BD360E38E38
:10310800013B9BB2E3860021E38F9BB2002B3FF487
:10311800DFAE9368D8077FF5DBAED36825F8023BAE
:10312800E38F013B9BB2E3870121D1E637F8023BED
:10313800D360E38E013B9BB2E386C5E6B9F1000F8D
:103148000FD0E38E9BB263B123689A68910708D5C4
:1031580037F8022BDA60E38E013B9BB2E3864FF02F
:103168000009E38F9BB263B123689A68D20708D538
:10317800DB6825F8023BE38F013B9BB2E3874FF006
:103188000109FDF72BFFA0EB080086423FF650AF80
:1031980066E60190D368019393680193019BA9E5C2
:1031A800A368B3F5004F03D0B3F5806F7FF461AF28
:1031B800136823F0400313605BE7A368B3F5004F7F
:1031C80003D0B3F5806F7FF47AAF136823F0400320
:1031D800136074E72DE9F041044690F85000012887
:1031E80082B003D1022002B0BDE8F08198460123E5
:1031F80084F8503015460E46FDF7F0FE94F851203D
:103208006368D2B2012A074611D0B3F5827F09D08C
:1032180002200122002384F8512084F8503002B0A3
:10322800BDE8F081A1680029F2D1042AF0D1002E6E
:1032380058D0002D56D0B8F1000F53D094F8512033
:10324800012A04BF052284F8512000212268616503
:10325800A4F83E80A4F836801068216461644106B1
:10326800A563A4F83C802663A4F8348003D41168CD
:1032780041F040011160E168B1F5006F34D0002BD6
:1032880054D0E38E9BB2012B50D0089B013355D10B
:1032980022680121E38E9BB21BB9E38F9BB2002BFE
:1032A80038D071B1E38E9BB25BB193689F0708D5A4
:1032B80033781373E38E2268013B9BB20136E386B1
:1032C8000021E38F9BB2002BE4D09368D807E1D5A7
:1032D800D3682B70E38F2268013B9BB20135E387EB
:1032E8000121D7E7012094E7002B00F0DD80E38E71
:1032F8009BB2012B00F0D880089B013352D10121E9
:10330800E38E9BB2002B40F0AE80E38F9BB2002B84
:1033180040F0A98093689D07FCD593681B06FCD4F0
:10332800A068002800F0F380002072E716F8013B3F
:103338001373E38E013B9BB2E386A6E74FF00108C7
:10334800E38E9BB21BB9E38F9BB2002B35D0B8F14B
:10335800000F0FD0E38E9BB263B123689A68910780
:1033680008D532781A73E38E013B9BB20136E386A7
:103378004FF00008E38F9BB263B123689A68D207C5
:1033880008D5DB682B70E38F013B9BB20135E387DF
:103398004FF00108FDF722FE089BC01B8342CFD8DF
:1033A800032036E74FF00108E38E9BB2002B40F074
:1033B8008380E38F9BB2002B7ED1089B2268013368
:1033C800A8D09368980729D4089B33B1FDF706FE67
:1033D800089BC01B8342F1D822685368616823F0B8
:1033E800E003B1F5827F536000F09880A36AB3F5DB
:1033F800005F08D113684DF6FF710B401360136826
:1034080043F400531360012384F85130C8E7FDF7F3
:10341800E5FD089B2268C01B834206D993681906FC
:103428007FF57EAF089B002BF1D15368616823F0CC
:10343800E003B1F5827F53607DD0A36AB3F5005FE6
:1034480008D113684DF6FF710B401360136843F4FD
:1034580000531360012084F85100636D2022134348
:1034680063656265D5E669B1E38E9BB253B1936833
:103478009F0707D536F8023BD360E38E013B9BB22A
:10348800E3860021E38F9BB2002B3FF439AF9368AA
:10349800D8077FF535AFD36825F8023BE38F013BAA
:1034A8009BB2E38701212BE736F8023BD360E38E1A
:1034B800013B9BB2E3861FE7B8F1000F0FD0E38E04
:1034C8009BB263B123689A68910708D536F8022B36
:1034D800DA60E38E013B9BB2E3864FF00008E38F8E
:1034E8009BB263B123689A68D20708D5DB6825F8D0
:1034F800023BE38F013B9BB2E3874FF00108FDF7E6
:103508006DFD089BC01B83423FF64EAF48E7019014
:10351800D368019393680193019B7AE6A368B3F596
:10352800004F03D0B3F5806F7FF460AF136823F0CA
:10353800400313605AE7A368B3F5004F03D0B3F50F
:10354800806F7FF47AAF136823F04003136074E749
:103558002DE9F047046822698246C068DAF81C1031
:10356800DAF80830DAF81060DAF8145022F4405229
:1035780002432261E268DAF81800334322F4164263
:103588002B4322F00C020B431343E360636923F4DB
:1035980040730343B1F5004F6361AB4B61D09C426C
:1035A80000F0018103F580639C4200F0FC80FEF787
:1035B8007FFFA64FDAF8043000EB800000EB8000B4
:1035C8009B00B0FBF3F3A7FB03235B091D01FEF788
:1035D8006FFFDAF8043000EB80009B0000EB8000FE
:1035E800B0FBF3F6FEF764FFDAF8042000EB800086
:1035F800930000EB8000B0FBF3F3A7FB03234FF02D
:1036080064095B0909FB13631B013233A7FB03231E
:103618005B0903F0F006FEF74BFFDAF8042000EB35
:103628008000930000EB8000B0FBF3F8FEF740FF4A
:10363800DAF8043000EB80009B0000EB8000B0FB60
:10364800F3F0A7FB0030400909FB10831B0132335C
:10365800A7FB0323C3F3431333432B44A360BDE801
:10366800F0879C425DD003F580639C4259D0FEF7F9
:103678001FFF764FDAF8043000EB800000EB800083
:103688005B00B0FBF3F3A7FB03235B091E01FEF706
:103698000FFFDAF8043000EB80005B0000EB8000DD
:1036A800B0FBF3F5FEF704FFDAF8042000EB800026
:1036B800530000EB8000B0FBF3F3A7FB03235B0987
:1036C8004FF0640909FB1353DB003233A7FB0323D4
:1036D8001B0903F4F875FEF7EBFEDAF8042000EB9B
:1036E800800000EB80005300B0FBF3F8FEF7E0FE2B
:1036F800DAF8043000EB800000EB80005B00B0FBE0
:10370800F3F3A7FB03235B0909FB1383DB003233C5
:10371800A7FB0323C3F3421333442B44A360BDE840
:10372800F087FEF7D5FE494FDAF8043000EB800049
:1037380000EB80005B00B0FBF3F3A7FB03235B09FE
:103748001E01FEF7C5FEDAF8043000EB80005B00CE
:1037580000EB8000B0FBF3F5FEF7BAFEDAF80420C0
:1037680000EB8000530000EB8000B0FBF3F3A7FBF5
:1037780003234FF064095B0909FB1353DB00323361
:10378800A7FB03231B0903F4F875FEF7A1FEDAF87B
:10379800042000EB8000530000EB8000B0FBF3F83E
:1037A800FEF796FEA4E7FEF793FE284FDAF80430FA
:1037B80000EB800000EB80009B00B0FBF3F3A7FB5D
:1037C80003235B091D01FEF783FEDAF8043000EBE2
:1037D80080009B0000EB8000B0FBF3F6FEF778FE5C
:1037E800DAF8042000EB8000930000EB8000B0FBC7
:1037F800F3F3A7FB03234FF064095B0909FB136389
:103808001B013233A7FB03235B0903F0F006FEF725
:103818005FFEDAF8042000EB8000930000EB8000E4
:10382800B0FBF3F8FEF754FEDAF8043000EB800042
:1038380000EB80009B00B0FBF3F3A7FB03235B09BD
:1038480009FB138302E700BF001001401F85EB51FD
:1038580060B338B590F83930044603F0FF0203B37B
:103868002268242384F83930D36823F40053D360C2
:103878002046FFF76DFE23681A6922F490421A6108
:103888005A6922F02A025A61DA680025202142F496
:103898000052DA602846E56384F8391084F83A1053
:1038A80038BD80F8382001F0A9FAD9E7012070471F
:1038B800F0B50E4690F83910202983B002D00220C6
:1038C80003B0F0BD5EB352B31F4690F83830012BF9
:1038D8000446F4D0002001212123E06384F8381045
:1038E80084F839300192FDF779FB019AA2840546E4
:1038F8002068E284E38C9BB2002B35D0E28CA1686F
:10390800013A92B2B1F5805FE28415D0791C37D1C3
:1039180002681206FCD5337843600136EAE70120D5
:10392800CEE703681B060CD4002F33D0FDF756FBF7
:10393800401B874220682DD3791CF2D102681206F9
:10394800FCD533882269C3F308034360002AE4D115
:103958000236CFE703685B060BD4DFB1FDF73EFB09
:10396800401B8742206815D3791CF3D103685A0697
:10397800FCD52023002084F8393084F838009FE7EC
:1039880003681B06C7D42FB1FDF728FB401B8742ED
:103998002068BBD2C36823F4D073C3604369202274
:1039A80023F001030021436184F83920032084F8BF
:1039B800381084F83A2083E7F0B50E4690F83A10AC
:1039C800202983B002D0022003B0F0BD002E2FD0F2
:1039D800002A2DD01F4690F83830012B0446F2D02B
:1039E800002001212223E06384F8381084F83A305B
:1039F8000192FDF7F3FA019AA2850546E285E08D6A
:103A080080B2002854D0E28DA368013A92B2B3F58F
:103A1800805FE28517D0791C206822D1026892065F
:103A2800FCD52369002B38D1436833700136E6E7AB
:103A38000120C9E703689B060BD4E7B1FDF7CEFA6E
:103A4800401B874216D3791C2068F3D1026892067E
:103A5800FCD523693BBB4368C3F3080326F8023B44
:103A6800CDE703689B06DCD42FB1FDF7B7FA401BFE
:103A78008742D0D22068C36823F4D073C3604369F7
:103A8800202223F001030021436184F83920032018
:103A980084F8381084F83A2096E7436803F07F03E7
:103AA80033700136ABE74368DBB226F8013BA6E783
:103AB800202384F8380084F83A3085E700B585B0CB
:103AC80000228DF807008DF8061033484FF48071F6
:103AD800FEF74AFC01224FF400713048FEF744FC1F
:103AE8000DF107010A2301222D48FEF76FFF0A2373
:103AF8000DF10E0101222A48FFF7DCF801224FF4EC
:103B080080712548FEF730FC00224FF400712348ED
:103B1800FEF72AFC00224FF480711F48FEF724FCB0
:103B280001224FF400711D48FEF71EFC0DF106013D
:103B38000A2301221A48FEF749FF0A230DF10F0153
:103B480001221748FFF7B6F801224FF48071124896
:103B5800FEF70AFC00224FF400711048FEF704FC3F
:103B68009DF80F209DF80E30DFED0E7A43EA022310
:103B780000EE103AB8EEC00AB4EEE70AF1EE10FA19
:103B8800C4BFDFED097A30EE670ADFED087A20EE70
:103B9800270A05B05DF804FB000002400008024057
:103BA8000C0A002000FEFF4600008047295C8F3C7D
:103BB80000B585B000228DF807008DF8061033484F
:103BC8004FF40071FEF7D0FB01224FF480713048AA
:103BD800FEF7CAFB0DF107010A2301222D48FEF763
:103BE800F5FE0A230DF10E0101222A48FFF762F8BB
:103BF80001224FF400712548FEF7B6FB00224FF46E
:103C080080712348FEF7B0FB00224FF400711F4873
:103C1800FEF7AAFB01224FF480711D48FEF7A4FBB2
:103C28000DF106010A2301221A48FEF7CFFE0A23E6
:103C38000DF10F0101221748FFF73CF801224FF45C
:103C480000711248FEF790FB00224FF48071104873
:103C5800FEF78AFB9DF80F209DF80E30DFED0E7AF7
:103C680043EA022300EE103AB8EEC00AB4EEE70ABF
:103C7800F1EE10FAC4BFDFED097A30EE670ADFED26
:103C8800087A20EE270A05B05DF804FB0008024018
:103C9800000002400C0A002000FEFF46000080479A
:103CA8002B009D3A024A034B12681A60704700BF06
:103CB800240B0020EC060020F0B595B00020284A1F
:103CC8000090116C274B41F080511164126C02F086
:103CD80080520092009A01901A6842F440421A6099
:103CE8001B6803F440430224019301264FF4A025E6
:103CF8004FF4800108224FF4907307A8019F07969C
:103D080008950D941194129413940E910F92109398
:103D1800FEF746FC00B1FEE702464FF4A0530F251C
:103D2800042102A803940492029505930693FEF7D2
:103D38001FFB044600B1FEE7FEF7B4FB0A4BA3FBEA
:103D480000308009FEF730F80420FEF747F82246D5
:103D580021464FF0FF30FDF7E5FF15B0F0BD00BF7D
:103D68000038024000700040D34D6210F0B50021C9
:103D78008DB03848FDF75AFE28B102AB364A3548AF
:103D88000021FDF7BDFD344B1B68BB2B01D00DB0E6
:103D9800F0BD9DF80830022B0BD0304C304D2B680D
:103DA8002168304A5B1A002BB8BF5B4213600DB024
:103DB800F0BD9DF8096026B1284C012E1AD0284D77
:103DC800EDE7294A254C11680493BC2208232148B1
:103DD8000596089609968DF82C60216006920A933C
:103DE800FDF762FD48BB9DF80830022BE7D19DF82E
:103DF8000960E2E71C4B1A4D1B682B604FF4817772
:103E08000023BC21082213480497059308930993BB
:103E18008DF82C3006910A92FDF746FD0028BED099
:103E280031460C48FDF758FD0028B8D101AB04AA6B
:103E380006A90848FDF7E0FCB1E701210548FDF7B0
:103E48004BFD0028CFD101AB04AA06A90148FDF714
:103E5800D3FCC8E7AC0A0020080B00203C07002070
:103E68006C040020080A0020EC06002070B500222F
:103E780082B04FF480612C482C4E2D4DFEF774FA19
:103E88000A2401224FF400612748FEF76DFA234601
:103E9800012228492848FEF799FD0123324627497F
:103EA80000942548FFF796F901224FF480611E48D7
:103EB800FEF75AFA00224FF400611B48FEF754FA45
:103EC80001224FF480611848FEF74EFA00224FF4A1
:103ED80000611548FEF748FA23460122184916489A
:103EE800FEF774FD01232A46144900941248FFF78F
:103EF80071F900224FF480610B48FEF735FA012270
:103F080009484FF40061FEF72FFA33782A78B3F1A5
:103F1800D40018BF0120D42A03D0D42B14BF032007
:103F2800022002B070BD00BF00080240680A0020ED
:103F380070040020080000200C0A00203C04002027
:103F4800090000202DE9F8433D4C3E4BDFF808916D
:103F580023604FF4165200230C21204661616260F1
:103F6800C9F82420A360E3602361A361E361FFF73C
:103F78006FFC00B1FEE7DFF8E480334F32252646B8
:103F88001423112241463046FFF792FC04230222F3
:103F980039463046FFF78CFC013DF1D13220FDF760
:103FA80023F828492648A5604FF461430C22E560B0
:103FB8002561A561E561C9F8243084E80A006261D9
:103FC800FFF746FC00B1FEE7204F1D4D1E4E322480
:103FD8001423172239462846FFF76AFC04230222D5
:103FE80031462846FFF764FC013CF1D1184F144DC7
:103FF800154E32241423112239462846FFF758FC5F
:104008000423022231462846FFF752FC013CF1D135
:10401800104F0B4D0C4E32241423312239462846BA
:10402800FFF746FC0423022231462846FFF740FCEE
:10403800013CF1D16420BDE8F843FCF7D5BF00BFCF
:10404800F806002000100140FC7F000814800008DA
:104058002C8000084080000808000020008000082C
:10406800F8B5124F124D134E322414230F2239463D
:104078002846FFF71DFC0423022231462846FFF795
:1040880017FC013CF1D10C4F094D0A4E3224142380
:104098000B2239462846FFF70BFC0423022231463F
:1040A8002846FFF705FC013CF1D1F8BD74800008F3
:1040B800F8060020FC7F000884800008000000004B
:1040C8002DE9F04F2DED0E8B95B000246B4EFCF7CB
:1040D8005FFFFFF7F1FD0794336B694843F08003F6
:1040E8003363336B03F080030793079B0894336BA8
:1040F80043F001033363336B03F001030893089B18
:104108000994336B43F002033363336B03F0020308
:104118000993099B0A94336B43F004033363336BAD
:1041280003F004030A9322464FF400710A9BFEF73A
:104138001BF922464FF480715248FEF715F9012504
:104148000EA94F4810944FF400781194CDF8388098
:104158000F954FF48079FDF7FFFF0EA949480F9599
:1041680010941194CDF83890FDF7F6FF0694336B50
:1041780043F480033363336B03F480032246214600
:1041880006933820069BFDF7CDFD3820FDF700FE8D
:104198003D4B3E499C604FF4E1320C271846DC60E9
:1041A8001C619C61DC6183E806005F61FFF750FBDE
:1041B80000B1FEE7364B374998600222D86018767E
:1041C8005876D8761877587719605A604FF43021A6
:1041D8004FF4800218469D7619615A61FDF7D6F9A9
:1041E800034600B1FEE72C4E2C49B0604FF48272B2
:1041F8004FF00A0A3046F36033617361C6F81880DD
:10420800F36133627362B36286E80600C6F82CA0D5
:10421800FEF79CFB00B1FEE7214C224B224A60606E
:10422800A0602062E062E0602046A3622561A5618B
:10423800E561256365612260FCF7E8FE034600B18D
:10424800FEE7082220460EA90E920F951093FDF75F
:10425800F5F8024600B1FEE7144C154B606A1549A3
:10426800586018465F619A60DA601A619A61DA618B
:104278001960FFF7EDFA0746F0B1FEE70038024093
:1042880000080240000002406C0A00200044004080
:10429800AC0A0020006400400C0A002000300140F5
:1042A800A40600200100000F0020014008000020A3
:1042B800F806002000100140024601461320FDF7D1
:1042C80031FD1320FDF764FD3A4639461420FDF709
:1042D80029FD1420FDF75CFD3A4639461520FDF707
:1042E80021FD1520FDF754FD3A4639461620FDF705
:1042F80019FD1620FDF74CFD3A4639461220FDF708
:1043080011FD1220FDF744FDCD48DFEDCE8A40F6C1
:10431800C7710160CC4940F6C7120A60CB4A4FF416
:10432800C0631360FFF70EFEFFF79AFE3A46494650
:10433800C748FEF719F82A464146C648FEF714F85A
:104348002A46534604F128013046FEF73FFB534600
:104358002A4604F129013046FEF738FB2A46494629
:10436800BB48FEF701F83A464146BA48FDF7FCFF5C
:104378003A464946B648FDF7F7FF2A464146B5484A
:10438800FDF7F2FF2A46534604F12A013046FEF7AC
:104398001DFB53462A4604F12B013046FEF716FB57
:1043A8002A464946AA48FDF7DFFF3A464146A9484A
:1043B800FDF7DAFF2A464946A548FDF7D5FF3A46F4
:1043C8004146A448FDF7D0FF2A46534604F12C0184
:1043D8003046FEF7FBFA53462A4604F12D013046D3
:1043E800FEF7F4FA3A4649469948FDF7BDFF2A46D2
:1043F80041469848FDF7B8FF2A4649469448FDF7D4
:10440800B3FF3A4641469348FDF7AEFF2A46534666
:1044180004F12E013046FEF7D9FA53462A4604F134
:104428002F013046FEF7D2FA3A4649468848FDF74A
:104438009BFF2A4641468748FDF796FF2A4649468C
:104448008348FDF791FF3A4641468248FDF78CFFC5
:104458002A46534604F130013046FEF7B7FA534670
:104468002A4604F131013046FEF7B0FA3A46494689
:104478007748FDF779FF2A4641467648FDF774FFED
:104488002A4649467248FDF76FFF3A464146714849
:10449800FDF76AFF2A46534604F132013046FEF71B
:1044A80095FA53462A4604F133013046FEF78EFA50
:1044B8003A4649466648FDF757FF2A464146654849
:1044C800FDF752FF2A4649466148FDF74DFF3A4637
:1044D80041466048FDF748FF2A46534604F1340137
:1044E8003046FEF773FA53462A4630465A49FEF7D5
:1044F8006DFA3A4649465648FDF736FF2A46414680
:104508005448FDF731FF41F28830FCF76DFD94F80F
:10451800357094F8366042F2107531463846FFF728
:10452800CDFA013D78EE808AF7D1DFED4C7A94F828
:10453800377094F838609FED438A88EEA7DA42F224
:10454800107531463846FFF7B9FA013D38EE008A52
:10455800F7D1DFED427A94F8397094F83A60DFEDDC
:10456800398AC8EE27CA42F2107531463846FFF735
:10457800A5FA013D78EE808AF7D1DFED387A94F814
:104588003B7094F83C609FED2F8A88EEA7CA42F2F0
:10459800107531463846FFF70BFB013D38EE008AAF
:1045A800F7D1DFED2E7A94F83D7094F83E60DFED98
:1045B800258AC8EE27BA42F2107531463846FFF709
:1045C800F7FA013D78EE808AF7D1DFED247A94F886
:1045D8003F7094F840609FED1B8A88EEA7BA42F2BC
:1045E800107531463846FFF7E3FA013D38EE008A88
:1045F800F7D11B4BDFED197A1A489D610122194644
:10460800C8EE27AA5D601D609D60DD601D615D616B
:10461800DD611A62FDF73CF81248DFF850A09FED03
:10462800128A9FED08AADFF84880FDF7B7F8142131
:104638000C48FDF70FFA15210A48FDF70BFAD9E1E6
:104648006C040020000000003C070020080A00203D
:1046580000000240000802404404002000401C46BC
:104668007C060020AC0A00200000C8420409002093
:10467800A0070020CB1A83EAE372A2EBE37264235B
:1046880003FB02F3D04A1268B3FBF2F3CF4AC3F13B
:1046980064031360CE4ACF4812688DF832509142B5
:1046A80028BFCA4B8DF8335032BFDBB21D600023E0
:1046B8000126C0228DF8313008238DF834508DF84A
:1046C80035508DF836508DF8375010951195129356
:1046D8008DF84C508DF830600E92FDF7E5F8002803
:1046E80040F072821920FCF77FFCFFF7BFFB94F8BB
:1046F8003610CAF8000094F83500FFF7DFF994F88F
:10470800381094F8370030EE4D9AFFF7D7F994F83F
:104718003A1094F8390070EE6CEAFFF7CFF994F884
:104728003C1094F83B0030EE4CEAFFF741FA94F85D
:104738003E1094F83D0070EE6BDAFFF739FA94F802
:10474800401094F83F0070EE4B8AFFF731FA70EE94
:104758006A7A6EEE88EA17EE900AFBF7CBFE98A30A
:10476800D3E90023FBF768FDFCF752F97AEE497AA2
:10477800BDEEEE7A67EE887A8DED017ABDF90420F8
:104788001095FDEEE77A2EEE08EA002ACDED027AC2
:104798004FF00406BDF908308DF8306009EE900A34
:1047A800FDEECE7A1046B8BF02F1FF005642F6B2CF
:1047B800D2B24FEA202058BF7242CDED037A002BC7
:1047C800BDF90C108DF831008DF832201A46B8BFAB
:1047D80003F1FF025842C0B2DBB24FEA222258BFAF
:1047E800434200298DF833208DF834300B46B8BF8A
:1047F80001F1FF034A42D2B24FEA23234FF00800E7
:10480800C9B28DF8353058BF5142C023DAF80020BC
:104818001290704811958DF84C508DF836108DF81F
:1048280037200E93FDF740F8002840F0BF8119208B
:10483800FCF7DAFB7AEE687A6DEE88DA67EE887A4A
:1048480069EE889AFDEEE77A0526CDED017ABDF985
:1048580004108DF83060FDEEED7A0029CDED027A76
:10486800BDF9082010950846FDEEE97AB8BF01F1B8
:10487800FF004E42F6B2C9B24FEA202058BF71423B
:10488800CDED037A002ABDF90C308DF831008DF892
:1048980032101146B8BF02F1FF015042C0B2D2B285
:1048A8004FEA212158BF4242002B8DF833108DF872
:1048B80034201A46B8BF03F1FF025942C9B24FEA81
:1048C80022224FF00800DBB28DF8352058BF4B424A
:1048D800C022DAF8001012903E4811958DF84C501D
:1048E8008DF836308DF837100E92FCF7DDFF002872
:1048F80040F04E811920FCF777FB64222D214046B9
:1049080000F076FB4046FCF75BFA0F2382B2414683
:104918003148FFF751F8314BDF680FB11B69E3B934
:104928006668002E19DD227A637AA17A8DF838201C
:104938008DF83930E27A237B8DF83A1040460EA97B
:104948008DF83B208DF83C3000F0B7FE81460028FA
:1049580062D04946404600F0A8FE4146204800F093
:10496800A4FEDDE90401FCF72BF800B2002802469A
:10497800B8BF00F1FF0241424FF00303C9B24FEA4A
:1049880022228DF830308DF83120C3B24FF0080262
:1049980058BF4B420F488DF83350D0218DF8345012
:1049A8008DF835508DF836708DF837501095119573
:1049B80012928DF84C508DF832300E9112E000BFF3
:1049C8001F85EB51B89E2340080A00206804002088
:1049D8006C040020AC0A0020F80600203C040020EB
:1049E800300B0020FCF760FF002840F0C380142043
:1049F800FCF7FAFA7C497D48CAF800500122FCF716
:104A0800B3FB7B4B19687B4B1B6899423FF632AE70
:104A1800794A642313603DE6012E9ED0627BA37B16
:104A2800E17B8DF838208DF83930227C637C8DF855
:104A38003A1040460EA98DF83B208DF83C3000F026
:104A48003CFE8146002884D1022E86D0A27CE37CDD
:104A5800217D8DF838208DF83930627DA37D8DF861
:104A68003A1040460EA98DF83B208DF83C3000F0F6
:104A780024FE002848D00146404600F00DFEDFF82D
:104A880098B101904E4620270BF1010902E00BF87E
:104A9800017F01364846FCF793F9B042F7D8019AEE
:104AA80056481146564A0023A1EB020B1F461A46E8
:104AB8001E4686460BE02D2900F09480012A02D17B
:104AC8005048C1550137072E08BF012201339B45C5
:104AD80040F288801EF8011F2C29ECD1012A06F12A
:104AE8000106F0D1474800F05CFA474B002251EC30
:104AF800100BFBF753FDFBF763FFFBF7E9FC434B98
:104B0800CDE90401DF6828E7032E3FF426AFE27DF4
:104B1800237E617E8DF838208DF83930A27EE37EC1
:104B28008DF83A1040460EA98DF83B208DF83C30A0
:104B380000F0C3FD814600287FF40BAF042E3FF43C
:104B48000CAF227F637FA17F8DF838208DF8393034
:104B5800E27F94F820308DF83A1040460EA98DF87F
:104B68003B208DF83C3000F0A8FD814600287FF4FA
:104B7800F0AEF2E601212648FCF7AEFE00287FF4ED
:104B880036AF0BAB0CAA0EA92148FCF735FE2EE771
:104B980001211F48FCF7A0FE00287FF4ABAE0BAB49
:104BA8000CAA0EA91A48FCF727FEA3E6012118480B
:104BB800FCF792FE00287FF43AAE0BAB0CAA0EA9C4
:104BC8001348FCF719FE32E631461148FCF784FE1B
:104BD80000287FF487AD0BAB0CAA0EA90C48FCF794
:104BE8000BFE7FE50B487EE7240B0020A40600207F
:104BF800EC0600203C070020680400209F070020E6
:104C0800A0070020D40A0020000059403C040020DE
:104C1800AC0A0020F87F0008D30A0020FEE700BF96
:104C280010B582B00024224B00945A6C42F48042A2
:104C38005A645A6C02F480420092009A01941A6CE9
:104C480042F080521A641B6C03F0805301930320D6
:104C5800019BFDF755F8224621466FF00B00FDF742
:104C680061F8224621466FF00A00FDF75BF82246FC
:104C780021466FF00900FDF755F8224621466FF0EE
:104C88000400FDF74FF8224621466FF00300FDF7B8
:104C980049F8224621466FF00100FDF743F8224605
:104CA80021464FF0FF30FDF73DF802B010BD00BFC0
:104CB800003802401E4B02689A4200D07047F0B597
:104CC80087B0002603F58C3300965A6C194D42F4D0
:104CD80080725A645B6C039603F48073009301221C
:104CE800032301A904461448009F01920293134F1D
:104CF800FDF732FA4FF480614FF400624FF400532D
:104D080028466E60AE60EE60EE612E626E622F60C5
:104D180029616A61AB61FDF773F818B9A563AC63E3
:104D280007B0F0BD75210648FFF778FFF6E700BF2A
:104D380000200140400700200004024010640240A7
:104D4800908000080268174B9A4200D07047F0B56F
:104D580087B0002703F5EA3300971A6C124842F02F
:104D680000721A641B6C03F0007300934FF4006226
:104D780001A9022601230325009C0192092403931B
:104D8800029604950594FDF7E7F94FF4805301A9BD
:104D9800054803970296049505940193FDF7DCF9FD
:104DA80007B0F0BD00640040000002400268114BEB
:104DB8009A4200D0704770B586B0002103F584335D
:104DC80000915A6C0C4842F480525A645B6C03910F
:104DD80003F48053009303220523E025022401A94C
:104DE800009E0195029404920593FDF7B5F906B06B
:104DF80070BD00BF0030014000000240F0B50368FC
:104E08001D4A934289B021D01C4A934201D009B06F
:104E1800F0BD1B4B1B48002202921A6C42F4003270
:104E28001A641B6C03F4003302930C26029F0225BC
:104E38000124032207230DEB06010396049505942C
:104E480006920793FDF788F909B0F0BD0C4B0D48A1
:104E5800002201925A6C42F010025A645B6C03F013
:104E6800100301934FF4C06602250124032207238F
:104E780003A9019FE1E700BF001001400044004082
:104E88000038024000000240704700BFFEE700BF44
:104E9800FEE700BFFEE700BFFEE700BF704700BFA8
:104EA800704700BF704700BF08B5FCF78BF8BDE836
:104EB8000840FCF7A1BF00BF0148FCF71DBA00BFBE
:104EC800A40600200148FCF7F1BD00BFAC0A002091
:104ED8000148FCF7EBBD00BFAC0A00200148FCF715
:104EE800E5BD00BFAC0A00200148FCF7DFBD00BFEC
:104EF800AC0A00200148FDF75FB800BF400700205A
:104F08001049114BD1F8882042F4700210B4C1F84E
:104F180088201A680D4C002042F001021A6098603F
:104F28001A6822F0847222F480321A605C601A686F
:104F38004FF0006422F480221A60D8608C605DF81B
:104F4800044B704700ED00E00038024010300024A8
:104F5800DFF834D0002103E00C4B5B584350043198
:104F68000B480C4B42189A42F6D30B4A02E0002336
:104F780042F8043B094B9A42F9D3FFF7C1FF00F00E
:104F880013F8FFF79DF870470000022038830008E7
:104F9800000000202004002020040020980B00209E
:104FA800FEE7002101F0ACB970B50D4E0D4CA41B05
:104FB800A4100025A54209D10B4E0C4C02F0FAFFB3
:104FC800A41BA4100025A54205D170BD56F82530B4
:104FD80098470135EEE756F8253098470135F2E74E
:104FE80030830008308300083083000834830008C9
:104FF80002440346934200D1704703F8011BF9E7C6
:105008002DE9FF4755EC104B0D9FDDF830A0002D22
:105018000E4691461946B8BF22462B4627F0200770
:10502800BBBF05F100431D4600232D23B8BF14461E
:10503800462F0B7004D0452F00D10136022100E025
:10504800032103AB019302AB00933246534645EC70
:10505800104B01F0F5F9472F804602D119F0010FE6
:1050680026D0462F08EB060911D198F80030302BCE
:105078000AD10022002320462946FBF7FFFE18B973
:10508800C6F10106CAF80060DAF800309944002237
:10509800002320462946FBF7F1FE38B93022039B4E
:1050A800994505D9591C03911A70F8E7CDF80C9069
:1050B800039B0E9AA3EB08034046136004B0BDE8B7
:1050C800F087F7B503460029B8BF494203F8022B19
:1050D800B4BF2D222B220929427020DD0DF10702D1
:1050E80017460A2691FBF6F506FB15113031092DF6
:1050F80002F8011C02F1FF34294609DC3031023A7A
:1051080004F8011CBA421C4604D3201A03B0F0BDAF
:105118002246E7E712F8011B03F8011BF2E73022E9
:105128001C46114404F8022B5970EEE72DE9F04FA4
:105138008DB00C46DDF8588016461F46054602F02D
:105148006DFA036804931846FBF73AFE00230A93A6
:10515800D8F800300590073323F0070303F108025D
:1051680094F818A0D4F800B0C8F80020D3E90023B8
:10517800C4E91223D4E9128929F000430793CDF832
:1051880018804FF0FF32A54BDDE90601FBF7A8FEBA
:10519800002840F0FB814FF0FF32A04BDDE906010B
:1051A800FBF780FE002840F0F181002200234046F2
:1051B8004946FBF76DFE10B12D2384F84330984B18
:1051C800984ABAF1470F8CBF9046984603232BF0B4
:1051D8000402236122604FF00009009733460BAAAE
:1051E8002146284600F0E2F9013040F093804FF064
:1051F800FF300DB0BDE8F08F61684B1C4BF4806246
:105208003FD106236360002303930AAB029309ABE3
:10521800009349EC108B0DF123032260CDF804A014
:1052280061682846FFF7ECFE0AF0DF03472B80464B
:1052380009D1099BD81C02DB6268934257DDAAF1A9
:10524800020A5FFA8AFABAF1650F099934D8013966
:10525800524604F150000991FFF733FF0A9A831868
:10526800012A8146236102DC2268D10701D5013376
:1052780023619DF82330002BAFD02D2384F84330D1
:10528800ABE7BAF1670F02D0BAF1470FBBD189B1CA
:10529800002303930AAB029309AB009349EC108BEC
:1052A8002260CDF804A00DF123032846FFF7A8FEDD
:1052B8008046BEE70123A5E7BAF1660F19D1002998
:1052C80063680CDD216113B92268D20702D5013366
:1052D8000B442361099BA3654FF00009C9E713B983
:1052E8002268D00701D50233F3E70123F1E74FF035
:1052F800670A099B0A9A934205DB22682361D10752
:10530800E8D50133E5E7002BD4BFC3F1020301233D
:105318001344DEE723685A0507D423694246314619
:105328002846B84701302BD161E7BAF1650F40F242
:10533800E28000220023D4E91201FBF79FFD002838
:105348003CD00123384A31462846B84701303FF45B
:105358004EAF0A9B099A9A4202DB2368D8070FD5F9
:10536800059B049A31462846B84701303FF43FAFC1
:105378004FF0000804F11A090A9B013B984512DB1B
:1053880023689B0709D54FF0000804F11909E36861
:105398000B9A9B1A9845C0F2EE80E0680B9B9842E6
:1053A800B8BF184625E701234A4631462846B8477C
:1053B80001303FF41CAF08F10108DDE7099B002B21
:1053C80034DC0123184A31462846B84701303FF4F7
:1053D8000EAF099B23B90A9B13B92368D907CFD508
:1053E800059B049A31462846B84701303FF4FFAE82
:1053F8004FF0000904F11A0A099B5B42994501DB49
:105408000A9B8BE70123524631462846B8470130AC
:105418003FF4EDAE09F10109EEE700BFFFFFEF7FB2
:10542800AC800008B0800008BC8000080A9AA36D10
:105438009A42A8BF1A46002A914638DC04F11A039A
:105448004FF0000B29EAE9790693D4F858A0AAEBA3
:1054580009039B4533DB0A9B099A9A423ADB236886
:10546800DA0737D40A9B0999A3EB0A02A3EB0109CF
:105478009145A8BF9146B9F1000F33DC4FF0000801
:1054880029EAE97904F11A0A099A0A9B9B1AA3EBFB
:1054980009039845BFF674AF0123524631462846A2
:1054A800B84701303FF4A3AE08F10108ECE7134612
:1054B800314642462846B8470130BFD197E6012316
:1054C800069A31462846B84701303FF490AE0BF1B2
:1054D800010BBAE7059B049A31462846B8470130C4
:1054E800C0D184E64B4608EB0A0231462846B84745
:1054F8000130C3D17BE60A9A012A01DCDB0737D5E4
:105508000123424631462846B84701303FF46FAE82
:10551800059B049A31462846B84701303FF467AEE8
:1055280000220023D4E91201FBF7A8FC58B14FF080
:10553800000804F11A0A0A9B013B98450DDB4B460B
:1055480004F15002EBE60A9B08F10102013B3146E7
:105558002846B8470130F2D149E601235246314680
:105568002846B84701303FF442AE08F10108E2E7A7
:1055780001234246EBE701234A4631462846B8470D
:1055880001303FF434AE08F1010800E742464B46CB
:1055980040464946FBF7A4FC00283FF42DAE014BDA
:1055A800014A0EE6B4800008B88000082DE9F047EB
:1055B80091461F468A680B69DDF820809342B8BF80
:1055C8001346C9F8003091F8432006460C4612B13C
:1055D8000133C9F800302368990642BFD9F8003072
:1055E8000233C9F80030256815F0060507D104F123
:1055F800190AE368D9F800209B1A9D4229DB94F820
:1056080043302268003318BF012392062ED404F1D8
:10561800430239463046C047013021D02368E56847
:10562800D9F8002003F00603042B08BFAD1AA368BD
:1056380022690CBF25EAE57500259342C4BF9B1A71
:10564800ED184FF000091A344D451BD10020BDE874
:10565800F0870123524639463046C047013003D10E
:105668004FF0FF30BDE8F0870135C2E7E1185A1C5A
:10567800302081F84300224494F8451082F8431002
:105688000233C4E70123224639463046C047013079
:10569800E6D009F10109D7E7034611F8012B1846AE
:1056A80003F8012B002AF8D17047034611F8012BA3
:1056B80003F8012B002AF9D17047F0B5037833B10C
:1056C800034618465E1C1B7833B91846F0BD0B78A4
:1056D800002B18BF0020F0BD4D1E441E15F8012FE9
:1056E800002AF3D014F8017F97423346F6D0E8E752
:1056F80070B504460D4645EC104B164602F082FA8A
:1057080051EC100B7EB1C5F30A53C3F16B03002BA8
:1057180009DD1B0503F17F55002405F540152246D8
:105728002B46FAF73BFF70BD2DE9F04F9FB0984626
:105738000490002340460C4615921A9301F06BFF23
:1057480007460068FBF73CFB4FF0000A05464FF0A0
:10575800000B1994199B1A780D2A33D8092A37D2C5
:10576800002A3FD000230993199E3378302B40F04C
:1057780003817378582B01D0782B6BD1099B019347
:105788001AAB0093CDF808801BABAD4A049819A951
:1057980001F06EFC10F00704054605D0062C2BD14D
:1057A8000136002319960993159B002B40F090852C
:1057B800099BE3B152460BF1004343EC102B1FB099
:1057C800BDE8F08F2B2A06D02D2A13D0202AC9D164
:1057D80001331993BEE7002209925A1C19925B788B
:1057E800002BC1D1159B1994002B40F06F855246B0
:1057F8005B46E2E70122EFE71A9A3AB135211CA885
:1058080002F0F1FA1A99049801F06FFF013C042C98
:1058180008D8DFE804F00C03171A0C00DDF870A0B4
:10582800DDF874B02907BFD54BF0004BBCE71D9BD2
:105838001B9ADDF870A023F4801302F2334243EA86
:10584800025BEFE7DFF804B2ECE76FF0004B4FF0D4
:10585800FF3AE7E7199B5A1C19925B78302BF9D06D
:10586800002BA1D001234FF000090893199B0A933C
:10587800CDF81C90CDF818900A2219980678A6F150
:105888003003D9B2092979D92A46396802F062FB6E
:10589800002800F082800020069D3346024601461B
:1058A800652B02D0452B40F0E88025B910B9089B3C
:1058B800002B97D00025199C631C199363782B2B18
:1058C80000F0C8802D2B00F0CB8000260596A3F1B0
:1058D8003006092E00F2D080302B00F0C380A3F1EF
:1058E8003106082E00F2C980A3F1300E199B4FF043
:1058F8000A0C1F46199B5E1C19965B78A3F13008A9
:10590800B8F1090F40F2B380F61B082E44F61F6861
:1059180002DCF045A8BFF046059E0EB1C8F10008AC
:10592800002D40F0D08000287FF43EAF089A002A6E
:105938007FF43AAF00297FF455AF4E2B00F0A680D4
:1059480000F39E80492B7FF44DAF3E4919A801F022
:10595800BFFD00283FF446AF199B3B49013B19A8FE
:10596800199301F0B5FD10B9199B01331993DFF8AC
:10597800DCB04FF0000A17E7002374E706990829FE
:10598800DDBF079902FB0133079302FB0939069B28
:1059980001300133069319906FE7199B5A19199230
:1059A800069A5B5D002A48D11046302B2AD0A3F115
:1059B8003102082A00F29184199A0A9202460020BC
:1059C8000546303B00F1010111D00A4400EB050CFB
:1059D80029460A2661451BD12844082800F10105FB
:1059E80025DC07980A2101FB003307930021199B46
:1059F800581C19905B780846A3F130010929E0D9B1
:105A080001214DE7199B5A1C199201305B78CCE7AC
:105A1800013101F1FF3EBEF1080F03DC079F774318
:105A28000797D7E71029D8BF06FB09F9D2E7102D49
:105A3800DCBF0A2101FB0939D8E70246069DDBE7EE
:105A4800C0800008B1800008138100080000F07FC2
:105A580001212BE700230593A31C1993A37836E7AC
:105A68000123F8E7199B5E1C19965B7834E70CFB59
:105A78000E3EAEF1300E3DE719944FF000084FE7A7
:105A8800692B3FF462AF6E2B7FF4ACAE884919A83E
:105A980001F01EFD00283FF4A5AE199B1B78282BAA
:105AA8000ED11CAA834919A801F025FD052807D1A4
:105AB8001D9BDDF870A043F0FF4B4BF4E00B73E641
:105AC800DFF800B255E7069B0798002B08BF2B4666
