:020000040800F2
:1000000000000220E1720008F5710008F971000893
:10001000FD71000801720008057200080000000070
:10002000000000000000000000000000097200084D
:100030000D7200080000000011720008157200081F
:100040003173000831730008317300083173000800
:1000500031730008317300083173000831730008F0
:1000600031730008317300083173000831730008E0
:1000700031730008317300083173000831730008D0
:1000800031730008317300083173000831730008C0
:1000900025720008317200083D72000831730008B3
:1000A00031730008317300083173000831730008A0
:1000B0003173000831730008317300083173000890
:1000C0003173000831730008317300083173000880
:1000D0003173000831730008317300083173000870
:1000E0003173000831730008317300083173000860
:1000F0003173000831730008317300083173000850
:100100003173000849720008317300083173000828
:100110003173000831730008557200086D720008D1
:1001200031730008317300083173000879720008D8
:100130003173000800000000000000003173000867
:1001400031730008317300083173000831730008FF
:10015000317300088572000831730008317300089C
:1001600031730008317300083173000831730008DF
:10017000317300083173000831730008000000007B
:1001800000000000317300080000000000000000C3
:100190003173000800000000000000003173000807
:1001A00000000000000000000000000031730008A3
:1001B000317300083173000831730008317300088F
:0401C000317300088F
:1001D00010B5054C237833B9044B13B10448AFF381
:1001E00000800123237010BD740200200000000075
:1001F000E47B000808B5034B1BB103490348AFF388
:10020000008008BD0000000078020020E47B0008A8
:1002100053B94AB9002908BF00281CBF4FF0FF316D
:100220004FF0FF3000F072B9ADF1080C6DE904CE6B
:1002300000F006F8DDF804E0DDE9022304B07047C1
:100240002DE9F047089E04468846002B4BD18A4290
:10025000154667D9B2FA82F24AB1C2F1200701FA13
:1002600002F320FA07F7954047EA030894404FEA63
:10027000154E230CB8FBFEF71FFA85FC0EFB178802
:1002800043EA084307FB0CF1994209D9EB1807F13F
:10029000FF3080F01B81994240F21881023F2B44CD
:1002A0005B1AA4B2B3FBFEF00EFB103344EA034426
:1002B00000FB0CFCA44509D92C1900F1FF3380F098
:1002C0000781A44540F2048102382C4440EA0740EB
:1002D000A4EB0C0400271EB1D4400023C6E9004360
:1002E0003946BDE8F0878B4209D9002E00F0EB803B
:1002F0000027C6E9000138463946BDE8F087B3FA61
:1003000083F7002F47D18B4202D3824200F2FA805A
:10031000841A61EB030301209846002EE0D0C6E961
:100320000048DDE702B9FFDEB2FA82F2002A40F0AF
:100330008F80491B4FEA154E1FFA85F80127B1FB44
:10034000FEFC230C0EFB1C1143EA014308FB0CF1DD
:10035000994207D9EB180CF1FF3002D2994200F212
:10036000CD808446591AA3B2B1FBFEF00EFB1014E7
:1003700043EA044408FB00F8A04507D92C1900F112
:10038000FF3302D2A04500F2B6801846A4EB080461
:1003900040EA0C409FE7C7F1200CBB4022FA0CFE5C
:1003A0004EEA030E01FA07F420FA0CF521FA0CF3D9
:1003B0004FEA1E482543B3FBF8F92C0C08FB193310
:1003C0001FFA8EFA44EA034309FB0AF49C4202FA3C
:1003D00007F200FA07F10BD91EEB030309F1FF3016
:1003E00080F087809C4240F28480A9F10209734426
:1003F0001B1BADB2B3FBF8F008FB103345EA034416
:1004000000FB0AFAA24508D91EEB040400F1FF33F1
:100410006BD2A24569D90238744440EA0940A0FB76
:100420000289A4EB0A044C45C2464B4654D351D032
:10043000002E69D0B1EB0A0564EB030404FA0CFC4E
:10044000FD40FC404CEA0505C6E90054002747E79B
:10045000C2F1200320FA03F7954001FA02F021FAD5
:1004600003F34FEA154E3843010CB3FBFEF71FFAB6
:1004700085F80EFB173341EA034107FB08F38B4273
:1004800004FA02F407D9691807F1FF3C2FD28B4216
:100490002DD9023F2944CB1A81B2B3FBFEF00EFBEB
:1004A000103341EA034100FB08F38B4207D9691876
:1004B00000F1FF3C17D28B4215D902382944C91AE2
:1004C00040EA07473BE73746304609E70746E7E695
:1004D0001846FBE64145ABD2B8EB020A69EB0E02C7
:1004E00001381346A4E76046E9E7184695E76746F2
:1004F000D1E781467CE702382C4447E7ACF1020C97
:100500002B442FE7384608E73746E9E6704700BF37
:10051000034613F8012B002AFBD1181A0138704743
:1005200001F0FF01102A2BDB10F0070F08D010F8A4
:10053000013B013A8B422DD010F0070F42B3F6D1A8
:10054000F0B441EA012141EA014122F007047FF0C1
:1005500000070023F0E80256083C85EA010586EA18
:10056000010685FA47F5A3FA87F586FA47F6A5FA54
:1005700087F68EB9EED1F0BC01F0FF0102F0070260
:1005800032B110F8013B013A83EA010313B1F8D10B
:100590000020704701387047002D06BF35460338EC
:1005A000073815F0010F07D1013015F4807F02BF25
:1005B000013015F4C03F0130F0BC0138704700BF76
:1005C00070B50E4B0E4D1B682A7806464FF47A70B4
:1005D000B0FBF2F0B3FBF0F000F0D8FB08B90F2E3F
:1005E00001D9012070BD0446024631464FF0FF306C
:1005F00000F08AFB6E60204670BD00BF0C02002038
:100600000000002008B50B4B1A6842F400721A6013
:100610001A6842F480621A601A6842F480721A60A2
:10062000032000F05FFB0020FFF7CAFF06F03AFC52
:10063000002008BD003C0240034A044B11681B78AF
:100640000B441360704700BFE4020020000000204C
:10065000014B1868704700BFE402002038B504461B
:10066000FFF7F6FF631C054602D0044B1B781C44C1
:10067000FFF7EEFF401BA042FAD338BD0000002078
:1006800000287CD038B590F820300446002B73D079
:100690002268136823F002031360FFF7D9FF0546B1
:1006A00004E0FFF7D5FF401B0A285CD823685A688E
:1006B0009107F6D41A6842F001021A60FFF7C8FFEA
:1006C000054604E0FFF7C4FF401B0A284BD8236807
:1006D0005A68D207F6D5227E012A1A680CBF42F06A
:1006E000800222F080021A60627E012A1A680CBF22
:1006F00042F0400222F040021A60A27E012A1A68EB
:100700000CBF42F0200222F020021A60E27E012A91
:100710001A680CBF22F0100242F010021A60227F09
:10072000012A1A680CBF42F0080222F008021A607F
:10073000627F012A1A680CBF42F0040222F0040210
:100740001A60D4E90221D4E904500A4361682A43BB
:10075000024301390A4301250021DA61084661623A
:1007600084F8205038BD636A052243F40033636285
:10077000012084F8202038BD06F0DEFB88E7012048
:10078000704700BF90F82030012B09D090F820303E
:10079000022B05D0436A43F4802343620120704753
:1007A0003B4BD3F8002242F00102F0B4C3F8002220
:1007B000D3F8002222F47C52C3F80022D3F800229E
:1007C000486A42EA0022C3F800224A69D3F81C5260
:1007D00001209040C4432540C3F81C52CD69002D30
:1007E00039D1D3F80C522540C3F80C52D200CF684F
:1007F0008D888E680B8802F1804202F5C84245EA76
:10080000074543EA0643C2F84052C2F844328B69B6
:100810001F4A002B35D1D2F804322340C2F80432EB
:100820000B693BBB1A4BD3F814221440C3F8144293
:100830000B6A012B05D1164AD2F81C321843C2F8B4
:100840001C02134AD2F8003223F001030020C2F840
:100850000032F0BC7047012DD9D1D3F80C520543BA
:10086000C3F80C52D20002F180420F688D888E6866
:100870008B89C2E7064AD2F814320343C2F8143215
:10088000D6E7D2F804320343C2F80432C8E700BF07
:100890000064004038B590F82030012B05D0436A41
:1008A00043F400234362012038BD0268022380F82C
:1008B0002030136823F0010313600446FFF7C8FEDD
:1008C000054604E0FFF7C4FE401B0A2807D823684A
:1008D0005B6813F00103F5D16362184638BD636AA3
:1008E000052243F400336362012084F8202038BDE0
:1008F0002DE9F041044690F8200001280AD094F830
:100900002000022806D0636A43F48023636201203A
:10091000BDE8F0812668002956D1F068850763D0CC
:1009200008013518D5F8B07107F004079760002F5B
:1009300055D0D5F8B071FF085760D5F8B0E1D5F8BB
:10094000B4C1D5F8B471D5F8B4510644CEF3400E15
:10095000D6F8B881C7F307270CF00F062D0CC2E9B3
:1009600003E6C2E9055783F8008022680244D2F802
:10097000B821120A5A7022680244D2F8B821120C27
:100980009A7022680244D2F8B821120EDA702268F6
:100990000244D2F8BC211A7122680244D2F8BC2168
:1009A000120A5A7122680244D2F8BC21120C9A71C0
:1009B00022681044D0F8BC21120EDA71D9B1012995
:1009C00021D00020BDE8F0810129A9D1306980073C
:1009D000A6D1636A43F400130846636298E7D5F82A
:1009E000B0717F0D1760A8E7636A43F40013636278
:1009F0000120BDE8F0812268D36843F02003084657
:100A0000D360BDE8F0812268136943F020031361CD
:100A100000207DE790F82030012B05D090F82030A1
:100A2000022B01D000207047036819B1186900F04B
:100A300003007047D86800F00300704790F820303A
:100A4000012B09D090F82030022B05D0436A43F4E3
:100A50008023436201207047026853691943516142
:100A600000207047704700BF704700BF704700BF4D
:100A7000704700BF704700BF704700BF704700BF9E
:100A8000704700BF704700BF704700BF704700BF8E
:100A9000704700BF2DE9F84F03685C69D3F8048004
:100AA0009F68D3F80CB0D3F81090D3F818A014F0C6
:100AB0000106054625D017F0010640F09C804FF452
:100AC00000524FF48041F8050DD52B684FF480702B
:100AD0009860BB0500F1C780780500F1D7803A0522
:100AE00040F1E8800E46FB030BD52B684FF48032B3
:100AF000B8039A6000F1B380790340F1C98046F4ED
:100B00000046230702D51BF0100F6ED1670702D5F0
:100B10001BF0080F7FD1A00704D52B68DB6899076D
:100B200040F08E80620602D519F0100F57D1A3064F
:100B300003D519F0080F40F08780E70604D52B682D
:100B40001B69980740F08780A10302D518F0100FA9
:100B500068D1E20302D518F0080F6AD1230435D515
:100B600018F0040F2B682FD0E70504D51AF0010FF9
:100B700018BF46F00106A00504D51AF0020F18BFF1
:100B800046F00206610504D51AF0040F18BF46F0BE
:100B90000406220518D51AF0700A15D0BAF1300FE4
:100BA00000F0968079D9BAF1500F00F08E80BAF13A
:100BB000600F00F09080BAF1400F01D146F040067E
:100BC0009A6922F070029A6104225A602EB16B6A0F
:100BD0001E436E622846FFF75BFFBDE8F88F2B6867
:100BE000102246F480661A61A1E72B68102246F4B1
:100BF0000076DA608AE701229A60BB0737D47E0765
:100C00003DD417F0080659D04FF440524FF4A0419C
:100C10004FF4805657E72B680822DA60284605F023
:100C2000FFFF78E72B6810225A602846FFF72CFF59
:100C30008FE72B6808225A602846FFF727FF8DE7C9
:100C40002846FFF71BFF6DE72B6808221A6128462C
:100C5000FFF718FF71E72846FFF712FF74E72846F1
:100C6000FFF704FF4DE72846FFF7FEFE3BE7FFF7DF
:100C7000F9FE00264FF400524FF4804123E74FF471
:100C800020524FF490414FF400661CE716462AE7C5
:100C90003A030BD546F4803633E7BAF1100F1DD076
:100CA000BAF1200F8CD146F0100689E72846FFF7ED
:100CB000E3FE26E72846FFF7DDFE14E7FFF7D8FE40
:100CC0004FF400524FF48041FDE646F0800677E78E
:100CD00046F0200674E746F4807671E746F0080691
:100CE0006EE700BF074AD3684FF6FF010B400002D2
:100CF00043F0BF6300F4E06043F400330343D36088
:100D0000704700BF00ED00E0184BDB68C3F302231F
:100D100030B4C3F10705042D03F1040428BF0425F2
:100D2000062C19D9033B4FF0FF349C4022EA0404FF
:100D30004FF0FF32AA4021EA020101FA03F22243F6
:100D400012010028D2B20ADB00F1604000F56140D8
:100D500080F8002330BC704700242346E8E7044BAA
:100D600000F00F0003441A7630BC704700ED00E03D
:100D7000FCEC00E000F01F0101234009024A8B4017
:100D800042F82030704700BF00E100E00138B0F1C8
:100D9000807F0ED2084B10B4084C5860F02084F8C5
:100DA00023000022072110469A6019605DF8044B69
:100DB00070470120704700BF10E000E000ED00E048
:100DC000044A136804280CBF43F0040323F004030F
:100DD0001360704710E000E0704700BF08B5FFF7F0
:100DE000FBFF08BDF8B50446FFF732FC002C54D0D9
:100DF0000222236884F835201A68002122F00102BB
:100E000084F8341005461A6005E0FFF721FC401B0A
:100E100005283BD823681A68D107F6D4D4E90126FF
:100E2000D4E90351324360691F682A43D4E9066557
:100E30000A430243216A354832432A430A43616A1E
:100E40003840042942EA000229D01A605A6922F087
:100E500007021143DAB22E485961103AA0FB021280
:100E600012092C4923F47F73895CE16523F00303A5
:100E7000032A88BF04333F228A4001250021A3654D
:100E800008469A60616584F83550F8BD0323202236
:100E90006265184684F83530F8BD0120F8BDD4E904
:100EA0000B0101430A43A56A1A605A6945F004011F
:100EB00022F0070211430028CCD07EB1B6F5005FC6
:100EC00016D0022D03D9032DC4D1C201C2D50123EE
:100ED00040226265184684F83530F8BD012D03D0F4
:100EE000F3D3022DB6D1F0E7B0F1C07FB2D1EEE777
:100EF000032DAFD801A252F825F000BFCF0E000895
:100F0000CB0E0008CF0E0008E90E00083F8010F05D
:100F1000ABAAAAAAFC7B0008F0B490F83440012CDC
:100F200039D090F83540866D0125AC4280F83450B8
:100F30002BD104680227002580F8357045652568A7
:100F4000876825F48025402F256063600ABFA26072
:100F5000A160E160C16D18BFE2603F238B40026C6D
:100F6000B360236843F016032360636943F0800392
:100F700063611AB1236843F008032360236843F0D8
:100F8000010323600020F0BC7047002380F8343058
:100F9000F0BC022070470220F0BC704790F835305A
:100FA000022B03D08023436501207047026805238C
:100FB00080F83530136823F0010313600020704778
:100FC000F0B583B00023876D0193C36D3D6865491B
:100FD00008229A402A4204460E6803D00168086835
:100FE000400759D401229A402A4203D02168496916
:100FF000080674D404229A402A4203D02168096862
:10100000890766D410229A402A4203D021680868D2
:1010100000074BD420229A402A4214D02168086845
:10102000C00610D5BA6094F83520052A63D00B6845
:1010300013F4802F0B687ED0190340F18980E36B95
:101040000BB120469847636D23B3636DDA071AD559
:101050000523226884F835301368434923F00103DF
:10106000A1FB06161360B60A02E01368DB0704D57D
:10107000019B0133B3420193F7D90022012384F885
:10108000342084F83530E36C23B1204603B0BDE84A
:10109000F040184703B0F0BD086820F00400086075
:1010A000BA60626D42F0010262659BE7BA600A684D
:1010B00012F4802F0A6818D1D20503D40A6822F0EE
:1010C00008020A60226C002AA4D020469047E36DF3
:1010D000A0E7BA60626D42F00402626592E7BA600E
:1010E000626D42F00202626584E71103EAD5A26CE8
:1010F000002AEAD18EE70A68206C22F016020A6004
:101100004A6922F080024A6138B30A6822F0080274
:101110000A603F22216D02FA03F300200122BB6026
:1011200084F8340084F835200029B3D0204603B079
:10113000BDE8F040084713F4807380D10A680120AD
:1011400022F010020A6084F8343084F8350076E723
:10115000636C002B7FF475AF75E7A26C002AD4D1C5
:10116000D7E700BF0C020020B5814E1B2DE9F04FE0
:10117000DFF814C2DFF81482D1F800E083B0002554
:1011800003E00135102D00F094800123AB400EEAFE
:101190000304A342F5D14E6826F0100ABAF1020FFB
:1011A00000F08A804FEA45090322D0F800B002FA25
:1011B00009F2D24306F0030702EA0B0B07FA09F71C
:1011C0000AF1FF3A47EA0B07BAF1010F076040F254
:1011D0009980C7688B683A4003FA09F31343C360E8
:1011E000F300CED500230193D8F8443043F4804374
:1011F000C8F84430D8F8443025F0030202F18042A8
:1012000003F4804302F59C32019305F00307019B30
:10121000D2F80890BF000F23BB4029EA030A544BC1
:1012200098421ED003F5806398427ED0514B98427D
:1012300000F08280504B984200F085804F4B9842DE
:1012400000F088804E4B984200F08B804D4B9842C6
:101250000CBF4FF006094FF0070909FA07F74AEAF1
:10126000070AC2F808A0DCF80030E243F70354BFD5
:1012700013402343CCF80030DCF80430B70354BFEC
:1012800013402343CCF80430DCF80830F70254BF95
:1012900013402343CCF80830DCF80C30B60205F1DB
:1012A000010554BF13402343102DCCF80C307FF4BC
:1012B0006CAF03B0BDE8F08F4FEAD50900EB8909A8
:1012C00005F00707D9F82020BF004FF00F0B0BFAED
:1012D00007FB22EA0B0A0A69BA4042EA0A02C9F885
:1012E00020204FEA45090322D0F800A002FA09F2B3
:1012F000D24306F0030702EA0A0A07FA09F747EAA7
:101300000A070760876807EA020ACF6807FA09F741
:1013100047EA0A078760D0F804A0C6F300172AEA54
:101320000303AF401F43476053E74FF0010909FA39
:1013300007F74AEA070A94E74FF0020909FA07F7A4
:101340004AEA070A8DE74FF0030909FA07F74AEA64
:10135000070A86E74FF0040909FA07F74AEA070A7D
:101360007FE74FF0050909FA07F74AEA070A78E725
:101370000000024000080240000C02400010024041
:101380000014024000180240003C014000380240B6
:1013900002B909048161704743695940416170474E
:1013A00060B1484A136803F00F038B4208D2CBB2F6
:1013B0001370136803F00F038B4201D001207047B4
:1013C00003682DE9F0419D0714D55C0704D53E4C18
:1013D000A26842F4E052A2601A0704D53A4CA2680F
:1013E00042F46042A260384C8568A26822F0F002A4
:1013F0002A43A260DF0704460D4622D54268012A2F
:1014000056D0931E012B304B1B6858D9990725D510
:101410002D4EB36823F003031343B360FFF718F9AD
:1014200041F28837804605E0FFF712F9A0EB08008B
:10143000B84242D8B368626803F00C03B3EB820F82
:10144000F2D1204A136803F00F03AB4209D9EBB283
:101450001370136803F00F03AB4202D00120BDE804
:10146000F08123685A0706D51749E0688A6822F494
:10147000E05202438A601B0711D400F065FA124B58
:1014800012499B68124AC3F30313CB5C20FA03F39F
:1014900000201360FFF794F80020BDE8F0810A4AAD
:1014A0002169936823F4604343EAC1039360E4E74E
:1014B000054B1B689E03ABD4D0E70320EDE79801F2
:1014C000A6D4CBE7003C024000380240987D0008DB
:1014D0000C020020014B1868704700BF0C0200206E
:1014E000044B054A9B680549C3F382230868D35C13
:1014F000D840704700380240A87D00080C02002048
:10150000044B054A9B680549C3F342330868D35C22
:10151000D840704700380240A87D00080C02002027
:101520002DE9F043036813F0010583B004460BD0A6
:10153000B449856BD1F88C2022F0C0622A43B5FAF9
:1015400085F5C1F88C206D099A070BD5AD49E06B84
:10155000D1F88C2022F0C05202430028C1F88C2020
:1015600008BF012513F0040612D0A649266BD1F856
:101570008C20B6F5801F22F4401242EA060218BF02
:10158000B6FA86F6C1F88C2012BF7609002601252E
:101590001F070FD59B48616BD0F88C2022F44002C6
:1015A0000A43B1F5800FC0F88C2000F0F9800029C3
:1015B00008BF0126980600F1AA80DF0604D5924BE9
:1015C00094F858201A602368180608D58D49E06CF5
:1015D000D1F8942022F440020243C1F89420590625
:1015E00008D58849A06CD1F8942022F0806202438B
:1015F000C1F89420DA050CD58249606DD1F89420A9
:1016000022F000620243B0F1006FC1F8942008BFDD
:1016100001269F0508D57B49606CD1F8942022F003
:1016200080520243C1F8942058050BD57548216DAE
:10163000D0F8942022F000520A43B1F1005FC0F8C4
:1016400094200BD0012D09D0B3F5006F06D0012EE8
:1016500000F0E280002003B0BDE8F0836B4B694DE1
:1016600000221A60FEF7F4FF074604E0FEF7F0FFE1
:10167000C01B022841D82B681901F7D42368DA0768
:101680003FD5A26B002A3CD15E496068D1F8842026
:10169000D1F8845002F4403205F070652A43A56801
:1016A0000243606942EA851242EA0072C1F884206E
:1016B0005D0704D5226BB2F5801F00F08480180707
:1016C00003D5626BB2F5800F7DD0590504D5226D2C
:1016D000B2F1005F00F004811A0563D44B4B494D11
:1016E00001221A60FEF7B4FF07462B681B01AED437
:1016F000FEF7AEFFC01B0228F7D9032003B0BDE8F8
:10170000F0839F07D4D5E26B002AD1D1BCE73D4BD3
:101710003F4F002201921A6C42F080521A641B6CF7
:1017200003F080530193019B3B6843F480733B605B
:10173000FEF78EFF804605E0FEF78AFFA0EB08006B
:101740000228DAD83B68D905F6D52E49236C0A6FF2
:1017500012F4407203F4407011D082420FD00B6F2C
:101760002C4A23F4407301270020176010600B6798
:101770000B6FDA0700F1D280236C03F44070B0F5F0
:10178000407F00F0A2801F498A6822F4F8128A6024
:101790001C4A116FC3F30B030B43136723680CE759
:1017A000012507E7201D0FC81B0643EA8113616965
:1017B0000343520843EA0173013A124943EA0243E0
:1017C000C1F884308AE70F496068D1F88420D1F8E5
:1017D000845002F4403205F0E0452A43A5680243F4
:1017E000206942EA851242EA0062C1F88420D1F8F9
:1017F0008C00A26A20F01F00013A0243C1F88C203D
:1018000063E700BF00380240E011474268004742EA
:1018100000700040400E4742494B4A4D00221A607A
:10182000FEF716FF064605E0FEF712FF801B0228B2
:101830003FF663AF2B689F00F6D42268500769D447
:1018400011071AD5636BC3B93E49A069D1F8883036
:10185000E56903F440330343606A43EA851343EACE
:101860000063C1F88830D1F88C30E06A23F4F85373
:10187000013843EA0023C1F88C30D20514D5636DDA
:10188000B3F1006F10D12F49A569D1F88830D4E9A0
:10189000070203F070632B43520843EA8013013AB6
:1018A00043EA0243C1F88830254B264C01221A60D6
:1018B000FEF7CEFE054623689B003FF5CBAEFEF754
:1018C000C7FE401B0228F6D917E71E48826823F09E
:1018D000704122F4F81221F440710A43826057E704
:1018E000184F6568D7F88400D7F88420E168C0F302
:1018F000014C02F0E042A0682A4342EA80120CF157
:101900000105490842EA4562013942EA0142C7F845
:101910008420E1E6236B002B96D091E70F46FEF77B
:1019200097FE41F28838814606E0FEF791FEA0EB73
:10193000090040453FF6E1AE3B6F9B07F5D51BE73D
:101940007000474200380240284908B58B6803F010
:101950000C03082B07D00C2B1DD0254A2548042B3F
:1019600018BF104608BD4A684B6813F4800302F0A4
:101970003F0230D149681E48C1F38811A1FB000124
:10198000FEF746FC194B5B68C3F3014301335B0070
:10199000B0FBF3F008BD4A684B6813F4800302F013
:1019A0003F020ED149681248C1F38811A1FB000122
:1019B000FEF72EFC0D4B5B68C3F30273B0FBF3F034
:1019C00008BD4B680B48C3F38813A3FB0001002339
:1019D000FEF71EFCEEE74B680648C3F38813A3FB33
:1019E00000010023FEF714FCCCE700BF00380240E2
:1019F0000024F40000127A002DE9F0410368DA07B0
:101A000082B0044636D5AE498A6802F00C02042A38
:101A100000F0D2808A6802F00C02082A00F0C88028
:101A2000A7498A6802F00C020C2A00F0048163685E
:101A3000B3F5803F00F00481B3F5A02F00F0608182
:101A40009F4D2A6822F480322A602A6822F480227C
:101A50002A60002B40F0F980FEF7FAFD064605E00B
:101A6000FEF7F6FD801B642800F20D812B689903B8
:101A7000F6D423689A072FD5914A916811F00C0F7C
:101A800000F0AB80916801F00C01082900F0A18002
:101A90008B498A6802F00C020C2A00F02C81E36862
:101AA000002B00F01781874B854D01221A60FEF74D
:101AB000CFFD064605E0FEF7CBFD801B022800F2B5
:101AC000E2802B689807F6D52B68226923F0F8038B
:101AD00043EAC2032B6023681A0715D56369002BFC
:101AE00000F08D80784B764D01221A60FEF7B0FD34
:101AF000064605E0FEF7ACFD801B022800F2C3801D
:101B00006B6F9B07F6D52368580731D56C4A136C69
:101B100013F0805300F0838000266C4D2A68D105B5
:101B200040F1A180A368012B00F0B180052B00F0EB
:101B3000F780634D2A6F22F001022A672A6F22F094
:101B400004022A67002B40F0A780FEF781FD41F2D6
:101B50008837804606E0FEF77BFDA0EB0800B84220
:101B600000F291802B6F9807F5D4002E40F0D280C0
:101B7000A269CAB1524DA96801F00C01082924D00C
:101B8000022A534A4FF00001116000F0D380FEF7A3
:101B90005FFD2C46054604E0FEF75AFD401B022877
:101BA00071D823689B01F7D4002002B0BDE8F08112
:101BB0004A6857027FF534AF414A126895037FF5B2
:101BC00059AF6268002A7FF455AF012002B0BDE82A
:101BD000F081526857023FF55BAF394A12689507AA
:101BE00002D5E268012AF0D1354920690A6822F05D
:101BF000F80242EAC0020A601A0785D56EE7324A47
:101C00002F4D1360FEF724FD064604E0FEF720FD8D
:101C1000801B022837D86B6F9F07F7D473E70193B7
:101C2000136C43F080531364136C03F080530193DF
:101C3000019B012671E74A6856027FF5F8AEBBE7C3
:101C40001F4A136843F480331360FEF701FD1C4DF7
:101C5000064604E0FEF7FCFC801B642813D82B68C2
:101C60009803F7D505E72A6842F480722A60FEF7E8
:101C7000EFFC07462B68DA053FF554AFFEF7E8FCAA
:101C8000C01B0228F6D9032002B0BDE8F0810C4A3F
:101C9000136F43F001031367FEF7DAFC084D80462B
:101CA00041F2883705E0FEF7D3FCA0EB0800B8420C
:101CB000E9D82B6F9B07F6D5002E3FF459AF29E0EA
:101CC0000038024000004742800E4742007000404A
:101CD000600047422F4A304D1360FEF7B9FC0646BC
:101CE00004E0FEF7B5FC801B0228CCD82B689907CE
:101CF000F7D42368F0E64A6856023FF5D0AE6CE7A9
:101D0000254B1A6842F480221A601A6842F4803225
:101D10001A609AE7204A136C23F08053136427E774
:101D20001D4B1A6F42F004021A671A6F42F001024B
:101D30001A67B1E7FEF78CFC064604E0FEF788FC64
:101D4000801B02289FD82B689901F7D4D4E9073269
:101D5000666AE06A216B1343A26A0F4C43EA86135A
:101D600043EA0063520843EA0173013A0B4943EA2C
:101D7000024301226B600A60FEF76AFC054605E03B
:101D8000FEF766FC401B02283FF67DAF23689A01F0
:101D9000F6D509E70000474200380240600047429C
:101DA000836B1A68D36B43F48073D363704700BFAF
:101DB0002DE9F047054686B0C1B190F83400C4B2B1
:101DC000012C0FD11646EA6D1F46F31800209342EE
:101DD000A86313D9AB6B43F000732046AB6306B026
:101DE000BDE8F087022006B0BDE8F087836B43F0C2
:101DF00000638363012006B0BDE8F087D5F800C01A
:101E0000EB6BDFF8CC90DFF8CC80032285F8342030
:101E1000CCF82C00DCF83C204FEA472A42F4957EAF
:101E2000CCF83CE00A4618650CF18001C3F83C9000
:101E3000C3F84C8018464FEA9A03FFF76DF8234B1E
:101E40001C606B6CCDF804A04FF0FF309021012B8B
:101E50004FF002024FF00003009002914FF0010496
:101E600069462868039218BF7602CDE9043401F070
:101E7000A1F84FF40071286801F0B0F8A8B9012F5B
:101E800028681DD9822331462B6301F019F90028F7
:101E9000A5D02B6840F2FF529A63AB6B0122184326
:101EA000A863104685F8342099E72B6840F2FF526A
:101EB0009A63AB6B1843A863204685F834408EE7DD
:101EC000812331462B6301F0C1F8E0E78C85254280
:101ED000F91F00083D2000082DE9F041054686B0B5
:101EE000002942D090F83400C0B2012839D11446FC
:101EF000EA6D1F46E3180E4693424FF00001A963B6
:101F000047D828682B6CD5F844C0032285F83420C4
:101F1000C162C26B42F01A02C263334ADA63334AC7
:101F20001965BCF1010FDA644FF4007118BF640247
:101F300001F054F808BB012F28684ED9A023214690
:101F40002B6301F02FF904462A684CB340F2FF538B
:101F50009363A86B01232043A863184685F83430A7
:101F600000E0022006B0BDE8F081836B43F000631F
:101F70008363012006B0BDE8F0812B6840F2FF5278
:101F80009A63AB6B01221843A863104685F834208E
:101F9000E8E7AB6B43F00073AB6306B0BDE8F081DC
:101FA000DFF84CC0286C7F024FF0010880323146C8
:101FB000BB08CCF80080FEF7AFFF4FF0FF32902354
:101FC000286801976946CDF81480CDE90344009252
:101FD000029300F0EFFF2046C4E7902321462B63D5
:101FE00001F0A8F80446AFE7A11D00083D20000855
:101FF0008C852542704700BF38B5846B226B2368FF
:10200000822A0DD0DA6A40F2FF5522F0080201213F
:10201000DA6220469D6384F8341004F09FFA38BDDC
:10202000184601F0F9F808B92368EBE7A36B1843E9
:10203000A0632046FFF7DEFFF6E700BF10B5846B14
:10204000E36B5B6D012B07D0236C5B6D012B03D021
:102050002046FFF7CFFF10BD2068216D40F2FF53EF
:102060008363C36B23F49D73C363A36B43F080430B
:10207000A363090401F0F6FA48B1A16B0843A06319
:10208000012384F834302046FFF7B4FF10BD014629
:10209000206800F085FFC0F3432005380128EFD801
:1020A000206801F0B9F8A36B1843A063E8E700BF0C
:1020B00070B5846B236C0BB100232364E56B05B111
:1020C00070BD216D2068090401F0CCFA064638B1D4
:1020D000A36B01221E43A663A56384F8342070BD60
:1020E0000146206800F05CFFC0F34320012305385F
:1020F0009842A66384F83430E2D8206801F08CF866
:10210000A36B1843A063A36B204613B9FFF772FFBC
:1021100070BD04F01BFA70BD70B5846BE36B0BB13E
:102120000023E363256C05B170BD216D20680904AF
:1021300001F098FA064638B1A36B01221E43A6634C
:10214000A56384F8342070BD0146206800F028FFA4
:10215000C0F34320012305389842A66384F8343045
:10216000E2D8206801F058F8A36B1843A063A36B72
:10217000204613B9FFF73EFF70BD04F0E7F970BDCC
:1021800070B504460068436BDB0526D54FF48073B9
:102190008363C36B23F49D73C363236B13F0080F36
:1021A000236B58D09E0702D4236B9D0605D501F002
:1021B00033F8002840F094802068012340F2FF5259
:1021C000826384F83430236BD907204602D4236B12
:1021D0009A0754D504F0C2F970BD436B590451D429
:1021E000436B1A0460D4436B13F03A0FF4D0436B83
:1021F0009B0703D5A36B43F00203A363436B1E0746
:1022000003D5A36B43F00803A363436B9D0603D57B
:10221000A36B43F02003A363436BD90603D5A36BE1
:1022200043F01003A36340F2FF538363C36B23F4B3
:102230009D73C363236B1A0648D5206C002856D0C3
:102240003B4B0365FEF7AAFE0028C5D0206CBDE815
:102250007040FFF72DBF1B06BED5236B9E0654D4DE
:10226000236BDD07B8D4236B9807B5D42268D36AF3
:10227000012123F00803D362204684F8341004F0CF
:1022800069F970BD256A4FF4804305F12006836328
:1022900000E020682946043500F074FEAE42F8D113
:1022A000236A2033236270BDA66A4FF40043351FB2
:1022B00083631C3600E0206800F060FE45F8040FE0
:1022C000AE42F8D1A36A2033A36270BD236B1B0713
:1022D00082D5012384F834302046FFF78BFE70BD91
:1022E000A36B1843A0632046FFF784FE64E7E06B0E
:1022F000B0B1104B0365FEF751FE00283FF46CAF00
:10230000E06BBDE87040FFF707BF00F085FF0028D5
:10231000A6D0A36B1843A0632046FFF76BFE9FE790
:102320000123A063204684F8343004F00FF970BD17
:10233000B120000819210008436EF0B4C3F3836292
:102340000446980F0870C3F301654A70C3F3074051
:10235000C3F30722DBB28D70C8700A714B71A36E94
:102360001A0E1201CA80CD88C3F30350C3F30722AB
:102370002843C880C3F30345D0090D724872C2F3E5
:102380008015C2F340108D72C872C2F30015002090
:102390000D734873606C002840F08480920202F450
:1023A00040620A6108699A0002F47F720243E36E98
:1023B0000A610869DA0B40EA9370086102F00602CC
:1023C000C3F34255C3F38240C3F3C267C3F302664B
:1023D0000F754E758D75C8750A760A7EC3F3C030C9
:1023E00002430A760A69087E013202308240626541
:1023F0000D7A0120A840450A02FB05F24FF4007552
:10240000C4E916022566C3F30722500000F07E00DF
:10241000C2F380124A7688768A7EC3F3C0100243E4
:1024200003F07F038A76CB76236F9A0DDD0FC3F31B
:102430004174C3F3826002F00C020D774C77887709
:10244000CA77CA7FC3F381500243CA77C3F34055AA
:10245000C3F30044C3F3C032002081F8205081F858
:102460002100C3F3803581F8224081F82320C3F393
:102470004034C3F3003281F8245081F82540C3F37F
:10248000812581F82620C3F301240122C3F34603EA
:1024900081F8275081F8284081F82930F0BC81F874
:1024A0002A20704701280DD0236840F2FF529A631A
:1024B000A36B012243F08053A363104684F83420B9
:1024C000F0BC70471B0403F47C130B61E36E0A69D4
:1024D000180E42EA00220A610869C3F30742024368
:1024E0000A610A69013292024FF400706265E26586
:1024F000A065C3F30722206687E700BFF0B500257B
:1025000099B0CDE90A5576230C930AAB044693E8BB
:102510000700276809958DE80700CDE90755744E37
:1025200007AB0ECB384600F00DFD01273560206863
:1025300000F02EFD02203760FEF790F82068069527
:1025400000F0EAFE054638B1012084F83400A36BA0
:102550001D43A56319B0F0BD206800F005FF0028F9
:102560004CD0A5644FF6FF75069B5A1CAB424FF04A
:102570000001069200F0B480206800F02BFF0146B5
:10258000002840F0B080206800F05EFF014600287F
:1025900040F0A980206800F003FD0028E4DA002361
:1025A000636401232068ADF8163000F0F5FC0028C4
:1025B00000F09380626C2368032A41D118460421FD
:1025C00000F0EEFC000DE0640DA92046FFF7B4FE1C
:1025D000226D20681204002300F064FE05460028E6
:1025E000B2D1231D54F8106B94E807008DE8070062
:1025F00030460ECB00F0A6FC2846ABE7A7644FF6AA
:10260000FF76069B5A1CB3424FF00001069267D03A
:10261000206800F0DFFE4FF080410546002893D18E
:10262000206800F011FF0546014600288CD1206883
:1026300000F0B6FCC30FE4D04200B0D56364B0E74D
:10264000184600F039FF054600287FF47DAF0146AB
:10265000206800F0A5FC04216067206800F0A0FC61
:102660000821A067206800F09BFC0C21E06720682F
:1026700000F096FC636CC4F88000032B36D00DF19B
:102680001601206800F08AFF054600287FF45CAF41
:10269000626C2368032A91D0BDF816102165184694
:1026A000090400F03FFF054600287FF44DAF0146C6
:1026B000206800F075FC04216066206800F070FC62
:1026C0000821A066206800F06BFC0C21E066206801
:1026D00000F066FC2368206770E74FF0806533E701
:1026E0004FF0807530E74FF080552DE7236865E7A0
:1026F000A0802542C0B190F8343010B503F0FF023D
:1027000004466BB1032384F834302046FFF7F6FE0D
:1027100000230122A3631846236384F8342010BDEC
:10272000027704F031FCEDE70120704770B4D0E986
:102730001142D0E91336456D0C604A60846D8B60A0
:10274000D0E91723C1E90365C1E905420020CB6147
:1027500070BC7047016D10B509040446006800F0B4
:1027600081FF20B1A16B0843A063002010BD01468A
:10277000206800F015FCC0F3432010BD002858D09D
:1027800090F8393070B503F0FF020446B3B3236804
:10279000354DE0686168022284F83920AB421A683E
:1027A00049D0B3F1804F52D0A5F57C45AB422AD039
:1027B00005F58065AB4226D005F58065AB4222D099
:1027C00005F57845AB421ED005F57055AB4213D0E8
:1027D00005F58065AB420FD005F58065AB420BD0A7
:1027E000A5F59835AB4207D005F58065AB4203D01F
:1027F00005F58065AB4232D125692DE080F838209F
:1028000004F072FCC3E7A568266922F070022A432F
:10281000164D22F440723243AB421A60D86299627C
:1028200001D162691A6301225A61002084F83920BB
:1028300070BD01207047A668256922F070023243FE
:1028400022F440722A431A60D8629962E9E7A668C6
:10285000256922F07002324322F440722A431A6042
:10286000D8629962DFE700BF000001400004014028
:102870000368DA6842F00102DA601A6842F0010285
:102880001A600020704700BF704700BF704700BF4C
:10289000704700BF704700BF704700BF03681A69E8
:1028A000910710B5044602D5DA6892075FD41A6919
:1028B000500702D5DA68510746D41A69120702D5C3
:1028C000DA6810072ED41A69D20602D5DA68D00663
:1028D00018D41A69D10702D5DA68D2075DD41A690B
:1028E000100602D5DA6811065FD41A69520602D5BD
:1028F000DA68500661D41A69910602D5DA68920640
:1029000043D410BD6FF010021A61DB69082213F482
:10291000407F2276204664D0FFF7BAFF002223686A
:102920002276D6E76FF008021A61DB690422990764
:102930002276204652D1FFF7A9FF2046FFF7AAFFD3
:10294000002223682276BEE76FF004021A619B69B9
:10295000022213F4407F227620463CD1FFF796FFF7
:102960002046FFF797FF002223682276A5E76FF045
:1029700002021A619B6901229B07027625D0FFF7AC
:1029800087FF00222368227691E76FF0200220461D
:102990001A61BDE8104000F051B86FF001021A61F1
:1029A0002046FFF771FF236899E76FF080021A61F4
:1029B000204600F045F8236897E76FF040021A615F
:1029C0002046FFF769FF236895E7FFF75FFF204682
:1029D000FFF760FFD5E7FFF75BFFC4E7FFF758FF9E
:1029E000AEE7FFF753FF2046FFF754FF96E700BF1F
:1029F00090F83830012B1ED002460220136870B4C4
:102A000082F839005C6824F07004D1E900565C60FB
:102A1000586828435860986820F08000986099684A
:102A20000024012531439960204682F8395082F80C
:102A3000384070BC70470220704700BF704700BF2D
:102A4000704700BF002800F004812DE9F84390F89A
:102A50003930044603F0FF02002B00F0F5802368B4
:102A60002669242284F83920D86820F40050D4E95B
:102A70000225D8601969E06921F4405129431961A0
:102A8000D9686569324321F416412A4321F00C01CB
:102A900002430A43DA605A69A16922F440720A4388
:102AA000B0F5004F5A61AA4A71D0934200F0D3802A
:102AB00002F58062934200F0CE80FEF711FDA54F33
:102AC000636800EB800000EB80009B00B0FBF3F339
:102AD000A7FB03235B091D01FEF702FD666800EBFF
:102AE000800000EB8000B600B0FBF6F6FEF7F8FCC5
:102AF000636800EB800000EB80009B00B0FBF3F309
:102B0000A7FB03235B094FF0640909FB13631B0157
:102B10003233A7FB03235B0903F0F006FEF7E0FC6A
:102B2000626800EB800000EB80009300B0FBF3F8DC
:102B3000FEF7D6FCD4E9002100EB80008B0000EB0F
:102B40008000B0FBF3F3A7FB03135B0909FB1383BE
:102B50001B013233A7FB0313C3F3431333432B444B
:102B60009360136923F490431361536923F02A039C
:102B70005361D3680025202143F40053D3602846D5
:102B8000E56384F8391084F83A10BDE8F88393427D
:102B900000F09F8002F58062934200F09A80FEF779
:102BA0009FFC6C4F636800EB800000EB80005B00D3
:102BB000B0FBF3F3A7FB03235B091E01FEF790FCB8
:102BC000656800EB800000EB80006D00B0FBF5F560
:102BD000FEF786FC636800EB800000EB80005B0082
:102BE000B0FBF3F3A7FB03235B094FF0640909FB78
:102BF0001353DB003233A7FB03231B0903F4F875DF
:102C0000FEF76EFC626800EB800000EB8000530072
:102C1000B0FBF3F8FEF764FCD4E9002100EB800080
:102C20004B0000EB8000B0FBF3F3A7FB03135B0941
:102C300009FB1383DB003233A7FB0313C3F34213F7
:102C400033442B4493608CE780F8382004F078FA02
:102C500005E701207047FEF753FC3E4F636800EB29
:102C6000800000EB80009B00B0FBF3F3A7FB032385
:102C70005B091D01FEF744FC666800EB800000EB79
:102C80008000B600B0FBF6F6FEF73AFC636800EB96
:102C9000800000EB80009B00B0FBF3F3A7FB032355
:102CA0004FF064095B0909FB13631B013233A7FB77
:102CB00003235B0903F0F006FEF722FC626800EBD9
:102CC0008000930000EB8000B0FBF3F8FEF718FCE7
:102CD00030E7FEF715FC1F4F636800EB800000EB48
:102CE00080005B00B0FBF3F3A7FB03235B091E012D
:102CF000FEF706FC656800EB800000EB80006D00CD
:102D0000B0FBF5F5FEF7FCFB636800EB800000EB21
:102D100080005B00B0FBF3F3A7FB03234FF06409D3
:102D20005B0909FB1353DB003233A7FB03231B09A9
:102D300003F4F875FEF7E4FB626800EB80005300D3
:102D400000EB8000B0FBF3F8FEF7DAFB64E700BFAE
:102D5000001001401F85EB51F0B50E4690F8391078
:102D6000202983B02DD1002E2ED0019262B31F46B0
:102D700090F83830012B044623D00023C36301218F
:102D8000212380F8381080F83930FDF761FC019A72
:102D9000A284E28422680546E38C9BB2002B39D0E2
:102DA000E08CA168013880B2B1F5805FE08419D071
:102DB000781C3BD110680106FCD53378536001368E
:102DC000EAE7022003B0F0BD012003B0F0BD1368B4
:102DD0001B060CD4002F33D0FDF73AFC401B874272
:102DE00022682DD3781CF2D110680106FCD53388F7
:102DF0002169C3F3080353600029E0D10236CBE711
:102E000013685B060BD4DFB1FDF722FC401B874241
:102E1000226815D3781CF3D113685906FCD52023FA
:102E2000002084F8393084F83800CBE713681B069B
:102E3000C3D42FB1FDF70CFC401B87422268B7D2E8
:102E4000D36823F4D073D3605369202123F00103A6
:102E500000250320536184F8391084F8385084F831
:102E60003A1003B0F0BD00BF82B000F1140340F28D
:102E7000FF510022816301920193019B30481B683E
:102E8000184040B3934228DB59002DD49A002ED429
:102E9000D90026D41A012FD4590130D4DA0128D40C
:102EA00019022FD45A0230D4990231D4DA0232D422
:102EB000590333D49A0334D4D90335D41A0436D4FD
:102EC000590437D49A0438D413F0080F14BF4FF4C0
:102ED00000004FF4803002B070474FF0007002B035
:102EE00070474FF48070F6E7402002B070478020B2
:102EF000F1E74FF40060EEE74FF40070EBE74FF4BA
:102F00008060E8E74FF48050E5E74FF40050E2E7D7
:102F10004FF48040DFE74FF40040DCE74FF400302F
:102F2000D9E74FF48020D6E74FF40020D3E74FF4E1
:102F30008010D0E74FF40010CDE74FF48000CAE7CF
:102F400008E0FFFD84B030B403AC84E80E000B460B
:102F5000DDE90412DDE906540B4313432B434268B9
:102F60000899234330BC22F4FD420B4322F07F0238
:102F70001343436004B00020704700BFD0F88000C6
:102F8000704700BF0B68C0F880300020704700BF5A
:102F90000323036000207047006800F003007047BF
:102FA00082B014300144002301930191019B186801
:102FB00002B0704730B4D1E90042D1E90235446231
:102FC0000C698262C26A49692B43234322F0F702EB
:102FD0000B431343C36230BC002070478160194B20
:102FE000C26819491B6822F47F62A1FB031322F017
:102FF0000F02590A42F48A6241F28833C26003FB2D
:1030000001F303E0426B12F0450F05D113F1FF33DA
:10301000F8D24FF000407047436B5A070CD4436B13
:10302000DB0705D40369DBB2102B09D00120704700
:10303000012383631846704704238363184670474F
:10304000FFF712BF0C020020D34D62108160C268EE
:10305000194B1A491B6822F47F6222F00F02A1FB70
:10306000031342F48A62590A42F0010241F28833A2
:10307000C26003FB01F303E0426B12F0450F05D180
:1030800013F1FF33F8D24FF000407047436B5A07FB
:103090000CD4436BDB0705D40369DBB2112B09D0D9
:1030A000012070470123836318467047042383631C
:1030B00018467047FFF7D8BE0C020020D34D6210AF
:1030C0008160C268194B1A491B6822F47F6222F0A2
:1030D0000F02A1FB031342F48A62590A42F0020272
:1030E00041F28833C26003FB01F303E0426B12F04C
:1030F000450F05D113F1FF33F8D24FF00040704770
:10310000436B5A070CD4436BDB0705D40369DBB26E
:10311000122B09D0012070470123836318467047A2
:103120000423836318467047FFF79EBE0C020020FD
:10313000D34D62108160194BC26819491B6822F493
:103140007F62A1FB031322F00F02590A42F48B6243
:1031500041F28833C26003FB01F303E0426B12F0DB
:10316000450F05D113F1FF33F8D24FF000407047FF
:10317000436B5A070CD4436BDB0705D40369DBB2FE
:10318000182B09D00120704701238363184670472C
:103190000423836318467047FFF766BE0C020020C5
:1031A000D34D62108160C268194B1A491B6822F422
:1031B0007F6222F00F02A1FB031342F48B62590AD3
:1031C00042F0010241F28833C26003FB01F303E0E5
:1031D000426B12F0450F05D113F1FF33F8D24FF0D7
:1031E00000407047436B5A070CD4436BDB0705D490
:1031F0000369DBB2192B09D00120704701238363D7
:10320000184670470423836318467047FFF72CBEA7
:103210000C020020D34D6210002310B48360C268FA
:103220001D4B1E4C19681E4B22F47F6222F00F02C8
:1032300042F48962A4FB014142F00402490AC260DF
:1032400003FB01F39BB1426B12F0450F03F1FF3317
:10325000F8D0436B5A0715D4436BDB070CD40369D2
:10326000DBB20C2B14D001205DF8044B70474FF0FB
:1032700000405DF8044B7047012383635DF8044B05
:1032800018467047042383635DF8044B1846704763
:103290005DF8044BFFF7E8BD0C020020D34D62102F
:1032A00000E1F5058260C268194B1A491B6822F4D7
:1032B0007F6222F00F02A1FB031342F48862590AD5
:1032C00042F0070241F28833C26003FB01F303E0DE
:1032D000426B12F0450F05D113F1FF33F8D24FF0D6
:1032E00000407047436B5A070CD4436BDB0705D48F
:1032F0000369DBB2072B09D00120704701238363E8
:10330000184670470423836318467047FFF7ACBD27
:103310000C020020D34D621000238360104BC26862
:1033200010491B6822F47F62A1FB031322F00F02F5
:10333000590A42F4806241F28833C26003FB01F310
:1033400002E0426B120605D413F1FF33F9D24FF0BD
:103350000040704740F2FF5383630020704700BF76
:103360000C020020D34D62104FF4D5738360174BCD
:10337000C2681B680146164822F47F62A0FB030363
:1033800022F00F02580A42F4896241F28833CA607F
:1033900003FB00F303E04A6B12F0450F05D113F174
:1033A000FF33F8D24FF000407047486B10F0040034
:1033B00008D14B6B13F0400302D040238B6370475E
:1033C0001846704740238B63042070470C0200208E
:1033D000D34D62108160C268194B1A491B6822F4F0
:1033E0007F6222F00F02A1FB031342F48E62590A9E
:1033F00042F0070241F28833C26003FB01F303E0AD
:10340000426B12F0450F05D113F1FF33F8D24FF0A4
:1034100000407047436B5A070CD4436BDB0705D45D
:103420000369DBB2372B09D0012070470123836386
:10343000184670470423836318467047FFF714BD8E
:103440000C020020D34D621041F0004141F4801184
:1034500010B48160C268164B16491B6822F47F6263
:1034600022F00F02A1FB031342F48D62590A42F0CD
:10347000010241F288330446C26003FB01F303E01A
:10348000626B12F0450F07D113F1FF33F8D24FF002
:1034900000405DF8044B7047606B10F0040015BFEE
:1034A000042040F2FF53A063A3635DF8044B704710
:1034B0000C020020D34D621000238360C268174BBA
:1034C00001461B68164822F47F6222F00F02A0FB1F
:1034D000030342F49862580A42F0020241F2883330
:1034E000CA6003FB00F303E04A6B12F0450F05D1FD
:1034F00013F1FF33F8D24FF0004070474B6B5B077E
:1035000009D4486B10F0010015BF012040F2FF53B1
:1035100088638B6370470420886370470C02002027
:10352000D34D621010B48160C2681A4B1A491B68EF
:1035300022F47F6222F00F02A1FB031342F499628E
:10354000590A42F0010241F288330446C26003FB8B
:1035500001F303E0626B12F0450F07D113F1FF3363
:10356000F8D24FF000405DF8044B7047636B5B0787
:103570000BD4606B10F0010015BF012040F2FF5327
:10358000A063A3635DF8044B70470420A0635DF85B
:10359000044B70470C020020D34D6210002310B47E
:1035A0008360C2682D4B2E4C1B6822F47F6222F090
:1035B0000F02A4FB034342F488625C0A42F0030258
:1035C00041F2883383B0C26003FB04F303E0426B33
:1035D00012F0450F08D113F1FF33F8D24FF000403D
:1035E00003B05DF8044B7047436B5C0713D4436B27
:1035F00013F0010308D10269D2B2032A12D00120CC
:1036000003B05DF8044B704701238363184603B091
:103610005DF8044B704704238363184603B05DF8DC
:10362000044B704700F1140240F2FF54846301938D
:103630000192019B1B6813F4604009D05A040AD41C
:1036400013F4004F14BF4FF480504FF48030C7E79D
:103650001B0C0B80C4E74FF40050C1E70C020020A4
:10366000D34D62108160C268194B1A491B6822F45D
:103670007F6222F00F02A1FB031342F48962590A10
:1036800042F0050241F28833C26003FB01F303E01C
:10369000426B12F0450F05D113F1FF33F8D24FF012
:1036A00000407047436B5A070CD4436BDB0705D4CB
:1036B0000369DBB20D2B09D001207047012383631E
:1036C000184670470423836318467047FFF7CCBB46
:1036D0000C020020D34D6210034B03EB8002034425
:1036E0005268187A53681847B8020020064B1A5CD3
:1036F00042B903EB80020121195452680344126855
:10370000187A104700207047B802002030B4054CEA
:1037100004EB800504446D68207AAC68A44630BC94
:10372000604700BFB802002030B4054C04EB8005B0
:1037300004446D68207AEC68A44630BC604700BF42
:10374000B8020020054B10B403EB80040344646806
:10375000187A23695DF8044B184700BFB8020020AF
:103760002DE9F041C37804460E4600F1300773B9E5
:103770003246394601236078FFF7C8FF002818BF9A
:103780004FF0FF36E66214BF012000201FE0C56A3B
:1037900040782A4601233946FFF7C6FFB0B9236AAD
:1037A000A269E070EB1A9342E2D294F8028060784A
:1037B000B8F1010F4FF001033946D9D9A269154478
:1037C0002A46FFF7B1FF08F1FF38F0E70120BDE816
:1037D000F0810000F8B5C37804465BB92378032B69
:1037E00029D0002260781146FFF7ACFF003018BFE7
:1037F0000120F8BDC56A407804F130072A463946F1
:103800000123FFF791FF002855D1226AA369E070D8
:10381000AA1A9A42E2D2A678012E01D8DEE7A3695D
:1038200060781D44013E2A4601233946FFF77CFF9C
:10383000012EF4D1D2E72579012DD2D104F1300641
:103840004FF400720021304603F098FDD4E90321C3
:103850000023080A61F307030F0C60F30F23002015
:1038600062F3070067F31743090E170A61F31F633A
:1038700067F30F20110C61F31740120EE169C4F8D1
:10388000183262F31F602B464A1C4FF0550CC4F8E7
:103890001C02AA2709480A4DC4F814023146E26204
:1038A00084F82EC284F82F7225636078FFF73CFFFE
:1038B0000023237195E70120F8BD00BF72724161BA
:1038C000525261412DE9F84F0378022B04460D4610
:1038D000174600F08D80032B64D0012B02D002200C
:1038E000BDE8F88F026AD0F82CA001EB510802EB7A
:1038F0005829D14500F1300640F0F18008F1010966
:1039000015F00105C8F308084FEA592200F01581A7
:1039100016F8083003F00F0343EA071306F80830DF
:10392000236AD4F82CA002EB0308D0454FF0010322
:10393000E37000F021810123524631466078FFF7A1
:10394000F3FE002840F0C880226AA369E070AAEB69
:1039500002029A4212D294F802B0BBF1010F01D8D0
:103960000CE0A36960789A440BF1FF3B52460123B7
:103970003146FFF7D9FEBBF1010FF2D101234246D8
:1039800031466078FFF7C2FE002840F0A280C9F3FC
:1039900008094E44C4F82C80002D00F0DE80C7F3E7
:1039A0000717E0E0036AD0F82C9003EBD118C84564
:1039B00000F1300661D1AD0005F4FE75731927F0F2
:1039C00070475A88120402F070423A430023110AE9
:1039D00062F3070361F30F23110C61F31743120E17
:1039E00062F31F6373510122E2700020BDE8F88F7B
:1039F000066AD0F82C8006EB1126464500F1300906
:103A00002CD0C37840780BB3012342464946FFF7D8
:103A10008BFE002860D1226AA369E070A8EB020245
:103A20009A4212D294F802A0BAF1010F01D80CE028
:103A3000A369607898440AF1FF3A42460123494657
:103A4000FFF772FEBAF1010FF2D16078012332461E
:103A50004946FFF75BFE00283BD1E6626D0005F4A6
:103A6000FF7509EB050209F80570C7F3072101236B
:103A70005170E3700020BDE8F88FC37840780BB335
:103A800001234A463146FFF74FFE28BB226AA3694D
:103A9000E070A9EB02029A42607813D294F802A077
:103AA000BAF1010F02D80DE0A369607899440AF1D8
:103AB000FF3A4A4601233146FFF736FEBAF1010FBD
:103AC000F2D16078012342463146FFF71FFE0028FD
:103AD0004FD04FF0FF33E3620120BDE8F88FC2788A
:103AE000407802B352463146FFF71EFE0028F3D15C
:103AF000226AA369E070AAEB02029A4212D294F8F9
:103B000002B0BBF1010F01D80CE0A36960789A44C0
:103B10000BF1FF3B524601233146FFF705FEBBF197
:103B2000010FF2D1607801234A463146FFF7EEFDDE
:103B30000028CED1C4F82C90E0E606F80870236A7D
:103B4000D4F82CA002EB0308C2454FF00103E37048
:103B50007FF4F1AEC9F308094E443378C7F303226A
:103B600023F00F07174301233770E3700020BDE8EF
:103B7000F88FC4F82C801EE7C9F308094E440EE7FD
:103B80002DE9F04F85B00129009014D904686369CC
:103B90008B420D4606460ED98AB9A34604F1300A77
:103BA0005E469D4207D23378022B00F03581032B0D
:103BB00068D0012B14D0022005B0BDE8F08F012A97
:103BC000F9D99342F7D9114620464FF0FF32FFF75B
:103BD00079FE0028F0D1D6F800B0DBF81430DDE72C
:103BE000326AD6F82C9005EB550702EB5728C845EA
:103BF00040F05681C7F308030137334402EB5728DE
:103C0000C84593F830B000F06082F378707806F120
:103C100030021146019233B301234A46FFF784FD77
:103C2000002840F0A181326AB369F070A9EB02026A
:103C30009A42707817D296F802C06246012A12D9C9
:103C4000029403956446019D01E0B369707899443C
:103C5000013C4A4601232946FFF766FD012CF4D1B9
:103C6000DDE902457078019901234246FFF74EFDD8
:103C7000002800F028824FF0FF330120F36205B0E6
:103C8000BDE8F08F376AD6F82C9007EBD5174F4573
:103C900006F1300840F03681AB0003F4FE7308EB08
:103CA000030218F8037092F801B053884BEA032B13
:103CB00047EA0B2727F07047002F00F01482012FEE
:103CC0003FF479AF63699D42BFF475AF2378022B4F
:103CD00000F09781032B00F04B81012B7FF46BAF39
:103CE000226AD4F82C9005EB550602EB5628C845FD
:103CF0002ED0E27860780AB34A465146FFF714FDA9
:103D0000002840F03181226AA369E070A9EB020229
:103D10009A4212D294F802B0BBF1010F01D80CE024
:103D2000A369607899440BF1FF3B4A460123514651
:103D3000FFF7FAFCBBF1010FF2D160780123424694
:103D40005146FFF7E3FC002840F00B81C4F82C80BB
:103D500006F1010815F00109C6F308064FEA5822DA
:103D600000F09E811AF8063003F00F030AF80630BF
:103D7000266AE56A16444FF00103B542E37000F08D
:103D8000B48101232A4651466078FFF7CDFC002814
:103D900040F0EA80226AA369E070AA1A9A4212D21D
:103DA00094F802B0BBF1010F01D80CE0A369607870
:103DB0001D440BF1FF3B2A4601235146FFF7B4FC9B
:103DC000BBF1010FF2D10123324651466078FFF773
:103DD0009DFC002840F0C580C8F30808D044E66286
:103DE000B9F1000F00F06A814FF0010388F800007C
:103DF000E370D4E90432911E8B4205D2217901335C
:103E000041F0010123612171BA4240F26C81009BB3
:103E10001E683D467369C4E6376AD6F82C9007EBF6
:103E200015274F4506F130082ED0F378707813B37C
:103E300001234A464146FFF777FC002840F0948072
:103E4000326AB369F070A9EB02029A4212D296F874
:103E500002B0BBF1010F01D80CE0B369707899444E
:103E60000BF1FF3B4A4601234146FFF75DFCBBF1E6
:103E7000010FF2D1707801233A464146FFF746FC24
:103E800000287FF4F8AEF7626B0003F4FF7308EBD1
:103E9000030218F8037092F801B047EA0B270BE70A
:103EA000F278707806F1300BFAB14A465946FFF7BE
:103EB0003BFC002858D1326AB369F070A9EB0202CA
:103EC0009A4211D2B278012A0ED90194144600E028
:103ED000B36970789944013C4A4601235946FFF77B
:103EE00023FC012CF4D1019C7078594601234246F1
:103EF000FFF70CFC00287FF4BEAE326AC6F82C80B7
:103F0000C14677E6F37870780BB301234A46414601
:103F1000FFF70AFC40BB326AB369F070A9EB0202FA
:103F20009A42707813D296F802B0BBF1010F02D812
:103F30000DE0B369707899440BF1FF3B4A460123C9
:103F40004146FFF7F1FBBBF1010FF2D1707801237D
:103F50003A464146FFF7DAFB00287FF48CAEF76261
:103F60009AE64FF0FF33E362012005B0BDE8F08F21
:103F7000266AD4F82C8006EBD51646452DD0E3787A
:103F8000607813B3012342465146FFF7CDFB00286A
:103F9000EAD1226AA369E070A8EB02029A42607833
:103FA00013D294F80290B9F1010F02D80DE0A36981
:103FB0006078984409F1FF39424601235146FFF7E2
:103FC000B3FBB9F1010FF2D16078012332465146BB
:103FD000FFF79CFB0028C4D1E662AD0005F4FE7536
:103FE0000AEB05024FF0000153880AF805101B0A7E
:103FF00003F0F003D3704FF0010351709170E37040
:10400000F7E6266AD4F82C8006EB1526464539D00B
:10401000E37860780BB3012342465146FFF784FBF7
:104020000028A1D1226AA369E070A8EB02029A429B
:1040300012D294F80290B9F1010F01D80CE0A369F3
:104040006078984409F1FF39424601235146FFF751
:104050006BFBB9F1010FF2D1607801233246514672
:10406000FFF754FB00287FF47CAF6D0005F4FF756B
:104070000AEB0503E6620AF8050058704FF00103E9
:10408000E370B6E66D0005F4FF750AEB05034FF02B
:1040900000020AF805205A704FF00103E370A8E609
:1040A0000AF80690266AE56A16444FF00103B54205
:1040B000E3707FF466AEC8F30808D04498F80000B7
:1040C00000F0F00090E6C6F82C80C7F308073E44E5
:1040D000EB0796F830704BEA072B4CBF4FEA1B17E3
:1040E000CBF30B07E8E5002066E5C8F30808D044E9
:1040F000002079E62DE9F04F8468D0F80080002395
:1041000085B043612CBB98F80030022B1CD8B8F85E
:104110000830ABB1D8F82430C361846183B108F1B1
:1041200030030362002005B0BDE8F08FD8F81420FA
:10413000A11E023A9142C0F04D810023C0E906431E
:10414000022005B0BDE8F08FD8F82430002BDED077
:104150001C46B8F80A30002BE8D1012CF0D9D8F869
:104160001430A342ECD9454607462B78022B00F0C9
:104170009A80032B40D0012BE2D12A6AD5F82C90EB
:1041800004EB540602EB562ACA4500F0D280EA78C6
:10419000687805F1300B12B34A465946FFF7C4FA66
:1041A00040BB2A6AAB69E870A9EB02029A4215D2B9
:1041B000AA78012A12D9CDF80480904600E0AB69B4
:1041C0006878994408F1FF384A4601235946FFF7B9
:1041D000ABFAB8F1010FF2D1DDF8048068785946E6
:1041E00001235246FFF792FA002800F09E804FF01C
:1041F000FF33EB62012096E72E6AD5F82CA006EB80
:10420000D416564505F130092DD0EB78687813B3F4
:10421000012352464946FFF787FA0028EAD12A6A65
:10422000AB69E870AAEB02029A42687813D295F85B
:1042300002B0BBF1010F02D80DE0AB6968789A4477
:104240000BF1FF3B524601234946FFF76DFABBF1E4
:10425000010FF2D16878012332464946FFF756FA3A
:104260000028C4D1EE62A40004F4FE7409EB040239
:1042700019F804405188537843EA012344EA03249F
:1042800024F07044012C7FF65BAFD8F81430A342C1
:104290007FF656AF3D686B69A3427FF651AF2B782E
:1042A000022B7FF466AF2E6AD5F82CA006EB1426FD
:1042B000564505F130092DD0EB7868780BB3012312
:1042C00052464946FFF730FA002893D12A6AAB6973
:1042D000E870AAEB02029A4212D295F802B0BBF142
:1042E000010F01D80CE0AB6968789A440BF1FF3BF1
:1042F000524601234946FFF717FABBF1010FF2D1ED
:104300006878012332464946FFF700FA00287FF417
:104310006EAFEE62640004F4FF7409EB040319F855
:1043200004405B7844EA0324ACE72A6AC5F82CA071
:10433000D146C6F3080301362B4402EB562ACA4580
:1043400093F830B039D0EB78687805F13002114637
:10435000019243B301234A46FFF7E6F900287FF4B0
:1043600049AF2A6AAB69E870A9EB02029A42687801
:1043700019D295F802C06246012A14D9CDE9028407
:10438000E046019C01E0AB696878994408F1FF3888
:104390004A4601232146FFF7C7F9B8F1010FF2D1D0
:1043A000DDE902846878019901235246FFF7AEF9EE
:1043B00000287FF41CAFC5F82CA0C6F308063544CE
:1043C000E20795F830304BEA03234CBF1C09C3F3D6
:1043D0000B0457E7D8F8282001FB0323C3619CE6B0
:1043E000012932D92DE9F84F436999422AD203783D
:1043F000022B06460C4641D0032B28D0012B21D19D
:10440000026AD0F82C8001EB510502EB5527474595
:1044100040F0A580C5F308036F1C334402EB572915
:10442000C14593F8305040F0CA80C7F308003044CB
:10443000E30790F8300045EA00204CBF0009C0F3C4
:104440000B0000E00120BDE8F88F01207047056AED
:10445000D0F82C8005EBD115454500F130074ED141
:10446000A10001F4FE717A18785C5378518843EA10
:10447000012340EA032020F07040E4E7056AD0F809
:104480002C8005EB1125454500F130072ED0C3786F
:10449000407813B3012342463946FFF745F9002817
:1044A00040F0C180326AB369F070A8EB02029A4210
:1044B00012D296F80290B9F1010F01D80CE0B3695D
:1044C0007078984409F1FF39424601233946FFF7D5
:1044D0002BF9B9F1010FF2D1707801232A46394640
:1044E000FFF714F9002840F09A80F562610001F4AA
:1044F000FF717B18785C5B7840EA0320A3E7C37800
:1045000040781BB3012342463946FFF70DF90028D6
:1045100040F08980326AB369F070A8EB02029A42D7
:10452000707813D296F80290B9F1010F02D80DE01D
:10453000B3697078984409F1FF394246012339463E
:10454000FFF7F2F8B9F1010FF2D1707801232A4692
:104550003946FFF7DBF8002861D1F56280E7C278C1
:10456000407806F1300902B342464946FFF7DCF8CD
:10457000002858D1326AB369F070A8EB02029A425F
:1045800012D296F802A0BAF1010F01D80CE0B3697B
:10459000707898440AF1FF3A424601234946FFF7F2
:1045A000C3F8BAF1010FF2D17078494601233A46B7
:1045B000FFF7ACF898BB326AF762B8462AE7F3789F
:1045C000707806F1300A0BB3012342465146FFF7DB
:1045D000ABF840BB326AB369F070A8EB02029A42B2
:1045E000707813D296F802B0BBF1010F02D80DE03B
:1045F000B369707898440BF1FF3B42460123514662
:10460000FFF792F8BBF1010FF2D170785146012308
:104610004A46FFF77BF810B9C6F82C9005E74FF033
:10462000FF30F0620FE74FF0FF300CE72DE9F04F5D
:1046300087B082460191D0F800B0002940F05E8139
:10464000DBF80C80DBF81430B8F1000F1DD14FF00F
:104650000108444601349C421CD3B8F1010F40F2DA
:104660007381DAF8005002246B69A34208D92B78D1
:10467000022B00F0FB80032B00F0AF80012B0ED04B
:104680000124204607B0BDE8F08F984528BF4FF0C1
:104690000108DEE7012CDAF80050F1D9E4E72A6AD4
:1046A000D5F82C9004EB540602EB56274F4536D034
:1046B000EA78687805F13001029132B34A46FFF793
:1046C00033F8002840F03A812A6AAB69E870A9EB18
:1046D00002029A4217D2AA78012A14D9CDF80C8086
:1046E00004949046029C00E0AB696878994408F114
:1046F000FF384A4601232146FFF716F8B8F1010FAB
:10470000F2D1DDE903846878029901233A46FEF785
:10471000FDFF002840F0E1802A6AEF62B946C6F347
:104720000803013602EB56222B444A45029293F8C5
:1047300030703AD0EB78687805F130021146039278
:104740004BB301234A46FEF7EFFF002840F0F68006
:104750002A6AAB69E870A9EB02029A4268781AD219
:1047600095F802C06246012A15D9CDF8108005944B
:10477000E046039C01E0AB696878994408F1FF3892
:104780004A4601232146FEF7CFFFB8F1010FF2D1CF
:10479000DDE9048468780399029A0123FEF7B6FFE5
:1047A000002840F09A80029BEB62C6F3080635446D
:1047B000E20795F8303047EA03234CBF1B09C3F3E7
:1047C0000B03002B00F0AB80012B3FF459AFA04549
:1047D00000F0BA80DBF814303CE72E6AD5F82C9054
:1047E00006EBD4164E4505F1300731D0EB786878EA
:1047F00033B301234A463946FEF796FF002840F0BE
:104800009D802A6AAB69E870A9EB02029A42687837
:1048100016D2AA78012A13D9CDF80880904601E073
:10482000AB696878994408F1FF384A460123394654
:10483000FEF77AFFB8F1010FF2D1DDF80880687851
:10484000012332463946FEF761FF002845D1EE626A
:10485000A30003F4FE73F918FB5C48884A7842EA27
:10486000002243EA022323F07043AAE72E6AD5F818
:104870002C9006EB14264E4505F1300735D0EB7829
:10488000687823B301234A463946FEF74DFF0028D6
:1048900054D12A6AAB69E870A9EB02029A4215D298
:1048A000AA78012A12D9CDF80880904600E0AB69B9
:1048B0006878994408F1FF384A4601233946FEF7E3
:1048C00033FFB8F1010FF2D1DDF8088068780123D9
:1048D00032463946FEF71AFF30B14FF0FF3420461A
:1048E000EC6207B0BDE8F08FEE62630003F4FF7383
:1048F000FA18FB5C527843EA022362E75846FFF756
:104900006FFD012804467FF6BBAE411C16D0DBF8D4
:10491000143083423FF6B5AEDDF8048099E6DBF84B
:104920001430A3427FF6ACAE4FF0FF32214658461A
:10493000FEF7C8FF68B101287FF4A2AE4FF0FF3444
:10494000204607B0BDE8F08F0024204607B0BDE840
:10495000F08F019B7BB1012B1A467FF691AEDBF8FD
:1049600014309A42BFF48CAE114658462246FEF7E8
:10497000A9FF0028DFD1DBE90423023B9A42CBF8F0
:104980000C4002D8013ACBF810209BF8043043F0D9
:1049900001038BF8043074E62DE9F04F89B0074627
:1049A0000668FFF7A7FB834638B1042801D14FF012
:1049B000070B584609B0BDE8F08FD7F81C80D6F831
:1049C0002CA0029006F13003C2459B4600F0908077
:1049D000F3787078FBB1012352465946FEF7A4FEE6
:1049E000002840F08780326AB369F070AAEB0202B7
:1049F0009A4270780FD2B478012C02D80BE0B369D8
:104A000070789A44013C524601235946FEF78CFEC9
:104A1000012CF4D17078012342465946FEF776FE08
:104A2000002839D1FB69C6F82C80386A0278E52A5B
:104A300001D0002A39D143459946DDF808B000F08D
:104A40008B80F378707806F13004F3B1012342468D
:104A50002146FEF769FE00284CD1326AB369F07036
:104A6000A8EB02029A4270780FD2B578012D02D8D5
:104A70000BE0B36970789844013D4246012321461A
:104A8000FEF752FE012DF4D17078214601234A46EB
:104A9000FEF73CFE00285CD04FF0010B4FF0FF33D7
:104AA0005846F36209B0BDE8F08F002B3FF47FAFAA
:104AB0007C69914A203494423FF679AFC4F30809E7
:104AC0003D68B9F1000F07D1B9690133FB61A1B9A4
:104AD0002A89B2EB541F5DD905F13002C24601921A
:104AE000984613464B44C2453B627C617FF470AFED
:104AF00043469AE74FF0010B5BE76A89013A12EAF5
:104B00005422E9D12846FFF76BFC0128804640F289
:104B1000C980B0F1FF3FEDD06A69904257D2831E41
:104B2000039305F13003023A01930399C7F8188003
:104B300091420B463CBFB5F80A80AB6AD6F82CA070
:104B400034BF01FB08384FF00008C7F81C80019BF8
:104B5000C8E7386AC6F82C902022002102F00EFC2B
:104B60003B6A07F12402191D8A4203D207F1280289
:104B7000934213D37A6A1A60BA6A5A6097F82C2063
:104B80001A7297F82D205A7297F82E209A720123E4
:104B9000F3700EE7F9614FF0070B0AE797F824204E
:104BA0001A7097F825205A7097F826209A7097F86F
:104BB0002720DA7097F828201A7197F829205A715F
:104BC00097F82A209A7197F82B20DA71D6E7B969FD
:104BD0003846FFF72BFD804600283FF4E8AE012859
:104BE00060D0B0F1FF3F85D0EB7805F13002049240
:104BF0000192002B59D14FF400720021049802F069
:104C0000BDFB6B696989A8F102009A1E90420346B8
:104C100038BFAB6A039034BF00FB013A4FF0000A83
:104C2000C5F82CA0002939D00023CDE905645446ED
:104C3000DDF810A0CDF81C9099464FF00103EB7001
:104C40002246012351466878FEF76EFD00287FF466
:104C500051AF2A6AAB69E870A21A9A420ED2AE78B6
:104C6000012E01D80AE0AB6968781C44013E224657
:104C700001235146FEF758FD012EF4D1EC6A6B89F1
:104C800009F1010901349945EC62D6D36B69059E9F
:104C90004946A246DDF81C90069C9A1EAAEB010329
:104CA000EB6242E74FF0020B83E6D5F82CA0687860
:104CB000114601235246FEF737FD00287FF41AAF54
:104CC0002A6AAB69E870AAEB02029A4293D2AA78E8
:104CD0000392012A01D88EE7AB69049968789A4457
:104CE000039B013B039352460123FEF71DFD039BEB
:104CF000012BF1D17FE700BFFFFF1F002DE9F04F2F
:104D000087B00368029304460B782F2B894601F184
:104D10000101F9D05C2BF7D00023A36099F8003093
:104D20001F2B40F2568104F12403039320234FF0FC
:104D3000203200206262A26284F82C3084F82D3088
:104D400084F82E30024609F1FF35082715F8013F97
:104D5000202B02F101021BD92F2B00F090805C2B3D
:104D600000F08D802E2B07D087426FD80623019349
:104D7000019807B0BDE8F08F0B2FF7D015F8013F71
:104D8000202B4FF008004FF00B0702F10102E3D88F
:104D900091440028EAD094F82420D4F800A0E52A11
:104DA00004BF052284F82420202B8CBF0023042379
:104DB00084F82F302046FFF79DF90190002840F03D
:104DC000C380E569DFF84C820AF1300BDAF82C6019
:104DD000AE425FD09AF803309AF8010033B3012352
:104DE00032465946FEF7A0FC002840F0D480DAF89D
:104DF0002020DAF818308AF80300B21A9A429AF89A
:104E0000010013D29AF80270012F04D80EE0DAF8EC
:104E100018309AF801001E44013F324601235946DA
:104E2000FEF782FC012FF2D19AF8010001232A46F5
:104E30005946FEF76BFC58B34FF0FF33CAF82C30DD
:104E400001230193019807B0BDE8F08F190602D540
:104E5000803B6E49CB5C222B88D06D4E2A218B4241
:104E600084D016F8011F0029F9D1A3F16101192995
:104E700001D8203BDBB203990B54013066E74A446A
:104E8000914612F8011B2F29FAD05C29F8D080E74F
:104E9000CAF82C50236A1A78002A58D0DA7A02F01D
:104EA0003F01A171D97A0E0736D494F824001978FD
:104EB000884231D1587894F8251088422CD19878BE
:104EC00094F82610884227D194F82700D978884290
:104ED00022D1187994F8281088421DD1587994F875
:104EE0002910884218D1987994F82A10884213D151
:104EF000D87994F82B1088420ED1187A94F82C1097
:104F0000884209D1587A94F82D10884204D1997AB0
:104F100094F82E30994221D0E569C5B166692036F2
:104F2000464514D8C6F30803276843B9A16901357B
:104F3000E561002932D13A89B2EB561F45D93037A5
:104F40001F442762666141E704287FF411AF94F89B
:104F50002F30590756D40523019309E794F82F30D1
:104F60005B073FF505AFD206F5D502986369017876
:104F7000C3F3080200F1300313440329D87E9A7E5C
:104F800042EA002205D1597D1B7D43EA012342EA12
:104F90000342A260CAE601230193E9E67A89013A55
:104FA00012EA5622CBD13846CDE90432FFF718FA7F
:104FB000012824D9451CEED07969049B884211D37D
:104FC000059AE26194F82F30C3E7E16194F82F303D
:104FD000BFE78023204684F82F3007B0BDE8F04FAC
:104FE000FFF788B80239821E8A423CBF7D89B96AC0
:104FF000A06134BF02FB05151D46E5619FE7022352
:105000000193B5E604230193B2E600BF047C0008D7
:10501000B17D0008FFFF1F002DE9F0430668002363
:1050200085B00B60002E00F0D4813778202F0DD989
:105030003A2F00F0CE81334603E03A2C00F01A817B
:105040002B465C78202C03F10105F6D84FF00008C0
:10505000C04E56F82840002C00F01D810C602378CB
:1050600002F0FE0573B16078FEF736FBC10709D484
:10507000002D00F0B28110F0040040F0198105B05D
:10508000BDE8F0835FFA88F0002360702370FEF7BC
:105090002DFBC20700F1038115B1430700F1088120
:1050A00000224FF0FF3504F13007E270E562394627
:1050B00001236078FEF72AFB002840F0F48094F882
:1050C0002F2294F82E32E0624AF6552143EA02205C
:1050D000884240F07A8194F830C0BCF1E90F06D0E4
:1050E000216B9D4801F0FF11814240F0E580B4F84A
:1050F000685094F8670094F8661040EA052041EA89
:105100000021964821F07F4181420DD0B4F88450AF
:1051100094F8830094F8821040EA0520904D41EA0B
:105120000021A94240F0C880002594F83C0094F882
:105130003B1041EA0021B1F5007F40F0468194F830
:10514000470094F8461051EA002109D1B4F856708E
:1051500094F8551094F8540041EA072140EA0121DF
:1051600094F84000A161471E012FA07000F22D812C
:1051700094F83D901FFA89F76781002F00F0258190
:1051800009F1FF3717EA090F40F01F8194F84270C8
:1051900094F841E04EEA072E1EF00F0FA4F808E045
:1051A00040F0138194F844C094F8437057EA0C27F8
:1051B00009D1B4F8528094F8517094F850C047EA7D
:1051C00008274CEA072794F83FC094F83E8058EA35
:1051D0000C2800F0FA8001FB00F008EB1E1C844450
:1051E0006745C0F0F280A7EB0C07B7FBF9F7002F7B
:1051F00000F0EB804FF6F5794F4500F2DD8140F687
:10520000F5794F4508EB0502AC4407F1020300F2C3
:105210000A826361C4E90752C4F828C0BEF1000FD6
:1052200000F0D380024403EB430003F00103626209
:1052300003EB5003012203F2FF13B1EB532FC0F035
:10524000C4804FF0FF33C4E9033380212171B38858
:10525000B168227001339BB2A142B380E38004BFE6
:105260000023B360B3699C424FF000007FF407AFA6
:10527000B06104E70136B542A7F1300840F0A980DB
:10528000302F40F0A680334E56F82840023303609A
:10529000002C7FF4E3AE0C2005B0BDE8F0830320C2
:1052A00005B0BDE8F0830120E56205B0BDE8F083FC
:1052B0000A2005B0BDE8F08394F8F2514DB1B4F87E
:1052C000F80194F8F71194F8F65141EA002145EA03
:1052D000012594F8020248B1B4F808E294F80702F4
:1052E00094F8061240EA0E2041EA002094F81212C7
:1052F0000190002973D1084694F82212029049B116
:10530000B4F828E294F8270294F8261240EA0E2016
:1053100041EA00210391002D6CD1019D002D7ED129
:10532000029D002D40F0C380039D002D4DD04FF015
:10533000FF3800234545E370C4F82C8013D039466C
:1053400001232A466078FEF7E1F958B1C4F82C80B1
:10535000012094E690020020EB00900046415400AA
:1053600046415433E56294F82F2294F82E324AF6DF
:10537000552143EA0220884227D194F83010E929C8
:1053800005D0216BD44801F0FF1181421DD1B4F842
:10539000687094F8670094F8661040EA072041EAC4
:1053A0000021CE4821F07F4181423FF4BEAEB4F8E7
:1053B000847094F8830094F8821040EA0720C84F64
:1053C00041EA0021B9423FF4B0AE0D2005B0BDE87E
:1053D000F0830B2005B0BDE8F08328464FE6B4F813
:1053E00018E294F8170294F8161240EA0E2041EAE7
:1053F000002081E74FF0FF3800214545E170C4F8F7
:105400002C8000F0A98001232A4639466078FEF7F7
:105410007DF9002800F09280C4F82C807DE74FF0E1
:10542000FF3800234545E370C4F82C8009D00123E0
:105430002A4639466078FEF769F9002840F0B980BD
:10544000E56294F82F2294F82E324AF6552143EA69
:10545000022088427FF464AF94F83010E92906D026
:10546000216B9D4801F0FF1181427FF459AFB4F8E0
:1054700068C094F8670094F8661040EA0C2041EA8E
:105480000021964821F07F4181423FF44EAEB4F8AE
:1054900084C094F8830094F8821040EA0C20DFF86E
:1054A00040C241EA002161453FF43FAE38E74FF08A
:1054B000FF3800234545E370C4F82C8008D0012351
:1054C0002A4639466078FEF721F900286ED1E56258
:1054D00094F82F2294F82E324AF6552143EA0220FE
:1054E00088427FF421AF94F83010E92906D0216B6F
:1054F000794801F0FF1181427FF416AFB4F868C01B
:1055000094F8670094F8661040EA0C2041EA002104
:10551000724821F07F4181423FF407AEB4F884C065
:1055200094F8830094F8821040EA0C20DFF8B0C1B0
:1055300041EA002161453FF4F8ADF5E694F82F22E9
:1055400094F82E32E56243EA02204AF65521884259
:105550007FF4E3AE94F830C0BCF1E90F06D0216BC4
:105560005D4801F0FF1181427FF4D7AEB4F868C006
:1055700094F8670094F8661040EA0C2041EA002194
:10558000564821F07F4181423FF4CFADB4F884C04A
:1055900094F8830094F8821040EA0C20DFF840C1B0
:1055A00041EA002161453FF4C0ADB6E6C4F82C8065
:1055B000BAE6C4F82C80B3E694F85B9094F85A00ED
:1055C000E5610237A844AC4450EA09206761C4F899
:1055D0002080C4F828C07FF4F8AEBEF1000F7FF43D
:1055E000F4AEB4F85E0094F85DE094F85CC0BF00DF
:1055F0004EEA002E07F2FF10B1EB502F4CEA0E27B7
:105600006762FFF4E2AE94F8610094F8601041EA3A
:10561000002180274FF0FF300129C4E903002771E2
:105620000FD0032213E66361C4E90752C4F828C00F
:10563000BEF1000F3FF4C9AE024462625B00022279
:10564000F9E5E06A691C81423BD143EA02234AF64C
:105650005522002193422171E3D1608E94F83120CC
:1056600094F830301F4942EA002243EA02238B4279
:10567000D7D1B4F8160294F8152294F8143201F137
:10568000FF5101F5005142EA0022203143EA022392
:105690008B42C6D194F81D32B4F81E12B4F81A52D7
:1056A00094F8190294F8182243EA012194F81C3264
:1056B00040EA052042EA002243EA0123C4E903321A
:1056C000AFE72046FEF74CF80028AAD194F82F2225
:1056D00094F82E32B9E700BFEB0090004641540029
:1056E000464154335252614130B583B0CDE9001088
:1056F00071B30C78202C09D93A2C29D0084601E046
:105700003A2B1ED010F8013F202BF9D80025184B5A
:1057100053F8251059B19868814204BF0020986061
:105720009869884204BF00209861002008700199A0
:1057300089B10020012A087043F8251010D003B069
:1057400030BD01318842A4F1300501D1302CDED0CA
:105750000B2003B030BD084643F8251003B030BD20
:10576000024601A96846FFF757FC03B030BD00BFF1
:10577000900200202DE9F04F91B0019100283BD01C
:1057800002F03F070446154603A93A4601A8FFF771
:1057900043FC064628B100232360304611B0BDE823
:1057A000F08F039B0199049304A8FFF7A7FA05F073
:1057B0001C0C034628BB9DF93F30002BC0F2FC8037
:1057C000DFF89483049BD8F80810DDF818B0DDF8F2
:1057D00024E027F00102002900F008818B4230D03C
:1057E000D8F81810002946D08B4234D0BCF1000FF5
:1057F00018D012231E46CEE70926304611B0BDE868
:10580000F08FBCF1000F1AD00428F3D1DFF84883E1
:10581000D8F80830002B00F00181D8F81830002BA0
:1058200000F0FC801226B6E748465146FDF798FF87
:10583000DDF80C90C9F80C50002800F039810646BC
:10584000A9E7D8F80C108B4500F06281D8F8181041
:1058500089B19942CAD1D8F81C105945C6D1D8F897
:1058600020107145C2D1012192B908EB0111898A3A
:10587000B1F5807F0CD0BCF1000F0FD09DF8161051
:1058800011F0110F13D1690740F1AB80082682E7B0
:10589000BCF1000F40F0BF8010267CE79DF8161089
:1058A000C80600F1B680A80703D5C80701D50726AA
:1058B00071E72907DDF80C9003D547F0400727F082
:1058C0000102D8F808100C9DD9F82C008B42C4E9CD
:1058D00009057AD0D8F818A09A450AD0002900F016
:1058E0000281BAF1000F00F0248100232361022617
:1058F00051E7D8F81C005845F0D1D8F82000704581
:10590000ECD14FF0010C4FEA0C1108EB01039B8A1C
:10591000002A53D101339BB20CF1010AC4F810A044
:1059200099F80020E87E414495F81A808B82032A7A
:1059300048EA002805D16A7D2B7D43EA022348EA24
:105940000348C4F80880E98B6B7F2D7FB9F80620E7
:10595000A28043EA012345EA0325002104F1300A2D
:105960002775C4F80090E560E16261752162A1616C
:1059700050464FF4007201F001FDBF067FF50DAFF8
:10598000002D3FF40AAFB9F80A70A5617F02AF425B
:1059900080F0948041462068FEF722FD0128804671
:1059A000A5EB070506D9B0F1FF3FF0D10126C4F8F9
:1059B0001C80F0E60226FAE70626ECE6002B94D1DE
:1059C0000CF1010A4FF48073A8E7D8F80C00834566
:1059D00080D1D8F8100086457FF47CAF4FF0000CE2
:1059E00091E72D0722D4DDF80C906AE7D8F818105B
:1059F00000293FF440AF99427FF43DAFD8F81C1026
:105A000059457FF438AFD8F820108E457FF433AF76
:105A100029E70426BFE610231E46BCE604A8FEF7CD
:105A2000BBFF47F0080700287FF409AF00F0A8FD8E
:105A30000C9BDDF80C90C5B2C0F30721C0F3074200
:105A4000000E9D73D9731A7458740C9B9D75D9758B
:105A50001A7658760C9B2022DA720C9B99F800205B
:105A6000D97E9D7E032A45EA01255BD000229A76E5
:105A7000DA7699F80010032951D00C9900220123FD
:105A8000CA6189F803309DB104A82946D9F82CA031
:105A9000FEF776F800287FF4D2AEDDF80C90D9F846
:105AA0002C309A4505F1FF357FF4BEAEC9F80C5095
:105AB000049BDDF818B0DDF824E0FEE6C5F308032A
:105AC000C4F81C80002B3FF468AE039B5A69A8F110
:105AD0000208023A904504D25A89996A08FB0212D8
