:020000040800F2
:10000000000002205D3A00088139000885390008A7
:10001000893900088D390008913900080000000076
:1000200000000000000000000000000095390008FA
:1000300099390008000000009D390008A139000826
:10004000AD3A0008AD3A0008AD3A0008AD3A0008F4
:10005000AD3A0008AD3A0008AD3A0008AD3A0008E4
:10006000AD3A0008AD3A0008AD3A0008AD3A0008D4
:10007000AD3A0008AD3A0008AD3A0008AD3A0008C4
:10008000AD3A0008AD3A0008B1390008BD390008A2
:10009000C9390008CD390008D1390008AD3A000847
:1000A000AD3A0008AD3A0008AD3A0008AD3A000894
:1000B000D5390008E1390008ED390008AD3A0008EB
:1000C000AD3A0008AD3A0008AD3A0008AD3A000874
:1000D000AD3A0008AD3A0008AD3A0008AD3A000864
:1000E000F9390008AD3A0008AD3A0008AD3A000809
:1000F000AD3A0008AD3A0008AD3A0008AD3A000844
:10010000AD3A0008AD3A0008AD3A0008AD3A000833
:10011000AD3A0008AD3A0008AD3A0008AD3A000823
:10012000013A0008AD3A0008AD3A0008AD3A0008BF
:10013000AD3A00080000000000000000AD3A0008E1
:10014000AD3A0008AD3A0008AD3A0008AD3A0008F3
:10015000AD3A0008AD3A0008AD3A0008AD3A0008E3
:10016000AD3A0008AD3A0008AD3A0008AD3A0008D3
:10017000AD3A0008AD3A0008AD3A000800000000B2
:1001800000000000AD3A0008000000000000000080
:10019000AD3A00080000000000000000AD3A000881
:1001A000000000000000000000000000AD3A000860
:1001B000AD3A0008AD3A0008AD3A0008AD3A000883
:0401C000AD3A00084C
:1001C40010B5054C237833B9044B13B10448AFF38D
:1001D40000800123237010BD1000002000000000E7
:1001E400F83A000808B5034B1BB103490348AFF3C1
:1001F400008008BD0000000014000020F83A000848
:1002040081F0004102E000BF83F0004330B54FEAC3
:1002140041044FEA430594EA050F08BF90EA020F30
:100224001FBF54EA000C55EA020C7FEA645C7FEAC3
:10023400655C00F0E2804FEA5454D4EB5555B8BFE6
:100244006D420CDD2C4480EA020281EA030382EA57
:10025400000083EA010180EA020281EA0303362DE9
:1002640088BF30BD11F0004F4FEA01314FF4801CBC
:100274004CEA113102D0404261EB410113F0004FCE
:100284004FEA03334CEA133302D0524263EB430385
:1002940094EA050F00F0A780A4F10104D5F1200E23
:1002A4000DDB02FA0EFC22FA05F2801841F100017E
:1002B40003FA0EF2801843FA05F359410EE0A5F152
:1002C40020050EF1200E012A03FA0EFC28BF4CF083
:1002D400020C43FA05F3C01851EBE37101F0004539
:1002E40007D54FF0000EDCF1000C7EEB00006EEB46
:1002F4000101B1F5801F1BD3B1F5001F0CD34908D0
:100304005FEA30004FEA3C0C04F101044FEA445226
:1003140012F5800F80F09A80BCF1004F08BF5FEAAD
:10032400500C50F1000041EB045141EA050130BD8D
:100334005FEA4C0C404141EB010111F4801FA4F130
:100344000104E9D191F0000F04BF01460020B1FA85
:1003540081F308BF2033A3F10B03B3F120020CDABD
:100364000C3208DD02F1140CC2F10C0201FA0CF09B
:1003740021FA02F10CE002F11402D8BFC2F1200C00
:1003840001FA02F120FA0CFCDCBF41EA0C019040B6
:10039400E41AA2BF01EB0451294330BD6FEA0404FF
:1003A4001F3C1CDA0C340EDC04F11404C4F12002EA
:1003B40020FA04F001FA02F340EA030021FA04F3FC
:1003C40045EA030130BDC4F10C04C4F1200220FA53
:1003D40002F001FA04F340EA0300294630BD21FA91
:1003E40004F0294630BD94F0000F83F4801306BF57
:1003F40081F480110134013D4EE77FEA645C18BF4B
:100404007FEA655C29D094EA050F08BF90EA020FE1
:1004140005D054EA000C04BF1946104630BD91EAD9
:10042400030F1EBF0021002030BD5FEA545C05D1DC
:100434004000494128BF41F0004130BD14F580041B
:100444003CBF01F5801130BD01F0004545F0FE418F
:1004540041F470014FF0000030BD7FEA645C1ABFC4
:10046400194610467FEA655C1CBF0B46024650EAFB
:10047400013406BF52EA033591EA030F41F4002127
:1004840030BD00BF90F0000F04BF0021704730B5AD
:100494004FF4806404F132044FF000054FF0000182
:1004A40050E700BF90F0000F04BF0021704730B543
:1004B4004FF4806404F1320410F0004548BF404218
:1004C4004FF000013EE700BF42004FEAE2014FEA6D
:1004D40031014FEA02701FBF12F07F4393F07F4F48
:1004E40081F06051704732F07F4208BF704793F04B
:1004F4007F4F04BF41F40021704730B54FF460745E
:1005040001F0004521F000411CE700BF50EA010260
:1005140008BF704730B54FF000050AE050EA010209
:1005240008BF704730B511F0004502D5404261EB79
:1005340041014FF4806404F132045FEA915C3FF4BA
:10054400D8AE4FF003025FEADC0C18BF03325FEA57
:10055400DC0C18BF033202EBDC02C2F1200300FA08
:1005640003FC20FA02F001FA03FE40EA0E0021FA2D
:1005740002F11444BDE600BF70B54FF0FF0C4CF41B
:10058400E06C1CEA11541DBF1CEA135594EA0C0FCD
:1005940095EA0C0F00F0DEF82C4481EA030621EA08
:1005A4004C5123EA4C5350EA013518BF52EA033543
:1005B40041F4801143F4801338D0A0FB02CE4FF0F5
:1005C4000005E1FB02E506F00042E0FB03E54FF025
:1005D4000006E1FB03569CF0000F18BF4EF0010E1D
:1005E400A4F1FF04B6F5007F64F5407404D25FEA19
:1005F4004E0E6D4146EB060642EAC62141EA5551CC
:100604004FEAC52040EA5E504FEACE2EB4F1FD0C0D
:1006140088BFBCF5E06F1ED8BEF1004F08BF5FEA8B
:10062400500E50F1000041EB045170BD06F000463D
:1006340046EA010140EA020081EA0301B4EB5C04EA
:10064400C2BFD4EB0C0541EA045170BD41F48011E2
:100654004FF0000E013C00F3AB8014F1360FDEBF07
:10066400002001F0004170BDC4F10004203C35DAE3
:100674000C341BDC04F11404C4F1200500FA05F366
:1006840020FA04F001FA05F240EA020001F0004207
:1006940021F0004110EBD37021FA04F642EB06017D
:1006A4005EEA430E08BF20EAD37070BDC4F10C04A7
:1006B400C4F1200500FA04F320FA05F001FA04F26B
:1006C40040EA020001F0004110EBD37041F1000157
:1006D4005EEA430E08BF20EAD37070BDC4F1200562
:1006E40000FA05F24EEA020E20FA04F301FA05F2CA
:1006F40043EA020321FA04F001F0004121FA04F272
:1007040020EA020000EBD3705EEA430E08BF20EA41
:10071400D37070BD94F0000F0FD101F0004640007B
:1007240041EB010111F4801F08BF013CF7D041EAFD
:10073400060195F0000F18BF704703F00046520001
:1007440043EB030313F4801F08BF013DF7D043EAD2
:100754000603704794EA0C0F0CEA135518BF95EA88
:100764000C0F0CD050EA410618BF52EA4306D1D10F
:1007740081EA030101F000414FF0000070BD50EA2E
:10078400410606BF1046194652EA430619D094EAB8
:100794000C0F02D150EA013613D195EA0C0F05D1A2
:1007A40052EA03361CBF104619460AD181EA0301F6
:1007B40001F0004141F0FE4141F470014FF00000AE
:1007C40070BD41F0FE4141F4780170BD70B54FF049
:1007D400FF0C4CF4E06C1CEA11541DBF1CEA1355C9
:1007E40094EA0C0F95EA0C0F00F0A7F8A4EB0504AB
:1007F40081EA030E52EA03354FEA013100F08880A2
:100804004FEA03334FF0805545EA131343EA12636A
:100814004FEA022245EA111545EA10654FEA00261F
:100824000EF000419D4208BF964244F1FD0404F5D8
:10083400407402D25B084FEA3202B61A65EB030534
:100844005B084FEA32024FF480104FF4002CB6EBF1
:10085400020E75EB030E22BFB61A754640EA0C0071
:100864005B084FEA3202B6EB020E75EB030E22BFB1
:10087400B61A754640EA5C005B084FEA3202B6EBF2
:10088400020E75EB030E22BFB61A754640EA9C00B1
:100894005B084FEA3202B6EB020E75EB030E22BF81
:1008A400B61A754640EADC0055EA060E18D04FEA3F
:1008B400051545EA16754FEA06164FEAC30343EADF
:1008C40052734FEAC2025FEA1C1CC0D111F4801FAC
:1008D4000BD141EA00014FF000004FF0004CB6E7A5
:1008E40011F4801F04BF01430020B4F1FD0C88BF44
:1008F400BCF5E06F3FF6AFAEB5EB030C04BFB6EB4F
:10090400020C5FEA500C50F1000041EB045170BD41
:100914000EF0004E4EEA113114EB5C04C2BFD4EB6E
:100924000C0541EA045170BD41F480114FF0000EF2
:10093400013C90E645EA060E8DE60CEA135594EA6E
:100944000C0F08BF95EA0C0F3FF43BAF94EA0C0F71
:100954000AD150EA01347FF434AF95EA0C0F7FF4E6
:1009640025AF104619462CE795EA0C0F06D152EA3A
:1009740003353FF4FDAE1046194622E750EA41061E
:1009840018BF52EA43067FF4C5AE50EA41047FF42F
:100994000DAF52EA43057FF4EBAE12E74FEA410292
:1009A40012F5001215D211D56FF47873B3EB6252BD
:1009B40012D94FEAC12343F0004343EA505311F0E4
:1009C400004F23FA02F018BF404270474FF0000076
:1009D400704750EA013005D111F0004008BF6FF0B4
:1009E400004070474FF00000704700BF53B94AB948
:1009F400002908BF00281CBF4FF0FF314FF0FF3023
:100A040000F072B9ADF1080C6DE904CE00F006F8FF
:100A1400DDF804E0DDE9022304B070472DE9F04776
:100A2400089E04468846002B4BD18A42154667D956
:100A3400B2FA82F24AB1C2F1200701FA02F320FAB3
:100A440007F7954047EA030894404FEA154E230CF4
:100A5400B8FBFEF71FFA85FC0EFB178843EA084330
:100A640007FB0CF1994209D9EB1807F1FF3080F02C
:100A74001B81994240F21881023F2B445B1AA4B2B5
:100A8400B3FBFEF00EFB103344EA034400FB0CFC02
:100A9400A44509D92C1900F1FF3380F00781A4453E
:100AA40040F2048102382C4440EA0740A4EB0C04D1
:100AB40000271EB1D4400023C6E900433946BDE8EF
:100AC400F0878B4209D9002E00F0EB800027C6E99D
:100AD400000138463946BDE8F087B3FA83F7002FA2
:100AE40047D18B4202D3824200F2FA80841A61EB2E
:100AF400030301209846002EE0D0C6E90048DDE754
:100B040002B9FFDEB2FA82F2002A40F08F80491B5C
:100B14004FEA154E1FFA85F80127B1FBFEFC230CA2
:100B24000EFB1C1143EA014308FB0CF1994207D95F
:100B3400EB180CF1FF3002D2994200F2CD808446CA
:100B4400591AA3B2B1FBFEF00EFB101443EA04449D
:100B540008FB00F8A04507D92C1900F1FF3302D295
:100B6400A04500F2B6801846A4EB080440EA0C4005
:100B74009FE7C7F1200CBB4022FA0CFE4EEA030E9D
:100B840001FA07F420FA0CF521FA0CF34FEA1E4897
:100B94002543B3FBF8F92C0C08FB19331FFA8EFA22
:100BA40044EA034309FB0AF49C4202FA07F200FAFE
:100BB40007F10BD91EEB030309F1FF3080F08780A6
:100BC4009C4240F28480A9F1020973441B1BADB21C
:100BD400B3FBF8F008FB103345EA034400FB0AFAC0
:100BE400A24508D91EEB040400F1FF336BD2A245E1
:100BF40069D90238744440EA0940A0FB0289A4EB95
:100C04000A044C45C2464B4654D351D0002E69D0F9
:100C1400B1EB0A0564EB030404FA0CFCFD40FC4050
:100C24004CEA0505C6E90054002747E7C2F1200352
:100C340020FA03F7954001FA02F021FA03F34FEA90
:100C4400154E3843010CB3FBFEF71FFA85F80EFB73
:100C5400173341EA034107FB08F38B4204FA02F419
:100C640007D9691807F1FF3C2FD28B422DD9023FD7
:100C74002944CB1A81B2B3FBFEF00EFB103341EAD8
:100C8400034100FB08F38B4207D9691800F1FF3CCC
:100C940017D28B4215D902382944C91A40EA0747AA
:100CA4003BE73746304609E70746E7E61846FBE6E2
:100CB4004145ABD2B8EB020A69EB0E020138134688
:100CC400A4E76046E9E7184695E76746D1E7814619
:100CD4007CE702382C4447E7ACF1020C2B442FE7A5
:100CE400384608E73746E9E6704700BF70B50E4B53
:100CF4000E4D1B682A7806464FF47A70B0FBF2F06A
:100D0400B3FBF0F000F0F0FE08B90F2E01D901207A
:100D140070BD0446024631464FF0FF3000F0A2FE9B
:100D24006E60204670BD00BF080000200000002057
:100D340008B50B4B1A6842F400721A601A6842F440
:100D440080621A601A6842F480721A60032000F00C
:100D540077FE0020FFF7CAFF02F0D0FC002008BD98
:100D6400003C0240034A044B11681B780B44136097
:100D7400704700BF3800002000000020014B1868B5
:100D8400704700BF38000020002800F08E80F8B5BE
:100D9400036C0446002B7ED0236CDB0604D50023B1
:100DA400012084F83C30F8BD226C4C4923684C4D3A
:100DB40022F4885222F0020242F0020222644A68BB
:100DC40022F440324A604A68606802434A605868C4
:100DD4002169A768E66820F4807058605A6842EA7E
:100DE40001225A60586820F0407058605968A06A1F
:100DF40039435960996821F4006199609A68A8425E
:100E040042EA06029A6052D09968E56A21F070615C
:100E140099609A6810439860996821F040519960EC
:100E24009A682A439A609968A569206A21F00201A8
:100E340099609A6842EA45029A605A6800283FD14C
:100E440022F400625A60DA6AE569276B666922F463
:100E54007002DA62D86A013D40EA0550D8629868A7
:100E640020F400709860996841EA47219960996874
:100E740021F4806199609A68002042EA86229A608F
:100E84006064236C23F0030343F001032364002311
:100E940084F83C30F8BD436480F83C3002F078FCC0
:100EA400236CDB063FF57BAF7EE7012070479A6831
:100EB40022F070629A609A6822F040529A60B2E717
:100EC40042F40062616A5A605A6822F460425A60CD
:100ED4005A68013942EA41325A60B4E700230140BA
:100EE4000100000FF0B590F83C3083B00024012BD2
:100EF400019469D00568AB680124DE0780F83C40A2
:100F040014D4334B334E1C68AB68A6FB0464A40CA6
:100F140043F0010304EB4404AB600194019B2BB147
:100F2400019C013C0194019C002CF9D1AB68DC07C5
:100F34003DD5046C24F4E06424F0010444F480748A
:100F440004646B685B0505D5036C23F4405343F4D8
:100F540080530364036C204E13F480531CBF436C12
:100F640023F0060343640446806B134600271B4AA0
:100F740084F83C70C6630264194EC6646FF02202A2
:100F84002A606E6846F080666E60AE6846F48076CD
:100F94000A46AE6005F14C0100F06CFE114B5B6833
:100FA40013F01F0F236805D00F4A934202D000208C
:100FB40003B0F0BD986810F04050F8D19A6842F040
:100FC40080429A6003B0F0BD022003B0F0BD00BFC0
:100FD4000800002083DE1B43F10F000851100008B5
:100FE400911100080023014000200140836B1A6C1A
:100FF40012F0500F02D09B6BDB6C18471A6C196807
:1010040042F4007210B51A648A6812F0405F17D176
:101014009A69AAB9CA6A12F4700F02D08A68500594
:101024000ED44A6822F020024A601A6C22F48072BC
:101034001A641A6CD20403D41A6C42F001021A64C2
:10104400184601F0B5FF10BD704700BF08B5806BAE
:10105400FFF7FAFF08BD00BF704700BF704700BF2D
:1010640038B503681A6859680446900701D58A069A
:1010740053D41A685968520701D50D061BD41A684F
:101084005968D00701D54A0606D41A6859689006EB
:1010940001D54A0169D438BD1A68D507F5D5236C42
:1010A40043F4803323642046FFF7D6FF23686FF0B0
:1010B40001021A60E9E7226CD00603D4226C42F4E0
:1010C400005222649A6812F4401F1ED19A6B12F4E3
:1010D400401F02D09A68510517D45A68520514D497
:1010E4009A6812F0405F10D1A26972B95A6822F06E
:1010F40080025A60236C23F480532364236CDD053F
:1011040003D4236C43F001032364204600F0F6F873
:1011140023686FF00C021A60B1E7226CD50603D481
:10112400226C42F4007222649A6812F0405F14D177
:10113400A26992B9DA6A12F4700F23D15A6822F0C4
:1011440020025A60236C23F480732364236CD90433
:1011540003D4236C43F001032364204601F028FFE9
:1011640023686FF012021A6083E7626C6FF0200547
:1011740042F00202626420461D60FFF76FFF23689D
:101184001D6038BD9A685005E7D4D7E7806B08B571
:1011940040230364436C43F004034364FFF75EFF9E
:1011A40008BD00BFF0B490F83C3082B00022012B9F
:1011B400019200F08D800D688A6803680124092D6E
:1011C400AFB280F83C4029D81C6905EB45064FF0C6
:1011D400070C0CFA06FC24EA0C041C611C6902FAD4
:1011E40006F626431E614E68062E06EB86022AD8B2
:1011F400596B053A1F24944021EA04015963596B41
:1012040007FA02F20A435A63374A93422DD0002365
:1012140080F83C30184602B0F0BC704707EB470634
:10122400DC681E3E4FF0070C0CFA06FC24EA0C04A2
:10123400DC60DC6802FA06F62643DE604E68062EA1
:1012440006EB8602D4D90C2E2DD8A2F123041F213B
:101254001A6BA14022EA01021A63196B07FA04F21D
:101264000A431A63204A9342D1D1122D29D01F4B2D
:101274009D4231D11E491F4B4A681F4C42F4000263
:101284004A601B68A4FB03239B0C03EB83035B00F2
:101294000193019B002BBAD0019B013B0193019B5D
:1012A400002BF9D1B3E7A2F141011F24DA6A8C4083
:1012B40022EA0402DA62DC6A07FA01F22243DA6201
:1012C400A2E7D2F8043343F48003C2F804339EE760
:1012D400022002B0F0BC7047112D98D1044A536823
:1012E40043F40003536092E7002001401200001011
:1012F400002301400800002083DE1B43704700BF29
:1013040000287CD038B590F820300446002B73D0E8
:101314002268136823F002031360FFF72FFD0546CC
:1013240004E0FFF72BFD401B0A285CD823685A68A9
:101334009107F6D41A6842F001021A60FFF71EFD05
:10134400054604E0FFF71AFD401B0A284BD8236822
:101354005A68D207F6D5227E012A1A680CBF42F0D9
:10136400800222F080021A60627E012A1A680CBF91
:1013740042F0400222F040021A60A27E012A1A685A
:101384000CBF42F0200222F020021A60E27E012A01
:101394001A680CBF22F0100242F010021A60227F79
:1013A400012A1A680CBF42F0080222F008021A60EF
:1013B400627F012A1A680CBF42F0040222F0040280
:1013C4001A60D4E90221D4E904500A4361682A432B
:1013D400024301390A4301250021DA6108466162AA
:1013E40084F8205038BD636A052243F400336362F5
:1013F400012084F8202038BD02F014FA88E7012087
:10140400704700BF90F82030012B09D090F82030AD
:10141400022B05D0436A43F48023436201207047C2
:101424003B4BD3F8002242F00102F0B4C3F800228F
:10143400D3F8002222F47C52C3F80022D3F800220D
:10144400486A42EA0022C3F800224A69D3F81C52CF
:1014540001209040C4432540C3F81C52CD69002D9F
:1014640039D1D3F80C522540C3F80C52D200CF68BE
:101474008D888E680B8802F1804202F5C84245EAE5
:10148400074543EA0643C2F84052C2F844328B6926
:101494001F4A002B35D1D2F804322340C2F804325B
:1014A4000B693BBB1A4BD3F814221440C3F8144203
:1014B4000B6A012B05D1164AD2F81C321843C2F824
:1014C4001C02134AD2F8003223F001030020C2F8B0
:1014D4000032F0BC7047012DD9D1D3F80C5205432A
:1014E400C3F80C52D20002F180420F688D888E68D6
:1014F4008B89C2E7064AD2F814320343C2F8143285
:10150400D6E7D2F804320343C2F80432C8E700BF76
:101514000064004038B590F82030012B05D0436AB0
:1015240043F400234362012038BD0268022380F89B
:101534002030136823F0010313600446FFF71EFCF8
:10154400054604E0FFF71AFC401B0A2807D8236865
:101554005B6813F00103F5D16362184638BD636A12
:10156400052243F400336362012084F8202038BD4F
:1015740070B490F82040012C0AD090F82040022C3E
:1015840006D0436A43F480234362012070BC704751
:101594000468A5686D012DD5A0680125C0F301601C
:1015A40085401D608B688BBB0E68CD6800F1180305
:1015B4001B0145EA4655E5500D7D096900012318D4
:1015C400012DC3F8841105D1D3F8841141F480713D
:1015D400C3F8841104445168C4F88C111268C4F827
:1015E4008821D3F8802142F001020020C3F8802131
:1015F40070BC7047A5682E01CED4A568ED00CBD48D
:10160400436A43F4001343620120BFE7CD684E6888
:101614002B4300F118052D0143EAC6036351CBE7C0
:1016240090F82030012B05D090F82030022B01D007
:1016340000207047036898689A689B681201C0F399
:10164400806048BF0130DB00F3D50130704700BF34
:1016540090F82030012B05D090F82030022B01D0D7
:101664000020704703689B68890631EA030314BFAE
:1016740001200020704700BF2DE9F041044690F896
:10168400200001280AD094F82000022806D0636ABA
:1016940043F4802363620120BDE8F08126680029B9
:1016A40056D1F068850763D008013518D5F8B071B4
:1016B40007F004079760002F55D0D5F8B071FF08E4
:1016C4005760D5F8B0E1D5F8B4C1D5F8B471D5F800
:1016D400B4510644CEF3400ED6F8B881C7F30727B9
:1016E4000CF00F062D0CC2E903E6C2E9055783F896
:1016F400008022680244D2F8B821120A5A70226883
:101704000244D2F8B821120C9A7022680244D2F82A
:10171400B821120EDA7022680244D2F8BC211A7180
:1017240022680244D2F8BC21120A5A712268024487
:10173400D2F8BC21120C9A7122681044D0F8BC2152
:10174400120EDA71D9B1012921D00020BDE8F0814F
:101754000129A9D130698007A6D1636A43F4001333
:101764000846636298E7D5F8B0717F0D1760A8E763
:10177400636A43F4001363620120BDE8F0812268C8
:10178400D36843F020030846D360BDE8F0812268A3
:10179400136943F02003136100207DE790F82030A3
:1017A400012B05D090F82030022B01D00020704787
:1017B400036819B1186900F003007047D86800F095
:1017C4000300704790F82030012B09D090F82030A6
:1017D400022B05D0436A43F48023436201207047FF
:1017E400026853691943516100207047704700BF74
:1017F400704700BF704700BF704700BF704700BF0D
:10180400704700BF704700BF704700BF704700BFFC
:10181400704700BF704700BF704700BF2DE9F84F05
:1018240003685C69D3F804809F68D3F80CB0D3F8DC
:101834001090D3F818A014F00106054620D017F034
:1018440001060DD00122B9079A6000F1C7807A071A
:1018540000F1C88017F0080600F0DE804FF48056CF
:10186400FB050BD52B684FF48072B8059A6000F124
:10187400B180790540F1BE8046F40056FB0376D46E
:10188400230702D51BF0100F6BD1670703D51BF09C
:10189400080F40F09480A00703D52B68DB689907F4
:1018A40077D1620602D519F0100F54D1A30602D5E0
:1018B40019F0080F66D1E70603D52B681B69980752
:1018C4006BD1A10302D518F0100F6AD1E20302D53F
:1018D40018F0080F6CD1230434D518F0040F2B68CA
:1018E4002ED0E70504D51AF0010F18BF46F0010603
:1018F400A00504D51AF0020F18BF46F002066105D0
:1019040004D51AF0040F18BF46F00406220517D5B3
:101914001AF0700A14D0BAF1300F00F087806ED933
:10192400BAF1500F7FD0BAF1600F00F08280BAF1A3
:10193400400F01D146F040069A6922F070029A6184
:1019440004225A602EB16B6A1E436E622846FFF76A
:1019540063FFBDE8F88F2B68102246F480661A6195
:10196400A4E72B68102246F40076DA608DE72B6832
:101974004FF48032B8039A6028D4790335D546F4FD
:1019840000467DE72B6808221A612846FFF73EFFD0
:1019940091E72846FFF736FF83E72846FFF734FF31
:1019A4008FE72B6810225A602846FFF731FF8DE736
:1019B4002B6808225A602846FFF72CFF8BE72B6818
:1019C4000822DA60284601F0FDFD64E72846FFF7A7
:1019D40011FF55E72846FFF70BFF4FE7FFF706FF18
:1019E40000263DE74FF400663AE73A0310D546F483
:1019F400803645E73A0512D546F480463EE7BAF10B
:101A0400100F19D0BAF1200F96D146F0100693E7C3
:101A14002846FFF7F5FE33E7FFF7EEFE20E72846FA
:101A2400FFF7ECFE2AE746F0800685E746F020063D
:101A340082E746F480767FE746F008067CE700BF3D
:101A4400074AD3684FF6FF010B40000243F0BF631F
:101A540000F4E06043F400330343D360704700BFF5
:101A640000ED00E0184BDB68C3F3022330B4C3F18C
:101A74000705042D03F1040428BF0425062C19D9F5
:101A8400033B4FF0FF349C4022EA04044FF0FF3242
:101A9400AA4021EA020101FA03F2224312010028BA
:101AA400D2B20ADB00F1604000F5614080F8002307
:101AB40030BC704700242346E8E7044B00F00F00D5
:101AC40003441A7630BC704700ED00E0FCEC00E003
:101AD40000F01F0101234009024A8B4042F82030E4
:101AE400704700BF00E100E00138B0F1807F0ED202
:101AF400084B10B4084C5860F02084F823000022EE
:101B0400072110469A6019605DF8044B7047012064
:101B1400704700BF10E000E000ED00E0044A1368E5
:101B240004280CBF43F0040323F00403136070473C
:101B340010E000E0704700BF08B5FFF7FBFF08BDE9
:101B4400F8B50446FFF71AF9002C54D00222236892
:101B540084F835201A68002122F0010284F8341038
:101B640005461A6005E0FFF709F9401B05283BD834
:101B740023681A68D107F6D4D4E90126D4E90351BD
:101B8400324360691F682A43D4E906650A43024365
:101B9400216A354832432A430A43616A384004299A
:101BA40042EA000229D01A605A6922F0070211435E
:101BB400DAB22E485961103AA0FB021212092C49DC
:101BC40023F47F73895CE16523F00303032A88BF50
:101BD40004333F228A4001250021A36508469A6008
:101BE400616584F83550F8BD0323202262651846E8
:101BF40084F83530F8BD0120F8BDD4E90B01014368
:101C04000A43A56A1A605A6945F0040122F00702E2
:101C140011430028CCD07EB1B6F5005F16D0022D5A
:101C240003D9032DC4D1C201C2D501234022626568
:101C3400184684F83530F8BD012D03D0F3D3022DB6
:101C4400B6D1F0E7B0F1C07FB2D1EEE7032DAFD843
:101C540001A252F825F000BF2F1C00082B1C00081D
:101C64002F1C0008491C00083F8010F0ABAAAAAA48
:101C7400103B0008F0B490F83440012C39D090F8AF
:101C84003540866D0125AC4280F834502BD1046870
:101C94000227002580F8357045652568876825F496
:101CA4008025402F256063600ABFA260A160E160C7
:101CB400C16D18BFE2603F238B40026CB3602368A0
:101CC40043F016032360636943F0800363611AB130
:101CD400236843F008032360236843F0010323606F
:101CE4000020F0BC7047002380F83430F0BC0220A0
:101CF40070470220F0BC7047F0B583B00023876DB5
:101D04000193C36D3D68654908229A402A420446FE
:101D14000E6803D001680868400759D401229A402C
:101D24002A4203D021684969080674D404229A40DF
:101D34002A4203D021680968890766D410229A4090
:101D44002A4203D02168086800074BD420229A4015
:101D54002A4214D021680868C00610D5BA6094F8E5
:101D64003520052A63D00B6813F4802F0B687ED0CE
:101D7400190340F18980E36B0BB120469847636DEA
:101D840023B3636DDA071AD50523226884F8353046
:101D94001368434923F00103A1FB06161360B60A36
:101DA40002E01368DB0704D5019B0133B3420193BE
:101DB400F7D90022012384F8342084F83530E36C09
:101DC40023B1204603B0BDE8F040184703B0F0BD8E
:101DD400086820F004000860BA60626D42F00102F5
:101DE40062659BE7BA600A6812F4802F0A6818D10A
:101DF400D20503D40A6822F008020A60226C002A81
:101E0400A4D020469047E36DA0E7BA60626D42F02B
:101E14000402626592E7BA60626D42F00202626592
:101E240084E71103EAD5A26C002AEAD18EE70A6896
:101E3400206C22F016020A604A6922F080024A618C
:101E440038B30A6822F008020A603F22216D02FAC0
:101E540003F300200122BB6084F8340084F83520A9
:101E64000029B3D0204603B0BDE8F040084713F47E
:101E7400807380D10A68012022F010020A6084F87D
:101E8400343084F8350076E7636C002B7FF475AF4B
:101E940075E7A26C002AD4D1D7E700BF0800002060
:101EA400B5814E1B2DE9F04FDFF814C2DFF8148220
:101EB400D1F800E083B0002503E00135102D00F0D7
:101EC40094800123AB400EEA0304A342F5D14E688B
:101ED40026F0100ABAF1020F00F08A804FEA450991
:101EE4000322D0F800B002FA09F2D24306F0030745
:101EF40002EA0B0B07FA09F70AF1FF3A47EA0B0764
:101F0400BAF1010F076040F29980C7688B683A40C4
:101F140003FA09F31343C360F300CED500230193FE
:101F2400D8F8443043F48043C8F84430D8F84430F7
:101F340025F0030202F1804203F4804302F59C324F
:101F4400019305F00307019BD2F80890BF000F230B
:101F5400BB4029EA030A544B98421ED003F5806320
:101F640098427ED0514B984200F08280504B984268
:101F740000F085804F4B984200F088804E4B984289
:101F840000F08B804D4B98420CBF4FF006094FF088
:101F9400070909FA07F74AEA070AC2F808A0DCF8B1
:101FA4000030E243F70354BF13402343CCF800301E
:101FB400DCF80430B70354BF13402343CCF8043097
:101FC400DCF80830F70254BF13402343CCF8083040
:101FD400DCF80C30B60205F1010554BF134023436D
:101FE400102DCCF80C307FF46CAF03B0BDE8F08F4B
:101FF4004FEAD50900EB890905F00707D9F8202035
:10200400BF004FF00F0B0BFA07FB22EA0B0A0A6919
:10201400BA4042EA0A02C9F820204FEA45090322DD
:10202400D0F800A002FA09F2D24306F0030702EA4C
:102034000A0A07FA09F747EA0A070760876807EAFE
:10204400020ACF6807FA09F747EA0A078760D0F857
:1020540004A0C6F300172AEA0303AF401F434760F6
:1020640053E74FF0010909FA07F74AEA070A94E728
:102074004FF0020909FA07F74AEA070A8DE74FF019
:10208400030909FA07F74AEA070A86E74FF0040941
:1020940009FA07F74AEA070A7FE74FF0050909FA40
:1020A40007F74AEA070A78E70000024000080240FE
:1020B400000C0240001002400014024000180240CC
:1020C400003C0140003802400369194214BF01205A
:1020D4000020704702B9090481617047704700BF4E
:1020E400044A5169014200D1704708B55061FFF7B5
:1020F400F5FF08BD003C014060B1484A136803F095
:102104000F038B4208D2CBB21370136803F00F0392
:102114008B4201D00120704703682DE9F0419D07EF
:1021240014D55C0704D53E4CA26842F4E052A26088
:102134001A0704D53A4CA26842F46042A260384CB3
:102144008568A26822F0F0022A43A260DF070446F1
:102154000D4622D54268012A56D0931E012B304BDE
:102164001B6858D9990725D52D4EB36823F003036E
:102174001343B360FEF702FE41F28837804605E060
:10218400FEF7FCFDA0EB0800B84242D8B3686268D1
:1021940003F00C03B3EB820FF2D1204A136803F06F
:1021A4000F03AB4209D9EBB21370136803F00F03AA
:1021B400AB4202D00120BDE8F08123685A0706D55E
:1021C4001749E0688A6822F4E05202438A601B07D8
:1021D40011D400F051F8124B12499B68124AC3F310
:1021E4000313CB5C20FA03F300201360FEF77EFD9B
:1021F4000020BDE8F0810A4A2169936823F4604312
:1022040043EAC1039360E4E7054B1B689E03ABD428
:10221400D0E70320EDE79801A6D4CBE7003C0240C9
:1022240000380240183B000808000020014B1868E1
:10223400704700BF08000020044B054A9B6805490D
:10224400C3F382230868D35CD84070470038024047
:10225400283B000808000020044B054A9B680549F8
:10226400C3F342330868D35CD84070470038024057
:10227400283B000808000020284908B58B6803F0B3
:102284000C03082B07D00C2B1DD0254A2548042B02
:1022940018BF104608BD4A684B6813F4800302F067
:1022A4003F0230D149681E48C1F38811A1FB0001E7
:1022B400FEF79CFB194B5B68C3F3014301335B00DE
:1022C400B0FBF3F008BD4A684B6813F4800302F0D6
:1022D4003F020ED149681248C1F38811A1FB0001E5
:1022E400FEF784FB0D4B5B68C3F30273B0FBF3F0A2
:1022F40008BD4B680B48C3F38813A3FB00010023FC
:10230400FEF774FBEEE74B680648C3F38813A3FBA0
:1023140000010023FEF76AFBCCE700BF003802404F
:102324000024F40000127A002DE9F0410368DA0772
:1023340082B0044636D5AE498A6802F00C02042AFB
:1023440000F0D2808A6802F00C02082A00F0C880EB
:10235400A7498A6802F00C020C2A00F00481636821
:10236400B3F5803F00F00481B3F5A02F00F0608145
:102374009F4D2A6822F480322A602A6822F480223F
:102384002A60002B40F0F980FEF7F8FC064605E0D1
:10239400FEF7F4FC801B642800F20D812B6899037E
:1023A400F6D423689A072FD5914A916811F00C0F3F
:1023B40000F0AB80916801F00C01082900F0A180C5
:1023C4008B498A6802F00C020C2A00F02C81E36825
:1023D400002B00F01781874B854D01221A60FEF710
:1023E400CDFC064605E0FEF7C9FC801B022800F27E
:1023F400E2802B689807F6D52B68226923F0F8034E
:1024040043EAC2032B6023681A0715D56369002BBE
:1024140000F08D80784B764D01221A60FEF7AEFCF9
:10242400064605E0FEF7AAFC801B022800F2C380E2
:102434006B6F9B07F6D52368580731D56C4A136C2C
:1024440013F0805300F0838000266C4D2A68D10578
:1024540040F1A180A368012B00F0B180052B00F0AE
:10246400F780634D2A6F22F001022A672A6F22F057
:1024740004022A67002B40F0A780FEF77FFC41F29C
:102484008837804606E0FEF779FCA0EB0800B842E6
:1024940000F291802B6F9807F5D4002E40F0D28083
:1024A400A269CAB1524DA96801F00C01082924D0CF
:1024B400022A534A4FF00001116000F0D380FEF766
:1024C4005DFC2C46054604E0FEF758FC401B022840
:1024D40071D823689B01F7D4002002B0BDE8F081D5
:1024E4004A6857027FF534AF414A126895037FF575
:1024F40059AF6268002A7FF455AF012002B0BDE8ED
:10250400F081526857023FF55BAF394A126895076C
:1025140002D5E268012AF0D1354920690A6822F01F
:10252400F80242EAC0020A601A0785D56EE7324A09
:102534002F4D1360FEF722FC064604E0FEF71EFC56
:10254400801B022837D86B6F9F07F7D473E701937A
:10255400136C43F080531364136C03F080530193A2
:10256400019B012671E74A6856027FF5F8AEBBE786
:102574001F4A136843F480331360FEF7FFFB1C4DBE
:10258400064604E0FEF7FAFB801B642813D82B6888
:102594009803F7D505E72A6842F480722A60FEF7AB
:1025A400EDFB07462B68DA053FF554AFFEF7E6FB73
:1025B400C01B0228F6D9032002B0BDE8F0810C4A02
:1025C400136F43F001031367FEF7D8FB084D8046F1
:1025D40041F2883705E0FEF7D1FBA0EB0800B842D2
:1025E400E9D82B6F9B07F6D5002E3FF459AF29E0AD
:1025F4000038024000004742800E4742007000400D
:10260400600047422F4A304D1360FEF7B7FB064681
:1026140004E0FEF7B3FB801B0228CCD82B68990793
:10262400F7D42368F0E64A6856023FF5D0AE6CE76B
:10263400254B1A6842F480221A601A6842F48032E8
:102644001A609AE7204A136C23F08053136427E737
:102654001D4B1A6F42F004021A671A6F42F001020E
:102664001A67B1E7FEF78AFB064604E0FEF786FB2D
:10267400801B02289FD82B689901F7D4D4E907322C
:10268400666AE06A216B1343A26A0F4C43EA86131D
:1026940043EA0063520843EA0173013A0B4943EAEF
:1026A400024301226B600A60FEF768FB054605E001
:1026B400FEF764FB401B02283FF67DAF23689A01B6
:1026C400F6D509E70000474200380240600047425F
:1026D4000168022210B480F839200A6801240346F4
:1026E40022430A60002083F839405DF8044B7047A8
:1026F4000368DA6842F00102DA601A6842F0010203
:102704001A600020704700BF90F83830012B67D062
:1027140002220368F0B480F839209A680C6822F425
:102724007F4222F077020125402C80F838509A60CD
:1027340000F0938018D9702C7FD02BD9B4F5805F2A
:1027440076D0B4F5005F1CD1D1E90152CC68996808
:102754002A4342EA042221F47F410A439A609A6898
:1027640042F480429A600CE0102C42D02FD9202CE5
:1027740038D0302C05D19A6822F0700242F037022A
:102784009A600023012280F8392080F83830F0BCA8
:1027940018467047502C33D0602CF2D11C6A4D6817
:1027A400CE6824F010041C6299691A6A21F47041FD
:1027B40022F0A00242EA051241EA063199611A6246
:1027C4009A6822F0700242F067029A60D9E7002CFE
:1027D400D7D19A6822F0700242F007029A60D0E7DB
:1027E400022070479A6822F0700242F027029A6031
:1027F400C7E79A6822F0700242F017029A60C0E7B5
:102804001D6A1E6A4C68CF6826F001061E629A692A
:1028140025F00A0122F0F00242EA071221439A61EC
:1028240019629A6822F0700242F057029A60A8E78F
:102834009A6822F007029A60A3E7D1E90152CC68B2
:1028440099682A4342EA042221F47F410A439A60A8
:102854009A6842F077029A6093E71D6A1E6A4C6890
:10286400CF6826F001061E629A6925F00A0122F05B
:10287400F00242EA071221439A6119629A6822F02F
:10288400700242F047029A607BE700BF704700BFC6
:10289400704700BF704700BF704700BF03681A69E4
:1028A400910710B5044602D5DA6892075FD41A6915
:1028B400500702D5DA68510746D41A69120702D5BF
:1028C400DA6810072ED41A69D20602D5DA68D0065F
:1028D40018D41A69D10702D5DA68D2075DD41A6907
:1028E400100602D5DA6811065FD41A69520602D5B9
:1028F400DA68500661D41A69910602D5DA6892063C
:1029040043D410BD6FF010021A61DB69082213F47E
:10291400407F2276204664D0FFF7BAFF0022236866
:102924002276D6E76FF008021A61DB690422990760
:102934002276204652D1FFF7A9FF2046FFF7AAFFCF
:10294400002223682276BEE76FF004021A619B69B5
:10295400022213F4407F227620463CD1FFF796FFF3
:102964002046FFF797FF002223682276A5E76FF041
:1029740002021A619B6901229B07027625D0FFF7A8
:1029840087FF00222368227691E76FF02002204619
:102994001A61BDE8104000F0D5B86FF001021A6169
:1029A400204600F05BFE236899E76FF080021A610D
:1029B400204600F0C9F8236897E76FF040021A61D7
:1029C4002046FFF769FF236895E7FFF75FFF20467E
:1029D400FFF760FFD5E7FFF75BFFC4E7FFF758FF9A
:1029E400AEE7FFF753FF2046FFF754FF96E700BF1B
:1029F40070B4314D03688C680A68A8424FD0B0F1B6
:102A0400804F29D0A5F57C45A84234D005F58065D2
:102A1400A84230D005F58065A8422CD005F578454C
:102A2400A84228D005F57055A84213D005F5806555
:102A3400A8420FD005F58065A8420BD0A5F59835BE
:102A4400A84207D005F58065A84203D005F5806546
:102A5400A84209D1C96804E04D68C96823F070032D
:102A64002B4323F440730B430360C462826201234B
:102A7400436170BC70474D68CE6823F070032B43EC
:102A84000E4D23F440733343A8420360C462826250
:102A9400EDD10B6903630123436170BC70474E6839
:102AA400CD6823F07003334323F440732B43036056
:102AB400C4628262EDE700BF0000014000040140EF
:102AC400B8B190F8393010B503F0FF0204465BB199
:102AD400022384F839302068211DFFF789FF012380
:102AE40084F83930002010BD80F8382000F0CEFE84
:102AF400EEE70120704700BF90F83830012B1ED05C
:102B040002460220136870B482F839005C6824F02D
:102B14007004D1E900565C6058682843586098688E
:102B240020F0800098609968002401253143996061
:102B3400204682F8395082F8384070BC7047022031
:102B4400704700BF704700BF704700BF026811693B
:102B54002DE9F843C568836821F4405104462943AC
:102B640000691161D16865690343E06921F4164184
:102B74002B4321F00C0103430B43D3605369A16938
:102B840023F440730B43B0F5004F53619B4B00F0AB
:102B94009A809A4259D003F580639A4255D0FFF740
:102BA4004BFB974F636800EB800000EB80009B00B9
:102BB400B0FBF3F3A7FB03235B091D01FFF73CFB09
:102BC400666800EB800000EB8000B600B0FBF6F610
:102BD400FFF732FB636800EB800000EB80009B0092
:102BE400B0FBF3F3A7FB03235B094FF0640909FB74
:102BF40013631B013233A7FB03235B0903F0F006C5
:102C0400FFF71AFB626800EB800000EB8000930082
:102C1400B0FBF3F8FFF710FBD4E9002300EB8000CE
:102C24009B0000EB8000B0FBF3F0A7FB00304009F1
:102C340009FB10831B013233A7FB0313C3F34313B4
:102C440033432B449360BDE8F883FFF705FB6C4FD7
:102C5400636800EB800000EB80009B00B0FBF3F3A3
:102C6400A7FB03235B091D01FFF7F6FA666800EB77
:102C7400800000EB8000B600B0FBF6F6FFF7ECFA3C
:102C8400636800EB800000EB80009B00B0FBF3F373
:102C9400A7FB03234FF064095B0909FB13631B01C2
:102CA4003233A7FB03235B0903F0F006FFF7D4FAE2
:102CB400626800EB8000930000EB8000B0FBF3F847
:102CC400FFF7CAFAA8E79A4259D003F580639A42FB
:102CD40055D0FFF7B1FA4A4F636800EB800000EB70
:102CE40080005B00B0FBF3F3A7FB03235B091E0129
:102CF400FFF7A2FA656800EB800000EB80006D002E
:102D0400B0FBF5F5FFF798FA636800EB800000EB81
:102D140080005B00B0FBF3F3A7FB03235B094FF0D8
:102D2400640909FB1353DB003233A7FB03231B099C
:102D340003F4F875FFF780FA626800EB800000EB9B
:102D440080005300B0FBF3F8FFF776FAD4E90023D0
:102D540000EB800000EB80005B00B0FBF3F3A7FB0B
:102D640003135B0909FB1383DB003233A7FB031353
:102D7400C3F3421333442B449360BDE8F883FFF755
:102D84006BFA1F4F636800EB800000EB80005B0070
:102D9400B0FBF3F3A7FB03235B091E01FFF75CFA07
:102DA400656800EB800000EB80006D00B0FBF5F57A
:102DB400FFF752FA636800EB800000EB80005B00D1
:102DC400B0FBF3F3A7FB03234FF064095B0909FB92
:102DD4001353DB003233A7FB03231B0903F4F875F9
:102DE400FFF73AFA626800EB8000530000EB8000C2
:102DF400B0FBF3F8FFF730FAA8E700BF001001407A
:102E04001F85EB5160B338B590F83930044603F0B0
:102E1400FF0203B32268242384F83930D36823F4EF
:102E24000053D3602046FFF791FE23681A6922F409
:102E340090421A615A6922F02A025A61DA6800251E
:102E4400202142F40052DA602846E56384F8391000
:102E540084F83A1038BD80F8382000F067FDD9E7CF
:102E64000120704710B5D0E9001288B00023044651
:102E7400806902910692CDE904338DF81C30FEF787
:102E8400CFFB10B9002008B010BD0121A069FEF7E6
:102E9400DFFB0028F6D101AB04F10802A06902A906
:102EA400FEF766FB012008B010BD00BF10B500217D
:102EB40088B004468069FEF771FC30B104F1100358
:102EC400A06901AA0021FEF7D7FB019808B010BD44
:102ED4002DE9F041804600F118040069FDF7E2FA9B
:102EE400234608F1B002D3E90267E3E802679A4295
:102EF400F9D1C8E92C010026002704F1A005F4E863
:102F0400022330463946FDF781F9A54206460F46AD
:102F1400F5D10D4B0022FDF759FCFDF73FFDD8F824
:102F24000830C8F81000C01A00284FF06403B8BF76
:102F3400404203FB00F0D8F80C3090FBF3F0C8F8E3
:102F44000000BDE8F08100BF000034400368632B3B
:102F540016DD642303600B68632B18DD64230B60A8
:102F64000268D0F8B810D31A002BB8BF5B42092B03
:102F74000A6811DD506A642894BF0020012070475C
:102F8400052BDCBF002303600B68632BE6DC052BF9
:102F9400DCBF00230B60E3E700205062704700BFF2
:102FA40003694360704700BF03698360704700BFD3
:102FB40030B4064B064C0749074AD3E900509B68D6
:102FC40025610861136130BC704700BF6C090020A3
:102FD40058030020400000200001002070B594B088
:102FE4000020284A0090116C274B41F08051116455
:102FF400126C02F080520092009A01901A6842F416
:1030040040421A601B68012003F4404302240193E8
:103014004FF4A0254FF4800108224FF490730790D9
:1030240007A8019E08950D94CDE911441394CDE9A8
:103034000E121093FFF778F900B1FEE702464FF441
:10304400A0530F25042102A8CDE903420295CDE93E
:103054000533FFF751F8044600B1FEE7FFF7E6F841
:103064004FF47A73B0FBF3F0FEF73EFD0420FEF755
:1030740055FD224621464FF0FF30FEF7F3FC14B015
:1030840070BD00BF00380240007000402DE9804848
:10309400DFF80483DFF80493AB4BAC49AC4AAD4E84
:1030A400AD48AE4D40F62A5440F60157C8F80840E2
:1030B40029248DB0C8F80470C8F80C4040F63117C4
:1030C40040F6C214C9F80870C9F8044091270024D6
:1030D4004C6014601C705C709C70DC70C9F80C70DF
:1030E40034600460FDF724FEFFF778FF01942B6B36
:1030F4009B4843F004032B632B6B03F004030193FD
:10310400019B02942B6B43F080032B632B6B03F026
:1031140080030293029B03942B6B43F001032B6304
:103124002B6B03F001030393039B04942B6B43F079
:1031340002032B632B6B03F0020304932246012149
:10314400049BFEF7C7FF22464FF480718548FEF7C3
:10315400C1FF854B824809944FF4005207A9CDE979
:1031640007230126FEF79EFE07A97D48CDE9094401
:10317400CDE90766FEF796FE402307A97848079332
:103184004FF48077CDE90846FEF78CFE07A9744812
:103194000797CDE90844FEF785FE07A97148CDE9F4
:1031A4000776CDE90944FEF77DFE22462146282014
:1031B400FEF758FC2820FEF78BFC00942B6B43F49D
:1031C40080032B632B6B03F4800322462146009378
:1031D4003820009BFEF746FC3820FEF779FC634B51
:1031E400A5F5FA354FF4E1310C2218469C60C3E989
:1031F4000344C3E90644C3E900515A61FFF702FEE0
:1032040000B1FEE75A4C5B495B4A60600346032504
:103214002046A3602661A6612362E362E36026631D
:1032240066612160A262E561FDF7AEFD00B1FEE7D3
:103234000723079007A92046CDE90863FDF7B2FFED
:1032440000B1FEE74FF0020A07A92046CDE9076A5C
:10325400FDF7A8FF00B1FEE70423204607A908955F
:103264000793FDF79FFF00B1FEE7444F444BB8605E
:1032740038614AF2AA623B6038464FF47A737A6046
:10328400FB60FFF71DFC00B1FEE74FF4805307A974
:1032940038460793FFF738FA034600B1FEE705A95D
:1032A4003846CDE90533FFF727FC00B1FEE7354D7D
:1032B400354928764FF43022C5E9020068764FF488
:1032C4008003E876287768772846C5F804A0AE76A8
:1032D4002960C5E90423FEF713F800B1FEE72B4B80
:1032E4004FF08042986018614FF461611A6018468B
:1032F4004FF4FA725960DA60FFF7E2FB00B1FEE7BF
:103304004FF4805407A921480794FFF7FDF90346B9
:1033140000B1FEE705A91D48CDE90533FFF7ECFB35
:10332400034600B1FEE71A4E33611A4BB0604FF406
:103334006162336030464FF4FA737260F360FFF7F2
:10334400BFFB68B3FEE700BFA00800200807002009
:103354008808002004070020940800200038024058
:10336400000802400004024000001110E808002098
:10337400B8060020002001400100000F5006002084
:10338400000400402809002000640040AC0800202C
:1033940008050020000800405803002040000020D9
:1033A40007A930460794FFF7AFF9034600B1FEE7DB
:1033B40005A93046CDE90533FFF79EFB00B1FEE7D2
:1033C400DFF8F4B16C49CBF8080042F210725846A9
:1033D4004FF0120ACBF80C20CBF80010CBF804A065
:1033E400FFF76EFB024600B1FEE707A95846CDE998
:1033F4000722FFF781FB044600B1FEE702460146BF
:103404005046FEF72FFB5046FEF762FB224621464C
:103414001320FEF727FB1320FEF75AFB2246214612
:103424001420FEF71FFB1420FEF752FB2246214610
:103434001520FEF717FB1520FEF74AFB224621460E
:103444001620FEF70FFB1620FEF742FB224621460C
:103454001D20FEF707FB1D20FEF73AFB22462146FE
:103464001E20FEF7FFFA1E20FEF732FB22462146FD
:103474001C20FEF7F7FA1C20FEF72AFB3F4A4048BF
:10348400946101231146C2E90743C2E90044C2E939
:103494000244C2E90444FDF7B5FF3948DFF81CA132
:1034A400FEF738F814213648FEF78CF91521344814
:1034B400FEF788F93348FFF70BF93348FFF708F9AB
:1034C4003046FFF705F95846FFF702F92D48DFF8B3
:1034D400F0B0FFF70DF93046FFF70AF94FF08041DD
:1034E4002A4A2B4BC8F8B8702A4E4C622A4F5462B1
:1034F4004FF4FA71294CC2F824149D61284B2949D0
:10350400294800251D60294BCAF8005003221D607C
:10351400FDF7E8FC40212046FEF7D6FD01280346CE
:103524002A464FF0010120461ED0214B9D60FEF734
:10353400D1FDDAF80030304613B9DBF800304BB176
:103544001C490023C8F80030C9F800300B60144B44
:1035540001221A60FFF7BCFC3846FFF7B9FC394674
:103564003046FFF7F3FCC9E7114D1A461946AB6024
:10357400FEF7B0FDDDE700BF001400409006002018
:1035840028090020AC080020500600200004004058
:1035940038030020580300204000002000080240A7
:1035A400C80900206C090020B806002090080020FB
:1035B4002C000020040500208C090020CC090020E8
:1035C4008407002070B5214C2046FFF76FFCBB2810
:1035D40000D070BD258A9DB1B5F5807F24D01C48EC
:1035E4001C49D0E90125D1E90134521B1B1B002AD7
:1035F400B8BF5242002BB8BF5B42C260CB6070BD03
:103604001348FFF7D1FC1348FFF7CEFCBC22082374
:10361400C4E90023C4E902552046FFF723FC0E4BFE
:10362400258A01221A60D7E70948FFF7B9FC09483F
:10363400FFF7B6FC00260823BC2284E86C0003488C
:10364400FFF710FC044B1E60C9E700BF38030020DD
:1036540058030020400000200407002038B51E4B0A
:103664009842044603D01D4B9C421FD038BD1C4BCE
:103674001B68012BF7D01B491B4B1C481C4A0968CB
:103684000068126859720121197298729A7308219C
:1036940000221846B025C3E90051DA721A735A732E
:1036A400DA73FFF7DFFB0D4B9C42DFD1114A0E4B5F
:1036B4000F4992685A7202220D681A720022B024CD
:1036C40008219D735A819A81DA731846C3E900412F
:1036D400BDE83840FFF7C6BBAC0800200805002051
:1036E4000407002058030020380300204000002075
:1036F400C80900202C000020FEE700BF10B582B0EE
:103704000024224B00945A6C42F480425A645A6C4E
:1037140002F480420092009A01941A6C42F08052A2
:103724001A641B6C03F0805301930320019BFEF782
:1037340087F9224621466FF00B00FEF793F92246E3
:1037440021466FF00A00FEF78DF9224621466FF0FC
:103754000900FEF787F9224621466FF00400FEF7C0
:1037640081F9224621466FF00300FEF77BF92246D9
:1037740021466FF00100FEF775F9224621464FF00D
:10378400FF3002B0BDE81040FEF76CB900380240CB
:103794001F4B02689A4200D0704770B586B000266D
:1037A40003F58C3300965A6C1A4C42F480725A64B6
:1037B4005B6C039603F48073009313220323009934
:1037C400019201A9054614480293FEF76BFB134BC3
:1037D40023604FF480604FF480514FF480424FF4E3
:1037E4008073206120466660C4E90266C4E9086605
:1037F400C4E90512E361FEF7A3F918B9AC63A56344
:1038040006B070BD77210648FFF776FFF6E700BFE4
:10381400002001401C070020000002401064024008
:10382400303B00080268174B9A4200D07047F0B54D
:1038340087B0002703F5EA3300971A6C124842F068
:1038440000721A641B6C03F0007300934FF400625F
:1038540001A9022601230325009C01920924CDE934
:103864000263CDE90454FEF71DFB4FF4805301A914
:1038740005480193CDE90267CDE90454FEF712FB34
:1038840007B0F0BD00640040000002400368B3F1DB
:10389400804F84B016D0214A934230D0204A9342BC
:1038A4001FD0204A93420BD11F4B002203921A6C63
:1038B40042F020021A641B6C03F020030393039B61
:1038C40004B0704703F50E33002200921A6C42F0E4
:1038D40001021A641B6C03F001030093009B04B003
:1038E4007047114B002202921A6C42F004021A64CF
:1038F4001B6C03F004030293029B04B070470A4B51
:10390400002201921A6C42F002021A641B6C03F04A
:1039140002030193019B04B0704700BF0004004000
:103924000008004000140040003802400268114BB7
:103934009A4200D0704770B586B003F5FA3300227E
:1039440000921A6C0C4842F400321A641B6C0C216D
:1039540003F4003300930322072301910225012479
:1039640001A9009ECDE90254CDE90423FEF79AFA99
:1039740006B070BD0044004000000240704700BF24
:10398400FEE700BFFEE700BFFEE700BFFEE700BFA3
:10399400704700BF704700BF704700BF08B5FDF710
:1039A400E1F9BDE80840FEF7C7B800BF0148FDF7DC
:1039B40057BB00BFB80600200148FDF72FBF00BF6A
:1039C40028090020FFF7F8BFFFF7F6BFFFF7F4BFA1
:1039D4000148FEF763BF00BFAC0800200148FEF7B2
:1039E4005DBF00BF500600200148FEF757BF00BF6F
:1039F400080500204FF40050FEF772BB0148FEF7A3
:103A04007BB900BF1C0700201049114BD1F8882056
:103A140042F4700210B4C1F888201A680D4C0020DA
:103A240042F001021A6098601A6822F0847222F44B
:103A340080321A605C601A684FF0006422F48022BD
:103A44001A60D8608C605DF8044B704700ED00E0AC
:103A54000038024010300024DFF834D0002103E0A5
:103A64000C4B5B58435004310B480C4B42189A42A0
:103A7400F6D30B4A02E0002342F8043B094B9A4276
:103A8400F9D3FFF7C1FF00F011F8FFF7FFFA704711
:103A9400000002205C3B0008000000200C00002015
:103AA40010000020D0090020FEE7000070B50D4E84
:103AB4000D4CA41BA4100025A54209D10B4E0C4C9F
:103AC40000F018F8A41BA4100025A54205D170BD70
:103AD40056F8253098470135EEE756F825309847D3
:103AE4000135F2E7543B0008543B0008543B0008FE
:103AF400583B0008F8B500BFF8BC08BC9E467047A8
:0C3B0400F8B500BFF8BC08BC9E46704736
:103B1000000610160006101600000000000000004D
:103B20000102030406070809000000000102030463
:103B30002E2E2F5372632F73746D33326634787860
:0C3B40005F68616C5F6D73702E630000A5
:083B4C00D4CEFF7F0100000050
:043B5400E90100087B
:043B5800C50100089B
:0C3B5C0001000000100000000024F40034
:0400000508003A5D58
:00000001FF
