:020000040800F2
:100000000000022021580008F9560008FD5600089B
:1000100001570008055700080957000800000000B4
:100020000000000000000000000000000D57000864
:100030001157000800000000155700081957000864
:10004000715800087158000871580008715800086C
:10005000715800087158000871580008715800085C
:10006000715800087158000871580008715800084C
:10007000715800087158000871580008715800083C
:1000800071580008715800082957000835570008B2
:10009000415700084D57000859570008715800088B
:1000A0007158000865570008715800087158000819
:1000B00071570008715800087D57000871580008F2
:1000C00071580008715800087158000871580008EC
:1000D00071580008895700089557000871580008A2
:1000E00071580008715800087158000871580008CC
:1000F00071580008715800087158000871580008BC
:100100007158000871580008A1570008715800087C
:100110007158000871580008AD570008B957000819
:10012000C557000871580008715800087158000838
:10013000715800080000000000000000715800081D
:10014000715800087158000871580008715800086B
:10015000715800087158000871580008715800085B
:10016000715800087158000871580008715800084B
:10017000715800087158000871580008000000000C
:10018000000000007158000800000000000000009E
:1001900071580008000000000000000071580008BD
:1001A000000000000000000000000000715800087E
:1001B00071580008715800087158000871580008FB
:0401C000715800086A
:1001D00010B5054C237833B9044B13B10448AFF381
:1001E00000800123237010BD880300200000000060
:1001F0006C8E000808B5034B1BB103490348AFF3ED
:10020000008008BD000000008C0300206C8E0008F8
:1002100081F0004102E000BF83F0004330B54FEAB7
:1002200041044FEA430594EA050F08BF90EA020F24
:100230001FBF54EA000C55EA020C7FEA645C7FEAB7
:10024000655C00F0E2804FEA5454D4EB5555B8BFDA
:100250006D420CDD2C4480EA020281EA030382EA4B
:10026000000083EA010180EA020281EA0303362DDD
:1002700088BF30BD11F0004F4FEA01314FF4801CB0
:100280004CEA113102D0404261EB410113F0004FC2
:100290004FEA03334CEA133302D0524263EB430379
:1002A00094EA050F00F0A780A4F10104D5F1200E17
:1002B0000DDB02FA0EFC22FA05F2801841F1000172
:1002C00003FA0EF2801843FA05F359410EE0A5F146
:1002D00020050EF1200E012A03FA0EFC28BF4CF077
:1002E000020C43FA05F3C01851EBE37101F000452D
:1002F00007D54FF0000EDCF1000C7EEB00006EEB3A
:100300000101B1F5801F1BD3B1F5001F0CD34908C3
:100310005FEA30004FEA3C0C04F101044FEA44521A
:1003200012F5800F80F09A80BCF1004F08BF5FEAA1
:10033000500C50F1000041EB045141EA050130BD81
:100340005FEA4C0C404141EB010111F4801FA4F124
:100350000104E9D191F0000F04BF01460020B1FA79
:1003600081F308BF2033A3F10B03B3F120020CDAB1
:100370000C3208DD02F1140CC2F10C0201FA0CF08F
:1003800021FA02F10CE002F11402D8BFC2F1200CF4
:1003900001FA02F120FA0CFCDCBF41EA0C019040AA
:1003A000E41AA2BF01EB0451294330BD6FEA0404F3
:1003B0001F3C1CDA0C340EDC04F11404C4F12002DE
:1003C00020FA04F001FA02F340EA030021FA04F3F0
:1003D00045EA030130BDC4F10C04C4F1200220FA47
:1003E00002F001FA04F340EA0300294630BD21FA85
:1003F00004F0294630BD94F0000F83F4801306BF4B
:1004000081F480110134013D4EE77FEA645C18BF3E
:100410007FEA655C29D094EA050F08BF90EA020FD5
:1004200005D054EA000C04BF1946104630BD91EACD
:10043000030F1EBF0021002030BD5FEA545C05D1D0
:100440004000494128BF41F0004130BD14F580040F
:100450003CBF01F5801130BD01F0004545F0FE4183
:1004600041F470014FF0000030BD7FEA645C1ABFB8
:10047000194610467FEA655C1CBF0B46024650EAEF
:10048000013406BF52EA033591EA030F41F400211B
:1004900030BD00BF90F0000F04BF0021704730B5A1
:1004A0004FF4806404F132044FF000054FF0000176
:1004B00050E700BF90F0000F04BF0021704730B537
:1004C0004FF4806404F1320410F0004548BF40420C
:1004D0004FF000013EE700BF42004FEAE2014FEA61
:1004E00031014FEA02701FBF12F07F4393F07F4F3C
:1004F00081F06051704732F07F4208BF704793F03F
:100500007F4F04BF41F40021704730B54FF4607451
:1005100001F0004521F000411CE700BF50EA010254
:1005200008BF704730B54FF000050AE050EA0102FD
:1005300008BF704730B511F0004502D5404261EB6D
:1005400041014FF4806404F132045FEA915C3FF4AE
:10055000D8AE4FF003025FEADC0C18BF03325FEA4B
:10056000DC0C18BF033202EBDC02C2F1200300FAFC
:1005700003FC20FA02F001FA03FE40EA0E0021FA21
:1005800002F11444BDE600BF70B54FF0FF0C4CF40F
:10059000E06C1CEA11541DBF1CEA135594EA0C0FC1
:1005A00095EA0C0F00F0DEF82C4481EA030621EAFC
:1005B0004C5123EA4C5350EA013518BF52EA033537
:1005C00041F4801143F4801338D0A0FB02CE4FF0E9
:1005D0000005E1FB02E506F00042E0FB03E54FF019
:1005E0000006E1FB03569CF0000F18BF4EF0010E11
:1005F000A4F1FF04B6F5007F64F5407404D25FEA0D
:100600004E0E6D4146EB060642EAC62141EA5551BF
:100610004FEAC52040EA5E504FEACE2EB4F1FD0C01
:1006200088BFBCF5E06F1ED8BEF1004F08BF5FEA7F
:10063000500E50F1000041EB045170BD06F0004631
:1006400046EA010140EA020081EA0301B4EB5C04DE
:10065000C2BFD4EB0C0541EA045170BD41F48011D6
:100660004FF0000E013C00F3AB8014F1360FDEBFFB
:10067000002001F0004170BDC4F10004203C35DAD7
:100680000C341BDC04F11404C4F1200500FA05F35A
:1006900020FA04F001FA05F240EA020001F00042FB
:1006A00021F0004110EBD37021FA04F642EB060171
:1006B0005EEA430E08BF20EAD37070BDC4F10C049B
:1006C000C4F1200500FA04F320FA05F001FA04F25F
:1006D00040EA020001F0004110EBD37041F100014B
:1006E0005EEA430E08BF20EAD37070BDC4F1200556
:1006F00000FA05F24EEA020E20FA04F301FA05F2BE
:1007000043EA020321FA04F001F0004121FA04F265
:1007100020EA020000EBD3705EEA430E08BF20EA35
:10072000D37070BD94F0000F0FD101F0004640006F
:1007300041EB010111F4801F08BF013CF7D041EAF1
:10074000060195F0000F18BF704703F000465200F5
:1007500043EB030313F4801F08BF013DF7D043EAC6
:100760000603704794EA0C0F0CEA135518BF95EA7C
:100770000C0F0CD050EA410618BF52EA4306D1D103
:1007800081EA030101F000414FF0000070BD50EA22
:10079000410606BF1046194652EA430619D094EAAC
:1007A0000C0F02D150EA013613D195EA0C0F05D196
:1007B00052EA03361CBF104619460AD181EA0301EA
:1007C00001F0004141F0FE4141F470014FF00000A2
:1007D00070BD41F0FE4141F4780170BD70B54FF03D
:1007E000FF0C4CF4E06C1CEA11541DBF1CEA1355BD
:1007F00094EA0C0F95EA0C0F00F0A7F8A4EB05049F
:1008000081EA030E52EA03354FEA013100F0888095
:100810004FEA03334FF0805545EA131343EA12635E
:100820004FEA022245EA111545EA10654FEA002613
:100830000EF000419D4208BF964244F1FD0404F5CC
:10084000407402D25B084FEA3202B61A65EB030528
:100850005B084FEA32024FF480104FF4002CB6EBE5
:10086000020E75EB030E22BFB61A754640EA0C0065
:100870005B084FEA3202B6EB020E75EB030E22BFA5
:10088000B61A754640EA5C005B084FEA3202B6EBE6
:10089000020E75EB030E22BFB61A754640EA9C00A5
:1008A0005B084FEA3202B6EB020E75EB030E22BF75
:1008B000B61A754640EADC0055EA060E18D04FEA33
:1008C000051545EA16754FEA06164FEAC30343EAD3
:1008D00052734FEAC2025FEA1C1CC0D111F4801FA0
:1008E0000BD141EA00014FF000004FF0004CB6E799
:1008F00011F4801F04BF01430020B4F1FD0C88BF38
:10090000BCF5E06F3FF6AFAEB5EB030C04BFB6EB42
:10091000020C5FEA500C50F1000041EB045170BD35
:100920000EF0004E4EEA113114EB5C04C2BFD4EB62
:100930000C0541EA045170BD41F480114FF0000EE6
:10094000013C90E645EA060E8DE60CEA135594EA62
:100950000C0F08BF95EA0C0F3FF43BAF94EA0C0F65
:100960000AD150EA01347FF434AF95EA0C0F7FF4DA
:1009700025AF104619462CE795EA0C0F06D152EA2E
:1009800003353FF4FDAE1046194622E750EA410612
:1009900018BF52EA43067FF4C5AE50EA41047FF423
:1009A0000DAF52EA43057FF4EBAE12E74FEA410286
:1009B00012F5001215D211D56FF47873B3EB6252B1
:1009C00012D94FEAC12343F0004343EA505311F0D8
:1009D000004F23FA02F018BF404270474FF000006A
:1009E000704750EA013005D111F0004008BF6FF0A8
:1009F000004070474FF00000704700BF4FEA4102CF
:100A0000B2F1E04324BFB3F5001CDCF1FE5C0DD96C
:100A100001F0004C4FEAC0024CEA5070B2F1004FB6
:100A200040EB830008BF20F00100704711F0804FB9
:100A300021D113F13872BCBF01F00040704741F47E
:100A400080114FEA5252C2F11802C2F1200C10FA82
:100A50000CF320FA02F018BF40F001004FEAC12366
:100A60004FEAD32303FA0CFC40EA0C0023FA02F30A
:100A70004FEA4303CCE77FEA625307D150EA0133E0
:100A80001EBF4FF0FE4040F44000704701F00040B0
:100A900040F0FE4040F40000704700BF53B94AB92F
:100AA000002908BF00281CBF4FF0FF314FF0FF3076
:100AB00000F072B9ADF1080C6DE904CE00F006F853
:100AC000DDF804E0DDE9022304B070472DE9F047CA
:100AD000089E04468846002B4BD18A42154667D9AA
:100AE000B2FA82F24AB1C2F1200701FA02F320FA07
:100AF00007F7954047EA030894404FEA154E230C48
:100B0000B8FBFEF71FFA85FC0EFB178843EA084383
:100B100007FB0CF1994209D9EB1807F1FF3080F07F
:100B20001B81994240F21881023F2B445B1AA4B208
:100B3000B3FBFEF00EFB103344EA034400FB0CFC55
:100B4000A44509D92C1900F1FF3380F00781A44591
:100B500040F2048102382C4440EA0740A4EB0C0424
:100B600000271EB1D4400023C6E900433946BDE842
:100B7000F0878B4209D9002E00F0EB800027C6E9F0
:100B8000000138463946BDE8F087B3FA83F7002FF5
:100B900047D18B4202D3824200F2FA80841A61EB81
:100BA000030301209846002EE0D0C6E90048DDE7A7
:100BB00002B9FFDEB2FA82F2002A40F08F80491BB0
:100BC0004FEA154E1FFA85F80127B1FBFEFC230CF6
:100BD0000EFB1C1143EA014308FB0CF1994207D9B3
:100BE000EB180CF1FF3002D2994200F2CD8084461E
:100BF000591AA3B2B1FBFEF00EFB101443EA0444F1
:100C000008FB00F8A04507D92C1900F1FF3302D2E8
:100C1000A04500F2B6801846A4EB080440EA0C4058
:100C20009FE7C7F1200CBB4022FA0CFE4EEA030EF0
:100C300001FA07F420FA0CF521FA0CF34FEA1E48EA
:100C40002543B3FBF8F92C0C08FB19331FFA8EFA75
:100C500044EA034309FB0AF49C4202FA07F200FA51
:100C600007F10BD91EEB030309F1FF3080F08780F9
:100C70009C4240F28480A9F1020973441B1BADB26F
:100C8000B3FBF8F008FB103345EA034400FB0AFA13
:100C9000A24508D91EEB040400F1FF336BD2A24534
:100CA00069D90238744440EA0940A0FB0289A4EBE8
:100CB0000A044C45C2464B4654D351D0002E69D04D
:100CC000B1EB0A0564EB030404FA0CFCFD40FC40A4
:100CD0004CEA0505C6E90054002747E7C2F12003A6
:100CE00020FA03F7954001FA02F021FA03F34FEAE4
:100CF000154E3843010CB3FBFEF71FFA85F80EFBC7
:100D0000173341EA034107FB08F38B4204FA02F46C
:100D100007D9691807F1FF3C2FD28B422DD9023F2A
:100D20002944CB1A81B2B3FBFEF00EFB103341EA2B
:100D3000034100FB08F38B4207D9691800F1FF3C1F
:100D400017D28B4215D902382944C91A40EA0747FD
:100D50003BE73746304609E70746E7E61846FBE635
:100D60004145ABD2B8EB020A69EB0E0201381346DB
:100D7000A4E76046E9E7184695E76746D1E781466C
:100D80007CE702382C4447E7ACF1020C2B442FE7F8
:100D9000384608E73746E9E6704700BF034613F8D0
:100DA000012B002AFBD1181A0138704700000000FF
:100DB00001F0FF01102A2BDB10F0070F08D010F80C
:100DC000013B013A8B422DD010F0070F42B3F6D110
:100DD000F0B441EA012141EA014122F007047FF029
:100DE00000070023F0E80256083C85EA010586EA80
:100DF000010685FA47F5A3FA87F586FA47F6A5FABC
:100E000087F68EB9EED1F0BC01F0FF0102F00702C7
:100E100032B110F8013B013A83EA010313B1F8D172
:100E20000020704701387047002D06BF3546033853
:100E3000073815F0010F07D1013015F4807F02BF8C
:100E4000013015F4C03F0130F0BC0138704700BFDD
:100E50004FF0FF3C06E000BF4FF0010C02E000BF86
:100E60004FF0010C4DF804CD4FEA410C7FEA6C5C69
:100E70004FEA430C18BF7FEA6C5C1BD001B050EA0C
:100E8000410C0CBF52EA430C91EA030F02BF90EAF7
:100E9000020F0020704710F1000F91EA030F58BFB6
:100EA000994208BF90422CBFD8176FEAE37040F018
:100EB000010070474FEA410C7FEA6C5C02D150EAB6
:100EC000013C07D14FEA430C7FEA6C5CD6D152EA71
:100ED000033CD3D05DF8040B704700BF8446104636
:100EE00062468C461946634600E000BF01B5FFF735
:100EF000B7FF002848BF10F1000F01BD4DF808ED05
:100F0000FFF7F4FF0CBF012000205DF808FB00BFD5
:100F10004DF808EDFFF7EAFF34BF012000205DF82F
:100F200008FB00BF4DF808EDFFF7E0FF94BF01207C
:100F300000205DF808FB00BF4DF808EDFFF7CEFF7D
:100F400094BF012000205DF808FB00BF4DF808EDBC
:100F5000FFF7C4FF34BF012000205DF808FB00BF8D
:100F60004FEA410C7FEA6C5C02D150EA013C0AD1A5
:100F70004FEA430C7FEA6C5C02D152EA033C02D197
:100F80004FF0000070474FF0010070474A0011D247
:100F900012F5001211D20DD56FF47873B3EB6252D3
:100FA0000ED44FEAC12343F0004343EA505323FADF
:100FB00002F070474FF00000704750EA013002D154
:100FC0004FF0FF3070474FF00000704770B50E4B88
:100FD0000E4D1B682A7806464FF47A70B0FBF2F08B
:100FE000B3FBF0F000F052FE08B90F2E01D901203A
:100FF00070BD0446024631464FF0FF3000F004FE5B
:101000006E60204670BD00BFB001002000000020CF
:1010100008B50B4B1A6842F400721A601A6842F461
:1010200080621A601A6842F480721A60032000F02D
:10103000D9FD0020FFF7CAFF04F082F9002008BDA7
:10104000003C0240034A044B11681B780B441360B8
:10105000704700BFA404002000000020014B186866
:10106000704700BFA404002038B50446FFF7F6FF20
:10107000631C054602D0044B1B781C44FFF7EEFFAF
:10108000401BA042FAD338BD00000020002800F029
:101090008E80F8B5036C0446002B7ED0236CDB06F3
:1010A00004D50023012084F83C30F8BD226C4C4963
:1010B00023684C4D22F4885222F0020242F00202D0
:1010C00022644A6822F440324A604A6860680243F7
:1010D0004A6058682169A768E66820F48070586003
:1010E0005A6842EA01225A60586820F040705860FD
:1010F0005968A06A39435960996821F40061996080
:101100009A68A84242EA06029A6052D09968E56A53
:1011100021F0706199609A6810439860996821F095
:10112000405199609A682A439A609968A569206A33
:1011300021F0020199609A6842EA45029A605A6871
:1011400000283FD122F400625A60DA6AE569276B11
:10115000666922F47002DA62D86A013D40EA0550FD
:10116000D862986820F400709860996841EA472135
:101170009960996821F4806199609A68002042EA38
:1011800086229A606064236C23F0030343F001031A
:101190002364002384F83C30F8BD436480F83C307D
:1011A00004F018F9236CDB063FF57BAF7EE70120E6
:1011B00070479A6822F070629A609A6822F04052F2
:1011C0009A60B2E742F40062616A5A605A6822F497
:1011D00060425A605A68013942EA41325A60B4E7C3
:1011E000002301400100000F704700BF704700BF9F
:1011F00038B503681A6859680446900701D58A060D
:1012000053D41A685968520701D50D061BD41A68C1
:101210005968D00701D54A0606D41A68596890065D
:1012200001D54A0169D438BD1A68D507F5D5236CB4
:1012300043F4803323642046FFF7D6FF23686FF022
:1012400001021A60E9E7226CD00603D4226C42F452
:10125000005222649A6812F4401F1ED19A6B12F455
:10126000401F02D09A68510517D45A68520514D409
:101270009A6812F0405F10D1A26972B95A6822F0E0
:1012800080025A60236C23F480532364236CDD05B1
:1012900003D4236C43F001032364204600F0EAF8F2
:1012A00023686FF00C021A60B1E7226CD50603D4F4
:1012B000226C42F4007222649A6812F0405F14D1EA
:1012C000A26992B9DA6A12F4700F23D15A6822F037
:1012D00020025A60236C23F480732364236CD904A6
:1012E00003D4236C43F001032364204604F01CF86C
:1012F00023686FF012021A6083E7626C6FF02005BA
:1013000042F00202626420461D60FFF76FFF23680F
:101310001D6038BD9A685005E7D4D7E7F0B490F85F
:101320003C3082B00022012B019200F08D800D68CC
:101330008A6803680124092DAFB280F83C4029D89F
:101340001C6905EB45064FF0070C0CFA06FC24EA75
:101350000C041C611C6902FA06F626431E614E68E5
:10136000062E06EB86022AD8596B053A1F249440B4
:1013700021EA04015963596B07FA02F20A435A63DE
:10138000374A93422DD0002380F83C30184602B0F3
:10139000F0BC704707EB4706DC681E3E4FF0070CB9
:1013A0000CFA06FC24EA0C04DC60DC6802FA06F69F
:1013B0002643DE604E68062E06EB8602D4D90C2E3C
:1013C0002DD8A2F123041F211A6BA14022EA0102A9
:1013D0001A63196B07FA04F20A431A63204A93420C
:1013E000D1D1122D29D01F4B9D4231D11E491F4B07
:1013F0004A681F4C42F400024A601B68A4FB0323A6
:101400009B0C03EB83035B000193019B002BBAD081
:10141000019B013B0193019B002BF9D1B3E7A2F1A2
:1014200041011F24DA6A8C4022EA0402DA62DC6A93
:1014300007FA01F22243DA62A2E7D2F8043343F456
:101440008003C2F804339EE7022002B0F0BC70476C
:10145000112D98D1044A536843F40003536092E776
:10146000002001401200001000230140B0010020C4
:1014700083DE1B43704700BF00287CD038B590F84E
:1014800020300446002B73D02268136823F0020337
:101490001360FFF7E3FD054604E0FFF7DFFD401BA7
:1014A0000A285CD823685A689107F6D41A6842F073
:1014B00001021A60FFF7D2FD054604E0FFF7CEFDFA
:1014C000401B0A284BD823685A68D207F6D5227EDB
:1014D000012A1A680CBF42F0800222F080021A60D2
:1014E000627E012A1A680CBF42F0400222F04002DC
:1014F0001A60A27E012A1A680CBF42F0200222F074
:1015000020021A60E27E012A1A680CBF22F0100243
:1015100042F010021A60227F012A1A680CBF42F0C2
:10152000080222F008021A60627F012A1A680CBFC2
:1015300042F0040222F004021A60D4E90221D4E944
:1015400004500A4361682A43024301390A430125D2
:101550000021DA610846616284F8205038BD636A70
:10156000052243F400336362012084F8202038BD53
:1015700003F078FF88E70120704700BF90F8203023
:10158000012B09D090F82030022B05D0436A43F498
:1015900080234362012070473B4BD3F8002242F086
:1015A0000102F0B4C3F80022D3F8002222F47C52E6
:1015B000C3F80022D3F80022486A42EA0022C3F8A6
:1015C00000224A69D3F81C5201209040C4432540B0
:1015D000C3F81C52CD69002D39D1D3F80C522540E7
:1015E000C3F80C52D200CF688D888E680B8802F148
:1015F000804202F5C84245EA074543EA0643C2F87D
:101600004052C2F844328B691F4A002B35D1D2F8C0
:1016100004322340C2F804320B693BBB1A4BD3F8A7
:1016200014221440C3F814420B6A012B05D1164A48
:10163000D2F81C321843C2F81C02134AD2F8003206
:1016400023F001030020C2F80032F0BC7047012DE6
:10165000D9D1D3F80C520543C3F80C52D20002F191
:1016600080420F688D888E688B89C2E7064AD2F85F
:1016700014320343C2F81432D6E7D2F804320343DB
:10168000C2F80432C8E700BF0064004038B590F8E3
:101690002030012B05D0436A43F40023436201202C
:1016A00038BD0268022380F82030136823F001035C
:1016B00013600446FFF7D2FC054604E0FFF7CEFCBA
:1016C000401B0A2807D823685B6813F00103F5D193
:1016D0006362184638BD636A052243F400336362CF
:1016E000012084F8202038BD70B490F82040012CEF
:1016F0000AD090F82040022C06D0436A43F480239D
:101700004362012070BC70470468A5686D012DD547
:10171000A0680125C0F3016085401D608B688BBB0C
:101720000E68CD6800F118031B0145EA4655E550E7
:101730000D7D096900012318012DC3F8841105D11D
:10174000D3F8841141F48071C3F8841104445168C2
:10175000C4F88C111268C4F88821D3F8802142F0B3
:1017600001020020C3F8802170BC7047A5682E01DB
:10177000CED4A568ED00CBD4436A43F40013436292
:101780000120BFE7CD684E682B4300F118052D01FD
:1017900043EAC6036351CBE790F82030012B05D014
:1017A00090F82030022B01D0002070470368986821
:1017B0009A689B681201C0F3806048BF0130DB006B
:1017C000F3D50130704700BF90F82030012B05D0D1
:1017D00090F82030022B01D00020704703689B68EE
:1017E000890631EA030314BF01200020704700BFBF
:1017F0002DE9F041044690F8200001280AD094F821
:101800002000022806D0636A43F48023636201202B
:10181000BDE8F0812668002956D1F068850763D0BD
:1018200008013518D5F8B07107F004079760002F4C
:1018300055D0D5F8B071FF085760D5F8B0E1D5F8AC
:10184000B4C1D5F8B471D5F8B4510644CEF3400E06
:10185000D6F8B881C7F307270CF00F062D0CC2E9A4
:1018600003E6C2E9055783F8008022680244D2F8F3
:10187000B821120A5A7022680244D2F8B821120C18
:101880009A7022680244D2F8B821120EDA702268E7
:101890000244D2F8BC211A7122680244D2F8BC2159
:1018A000120A5A7122680244D2F8BC21120C9A71B1
:1018B00022681044D0F8BC21120EDA71D9B1012986
:1018C00021D00020BDE8F0810129A9D1306980072D
:1018D000A6D1636A43F400130846636298E7D5F81B
:1018E000B0717F0D1760A8E7636A43F40013636269
:1018F0000120BDE8F0812268D36843F02003084648
:10190000D360BDE8F0812268136943F020031361BE
:1019100000207DE790F82030012B05D090F8203092
:10192000022B01D000207047036819B1186900F03C
:1019300003007047D86800F00300704790F820302B
:10194000012B09D090F82030022B05D0436A43F4D4
:101950008023436201207047026853691943516133
:1019600000207047704700BF704700BF704700BF3E
:10197000704700BF704700BF704700BF704700BF8F
:10198000704700BF704700BF704700BF704700BF7F
:10199000704700BF2DE9F84F03685C69D3F80480F5
:1019A0009F68D3F80CB0D3F81090D3F818A014F0B7
:1019B0000106054625D017F0010640F09C804FF443
:1019C00000524FF48041F8050DD52B684FF480701C
:1019D0009860BB0500F1C780780500F1D7803A0513
:1019E00040F1E8800E46FB030BD52B684FF48032A4
:1019F000B8039A6000F1B380790340F1C98046F4DE
:101A00000046230702D51BF0100F6ED1670702D5E1
:101A10001BF0080F7FD1A00704D52B68DB6899075E
:101A200040F08E80620602D519F0100F57D1A30640
:101A300003D519F0080F40F08780E70604D52B681E
:101A40001B69980740F08780A10302D518F0100F9A
:101A500068D1E20302D518F0080F6AD1230435D506
:101A600018F0040F2B682FD0E70504D51AF0010FEA
:101A700018BF46F00106A00504D51AF0020F18BFE2
:101A800046F00206610504D51AF0040F18BF46F0AF
:101A90000406220518D51AF0700A15D0BAF1300FD5
:101AA00000F0968079D9BAF1500F00F08E80BAF12B
:101AB000600F00F09080BAF1400F01D146F040066F
:101AC0009A6922F070029A6104225A602EB16B6A00
:101AD0001E436E622846FFF75BFFBDE8F88F2B6858
:101AE000102246F480661A61A1E72B68102246F4A2
:101AF0000076DA608AE701229A60BB0737D47E0756
:101B00003DD417F0080659D04FF440524FF4A0418D
:101B10004FF4805657E72B680822DA60284603F016
:101B200051FB78E72B6810225A602846FFF72CFFFC
:101B30008FE72B6808225A602846FFF727FF8DE7BA
:101B40002846FFF71BFF6DE72B6808221A6128461D
:101B5000FFF718FF71E72846FFF712FF74E72846E2
:101B6000FFF704FF4DE72846FFF7FEFE3BE7FFF7D0
:101B7000F9FE00264FF400524FF4804123E74FF462
:101B800020524FF490414FF400661CE716462AE7B6
:101B90003A030BD546F4803633E7BAF1100F1DD067
:101BA000BAF1200F8CD146F0100689E72846FFF7DE
:101BB000E3FE26E72846FFF7DDFE14E7FFF7D8FE31
:101BC0004FF400524FF48041FDE646F0800677E77F
:101BD00046F0200674E746F4807671E746F0080682
:101BE0006EE700BF074AD3684FF6FF010B400002C3
:101BF00043F0BF6300F4E06043F400330343D36079
:101C0000704700BF00ED00E0184BDB68C3F3022310
:101C100030B4C3F10705042D03F1040428BF0425E3
:101C2000062C19D9033B4FF0FF349C4022EA0404F0
:101C30004FF0FF32AA4021EA020101FA03F22243E7
:101C400012010028D2B20ADB00F1604000F56140C9
:101C500080F8002330BC704700242346E8E7044B9B
:101C600000F00F0003441A7630BC704700ED00E02E
:101C7000FCEC00E000F01F0101234009024A8B4008
:101C800042F82030704700BF00E100E00138B0F1B9
:101C9000807F0ED2084B10B4084C5860F02084F8B6
:101CA00023000022072110469A6019605DF8044B5A
:101CB00070470120704700BF10E000E000ED00E039
:101CC000044A136804280CBF43F0040323F0040300
:101CD0001360704710E000E0704700BF08B5FFF7E1
:101CE000FBFF08BDF8B50446FFF7B8F9002C54D047
:101CF0000222236884F835201A68002122F00102AC
:101D000084F8341005461A6005E0FFF7A7F9401B78
:101D100005283BD823681A68D107F6D4D4E90126F0
:101D2000D4E90351324360691F682A43D4E9066548
:101D30000A430243216A354832432A430A43616A0F
:101D40003840042942EA000229D01A605A6922F078
:101D500007021143DAB22E485961103AA0FB021271
:101D600012092C4923F47F73895CE16523F0030396
:101D7000032A88BF04333F228A4001250021A3653E
:101D800008469A60616584F83550F8BD0323202227
:101D90006265184684F83530F8BD0120F8BDD4E9F5
:101DA0000B0101430A43A56A1A605A6945F0040110
:101DB00022F0070211430028CCD07EB1B6F5005FB7
:101DC00016D0022D03D9032DC4D1C201C2D50123DF
:101DD00040226265184684F83530F8BD012D03D0E5
:101DE000F3D3022DB6D1F0E7B0F1C07FB2D1EEE768
:101DF000032DAFD801A252F825F000BFCF1D000877
:101E0000CB1D0008CF1D0008E91D00083F8010F021
:101E1000ABAAAAAA888E000890F83530022B03D00E
:101E200080234365012070470268052380F8353020
:101E3000136823F00103136000207047F0B583B0EE
:101E40000023876D0193C36D3D68654908229A4060
:101E50002A4204460E6803D001680868400759D436
:101E600001229A402A4203D021684969080674D4A5
:101E700004229A402A4203D021680968890766D45F
:101E800010229A402A4203D02168086800074BD4E8
:101E900020229A402A4214D021680868C00610D532
:101EA000BA6094F83520052A63D00B6813F4802FAC
:101EB0000B687ED0190340F18980E36B0BB120469B
:101EC0009847636D23B3636DDA071AD5052322683B
:101ED00084F835301368434923F00103A1FB06164B
:101EE0001360B60A02E01368DB0704D5019B0133D7
:101EF000B3420193F7D90022012384F8342084F8F7
:101F00003530E36C23B1204603B0BDE8F0401847FC
:101F100003B0F0BD086820F004000860BA60626D8C
:101F200042F0010262659BE7BA600A6812F4802FF2
:101F30000A6818D1D20503D40A6822F008020A60A0
:101F4000226C002AA4D020469047E36DA0E7BA6037
:101F5000626D42F00402626592E7BA60626D42F01F
:101F60000202626584E71103EAD5A26C002AEAD175
:101F70008EE70A68206C22F016020A604A6922F095
:101F800080024A6138B30A6822F008020A603F22E0
:101F9000216D02FA03F300200122BB6084F83400B3
:101FA00084F835200029B3D0204603B0BDE8F040C6
:101FB000084713F4807380D10A68012022F01002D0
:101FC0000A6084F8343084F8350076E7636C002BBF
:101FD0007FF475AF75E7A26C002AD4D1D7E700BFB4
:101FE000B0010020B5814E1B2DE9F04FDFF814C27F
:101FF000DFF81482D1F800E083B0002503E001355A
:10200000102D00F094800123AB400EEA0304A3429C
:10201000F5D14E6826F0100ABAF1020F00F08A805E
:102020004FEA45090322D0F800B002FA09F2D24380
:1020300006F0030702EA0B0B07FA09F70AF1FF3A69
:1020400047EA0B07BAF1010F076040F29980C768B1
:102050008B683A4003FA09F31343C360F300CED50B
:1020600000230193D8F8443043F48043C8F8443047
:10207000D8F8443025F0030202F1804203F4804393
:1020800002F59C32019305F00307019BD2F80890FA
:10209000BF000F23BB4029EA030A544B98421ED0CD
:1020A00003F5806398427ED0514B984200F08280C5
:1020B000504B984200F085804F4B984200F088804A
:1020C0004E4B984200F08B804D4B98420CBF4FF026
:1020D00006094FF0070909FA07F74AEA070AC2F8A2
:1020E00008A0DCF80030E243F70354BF1340234359
:1020F000CCF80030DCF80430B70354BF134023435E
:10210000CCF80430DCF80830F70254BF1340234306
:10211000CCF80830DCF80C30B60205F1010554BFEC
:1021200013402343102DCCF80C307FF46CAF03B078
:10213000BDE8F08F4FEAD50900EB890905F00707E4
:10214000D9F82020BF004FF00F0B0BFA07FB22EA53
:102150000B0A0A69BA4042EA0A02C9F820204FEA8B
:1021600045090322D0F800A002FA09F2D24306F092
:10217000030702EA0A0A07FA09F747EA0A070760AB
:10218000876807EA020ACF6807FA09F747EA0A07E9
:102190008760D0F804A0C6F300172AEA0303AF4013
:1021A0001F43476053E74FF0010909FA07F74AEA6E
:1021B000070A94E74FF0020909FA07F74AEA070A03
:1021C0008DE74FF0030909FA07F74AEA070A86E79D
:1021D0004FF0040909FA07F74AEA070A7FE74FF0C8
:1021E000050909FA07F74AEA070A78E700000240FA
:1021F00000080240000C024000100240001402409F
:1022000000180240003C01400038024003691942B6
:1022100014BF01200020704702B909048161704792
:1022200060B1484A136803F00F038B4208D2CBB267
:102230001370136803F00F038B4201D00120704725
:1022400003682DE9F0419D0714D55C0704D53E4C89
:10225000A26842F4E052A2601A0704D53A4CA26880
:1022600042F46042A260384C8568A26822F0F00215
:102270002A43A260DF0704460D4622D54268012AA0
:1022800056D0931E012B304B1B6858D9990725D582
:102290002D4EB36823F003031343B360FEF7DEFE55
:1022A00041F28837804605E0FEF7D8FEA0EB080033
:1022B000B84242D8B368626803F00C03B3EB820FF4
:1022C000F2D1204A136803F00F03AB4209D9EBB2F5
:1022D0001370136803F00F03AB4202D00120BDE876
:1022E000F08123685A0706D51749E0688A6822F406
:1022F000E05202438A601B0711D400F051F8124BE0
:1023000012499B68124AC3F30313CB5C20FA03F310
:1023100000201360FEF75AFE0020BDE8F0810A4A53
:102320002169936823F4604343EAC1039360E4E7BF
:10233000054B1B689E03ABD4D0E70320EDE7980163
:10234000A6D4CBE7003C024000380240908E000843
:10235000B0010020014B1868704700BFB001002099
:10236000044B054A9B680549C3F382230868D35C84
:10237000D840704700380240A08E0008B00100200D
:10238000044B054A9B680549C3F342330868D35C94
:10239000D840704700380240A08E0008B0010020ED
:1023A000284908B58B6803F00C03082B07D00C2BC9
:1023B0001DD0254A2548042B18BF104608BD4A6881
:1023C0004B6813F4800302F03F0230D149681E4885
:1023D000C1F38811A1FB0001FEF760FB194B5B689C
:1023E000C3F3014301335B00B0FBF3F008BD4A685F
:1023F0004B6813F4800302F03F020ED14968124883
:10240000C1F38811A1FB0001FEF748FB0D4B5B688F
:10241000C3F30273B0FBF3F008BD4B680B48C3F382
:102420008813A3FB00010023FEF738FBEEE74B689F
:102430000648C3F38813A3FB00010023FEF72EFB1D
:10244000CCE700BF003802400024F40000127A00FC
:102450002DE9F0410368DA0782B0044636D5AE496B
:102460008A6802F00C02042A00F0D2808A6802F026
:102470000C02082A00F0C880A7498A6802F00C0202
:102480000C2A00F004816368B3F5803F00F00481FA
:10249000B3F5A02F00F060819F4D2A6822F48032AE
:1024A0002A602A6822F480222A60002B40F0F980FA
:1024B000FEF7D4FD064605E0FEF7D0FD801B64283C
:1024C00000F20D812B689903F6D423689A072FD563
:1024D000914A916811F00C0F00F0AB80916801F007
:1024E0000C01082900F0A1808B498A6802F00C02D7
:1024F0000C2A00F02C81E368002B00F01781874B39
:10250000854D01221A60FEF7A9FD064605E0FEF79B
:10251000A5FD801B022800F2E2802B689807F6D503
:102520002B68226923F0F80343EAC2032B60236877
:102530001A0715D56369002B00F08D80784B764D16
:1025400001221A60FEF78AFD064605E0FEF786FDC9
:10255000801B022800F2C3806B6F9B07F6D52368AF
:10256000580731D56C4A136C13F0805300F0838008
:1025700000266C4D2A68D10540F1A180A368012B8B
:1025800000F0B180052B00F0F780634D2A6F22F038
:1025900001022A672A6F22F004022A67002B40F00A
:1025A000A780FEF75BFD41F28837804606E0FEF724
:1025B00055FDA0EB0800B84200F291802B6F980700
:1025C000F5D4002E40F0D280A269CAB1524DA9685C
:1025D00001F00C01082924D0022A534A4FF00001CF
:1025E000116000F0D380FEF739FD2C46054604E06B
:1025F000FEF734FD401B022871D823689B01F7D4F5
:10260000002002B0BDE8F0814A6857027FF534AF80
:10261000414A126895037FF559AF6268002A7FF43A
:1026200055AF012002B0BDE8F081526857023FF576
:102630005BAF394A1268950702D5E268012AF0D1EA
:10264000354920690A6822F0F80242EAC0020A60AD
:102650001A0785D56EE7324A2F4D1360FEF7FEFC50
:10266000064604E0FEF7FAFC801B022837D86B6FA1
:102670009F07F7D473E70193136C43F080531364FF
:10268000136C03F080530193019B012671E74A68A4
:1026900056027FF5F8AEBBE71F4A136843F4803358
:1026A0001360FEF7DBFC1C4D064604E0FEF7D6FC8B
:1026B000801B642813D82B689803F7D505E72A6890
:1026C00042F480722A60FEF7C9FC07462B68DA05DF
:1026D0003FF554AFFEF7C2FCC01B0228F6D9032019
:1026E00002B0BDE8F0810C4A136F43F00103136799
:1026F000FEF7B4FC084D804641F2883705E0FEF74E
:10270000ADFCA0EB0800B842E9D82B6F9B07F6D5CB
:10271000002E3FF459AF29E0003802400000474244
:10272000800E474200700040600047422F4A304D03
:102730001360FEF793FC064604E0FEF78FFC801B57
:102740000228CCD82B689907F7D42368F0E64A68AA
:1027500056023FF5D0AE6CE7254B1A6842F4802252
:102760001A601A6842F480321A609AE7204A136CA1
:1027700023F08053136427E71D4B1A6F42F00402C5
:102780001A671A6F42F001021A67B1E7FEF766FC9A
:10279000064604E0FEF762FC801B02289FD82B68E7
:1027A0009901F7D4D4E90732666AE06A216B1343D2
:1027B000A26A0F4C43EA861343EA0063520843EAD5
:1027C0000173013A0B4943EA024301226B600A603C
:1027D000FEF744FC054605E0FEF740FC401B0228DE
:1027E0003FF67DAF23689A01F6D509E7000047421E
:1027F000003802406000474200283BD090F851204A
:10280000002370B502F0FF010446836262B31846EC
:10281000D4E90135D4E903212B4313436269E56907
:10282000266A0B431343A26921682B43022584F8CF
:102830005150334302F400750E682B43120C656A45
:1028400002F0040203432A4326F040060E600B60A8
:102850004A60CB69002223F400630125CB61104656
:10286000626584F8515070BD80F8501002F02EFE61
:10287000A06ACDE7012070472DE9F0410D4690F8A0
:102880005010012982B072D01E46012380F85030CA
:1028900004461746FEF7E2FB804694F85100C0B2AA
:1028A000012809D002200122002384F8512084F855
:1028B000503002B0BDE8F081002DF4D0002FF2D0EE
:1028C000A36820682563032284F85120B3F5004FE4
:1028D0004FF000026265A263A287C4E91022E78676
:1028E000A786E287024603D1036843F4804303606E
:1028F000036859063FD5E3686168B3F5006F00F0DF
:10290000B080002951D115F8013B0373E38E206894
:10291000013B9BB2E3860246711C31D0002E52D09F
:10292000E38E9BB273B183689A0755D4FEF796FB8A
:10293000A0EB080086424DD9E38E20689BB2024688
:10294000002BF0D1771C51D183689D07FCD583689B
:102950001A06FCD4A3682BB90193C368019383685A
:102960000193019B606D003018BF01209BE702209E
:1029700002B0BDE8F081036843F040030360BAE7AA
:10298000E38E9BB2002BDDD083689B07F8D515F84A
:10299000013B0373E38E2068013B9BB2E386E38E29
:1029A0009BB20246002BEFD1CCE7E38E9BB2012B0A
:1029B000B2D1A8E715F8013B0373E38E2068013B11
:1029C0009BB2E3860246E38E9BB2002BBAD08368AB
:1029D0009F07EFD4032066E715F8013B0373E38EEE
:1029E0002068013B9BB2E386024699E7836899071A
:1029F00013D4002E00F08A80FEF730FBA0EB080015
:102A0000864240F28280206802469BE7FEF726FB62
:102A1000A0EB08008642206804D983681B0699D57C
:102A2000002EF3D14368626823F0E003B2F5827FA1
:102A3000436000F09080A36AB3F5005F08D103689B
:102A40004DF6FF7213400360036843F400530360C4
:102A5000012084F85100636D202213436365626591
:102A600021E7002949D0E38E9BB2012B45D0771C8A
:102A700016D0002E2FD0E38E9BB2002B3FF462AF16
:102A80008368990731D4FEF7E9FAA0EB0800864283
:102A9000A0D9E38E20689BB20246002BF0D151E70B
:102AA000E38E9BB2002B3FF44DAF83689B07F7D5B5
:102AB00035F8023BC360E38E013B9BB2E386E38EB5
:102AC0009BB2002BF1D13DE735F8023BC360E38EAA
:102AD000013B9BB2E386E38E9BB2002B3FF432AF07
:102AE00083689B077FF576AFEEE735F8023BC3605E
:102AF000E38E013B9BB2E386BDE735F8023BC36042
:102B0000E38E013B9BB2E386B1E7226853686168BC
:102B100023F0E003B1F5827F536010D0A36AB3F5D0
:102B2000005F08D113684DF6FF710B401360136806
:102B300043F400531360012384F851304AE7A3683B
:102B4000B3F5004F02D0B3F5806FE7D1136823F0DF
:102B500040031360E2E7A368B3F5004F03D0B3F579
:102B6000806F7FF468AF036823F04003036062E77F
:102B70002DE9F04304464068B0F5827F0D4683B0EE
:102B800094F8501016461F4618D0012900F08D8089
:102B9000012384F85030FEF761FA804694F8510022
:102BA000C0B2012800F0858002200122002384F8B1
:102BB000512084F8503003B0BDE8F083A368002BA7
:102BC000E3D10423012984F851306ED0012384F825
:102BD0005030FEF743FA94F851306268DBB2012BB3
:102BE000804607D0B2F5827FDED1A1680029DBD113
:102BF000042BD9D1002D00F02881002E00F0258172
:102C000094F85130012B04BF052384F85130002182
:102C100023686165E687E6861868A563C4E9101134
:102C20004106A6872563A68603D4196841F04001B2
:102C30001960E168B1F5006F2E4600F06D81002A41
:102C400000F06281E28E92B2012A00F05D817B1C6D
:102C500040F0CB8023680121E28E92B222B9E28F4C
:102C600092B2002A00F0CE8071B1E28E92B25AB1D7
:102C70009A68900708D532781A73E28E2368013A71
:102C800092B20136E2860021E28F92B2002AE3D0AE
:102C90009A68D207E0D5DB682B70E28F2368013A8F
:102CA00092B20135E2870121D6E7022003B0BDE8E8
:102CB000F083002D3FF479AF002E3FF476AFA1688A
:102CC000A563042384F85130B1F5004F4FF00003A1
:102CD0006365A687E6872363A386C4E91033E3868A
:102CE00022685ED01368580603D4136843F040038B
:102CF0001360E368A3B97E1C3FD0002F5DD0E38F43
:102D00009BB2002B30D023689A68D00700F18D80E9
:102D1000FEF7A4F9A0EB08008742F0D8032044E7AF
:102D2000791C10D0002F58D0E38F9BB2E3B12368F9
:102D30009A68D20700F18180FEF790F9A0EB0800B5
:102D40008742F1D8EAE7E38F9BB26BB19368DF0764
:102D5000F9D5D36825F8023BE38F013B9BB2E387AB
:102D6000E38F9BB2002BF1D16368B3F5827F6ED005
:102D7000606D003018BF012017E7E38F9BB2002B76
:102D8000F2D023689A68D107F7D51B7B05F8013B81
:102D9000E38F013B9BB2E387E38F9BB2002BF0D123
:102DA000E2E7136823F4804313609BE71B7B05F87D
:102DB000013BE38F013B9BB2E387E38F9BB2002B88
:102DC000D2D023689A68D207A8D5EFE7D36825F850
:102DD000023BE38F013B9BB2E387E38F9BB2002B67
:102DE000C2D09368DB0799D5F0E74FF00109E38E75
:102DF0009BB2002B40F0C080E38F9BB2002B40F0D1
:102E0000BB802368781C2FD19A689107FCD59A68FB
:102E10001606FCD4A068002840F015810190DA68FD
:102E200001929B680193019BBFE61B7B05F8013B68
:102E3000E38F013B9BB2E38761E7DB6825F8023B48
:102E4000E38F013B9BB2E3876EE70120ADE6A36809
:102E5000B3F5004F02D0B3F5806F89D122681368B3
:102E600023F04003136083E79A68920728D437B1B0
:102E7000FEF7F4F8A0EB080087422368C2D85A682E
:102E8000616822F0E002B1F5827F5A6000F0DD80D7
:102E9000A26AB2F5005F08D11A684DF6FF710A40C8
:102EA0001A601A6842F400521A60012384F8513003
:102EB00034E7FEF7D3F8A0EB08008742236804D973
:102EC0009A681506A6D5002FF3D15A68616822F0DA
:102ED000E002B1F5827F5A6000F0C480A26AB2F5C8
:102EE000005F08D11A684DF6FF710A401A601A682F
:102EF00042F400521A60012084F85100636D2022D0
:102F000013436365626550E616F8012B1A73E38E6E
:102F1000013B9BB2E3869AE6002A58D0E28E92B239
:102F2000012A54D0791C5AD10121E28E92B222B9E1
:102F3000E28F92B2002A3FF465AF69B1E28E92B29D
:102F400052B19A68920707D536F8022BDA60E28E02
:102F5000013A92B2E2860021E28F92B2002AE4D0D6
:102F60009A68D007E1D5DA6825F8022BE28F013A9A
:102F700092B2E2870121D8E7B9F1000F0FD0E38EBA
:102F80009BB263B123689A68910708D532781A73A7
:102F9000E38E013B9BB20136E3864FF00009E38FDD
:102FA0009BB263B123689A68D20708D5DB682B709F
:102FB000E38F013B9BB20135E3874FF00109FEF738
:102FC0004DF8A0EB080087423FF611AFA6E636F8B1
:102FD000022BDA60E28E013A92B2E286A2E74FF06B
:102FE0000109E38E9BB223B9E38F9BB2002B3FF420
:102FF00008AFB9F1000F0FD0E38E9BB263B1236825
:103000009A68920708D536F8022BDA60E38E013B06
:103010009BB2E3864FF00009E38F9BB263B1236854
:103020009A68D00708D5DB6825F8023BE38F013B9F
:103030009BB2E3874FF00109FEF710F8A0EB080000
:103040008742CED86AE60020AFE5A268B2F5004F0D
:1030500003D0B2F5806F7FF41BAF1A6822F04002F4
:103060001A6015E7A268B2F5004F03D0B2F5806F81
:103070007FF434AF1A6822F040021A602EE700BFD6
:10308000002858D090F8393070B503F0FF0204469C
:10309000B3B32368354DE0686168022284F83920B3
:1030A000AB421A6849D0B3F1804F52D0A5F57C45A8
:1030B000AB422AD005F58065AB4226D005F5806588
:1030C000AB4222D005F57845AB421ED005F57055D0
:1030D000AB4213D005F58065AB420FD005F5806596
:1030E000AB420BD0A5F59835AB4207D005F580650E
:1030F000AB4203D005F58065AB4232D125692DE0A6
:1031000080F8382002F00AFAC3E7A568266922F0A1
:1031100070022A43164D22F440723243AB421A60C9
:10312000D862996201D162691A6301225A61002052
:1031300084F8392070BD01207047A668256922F007
:103140007002324322F440722A431A60D8629962B4
:10315000E9E7A668256922F07002324322F4407242
:103160002A431A60D8629962DFE700BF000001407D
:10317000000401400168022210B480F839200A6876
:103180000124034622430A60002083F839405DF899
:10319000044B70470368DA6842F00102DA601A688B
:1031A00042F001021A600020704700BF90F83830EA
:1031B000012B67D002220368F0B480F839209A68A6
:1031C0000C6822F47F4222F077020125402C80F81F
:1031D00038509A6000F0938018D9702C7FD02BD98A
:1031E000B4F5805F76D0B4F5005F1CD1D1E901520F
:1031F000CC6899682A4342EA042221F47F410A43B9
:103200009A609A6842F480429A600CE0102C42D096
:103210002FD9202C38D0302C05D19A6822F070029A
:1032200042F037029A600023012280F8392080F8AA
:103230003830F0BC18467047502C33D0602CF2D197
:103240001C6A4D68CE6824F010041C6299691A6AE1
:1032500021F4704122F0A00242EA051241EA06314F
:1032600099611A629A6822F0700242F067029A60CD
:10327000D9E7002CD7D19A6822F0700242F00702F9
:103280009A60D0E7022070479A6822F0700242F0FC
:1032900027029A60C7E79A6822F0700242F017028C
:1032A0009A60C0E71D6A1E6A4C68CF6826F0010666
:1032B0001E629A6925F00A0122F0F00242EA071222
:1032C00021439A6119629A6822F0700242F0570213
:1032D0009A60A8E79A6822F007029A60A3E7D1E90A
:1032E0000152CC6899682A4342EA042221F47F41C2
:1032F0000A439A609A6842F077029A6093E71D6ADF
:103300001E6A4C68CF6826F001061E629A6925F095
:103310000A0122F0F00242EA071221439A6119627F
:103320009A6822F0700242F047029A607BE700BF81
:1033300090F83830012B45D002220368F0B480F8B1
:103340003920D1E900459A6822F070022A4322F020
:1033500007022243502D4FF0010480F838409A6054
:1033600046D01FD9602D30D0702D0AD1D1E902523C
:103370000C6999682A4342EA042221F47F410A43F6
:103380009A60DA6822F04002DA60DA6801240021EB
:1033900022F48042DA6080F8394080F83810F0BCBE
:1033A00008467047402DECD11D6A1C6A0E6924F056
:1033B00001041C629A6922F0F00242EA06129A6144
:1033C0001D62DEE70223184670471C6A8D680E698D
:1033D00024F010041C6299691A6A21F4704122F0E9
:1033E000A00241EA063142EA051299611A62C8E771
:1033F0001D6A1E6A8C680F6926F001061E629A69B2
:1034000025F00A0122F0F002214342EA07129A61F4
:103410001962B6E7704700BF704700BF704700BF32
:10342000704700BF03681A69910710B5044602D5BA
:10343000DA6892075FD41A69500702D5DA68510733
:1034400046D41A69120702D5DA6810072ED41A6911
:10345000D20602D5DA68D00618D41A69D10702D587
:10346000DA68D2075DD41A69100602D5DA68110647
:103470005FD41A69520602D5DA68500661D41A6917
:10348000910602D5DA68920643D410BD6FF010029F
:103490001A61DB69082213F4407F2276204664D04B
:1034A000FFF7BAFF002223682276D6E76FF0080202
:1034B0001A61DB69042299072276204652D1FFF770
:1034C000A9FF2046FFF7AAFF002223682276BEE765
:1034D0006FF004021A619B69022213F4407F227686
:1034E00020463CD1FFF796FF2046FFF797FF0022CA
:1034F00023682276A5E76FF002021A619B69012218
:103500009B07027625D0FFF787FF002223682276EB
:1035100091E76FF0200220461A61BDE8104000F0EC
:1035200051B86FF001021A61204601F0AFFE236826
:1035300099E76FF080021A61204600F045F8236891
:1035400097E76FF040021A612046FFF769FF236892
:1035500095E7FFF75FFF2046FFF760FFD5E7FFF72E
:103560005BFFC4E7FFF758FFAEE7FFF753FF2046C6
:10357000FFF754FF96E700BF90F83830012B1ED0BC
:1035800002460220136870B482F839005C6824F0A7
:103590007004D1E900565C60586828435860986808
:1035A00020F08000986099680024012531439960DB
:1035B000204682F8395082F8384070BC70470220AB
:1035C000704700BF704700BF704700BF002800F081
:1035D00004812DE9F84390F83930044603F0FF02E6
:1035E000002B00F0F58023682669242284F8392016
:1035F000D86820F40050D4E90225D8601969E06940
:1036000021F4405129431961D9686569324321F495
:1036100016412A4321F00C0102430A43DA605A6939
:10362000A16922F440720A43B0F5004F5A61AA4AD8
:1036300071D0934200F0D38002F58062934200F093
:10364000CE80FEF78DFEA54F636800EB800000EB97
:1036500080009B00B0FBF3F3A7FB03235B091D0174
:10366000FEF77EFE666800EB800000EB8000B6008F
:10367000B0FBF6F6FEF774FE636800EB800000EB2B
:1036800080009B00B0FBF3F3A7FB03235B094FF023
:10369000640909FB13631B013233A7FB03235B0996
:1036A00003F0F006FEF75CFE626800EB800000EBC2
:1036B00080009300B0FBF3F8FEF752FED4E900213E
:1036C00000EB80008B0000EB8000B0FBF3F3A7FB66
:1036D00003135B0909FB13831B013233A7FB03139D
:1036E000C3F3431333432B449360136923F4904390
:1036F0001361536923F02A035361D3680025202105
:1037000043F40053D3602846E56384F8391084F805
:103710003A10BDE8F883934200F09F8002F5806282
:10372000934200F09A80FEF71BFE6C4F636800EB3B
:10373000800000EB80005B00B0FBF3F3A7FB0323EA
:103740005B091E01FEF70CFE656800EB800000EBD4
:1037500080006D00B0FBF5F5FEF702FE636800EB3C
:10376000800000EB80005B00B0FBF3F3A7FB0323BA
:103770005B094FF0640909FB1353DB003233A7FBED
:1037800003231B0903F4F875FEF7EAFD626800EBFA
:10379000800000EB80005300B0FBF3F8FEF7E0FD83
:1037A000D4E9002100EB80004B0000EB8000B0FB6F
:1037B000F3F3A7FB03135B0909FB1383DB0032332D
:1037C000A7FB0313C3F3421333442B4493608CE7EA
:1037D00080F8382001F034FF05E701207047FEF73C
:1037E000CFFD3E4F636800EB800000EB80009B0044
:1037F000B0FBF3F3A7FB03235B091D01FEF7C0FD3C
:10380000666800EB800000EB8000B600B0FBF6F6C7
:10381000FEF7B6FD636800EB800000EB80009B00C4
:10382000B0FBF3F3A7FB03234FF064095B0909FB2B
:1038300013631B013233A7FB03235B0903F0F0067C
:10384000FEF79EFD626800EB8000930000EB8000B5
:10385000B0FBF3F8FEF794FD30E7FEF791FD1F4F44
:10386000636800EB800000EB80005B00B0FBF3F3CB
:10387000A7FB03235B091E01FEF782FD656800EBD1
:10388000800000EB80006D00B0FBF5F5FEF778FDE1
:10389000636800EB800000EB80005B00B0FBF3F39B
:1038A000A7FB03234FF064095B0909FB1353DB00FB
:1038B0003233A7FB03231B0903F4F875FEF760FD01
:1038C000626800EB8000530000EB8000B0FBF3F86F
:1038D000FEF756FD64E700BF001001401F85EB5165
:1038E000F0B50E4690F83910202983B02DD1002E66
:1038F0002ED0019262B31F4690F83830012B044657
:1039000023D00023C3630121212380F8381080F8DD
:103910003930FDF7A3FB019AA284E28422680546B0
:10392000E38C9BB2002B39D0E08CA168013880B2C7
:10393000B1F5805FE08419D0781C3BD11068010696
:10394000FCD5337853600136EAE7022003B0F0BDBE
:10395000012003B0F0BD13681B060CD4002F33D038
:10396000FDF77CFB401B874222682DD3781CF2D1E7
:1039700010680106FCD533882169C3F3080353603E
:103980000029E0D10236CBE713685B060BD4DFB128
:10399000FDF764FB401B8742226815D3781CF3D1E6
:1039A00013685906FCD52023002084F8393084F8A8
:1039B0003800CBE713681B06C3D42FB1FDF74EFBCD
:1039C000401B87422268B7D2D36823F4D073D360F8
:1039D0005369202123F0010300250320536184F85B
:1039E000391084F8385084F83A1003B0F0BD00BFA5
:1039F00090F83A30202B1CD1E9B1E2B190F8383080
:103A0000012B16D030B400230468C2852225C3637D
:103A100080F83A506569828545F00105816280F839
:103A200038306561E26842F490721846E26030BC5A
:103A30007047022070470120704700BF704700BFE9
:103A4000704700BF03681A6870B516070446D86847
:103A5000596973D011F0010179D0D60705D5C50594
:103A600003D5E56B45F00105E563560702F0020555
:103A700040F19F8069B1E16B41F00201E16302F026
:103A80000806002D40F09B801EB1E16B41F008015B
:103A9000E163E16B002959D0950628D5800626D52B
:103AA00094F83A20222A22D1A1682069A26AB1F5AD
:103AB000805F00F0D580511C5B68A16208B103F003
:103AC0007F0313702368E28D013A92B2E28572B9E6
:103AD000DA6822F49072DA605A69202122F0010239
:103AE0005A61204684F83A1001F066FB23685D694C
:103AF000E16B090703D415F0400500F09380DA6804
:103B000022F49072DA605A69202122F001025A618F
:103B100084F83A105A6952065DD55A69606B22F0F2
:103B200040025A61002856D0544B0365FEF774F9E1
:103B300060B1606BBDE87040036D1847950609D50C
:103B4000810607D594F83A20222A48D070BD10F497
:103B5000907F82D116060ED45106F7D54206F5D5D0
:103B6000DA68202122F04002DA60204684F8391019
:103B7000FFF764FF70BD0506EED594F83920212AC1
:103B8000E4D1A168226AB1F5805F50D0511C216256
:103B900012785A60E28C013A92B2E284002AD5D1BE
:103BA000DA6822F08002DA60DA6842F04002DA6015
:103BB00070BD4DB100293FF46CAF02F00806E16B17
:103BC00041F00401E1635FE716077FF562AF00296A
:103BD0007FF45BAF5DE72046FFF732FF70BDA16861
:103BE0002069A26AB1F5805F2AD0511C5B68A1628E
:103BF00008B103F07F031370E38D013B9BB2E385B3
:103C0000002BA3D12368DA6822F49072DA605A6933
:103C1000202122F001025A61204684F83A1001F076
:103C2000CBFA70BD2046FFF70BFFE56370BD11882E
:103C30002069C1F30801596050B902322262A9E734
:103C40005B6840B9C3F3080322F8023BA262D3E7E2
:103C5000013222629EE7DBB222F8013BA262CBE78F
:103C6000596828B9C1F3080122F8021BA2622AE7A9
:103C7000C9B222F8011BA26225E700BF813C0008FF
:103C800008B5836B0022DA851846DA84FFF7D8FE80
:103C900008BD00BF70B500231D4982B01C46834299
:103CA00005DA5A5C2A2A02D054400133F7E7194D4D
:103CB0001949EE5C0135224601A8ED5C02F03EFB9D
:103CC000102C06DC9DF804308DF8053030238DF87B
:103CD00004309DF80430A3F16102052A9CBF203B0B
:103CE0008DF804309DF80530A3F16102052A9CBFD0
:103CF000203B8DF805309DF80430B34205D19DF886
:103D00000500431B5842584100E0002002B070BD3E
:103D1000C0060020C1060020A88E000810B5044689
:103D200082B0018F406B0022FEF776FAB4F84010A3
:103D3000E06B0122FEF770FA04F14201606C0A2385
:103D40000122FEF799FD0A230DF10601606C0122A4
:103D5000FEF70EFF218F606B0122FEF75DFAB4F8CB
:103D60004010E06B0022FEF757FA218F606B0022B3
:103D7000FEF752FAB4F84010E06B0122FEF74CFA5D
:103D800004F14301606C0A230122FEF775FD0A234A
:103D90000DF10701606C0122FEF7EAFE218F606BD6
:103DA0000122FEF739FAB4F84010E06B0022FEF76A
:103DB00033FA9DF807209DF80630DFED0B7A43EAD1
:103DC000022300EE103AB8EEC00AB4EEE70AF1EEB4
:103DD00010FAC4BFDFED057A30EE670AD4ED0C7A35
:103DE00020EE270A02B010BD00FEFF46000080470B
:103DF00070B5744B036388B00446FFF78FFFD4EDB2
:103E0000037A714D30EE670A204684ED000AFFF711
:103E100085FFD4ED047A218F606B30EE670A0022B3
:103E200084ED010AFEF7F8F9B4F84010E06B0122C6
:103E3000FEF7F2F904F14201606C0A230122FEF759
:103E40001BFD0A23606C01A90122FEF791FE218F60
:103E5000606B0122FEF7E0F9B4F84010E06B00223D
:103E6000FEF7DAF9218F606B0022FEF7D5F9B4F87E
:103E70004010E06B0122FEF7CFF904F14301606CC2
:103E80000A230122FEF7F8FC0A23606C02A9012232
:103E9000FEF76EFE218F606B0122FEF7BDF9B4F8CC
:103EA0004010E06B0022FEF7B7F99DF808209DF85E
:103EB0000430DFED467A94ED056AD4ED0C4ADFED6F
:103EC000445A94ED005A43EA022307EE103AF8EE02
:103ED000C76A94ED017AF4EEE76AF1EE10FAC4BF16
:103EE000DFED3C7A76EEE76A27EE257A94EEA66A55
:103EF0000426DFED397AF0EE466A77EEC57A26EED3
:103F0000256ABDEEC77A67EEA57A17EE103ABDEEC8
:103F1000C66A1AB2FDEEE77A16EE103A002A19B216
:103F200017EE903AC4ED026A1046B8BF02F1FF00E6
:103F300054421BB2E4B2D2B24FEA202058BF6242D0
:103F4000002B6872AA721A46B8BF03F1FF025842EA
:103F5000C0B2DBB24FEA222258BF43420029EA72C4
:103F60002B730B46B8BF01F1FF034A42D2B24FEAAE
:103F700023234FF00000C9B26B7358BF514208238E
:103F8000C022E8738DF81C002A6002926B600693D1
:103F900000220023A8692E72A973CDE90423FDF73E
:103FA000FBFB08B908B070BD0121A869FDF70CFC46
:103FB0000028F7D101AB02A9A869084AFDF794FBD4
:103FC00008B070BD295C8F3C8006002000FEFF46D3
:103FD0000000C84200008047000000008806002062
:103FE00030B57D4B036389B00446FFF797FED4EDEF
:103FF000097A7A4D30EE670A204684ED060AFFF70B
:104000008DFED4ED0A7A218F606B30EE670A0022B4
:1040100084ED070AFEF700F9B4F84010E06B0122C6
:10402000FEF7FAF804F14201606C0A230122FEF760
:1040300023FC0A23606C01A90122FEF799FD218F60
:10404000606B0122FEF7E8F8B4F84010E06B002244
:10405000FEF7E2F8218F606B0022FEF7DDF8B4F87E
:104060004010E06B0122FEF7D7F804F14301606CC9
:104070000A230122FEF700FC0A23606C02A9012238
:10408000FEF776FD218F606B0122FEF7C5F8B4F8CC
:104090004010E06B0022FEF7BFF89DF808209DF865
:1040A00004309FED4F7AD4ED0C6A43EA022307EE09
:1040B000903AF8EEE77AF4EEC77AF1EE10FAC4BF60
:1040C0009FED487A77EEC77A94ED0B7A96EEA77A51
:1040D00017EE100AFCF700FA3DA3D3E90023FCF722
:1040E0009DF8FCF78BFCD4ED075ADFED3F7A9FED8E
:1040F0003F6A94ED067A206277EEE57A27EE067A3B
:1041000067EE867A06EE900AFDEEE77ABDEEC77A94
:1041100017EE903A66EE866A1BB2002B4FF005044C
:1041200017EE102A1846FDEEE66AB8BF03F1FF004D
:104130002C725C4211B2E4B2DBB24FEA202058BFCD
:10414000634216EE902A00296872AB720B46B8BF24
:1041500001F1FF03484212B2C0B2C9B24FEA2323B1
:1041600058BF4142002AEB7229731346B8BF02F1CF
:10417000FF035142C9B24FEA2323D2B24FF00000ED
:1041800058BF4A426B730823C021AA73E8738DF8A5
:104190001C006B60069300220023A869296002912D
:1041A000CDE90423FDF7F8FA08B909B030BD0121C3
:1041B000A869FDF709FB0028F7D101AB02A9A8699E
:1041C0000B4AFDF791FA09B030BD00BFAFF3008094
:1041D0001F85EB51B89E23402B009D3A800600209E
:1041E00000FEFF4600008047000000000000C842BB
:1041F0008806002010B5D0E9001288B000230446DC
:10420000806902910692CDE904338DF81C30FDF7E8
:10421000C3FA10B9002008B010BD0121A069FDF754
:10422000D3FA0028F6D101AB04F10802A06902A973
:10423000FDF75AFA012008B010BD00BF10B50021EB
:1042400088B004468069FDF765FB30B104F11003C6
:10425000A06901AA0021FDF7CBFA019808B010BDB2
:10426000F8B54FF41652404D404E42600C4628605F
:10427000FFF7ACF931461422C8232868FFF730FB5A
:104280004FF4FA70FCF7F0FE28684FF46143436086
:10429000FFF79CF931461422C8232868FFF720FB5A
:1042A0004FF4FA70FCF7E0FE28684FF4E133436006
:1042B000FFF78CF93146C823142228682C4EFFF7EB
:1042C0000FFB4FF4FA70FCF7CFFE2A492868C82389
:1042D0001122FFF705FB4FF4FA70FCF7C5FE2649E3
:1042E0002868C8233322FFF7FBFA4FF4FA70FCF773
:1042F000BBFE224B224A1868206003CAB3F804C0F0
:104300009F79204BDFF888E0E06021611288A2826B
:1043100003CBBEF80020A4F804C0A283DFF874C069
:10432000194AE0622163306819889B78A77184F884
:104330003630B788BCF80030E064B6791068A387DF
:10434000A065A186A4F8507084F852609188927993
:10435000A4F85C1084F85E2028680C490122FFF75D
:1043600047FB0120F8BD00BFBC060020AC8E000852
:10437000348F0008C48E0008D88E00080C8F000807
:10438000148F0008248F00083C8F00089C06002032
:10439000208F0008308F0008F0B5BD4B1B688342AA
:1043A00083B003D00024204603B0F0BDB94CBA4E10
:1043B00001220D462146FFF71BFBD6F8E420B74942
:1043C00023780B70012A08D0242BEBD1B44A0024A7
:1043D00001231460C6F8E430E5E7242BF6D0B04A98
:1043E000B04F10680D2B3B5404D00A2B02D0013083
:1043F0001060D7E700233B54B978C6F8E43047296A
:104400002BD05629CED1F9785429CBD139794729E7
:10441000C8D1CDE90032FFF73DFC01280446DDE9B3
:104420000032BFD11668DFF898C2052ECCF80030F4
:104430004BDD19461846052207E007293ED008291A
:1044400008BF32460132B2423CDA17F802E0BEF150
:104450002C0FF2D101310123F4E7FA78472AA1D1D8
:104460003A79412A9ED10093FFF714FC0128009B62
:1044700098D18D481F461E461C461A4600F15F0E15
:1044800016E0012A57D0022A68D0032A00F0AE8035
:10449000042A00F0A280052A00F0A580062A00F078
:1044A000EA80092A00F0E1800A2A5DD070455BD0DD
:1044B00010F8011F2C29E4D10132F7E705F800E0DC
:1044C0000130BFE70BB1CCF8001095F86330302B0A
:1044D00037D10023AB60D5E909124842734BC0B213
:1044E000CEB258BF464250429E72C0B24FF007064D
:1044F0001E72D6B258BF46421E7305F11C064FF419
:1045000080705E7391FBF0F192FBF0F25972DA72F7
:10451000AA6892FBF0F15042C0B2D2B24FF0D0067E
:1045200058BF4242082518469973DA73C3E90065FB
:10453000FFF760FE37E705EB030C01338CF85810EA
:10454000B4E7284601F095F90022594B51EC100BC5
:10455000FCF71AF8FCF72AFAA860BCE705EB040C94
:1045600001348CF80C10A1E795F86330302B3FD163
:104570000023C5E90933C5E911336B65D5E911405D
:104580006342DBB2E6B258BF5E424142474B6A6DBE
:104590009E72C9B2C7B258BF4F421F73574205F14E
:1045A0003C01FFB24FF48076597394FBF6F490FB14
:1045B000F6F04FF008015C72D872D4B2184658BFBA
:1045C0007C42D02792FBF6F2DC739A731F6019725B
:1045D00059600024FFF70EFEE5E605EB060C0136F8
:1045E0008CF82C1062E785F83C105FE729775DE7CF
:1045F00005F10C0001F03DF921A3D3E9002351ECB2
:10460000100BFBF7C1FFFCF7D1F9286205F12C0074
:1046100001F02FF91CA3D3E9002351EC100BFBF799
:10462000B3FFFCF7C3F9286405F14C0001F021F950
:1046300000221F4B51EC100BFBF7A6FFFCF7B6F95D
:104640002E6A1C4B2C6C1C49686542F2107296FB5A
:10465000F2F203FB0266194B94FBF3F301FB0341F7
:10466000C5E90926C5E9113188E705EB070C0137D3
:104670008CF84C101AE785F8631017E7AFF3008049
:10468000000000000088C34000000000006AF840FD
:10469000BC0600209C060020A40300207C0600200D
:1046A0000C050020C0060020C40600208006002063
:1046B00000005940F0D8FFFF6079FEFFA08601009E
:1046C00078060020000000002DE9F0410546002298
:1046D000B2B04FF400719448FDF79EFDD5F86031FB
:1046E0001A6800235362536A022BFCD901224FF44B
:1046F00000718D48FDF790FDD5F860311A680023F0
:104700005362536A022BFCD9874800224FF4007190
:104710008046FDF781FD00242646ADF10407012205
:104720004FF400714046FDF777FDD5F860311A6807
:104730005662536A022BFCD94FF480717A48FDF718
:1047400065FDA0F10100B0FA80F040090F2C47F898
:10475000040F55D000224FF400714046FDF75CFD78
:10476000D5F860311A685662536A022BFCD90F2CB7
:1047700001D00134D3E7DDE90023012A0CBF4FF457
:1047800080400020012B00F0C080029B012B00F034
:10479000B380039B012B00F0A680049B012B00F04B
:1047A0009980059B012B00F08B80069B012B7ED00E
:1047B000079B012B72D0089B012B66D0099B012B14
:1047C0005AD00A9B012B4ED00B9B012B42D00C9B45
:1047D000012B36D00D9B012B29D00E9B012B1DD018
:1047E000FBF768FE4EA3D3E90023FBF7F7FF002297
:1047F0004E4BFBF7C9FE41EC100B32B0BDE8F08127
:1048000001224FF400714046FDF706FDD5F86031F6
:104810001A685662536A282BFCD9A4E7FBF74AFEB4
:104820000022434BFBF7FAFCFCF7C0F8D8E7FBF794
:1048300041FE00224FF08043FBF7F0FCFCF7B6F896
:10484000CBE7FBF737FE00223A4BFBF7E7FCFCF720
:10485000ADF8BFE7FBF72EFE0022374BFBF7DEFC7F
:10486000FCF7A4F8B3E7FBF725FE0022334BFBF778
:10487000D5FCFCF79BF8A7E7FBF71CFE0022304BAA
:10488000FBF7CCFCFCF792F89BE7FBF713FE00224A
:104890002C4BFBF7C3FCFCF789F88FE7FBF70AFE0C
:1048A0000022294BFBF7BAFCFCF780F883E7FBF703
:1048B00001FE0022254BFBF7B1FCFCF777F877E708
:1048C000FBF7F8FD00224FF08143FBF7A7FCFCF754
:1048D0006DF86AE7FBF7EEFD00221D4BFBF79EFC2F
:1048E000FCF764F85DE7FBF7E5FD0022194BFBF7E9
:1048F00095FCFCF75BF850E7FBF7DCFD0022164B5C
:10490000FBF78CFCFCF752F843E7FBF7D3FD0022E2
:10491000124BFBF783FCFCF749F836E7AFF3008056
:1049200062105839B4C04640000802400000E03F21
:104930000000F03F00001040000020400000304028
:104940000000404000005040000060400000704007
:10495000000090400000A0400000B0400000C040B7
:104960002DE9F043036889B00446002B00F0D7809E
:10497000012B00F0E180022B02D009B0BDE8F083EA
:10498000D0ED556AD0ED547A9FED737A77EEE67AE2
:104990004FF47A73C7EE877AC4F8583117EE900A4D
:1049A000FBF79AFD6AA3D3E90023FBF7EDFD06466A
:1049B000D4F85C010F46FBF78FFD02460B463046EC
:1049C0003946FBF7E1FD00220023FBF707FFD4E99E
:1049D0003A6732463B4680468946FBF71DFCFBF7AB
:1049E000E5FF80EAE07500225C4BA5EBE0753946F7
:1049F0003046FBF7C9FDFBF7D9FF0028B8BF40429E
:104A0000854200F39680702204F1B00104F1A80001
:104A100000F05EFF00220023C4E94689D4E92A01A0
:104A2000FBF7FCFBD4E92C23FBF7F8FBD4E92E239E
:104A3000FBF7F4FBD4E93023FBF7F0FBD4E9322396
:104A4000FBF7ECFBD4E93423FBF7E8FBD4E936238E
:104A5000FBF7E4FBD4E93823FBF7E0FBD4E93A2386
:104A6000FBF7DCFBD4E93C23FBF7D8FBD4E93E237E
:104A7000FBF7D4FBD4E94023FBF7D0FBD4E9422376
:104A8000FBF7CCFBD4E94423FBF7C8FB42464B467B
:104A9000FBF7C4FB0022324BFBF7A0FEC4E9520136
:104AA00000232360FBF782FF00B200282D4C024652
:104AB000B8BF00F1FF0245424FF00603EDB24FEAE6
:104AC000222123724FF00002C3B258BF6B42D0269E
:104AD0000825A372E27222736273A273E2738DF8E7
:104AE0001C2000230022A069617226600296656086
:104AF0000695CDE90423FCF74FFE00283FF43DAFB7
:104B00000121A069FCF760FE00287FF436AFA069A0
:104B1000154A01AB0DEB0501FCF7E6FD2DE7FFF7AC
:104B2000D3FD2368013384ED020B236009B0BDE897
:104B3000F083D4E95201B3E7FFF7C6FD23680133E0
:104B400084ED040B236009B0BDE8F083AFF300806F
:104B5000EA2E4454FB2109400000B44300002440E5
:104B600000002E408006002088060020026981682F
:104B70008A420FDD511A6FF0630303FB01F3C16832
:104B800093FBF1F36433036043689A42A4BF0023AC
:104B90000360704764230360F6E700BF0369436066
:104BA000704700BF03698360704700BF70B594B061
:104BB0000020284A0090116C274B41F0805111646D
:104BC000126C02F080520092009A01901A6842F42E
:104BD00040421A601B68012003F440430224019301
:104BE0004FF4A0254FF4800108224FF490730790F2
:104BF00007A8019E08950D94CDE911441394CDE9C1
:104C00000E121093FDF724FC00B1FEE702464FF4AC
:104C1000A0530F25042102A8CDE903420295CDE956
:104C20000533FDF7FDFA044600B1FEE7FDF792FB00
:104C30004FF47A73B0FBF3F0FDF728F80420FDF78A
:104C40003FF8224621464FF0FF30FCF7DDFF14B05D
:104C500070BD00BF00380240007000402DE9804860
:104C600091B00024A74DFCF7D3F9FFF79FFF019403
:104C70002B6BA54843F080032B632B6B03F0800361
:104C80000193019B02942B6B43F001032B632B6B6D
:104C900003F001030293029B03942B6B43F0020386
:104CA0002B632B6B03F002030393039B04942B6B86
:104CB00043F004032B632B6B03F00403049322469D
:104CC0004FF40071049BFDF7A7FA22464FF4807160
:104CD0008E48FDF7A1FA01260BA98B484FF4007905
:104CE000CDE90D44CDE90B96FDF77EF94FF48073C5
:104CF0000BA986480B93CDE90C640E94FDF774F96B
:104D000000942B6B43F480032B632B6B03F4800321
:104D10002246009321463820009BFCF775FF38207F
:104D2000FCF7A8FF7A4B7B4A9C604FF4E1380C27D4
:104D30001846C3E90344C3E90644C3E900285F6198
:104D4000FEF744FC00B1FEE7734D744A2A6002236B
:104D50004FF480026B604FF48033A860E8602877DE
:104D600068774FF430212846C5E905232961FCF70F
:104D700083FB00B1FEE76A4B6A4CC3F81890C3E9A5
:104D80000200C3E904004FF48271C3E90700C3E9DC
:104D900009000A2218461C605960DA62FDF72CFDF2
:104DA00000B1FEE7604C614B614A2062C4E901003A
:104DB000E062E0602046A3622661A661E6612663A8
:104DC00066612260FCF762F9034600B1FEE7082243
:104DD00020460BA90B920C960D93FCF79FFA024606
:104DE00000B1FEE7534B5449C3F804801846C3E9A9
:104DF0000222C3E90427C3E906221960FEF7E6FB95
:104E000000B1FEE74D4C4FF080412422A0602061AC
:104E10004FF47A73204621606260E360FEF730F958
:104E200000B1FEE710AF4FF4805347F8243D204611
:104E30003946FEF7BBF9034600B1FEE70BA9204651
:104E4000CDE90B33FEF774FA034600B1FEE72046C6
:104E500005A9CDE90533FEF78FFB00B1FEE7384E1B
:104E6000384B336012234FF6DC72736030460023F8
:104E7000C6E902323361FEF703F900B1FEE74FF4F1
:104E8000805A0BA93046CDF82CA0FEF78FF90346C7
:104E900000B1FEE739463046CDE90733FEF76CFB3B
:104EA000034600B1FEE7284C284AA0604FF4616930
:104EB0004FF4FA6820462361C4E90029C4F80C8045
:104EC000FEF7DEF800B1FEE70BA92046CDF82CA0D6
:104ED000FEF76CF9034600B1FEE720463946CDE9FE
:104EE0000733FEF749FB00B1FEE7194C194A206170
:104EF000C4E902082423204622606360FEF7C0F85C
:104F000050B3FEE7003802400008024000000240B3
:104F1000D40A002000440040140B0020006400402C
:104F2000400A002000300140080900200100000F65
:104F3000002001405C09002000100140980A002078
:104F4000A4080020000400408C0700200008004056
:104F500068080020000C00400BA92046CDF82CA0CA
:104F6000FEF724F9034600B1FEE739462046CDE9B5
:104F70000733FEF701FB024600B1FEE77A4B7B499F
:104F8000C3F804901846C3E902281960FEF778F8C0
:104F900000B1FEE700230BA97348CDE90B33FEF700
:104FA000EBFA00B1FEE7724C724AA0604FF4FA636C
:104FB00020464FF02409E3602260C4F80490FEF715
:104FC0005FF8034600B1FEE70BA92046CDE90B339D
:104FD000FEF7D2FA034600B1FEE7DFF8D481664F50
:104FE000D8F80010C7F804904FF4967202FB01F253
:104FF00038466249FA60BB603B613960FEF740F8B1
:10500000044600B1FEE7024601461320FCF7FCFD12
:105010001320FCF72FFE224621461420FCF7F4FD56
:105020001420FCF727FE224621461520FCF7ECFD54
:105030001520FCF71FFE224621461620FCF7E4FD52
:105040001620FCF717FE224621461220FCF7DCFD55
:105050001220FCF70FFE224621463720FCF7D4FD34
:105060003720FCF707FE224621463620FCF7CCFD10
:105070003620FCF7FFFD224621463220FCF7C4FD16
:105080003220FCF7F7FD224621461C20FCF7BCFD30
:105090001C20FCF7EFFD224621461920FCF7B4FD49
:1050A0001920FCF7E7FD364B36489C610122194672
:1050B000C3E90742C3E90044C3E90244C3E9044425
:1050C000FCF75CFA2F48FCF7E1FA14212D48FCF7B5
:1050D00035FC15212B48FCF731FC2B4B2B4A2C4976
:1050E000DFF8D0C095614FF400704FF480725963BF
:1050F000188728492848C3F83CC0A3F84020FFF788
:10510000AFF8264B264A2748C3F85C014FF4C0612C
:1051100040F6C77C4FF0000A4FF0000B40F6C71571
:105120002148D1601C60C3E952ABC3F86061C2E999
:1051300001C5FEF71FF81D48FEF71CF83846FEF7BC
:1051400019F81948FEF726F81848FEF723F83846EC
:10515000FEF720F8D8F80410D8F84020D8F87C30B2
:105160004C6254625C62FEE7000A002000100040BE
:10517000480B0020001400402C080020004401408F
:10518000E0080020140B0020C0040020800600204E
:1051900000080240C80700205C090020100500201C
:1051A000A0060020A913D03E980A0020A4080020E1
:1051B00008000020000002400149FFF7EDB800BFE1
:1051C000C807002038B52E48FFF738F8552822D0F8
:1051D00040F2012398421ED0A02801D0AA2849D12C
:1051E000274B1B7CDA1E022A23D9082B21D0D82B6F
:1051F0001FD0BB280ED1224C258A022D1DD0B5F51B
:10520000817F29D01F4AD2E901315B1A002BB8BF38
:105210005B42D36038BD1A4B1B7C512B09D0033B3A
:10522000DBB2082BD8D840F2A71222FA03F3DB072F
:10523000D2D5154B01221A6038BD1248FFF7B2FCD7
:105240000021BC2208232046C4E90251C4E90023FE
:10525000FEF7D0FF258AD2E70A48FFF79FFC00211E
:10526000BC2208230648C4E90251C4E90023FEF722
:10527000C1FFC7E740F281139842B1D0B9E700BF40
:1052800080060020A00600208C040020204B8342D2
:1052900000D0704770B51F4C6368062B09D8DFE853
:1052A00003F0040404101A0815001B48FFF758FB0C
:1052B0006368072B02D00133636070BD0023636015
:1052C00070BD1648FEF78CFE6368F2E7A5683DB135
:1052D0000022A260EFE71148FEF78AFD6368E8E765
:1052E0000F4E3046FFF742FC0E4B32685A72C02117
:1052F00008225D819D81DD81184602261E72C3E968
:105300000012FEF777FF0123A3606368D1E700BFB7
:105310002C0800208C04002010050020C004002070
:10532000A006002080060020024A034B12681A6182
:10533000704700BF3C0B0020A0060020FEE700BF26
:1053400010B582B00024224B00945A6C42F4804283
:105350005A645A6C02F480420092009A01941A6CCA
:1053600042F080521A641B6C03F0805301930320B7
:10537000019BFCF737FC224621466FF00B00FCF73F
:1053800043FC224621466FF00A00FCF73DFC224612
:1053900021466FF00900FCF737FC224621466FF0EA
:1053A0000400FCF731FC224621466FF00300FCF7B5
:1053B0002BFC224621466FF00100FCF725FC22461B
:1053C00021464FF0FF3002B0BDE81040FCF71CBC96
:1053D000003802401E4B02689A4200D0704770B5F8
:1053E00086B0002603F58C3300965A6C194C42F4B3
:1053F00080725A645B6C039603F4807300930122FD
:1054000003230099019201A9054613480293FCF772
:10541000EBFD124820604FF480614FF400624FF4BE
:10542000005320466660C4E90266C4E90766666206
:10543000C4E90412A361FCF755FC18B9AC63A56379
:1054400006B070BD75210648FFF778FFF6E700BF8C
:1054500000200140A0090020000402401064024026
:10546000448F00080268174B9A4200D07047F0B58D
:1054700087B0002703F5EA3300971A6C124842F010
:1054800000721A641B6C03F0007300934FF4006207
:1054900001A9022601230325009C01920924CDE9DC
:1054A0000263CDE90454FCF79FFD4FF4805301A93A
:1054B00005480193CDE90267CDE90454FCF794FD5A
:1054C00007B0F0BD00640040000002400268114BCC
:1054D0009A4200D0704770B586B0002103F584333E
:1054E00000915A6C0C4842F480525A645B6C0391F0
:1054F00003F48053009303220523E025022401A92D
:10550000009ECDE90154CDE90423FCF76DFD06B002
:1055100070BD00BF003001400000024000B50368CC
:10552000B3F1804F89B01ED03E4A93424ED03E4ADE
:10553000934228D03D4A934257D03D4A934263D08C
:105540003C4A934235D03C4A934219D13B4B00220E
:1055500007925A6C42F400325A645B6C03F40033D5
:105560000793079B0CE003F50E33002201921A6C9F
:1055700042F001021A641B6C03F001030193019BCA
:1055800009B05DF804FB00222C4B0392196C41F02A
:10559000040119641B6C03F00403039311461E20DD
:1055A000039BFCF731FB1E2009B05DF804EBFCF710
:1055B00061BB224B002206921A6C42F020021A6450
:1055C0001B6C03F020030693069BD9E71B4B0022BC
:1055D00002921A6C42F002021A641B6C03F002037E
:1055E0000293029B09B05DF804FB144B0022049265
:1055F0001A6C42F008021A641B6C03F0080304934F
:10560000049B09B05DF804FB0C4B002205921A6C58
:1056100042F010021A641B6C03F010030593059B03
:10562000AEE700BF0004004000080040000C00404E
:1056300000100040001400400044014000380240C7
:1056400070B50368284A934288B028D0274A93420D
:1056500001D008B070BD0024254B0294196C254878
:1056600041F4003119641B6C03F4003302930221EE
:105670000C23032203930491072303A90125079315
:10568000CDE90552029EFCF7AFFC224621462620BA
:10569000FCF7BAFA2620FCF7EDFA08B070BD00243A
:1056A000134B0194596C134841F0100159645B6C21
:1056B00003F01003019302214FF4C063032203930C
:1056C0000491072303A901250793CDE90552019E03
:1056D000FCF78AFC224621462520FCF795FA252076
:1056E000FCF7C8FA08B070BD00100140004400404B
:1056F0000038024000000240704700BFFEE700BFD4
:10570000FEE700BFFEE700BFFEE700BF704700BF37
:10571000704700BF704700BF08B5FBF793FCBDE8BA
:105720000840FCF7DBBA00BF0148FBF761BD00BFD2
:10573000080900200148FCF72DB900BF140B002018
:105740000148FCF727B900BF140B00200148FCF703
:1057500021B900BF140B00200148FCF71BB900BFA2
:10576000140B00200148FDF75DBE00BF2C0800208F
:105770000148FDF757BE00BF980A00200148FDF719
:1057800051BE00BF8C0700200148FEF75BB900BF87
:105790005C0900200148FEF755B900BFD40A00207B
:1057A0000148FDF73FBE00BF680800200148FDF733
:1057B00039BE00BF000A00200148FDF733BE00BF1C
:1057C000480B00200148FCF739BB00BFA0090020AE
:1057D0001049114BD1F8882042F4700210B4C1F87E
:1057E00088201A680D4C002042F001021A6098606F
:1057F0001A6822F0847222F480321A605C601A689F
:105800004FF0006422F480221A60D8608C605DF84A
:10581000044B704700ED00E00038024010300024D7
:10582000DFF834D0002103E00C4B5B5843500431C7
:105830000B480C4B42189A42F6D30B4A02E0002365
:1058400042F8043B094B9A42F9D3FFF7C1FF00F03D
:1058500013F8FFF703FA70470000022020920008B7
:10586000000000208403002088030020880B002013
:10587000FEE7002101F094BB70B50D4E0D4CA41B4A
:10588000A4100025A54209D10B4E0C4C03F0EEFAF2
:10589000A41BA4100025A54205D170BD56F82530E3
:1058A00098470135EEE756F8253098470135F2E77D
:1058B0001892000818920008189200081C9200081C
:1058C000024B0146186800F073B800BFB401002015
:1058D000884210B501EB020307D8421E99420AD054
:1058E00011F8014B02F8014FF8E78342F5D981180E
:1058F000D21AD34200D110BD13F8014D01F8014D69
:10590000F7E702440346934200D1704703F8011BB6
:10591000F9E7000038B50546002945D051F8043CA8
:105920000C1F002BB8BFE41802F0E5FC1F4A1368F7
:10593000104633B9636014602846BDE8384002F071
:10594000DBBCA3420CD921686218934204BF1A68D9
:105950005B68636004BF521822600460ECE7134682
:105960005A680AB1A242FAD919685818A0420BD154
:1059700020680144581882421960DDD110685268CD
:105980005A6001441960D7E702D90C232B60D3E792
:10599000206821188A4204BF11685268626004BFFF
:1059A000091821605C60C7E738BD00BF980400207B
:1059B00070B5CD1C25F0030508350C2D38BF0C251E
:1059C000002D064601DBA94203D90C2333600020D9
:1059D00070BD02F090FC214A1468214691B9204C18
:1059E00023681BB9304600F099FC206029463046F8
:1059F00000F094FC431C24D10C233360304602F0A9
:105A00007BFCE4E70B685B1B18D40B2B0FD90B60F6
:105A1000CD50CC18304602F06FFC04F10B00231D72
:105A200020F00700C31AD3D05A42E250D0E78C428C
:105A30004B6816BF636013600C46EBE70C46496881
:105A4000CCE7C41C24F00304A04205D0211A304640
:105A500000F064FC0130CFD02560DBE79804002023
:105A60009C0400202DE9FF4755EC104B0D9FDDF8FD
:105A700030A0002D0E4691461946B8BF22462B464F
:105A800027F02007BBBF05F100431D4600232D234F
:105A9000B8BF1446462F0B7004D0452F00D10136F5
:105AA000022100E0032103AB019302AB00933246D5
:105AB000534645EC104B01F013FB472F804602D1B3
:105AC00019F0010F26D0462F08EB060911D198F8DE
:105AD0000030302B0AD10022002320462946FBF754
